:020000040800F2
:10000000E00A0020D50000083D3600086D19000800
:1000100000000000000000000000000000000000E0
:100020000000000000000000000000009D3B0008F0
:100030000000000000000000E93A00085D4D0008E3
:10004000E7000008E7000008E7000008E7000008F4
:10005000E70000084116000875160008AD160008F4
:1000600000000000E7000008E700000800000000B2
:10007000E7000008E7000008E700000800000000B3
:10008000E7000008E700000800000000E7000008A3
:1000900000000000E7000008E70000082D2300082A
:1000A00000000000E7000008E70000089D4D000880
:1000B000E700000800000000E70000080000000062
:1000C0000348854600F0C0FC00480047910A00083C
:1000D000E00A00200448804704480047FEE7FEE7A6
:1000E000FEE7FEE7FEE7FEE76D4D0008C1000008F1
:1000F00030B50B46014600202022012409E00D46C0
:10010000D5409D4205D31D469540491B2546954047
:1001100040191546521E002DF1DC30BD03460B433D
:100120009B0703D009E008C9121F08C0042AFAD2AD
:1001300003E00B780370401C491C521EF9D2704733
:10014000D2B201E00270401C491EFBD2704700226F
:10015000F6E710B513460A4604461946FFF7F0FFC6
:10016000204610BD421C0178401C0029FBD1801A9A
:100170007047F8B502464A40D40F42004B0052087F
:100180005B089A4202D20246084611464A0023D032
:10019000C30D4A00DDB2120EAD1A202D35DA490228
:1001A0000126490AF6058A19002C00D05242202166
:1001B0004F1B1146B9402A411018C20D9A4221D056
:1001C000002C17D0012D08DCDA05801AD20F801917
:1001D000D207DBB200F014FBF8BDDA05801A012368
:1001E00040001B06C01880185A428018CA0F1043DE
:1001F000490007E04908C2071143DA05801A80194F
:100200004008801800F0F4FAF8BD61000122511A8C
:10021000001BF7E70122D2075140AAE70122D207CB
:100220005040A6E7024670B54A40D30FDB074000B6
:100230002DD04A002AD0010E140E00021202091914
:10024000400A520A8418E50104465443000A120A7F
:100250002E045043A4194219200CC543AA18120CAD
:100260000125AD03521C521912047F39240400D019
:10027000521C104301D44000491EC2B20C06C009F2
:100280002018401C4008802A02D003E0002070BDE6
:1002900040084000002900DA0020184370BD70B506
:1002A00002464A40D50F40004A00ED074008520878
:1002B000002814D0002A12D0C40DD30D4102012011
:1002C000C0055202490A520AE41A091812187D346C
:1002D000914201D3641C00E04900002C01DA0020A7
:1002E00070BD0023914201D3891A0343400849009D
:1002F0000028F7D100290AD0914202D10121C90773
:1003000005E0914201D2012101E00121C943E0054C
:10031000C018401900F06CFA70BD0000F0B5074637
:100320000846584087B0C00F049048000E46590058
:1003300040084908BC1A884105D2384631461E4655
:1003400017460B4602465800400810434CD0300D6B
:10035000039040055900400D490D0590401A029048
:10036000402872DA18030121000B090508430190A7
:1003700004980092002805D001995242002088413B
:1003800000920190029840210A1A0199009800F009
:100390000CFA05460C466B4607CB00F016FAC0195E
:1003A0007141039A0E0D0023D71756401A467A4022
:1003B000164344D0049A002A2DD0029A012A039AA7
:1003C00015DC1205C01A914101263605001C714149
:1003D000D20F059ED2070093019202962A46234629
:1003E00000F054FA07B0F0BD38463146FAE716057A
:1003F000224A0F46B218C01AB74101210905001C54
:100400004F4100187F41114618187941E20F1043FF
:100410006D19644113E0E2076D0815436408C207D3
:100420001443039A01261205C01A91413605001C97
:100430007141CE07400830434908C01851412A464F
:10044000234600F016FACDE7FFE7049801224000AA
:10045000C117121A00238B4104983146C417381A69
:10046000A141EEE730B40124E407634030BC55E716
:1004700030B40124E407614030BC4FE70000E0FFE6
:10048000F0B51FB488B00B99099800244840099929
:10049000C00F490049080991C0070B990090490015
:1004A00049080B9109990898A64608431CD00B9956
:1004B0000A98084318D0099801244000420D4800CA
:1004C000410D099824050003000B204309900B9867
:1004D0000003000B20430B9050181C4940180022C9
:1004E00001901446104605E0002001460DB0F0BD15
:1004F000032801DA034600E003239C46C11A0AAE32
:100500000AE05F0008ADED5B4F00F75B7D4300271D
:10051000AA187C41491C5B1E6145F2DD410004AB19
:100520005A522104120C0A43240C401C0828DFDB19
:10053000019802900099704601910090059B049AE1
:100540000799069800F0A2F9D0E700000DFCFFFF24
:10055000F0B50C465C4085B0E40FE40703944C0012
:100560000026640859009446490802460296224330
:1005700021D062460A431ED06200570D4A000E0386
:100580002303550D012402462C492405781B1B0B1F
:10059000360B401823432643614600901C46501AF0
:1005A000B44103D30098401C009002E092180098D8
:1005B0005B41002803DA0020014605B0F0BD0020B1
:1005C000012109050746864611E064461D46141BB5
:1005D000B54106D36546521BB341744607430C43ED
:1005E000A646CD0740084908284392185B410546B6
:1005F0000D43EAD11046184313D0604619465040C7
:100600007140084306D06046101AB34106D2012259
:10061000002306E000220123DB0702E00122D2438F
:100620005310009874460105381C6141029C039DDB
:100630000019694100F01DF9BFE70000FD0300004B
:100640000122D207002800DB101A002900DB511A12
:10065000814201D201207047002070470122D20759
:10066000002800DB101A002900DB511A814201D951
:100670000120704700207047C217C10F504010B5CD
:100680004018CA079623002100F0BAF810BD10B533
:1006900000229623114600F0B3F810BD0EB50549AF
:1006A0000291002100910A460B46019100F0EEF8FC
:1006B00003B000BD33040000C20F4100400201231B
:1006C000400ADB05D207090EC0187F2901DA002095
:1006D0007047962903DC9623591AC84001E09639E1
:1006E0008840002AF4D040427047C20FD207400031
:1006F00040080BD0C10D0723DB01C91840020905D2
:10070000400A1143C20840071143704700200146C8
:100710007047CB0FDB07490010B5490802460A4372
:1007200007D00A0D07240903E401090B121B002A54
:1007300001DC002010BDC900440F0C43C100E018CB
:10074000D205801800F054F810BDF0B51FB406466D
:10075000002082B005464024019100901BE00199E1
:1007600022460F46304600F081F9049A059B801A14
:10077000994110D310461946224600F016F8361A51
:100780008F410197224601200021009F00F00DF8C3
:1007900038184D4100902046641E0028DFDC019B84
:1007A00000982946324607B0F0BD10B5202A04DB78
:1007B0000146203A9140002010BD914020239C1A10
:1007C0000346E3401943904010BD10B5202A06DBD4
:1007D000CB170846203A1041C1170B4306E00B46E1
:1007E0001341D0402024A21A91400843194610BD5D
:1007F000002904DA401C490001D14008400070473C
:1008000070B40024050C05D11024000402D1002985
:1008100021D01124050E01D100020834050F01D1A9
:100820000001241D850F01D18000A41C002801DBDC
:100830004000641C002908D020252E1B0D46F540E1
:10084000A14000D001212943084301061B1B000AD7
:10085000DB1D02D5002070BC7047DB05181880181E
:100860000029F8DA401C4900F5D170BC400840006E
:10087000704710B5002B08DA0024401C6141921823
:100880005B411A4301D14008400010BDF0B51FB4D0
:1008900082B005460C0003D0084605F08BFC02E050
:1008A00005F088FC20300246009021462846FFF7DC
:1008B0007CFF049B059A04460F46184311430843E6
:1008C00014D0184610431BD0009840210A1A18462D
:1008D000059900F0CBF805460E46009A0599049854
:1008E000FFF763FF084305D0012004E020463946A6
:1008F00007B0F0BD0020C11705430E432C4337431A
:1009000000990E986305401A7905E40A00220C4309
:10091000FD0A0A3002D500200146E9E70105101959
:1009200069410C9C0D9D00196941FFF7A2FFDFE7AB
:1009300070B54B005B0803430BD04B005C0D0026E9
:1009400033466542B341D417AD1AA34102DB002000
:10095000014670BD12053018514170BD0EB5C21769
:10096000C10F5040CA0740180021054B0293019265
:1009700000910A460B46FFF789FF03B000BD000057
:10098000330400004A0009030123090B1B05194326
:100990000A4B10B5520D9A4202DA0020014610BDF2
:1009A000064B34339A4203DC9A1A00F05FF810BD0C
:1009B000034BD218FFF7F9FE10BD0000FF03000043
:1009C000CDFBFFFF10B5002904DB0124E407404202
:1009D0008C412146002B04DB1C460123DB075242DD
:1009E000A3418B4200D1824210BD000010B5002906
:1009F00004DB0124E40740428C412146002B04DB48
:100A00001C460123DB075242A341994200D1904288
:100A100010BD000002000A4800D4821A002900DB41
:100A2000411A914204D301204007914200D1054868
:100A3000EFF300810902090A014381F3008870473E
:100A40000000008000000060064C0125064E05E015
:100A5000E36807CC2B430C3C98471034B442F7D3DF
:100A6000FFF732FB0C8900082C89000810B5202AFA
:100A700004DB0846203AD040002110BD0B46D3408D
:100A8000D0402024A21A91400843194610BD00000E
:100A900080B5002007490122D306C3580B50001D22
:100AA000C028F8D150070449086004F0C9FA0020B2
:100AB00080BDC0460000002008ED00E080B501F0D8
:100AC00061FE002805D101F0DBFE01F057FE002891
:100AD000FBD180BDF0B583B01C461546074602F039
:100AE0000FFA0028FBD102F063F901200190860281
:100AF000304602F0E3F802F0BBF902F00FFA0128E9
:100B0000FBD1FE20384002F021FA02F0E1F9012881
:100B1000FBD102F0DBF802F0ABF902F0FFF901289B
:100B2000FBD101980743384602F010FA02F0D0F9E1
:100B30000128FBD12746022C2C460BD0012F3D4625
:100B400017D0002D23D102F0C1F802F099F9002D41
:100B500031D123E002F062F9EFF3108072B602F0B7
:100B6000B5F8002002F0AAF862B63D46002D22D169
:100B700014E0002002F0A2F8EFF3108072B602F049
:100B8000A5F802F07DF962B6002D14D106E03046DA
:100B900002F094F802F09AF8002D0CD103B0F0BDE9
:100BA000029502262B4D02F0C7F9207002984519D4
:100BB000BC192804F2D0A8B2042814D20128029546
:100BC00022D0022829D102F095F90128FBD1EFF3B8
:100BD000108072B602F054F902F0AEF9207062B6DD
:100BE0002746641CDDE702F093F90128FBD102F0EF
:100BF000A3F920702746641C02F07CF90128CFD0AD
:100C00006D1E2804D7D1C9E702F082F90128FBD173
:100C10001048451C019E2746C5E702F06BF90128E4
:100C2000FBD1002002F04AF8EFF3108072B602F018
:100C300083F9207002F05EF90128FBD102F020F95F
:100C400002F07AF9607062B60248451E2746A41C7D
:100C50000326A8E7FEFF0000F0B581B01C4617464A
:100C6000064602F04DF90028FBD102F0A1F802F08F
:100C7000FFF802F053F90128FBD1FE200640304670
:100C800002F064F902F024F90128FBD102F01EF809
:100C9000002C05D102F0F4F801B0F0BD2004F9D029
:100CA0003E4602F041F90128FBD1307802F04EF9BE
:100CB000771C0094641E250402F01CF9002DEDD071
:100CC0000128EBD1707802F041F90098841EB71C1E
:100CD000E4E70000F0B581B0009316460F460546E4
:100CE000002402F00DF900281ED12B46009DC848B3
:100CF000817B002918D1069904228273FE221340B9
:100D000003704770466085818160806800210170B2
:100D100002F09CF81C48006814301C49086002F07E
:100D200047F802F0A5F80124204601B0F0BDC04606
:100D3000F0B581B01E4617460D46044600200090CF
:100D400002F0DEF800281CD1B148817B002918D1BF
:100D50000699012200928273FE22144004704570AD
:100D600047608681816080680021017002F06EF822
:100D70000548006814300549086002F019F802F0CF
:100D800077F8009801B0F0BDBC0600209406002062
:100D900080B501F03BFD01F0AFFDFFF78FFE0120B4
:100DA00002F0DEF8102001F03EFF202001F03BFFB2
:100DB00001F03EFD01F030FD01F052FD01F042FD79
:100DC00001F046FD01F054FD01F010FD01F0EEFCD4
:100DD00001F0F2FC01F002FD01F0E0FC80BD00003A
:100DE000B0B5094C0025256001F0EEFC01F0B6FC21
:100DF00001F004FD01F0BAFC0028FBD001F0AAFCD0
:100E000001F0C6FC2560B0BD28240140F0B583B0D8
:100E100001AD0227AF710124AC804020019028462B
:100E200001F0EEFD00202A4901F040FE0726304681
:100E300004F0CAF8304604F0AFF8AF71AC8001940A
:100E4000284601F0DDFD03200104204601F02EFEBE
:100E50000526304604F0B8F8304604F09DF8AF712E
:100E6000AC800197284601F0CBFD6120C1022046ED
:100E700001F01CFE304604F0A7F8304604F08CF870
:100E8000AF71AC8004200190284601F0B9FD3120FB
:100E90000103204601F00AFE0626304604F094F8CD
:100EA000304604F079F8AF71AC80082001902846F4
:100EB00001F0A6FD6320C102204601F0F7FD304697
:100EC00004F082F8304604F067F803B0F0BDC04685
:100ED00001100100F0B587B0002706970597049729
:100EE000039702970197232002F03AF8069702250C
:100EF0000595049703950320029010200190414826
:100F000001AC214601F0ECFD0697012605960497F9
:100F1000039502974020019005200007009021468C
:100F200001F0DEFD0697059604970395029701965A
:100F30005E48214601F0D4FD01955C48214601F050
:100F4000CFFD042001905948214601F0C9FD0697C4
:100F5000059604970395029708200190534821466F
:100F600001F0BEFD01F018FE059704970397029665
:100F7000300301900098214601F0B2FD01F00CFE13
:100F800007B0F0BDF0B58BB001F004FB0C270A9759
:100F90000126099608960224079406940594194898
:100FA00005AD294601F09CFD0A970996089607941D
:100FB000069405961348294601F092FD01F06CFC59
:100FC00001F088FC01F08EFC01F04AFF01F018FFEF
:100FD00000240494AA200390B00302900A480190D0
:100FE0000A4801A901F056FF04F00CF803F0DEFFF7
:100FF00001F01CFF01F0E4FE01F0EAFE04488473F6
:101000000BB0F0BD00140050801A060000540040E0
:10101000E0000020F0B58FB002270E9701242602D1
:1010200000960996214809AD294601F059FD0E9711
:101030000996052006073046294601F051FD0E9716
:10104000E00209903046294601F04AFD0D200E903D
:10105000600309903046294601F042FD00270797BA
:10106000059702946026019664200490484801ADDB
:1010700021462A4602F0E4F80497464821462A46CB
:1010800002F0DEF80497102142482A4602F0D8F810
:1010900000980790059702940196049721033D4814
:1010A0002A4602F0CDF80FB0F0BDC0460004005053
:1010B00080B501F091FF01F0B7FF01F0ADFF01F045
:1010C00091FF01F0A1FF80BD80B501F023FC01F08C
:1010D000F1FB01F0E5FF13480068134901400120CE
:1010E000C003081801F0F6FF01F0ECFF0128FBD166
:1010F00002F014F802F022F801F0B8FF0028FBD14A
:1011000002F014F801F05EFF02F02CF801F0E0FCB0
:10111000064802F02FF801F0E9FF01F0B9FF01F0F5
:10112000EDFF80BD100FFF1FFF1F000000366E0196
:10113000B0B586B0002505950495039502950195F7
:101140000124600401F0F2FBE00201F0EFFB01ACCE
:1011500025742580029504950C4803900C4D284673
:10116000214602F01DF8284602F00AF8284602F04F
:101170000DF8084D2846214602F012F8284601F0E5
:10118000FFFF284602F002F806B0B0BDE7030000FA
:1011900000440140002C014010B5044601F0D2FB90
:1011A0001D480068214602F013F902F033F902F0FD
:1011B0004BF902F041F902F035F902F04FF902F073
:1011C000B5F802F0A7F801F0D7FE01F0D5FE04242F
:1011D000204601F031FD204601F05EFD204601F081
:1011E00045FD204601F0F0FC0824204601F024FDD6
:1011F000204601F051FD204601F038FD204601F067
:10120000E3FC02F0A1F802F099F802F0A5F803F06F
:1012100003FF03F0D1FE10BDC400002080B5002004
:1012200001F04CFA002801D0012080BD002001F01F
:1012300029FA002801D0052080BD002001F02EFAF7
:10124000002801D0092080BD012001F037FA0028D4
:1012500001D0022080BD012001F014FA002801D045
:10126000062080BD012001F019FA002801D00A20D3
:1012700080BD022001F022FA002801D0032080BDA9
:10128000022001F0FFF9002801D0072080BD0220D4
:1012900001F004FA002801D00B2080BD032001F0EA
:1012A0000DFA002801D0042080BD032001F0EAF9E6
:1012B000002801D0082080BD032001F0EFF90028AC
:1012C00000D00C2080BD70B582B0044601AE002570
:1012D00035700620314601F09BF9307803F0A8FE06
:1012E0007D2109014018E0800520314601F090F988
:1012F000307803F09DFE20710420314601F088F91A
:10130000307803F095FEE070284602B070BD70B5ED
:1013100082B0044601AE002535700220314601F04E
:1013200077F9307803F084FEA0700120314601F097
:101330006FF9307803F07CFE60702846314601F08A
:1013400067F9307803F074FE20700320314601F015
:101350005FF9307803F06CFE2072284602B070BD51
:10136000F0B581B0009316460F4604460A2529467B
:10137000FEF7BEFE29464143611A00010843C1B28F
:10138000062001F05AF938462946FEF7B1FE2946F3
:101390004143791A00010843C1B2052001F04DF91B
:1013A00030462946FEF7A4FE29464143711A000142
:1013B0000843C1B2042001F040F9009C20462946B0
:1013C000FEF796FE4543611B00010843C1B20320AE
:1013D00001F033F9002001B0F0BDF0B581B0144642
:1013E0000E4607460A252946FEF782FE2946414356
:1013F000791A00010843C1B2022001F01EF93046FB
:101400002946FEF775FE29464143711A000108433B
:10141000C1B2012001F011F920462946FEF768FE0D
:101420004543611B00010843C1B20024204601F07E
:1014300004F9204601B0F0BDF0B585B06A480478E3
:1014400007466A48C2886A4E6AA1304604F08CFE9C
:10145000083C601E8441009400251024284629463B
:101460002246334602F0BAFA012600962020049064
:10147000624B2946224602F0B1FA3F785B48027976
:101480005F495B4804F070FE093F781E8741009772
:10149000282029462246564B02F0A0FA0096382012
:1014A00029462246554B02F099FA4F4807784F4893
:1014B000C2784F48524904F057FE0A3F781E8741D0
:1014C0000097402029462246494B02F087FA0096B1
:1014D00050204CA32946224602F080FA4248077861
:1014E000424882784248464904F03EFE0B3F781E4F
:1014F000874100975820294622463D4B02F06EFA5C
:1015000000966820404B2946224602F067FA36488A
:101510000778364842783648394904F025FE0C3FB2
:10152000781E874100977020039529462246304B4C
:1015300002F054FA0096284621462246324B02F029
:101540004DFA2948077829480278294D28462C4920
:1015500004F00AFE0D3F781E8741009708202146BF
:1015600022462B4602F03AFA0096182027A321467D
:10157000224602F033FA1C4807781C48027A24A15C
:10158000284604F0F1FD0E3F781E8741009737464C
:10159000049D284621462246154B02F01FFA00966C
:1015A000302002901BA32146224602F017FA009633
:1015B0001BA3039E30462946224602F00FFA0097ED
:1015C0001BA330460299224602F008FA1948007817
:1015D000012806D1009750203021102216A302F0D6
:1015E000FDF905B0F0BDC046920600203805002088
:1015F000760600202530346400000000D681000803
:10160000268300085F0000000F8200082E00000003
:1016100025640000B3A4B0B4C8B7C8CFBCFC0000B8
:1016200031C3EBD2D4C9CFCBC9BFAABAF3B1A3009F
:10163000B4E6000053050020D2D4B1A3B4E6000004
:1016400010B50124204601F027FA002804D1022019
:1016500001F022FA00280BD0204601F095F9022073
:1016600001F092F9104804707D20C00019490880EB
:1016700010BDC04680B5082001F00EFA002804D144
:10168000042001F009FA00280CD0082001F07CF9B0
:10169000042001F079F90448012101707D20C00087
:1016A0000C49088080BDC046BA06002080B54020A5
:1016B00001F0F2F9002809D0402001F065F9044852
:1016C000012101707D20C0000249088080BDC04614
:1016D000980600207406002010B582B00848026801
:1016E000084C09A1204604F03FFD01200090002095
:1016F00010220146234602F071F902B010BDC04627
:10170000342C01407606002050413850574DD5BC4E
:10171000BFD5B1C825640000F0B585B00491054679
:1017200040B2002800D50025002802D50498801C6E
:101730000490203A0A98102B06D0082B4ED1002690
:10174000002806D0304605E00026002824D0304688
:1017500023E0F043D1B2C900214A51180191C0B22F
:101760000090314602960498471801980391445C12
:1017700000984440A819C0B22146B140C9B2CA0974
:10178000F9B202F093F9761C082EF3D10399491CA3
:101790000829029EE7D121E0F043D1B2090101916D
:1017A000C0B2009031460296049847180198039100
:1017B00040180C490C5C00984440A819C0B221465E
:1017C000B140C9B2CA09F9B202F070F9761C082E0C
:1017D000F3D10399491C1029029EE5D105B0F0BD53
:1017E000B86F0008B0720008F0B587B0059104909A
:1017F00010781D4E3B2103E0491E2236002930D0CF
:1018000034788442F8D154787578A542F4D1002711
:10181000002B01D0384600E0F843C0B201903A46B0
:1018200003960297D0B2400805994518D007000FDB
:10183000049944180692B018867801984640E01939
:10184000C0B23146B940C9B2CA09E9B202F02EF9B4
:101850007F1C082FF3D1069A521C202A039E029F58
:10186000E0D107B0F0BDC046C0780008F0B585B043
:10187000039102901078C8282CD15078AB2829D138
:101880000026002B01D0304600E0F043C0B20090AB
:1018900034460196E0B20321FEF72AFC039A85182C
:1018A0000D4804940019847800984440C8000299B7
:1018B0004718B819C0B22146B140C9B2CA09E9B245
:1018C00002F0F4F8761C082EF3D1049C641C482C1A
:1018D000019EDFD105B0F0BD96800008F0B585B05F
:1018E000039102901078C8282BD15078AB2828D1CA
:1018F0000026002B01D0304600E0F043C0B200903B
:1019000032460196D0B28008039945189007C00E60
:10191000029944180C480492801887780098474030
:10192000A019C0B23946B140C9B2CA09E9B202F041
:10193000BDF8761C082EF3D1049A521C802A019E11
:10194000E0D105B0F0BDC046E0800008012804D019
:10195000002805D1044800687047024800687047B5
:1019600000207047DC0000204C050020FEE700004E
:10197000F0B585B030480189304A1181016840686E
:10198000116050600020049001F05EFF03F03EF80B
:10199000064602F0F5FFFEF77AFE294C2146FEF7D7
:1019A0007EFCFEF7A2FE05460F463046FEF76FFEB0
:1019B0002146FEF774FCFEF798FE02460B460095A2
:1019C0000197204C2049204604F0CEFB01260096CA
:1019D0001027049801463A46234601F0FFFF03F022
:1019E00019F8039002F0D0FFFEF751FE1449FEF7FC
:1019F00056FCFEF77AFE05460C460398FEF747FEB6
:101A00000F49FEF74CFCFEF770FE02460B460095B0
:101A100001940C4C20460C4904F0A6FB039600965A
:101A2000049839463A46234601F0D8FF02F092FD69
:101A3000002837D00AE0C046D0000020380500203A
:101A400000007A44760600201182000802F0E2FFCE
:101A5000FEF71DFE044602F097FFFEF718FE014652
:101A60002046FEF7DFFB0849FEF719FCFEF73DFEB6
:101A700004460D4602F07EFF0090044804A1224671
:101A80002B4604F071FB0DE000247449760600201B
:101A9000252E303266572025642525205546435390
:101AA0000000000002F0E8FC002829D002F0B2FF9C
:101AB000FEF7EDFD044602F067FFFEF7E8FD014684
:101AC0002046FEF7AFFB0849FEF7E9FBFEF70DFEE7
:101AD00004460D4602F04EFF0090044804A1224641
:101AE0002B4604F041FB0BE00024744976060020ED
:101AF000252E303266572025642525204146430097
:101B000002F018FD00281CD002F084FFFEF7BFFD94
:101B1000044602F039FFFEF7BAFD01462046FEF703
:101B200081FBF749FEF7BBFBFEF7DFFD04460D46E0
:101B300002F020FF0090F148F2A122462B4604F06B
:101B400013FB02F0FFFC00281CD002F063FFFEF73D
:101B50009EFD044602F018FFFEF799FD014620465F
:101B6000FEF760FBE649FEF79AFBFEF7BEFD044672
:101B70000D4602F0FFFE0090E048E7A122462B460A
:101B800004F0F2FA02F0F6FC00281CD002F042FF4A
:101B9000FEF77DFD044602F0F7FEFEF778FD0146F4
:101BA0002046FEF73FFBD649FEF779FBFEF79DFD89
:101BB00004460D4602F0DEFE0090D048DBA122462E
:101BC0002B4604F0D1FA02F0CDFC00281CD002F024
:101BD00021FFFEF75CFD044602F0D6FEFEF757FD3E
:101BE00001462046FEF71EFBC549FEF758FBFEF7EF
:101BF0007CFD04460D4602F0BDFE0090BF48D0A11A
:101C000022462B4604F0B0FA02F066FC00281CD0F5
:101C100002F000FFFEF73BFD044602F0B5FEFEF7C2
:101C200036FD01462046FEF7FDFAB549FEF737FBC3
:101C3000FEF75BFD04460D4602F09CFE0090AF48A7
:101C4000C4A122462B4604F08FFA02F03DFC002886
:101C50001CD002F0DFFEFEF71AFD044602F094FEEF
:101C6000FEF715FD01462046FEF7DCFAA449FEF713
:101C700016FBFEF73AFD04460D4602F07BFE00908F
:101C80009E48B9A122462B4604F06EFA02F014FCDD
:101C900000281CD002F0BEFEFEF7F9FC044602F05C
:101CA00073FEFEF7F4FC01462046FEF7BBFA9449AA
:101CB000FEF7F5FAFEF719FD04460D4602F05AFE4E
:101CC00000908E48AD4922462B4604F04DFA02F0B2
:101CD000EBFB00281CD002F09DFEFEF7D8FC04466A
:101CE00002F052FEFEF7D3FC01462046FEF79AFAB8
:101CF0008349FEF7D4FAFEF7F8FC04460D4602F0DD
:101D000039FE00907D489E4922462B4604F02CFA6D
:101D100002F008FC00281CD002F07CFEFEF7B7FCA5
:101D2000044602F031FEFEF7B2FC01462046FEF703
:101D300079FA7349FEF7B3FAFEF7D7FC04460D466D
:101D400002F018FE00906D488E4922462B4604F0A2
:101D50000BFA02F099FB00281CD002F05BFEFEF7A4
:101D600096FC044602F010FEFEF791FC0146204668
:101D7000FEF758FA6249FEF792FAFEF7B6FC0446FF
:101D80000D4602F0F7FD00905C487F4922462B4645
:101D900004F0EAF902F0BEFB00281CD002F03AFE83
:101DA000FEF775FC044602F0EFFDFEF770FC0146FD
:101DB0002046FEF737FA5249FEF771FAFEF795FC16
:101DC00004460D4602F0D6FD00904C486F4922466D
:101DD0002B4604F0C9F902F095FB00281CD002F054
:101DE00019FEFEF754FC044602F0CEFDFEF74FFC50
:101DF00001462046FEF716FA4149FEF750FAFEF773
:101E000074FC04460D4602F0B5FD00903B48604965
:101E100022462B4604F0A8F902F06CFB00281CD0E7
:101E200002F0F8FDFEF733FC044602F0ADFDFEF7CC
:101E30002EFC01462046FEF7F5F93149FEF72FFA50
:101E4000FEF753FC04460D4602F094FD00902B482B
:101E5000504922462B4604F087F902F01DFB00286A
:101E60001CD002F0D7FDFEF712FC044602F08CFDF8
:101E7000FEF70DFC01462046FEF7D4F92049FEF797
:101E80000EFAFEF732FC04460D4602F073FD009098
:101E90001A48414922462B4604F066F9039D0095F5
:101EA00000200490202110220292144B01F096FD94
:101EB00002F08EFD07464B20840002F09FFD06468F
:101EC0003648007860437D21C900FEF711F90446C9
:101ED0003846FEF70AFC02460B460096019430494C
:101EE000064C204604F040F9009530210498029AEF
:101EF000234601F073FD05B0F0BDC0467606002014
:101F000000247449252E303266572025642525206B
:101F10005346435000000000252E303266572025DE
:101F20006425252053564F4F43000000252E3032A4
:101F30006657202564252520564F4F433400000066
:101F4000252E30326657202564252520564F4F43D5
:101F500031000000252E30326657202564252520CB
:101F60005045322E30000000252E30326657202595
:101F7000642525205045312E310000009082000854
:101F8000B18200088082000870820008C5810008C4
:101F9000FF810008EF81000885810008D806002035
:101FA000C3820008F0B5D7B05520810002AC2046AE
:101FB000FEF7CDF8464806C8464B06C30088188091
:101FC00045480025057045480570022020704448AA
:101FD00000680A21FEF78CF80246601C41A104F05B
:101FE000C3F8032060742046123042490922FEF7EC
:101FF00095F82220042121540527380701210903DF
:1020000000F0ABFD0146264644362234601C002910
:1020100001D0394900E039490B22FEF77FF8677497
:1020200002AC2046343036490B22FEF777F8062002
:10203000307034480068FEF758FB02460B462046D5
:10204000453031A104F090F81020707456343249B4
:102050000A222046FEF762F8E9B2112002464A43FE
:1020600002AB9A5C002A03D06D1C1329F4D314250B
:102070000024290621460ED028490A780021CBB237
:10208000434302AEF35C9A4205D0EBB2491CCEB298
:102090009E42F4D32946C91E4AB2002A00DC2146DA
:1020A000C9B2484302A90D181C4E28783178081A85
:1020B000411E884100906B1C2007010E0020102259
:1020C00001F08CFC1135641C042CEED157B0F0BD2E
:1020D000D0000020380500205305002052050020C4
:1020E000402C01404C4544C1C1B6C820256425257B
:1020F0000000000044840008388400085084000870
:102100002C840008C8000020CEC2BFD8C9E8B6A8F9
:10211000D6B5252E306600002084000892060020E7
:10212000F0B587B0564D28895649088105CD05C1BF
:10213000083DEA882B79E878A9786C782D7800AE8C
:1021400033C6514C51A1204604F00EF801260096EA
:1021500000271022069238463946234601F03EFCFD
:1021600052480068FEF7C1FA04460D465048006820
:10217000FEF7BBFA02460B46009401954DA142487A
:10218000044603F0F1FF0096384606990A462346B6
:1021900001F024FC3846FFF7D9FB05903046FFF7E5
:1021A000D5FBFEF7A2FA05460C460598FEF79DFA08
:1021B00002460B460095019442A13348044603F0C1
:1021C000D3FF009620213846069A234601F006FCEC
:1021D00002F046F900280ED03E4800680A21FDF7BB
:1021E00087FF024626480378007A009026483AA1E5
:1021F00003F0BAFF3BE0224F02F038F900280DD07F
:10220000344800680A21FDF773FF02463B78387AAC
:1022100000901D4835A103F0A7FF28E02D4D02F0E6
:1022200013F900280CD028680A21FDF761FF024647
:102230003B78387A0090144831A103F095FF16E0FE
:1022400002F008F9044628680A21FDF751FF02460A
:10225000387A3B78002C05D000900B482DA103F074
:1022600083FF04E0009008482F4903F07DFF0096AB
:10227000002030211022044B01F0B0FB07B0F0BD6C
:10228000D000002038050020760600202530346478
:102290002D253032642D253032645F253032643A8A
:1022A000253032643A2530326400000048050020B1
:1022B00044050020252E303266A1E620252E30323E
:1022C00066A1E600252E303266A1E620252E3032AA
:1022D00066252500382C014046414E3A25642525C7
:1022E00020253032642E25642043310046414E3A89
:1022F0002564252520253032642E256420433200B4
:1023000046414E3A2564252520253032642E256429
:102310002041310046414E3A2564252520253032A2
:10232000642E256420413200E582000810B59148F2
:10233000006814309049086000F0F0FD00280ED0CD
:102340009348817B012903D0072903D0042906D1B2
:10235000007802E001780120084300F0F7FD00F06A
:10236000B7FD00282CD000F0B1FC894CA07B0728D9
:1023700006D0042810D0012822D10220A0731FE02B
:10238000A08900280BD0A089012814D1002000F0DA
:1023900095FC00F075FD13E00520A07310E000F03F
:1023A0001FFD00F06DFD00F01BFDA0680121017014
:1023B0000020A07304E0A0890120800200F07EFCD0
:1023C00000F098FD00283CD0714CA07B07280AD073
:1023D000062836D100F00CFD00F030FD0720A07378
:1023E00000F046FD2DE0A08902281BD100F048FD39
:1023F00000F0A2FD61684A1C62600870A089401E5E
:10240000A08100F099FD61684A1C62600870A08993
:10241000401EA08100F0E4FCA068012101700020B2
:10242000A0730EE0A08903280BD1002000F046FC29
:1024300000F082FD61684A1C62600870A089401E3D
:10244000A08100F065FD002823D0514CA089002810
:102450001FD0A07B07281CD1A089032817D00228F1
:1024600012D001286CD100F067FD61684A1C6260DF
:102470000870A089401EA08100F0B2FCA068012174
:1024800001700020A07304E0002000F017FC00F0B1
:1024900097FC00F049FD00281ED03D4CA07B05288C
:1024A00008D003280CD0022816D1607800F04EFD29
:1024B000032003E0607800F049FD0620A0730BE0E4
:1024C000A08900282FD06068411C6160007800F06E
:1024D0003DFDA089401EA08100F000FD00280DD028
:1024E00000F0FEFB00F06CFC00F072FC00F0C8FC99
:1024F00027480021817380680221017000F0F4FCFC
:1025000000280FD000F0F4FB00F038F800F058FC81
:1025100000F05EFC00F0B4FC1D480021817380686F
:102520000421017010BD00F0E5FC00281FD000F070
:102530004FFC00F0A5FCA068012101700020BDE760
:1025400000F0FAFC61684A1C62600870A089401EB5
:10255000A08100F0CFFC01289BD100F0EDFC616868
:102560004A1C62600870A089401EA08191E700F0BB
:1025700027FCB1E7BC0600209406002080B500F0DF
:102580006FFCFEF7FFFC02480021817380BDC0464E
:10259000E0000020F0B587B0002706970597049764
:1025A00003970297019700F0FFFA0C200090069025
:1025B000012405940497022503950294019513487C
:1025C00001AE314600F08CFA204600F01DFB009869
:1025D0000690059404940395029701940B483146A4
:1025E00000F07EFA00F0CAFA002801D007B0F0BD72
:1025F000022000F009FB00F0D7FA00F0BFFA002833
:10260000F4D0781C082F0746F2D3EFE700140050EF
:1026100070B582B00C4601AA1070D02000250126AA
:1026200029463346FEF718FBD12029462246334679
:10263000FEF750FA284602B070BD10B582B001AA6C
:102640000024148051701070D02002232146FEF720
:1026500003FB204602B010BD00213D480A46831806
:10266000997159711971D970997059700832202A6D
:10267000F5D10821017604210174022101720121A2
:1026800001707047032801D900207047C00030490D
:1026900008184079411E88417047C0460146002015
:1026A000032909D8C9002A4A51188A79002A03D077
:1026B000881D0021017001207047C046014600209E
:1026C000032909D8C900224A51180A79002A03D0DF
:1026D000081D0021017001207047C04680B500F040
:1026E00043FA4142484180BD70B50024184D06E0D0
:1026F00000207070012030710834202C27D02E1952
:10270000285DFFF7EBFF7178022918D0012909D065
:102710000029F1D10028EFD00120707000207071E5
:102720007080E9E70028E3D07088401C708080B298
:102730006428E1D30220707001207071DCE700286A
:10274000DAD10020707070710120B071D4E770BDD3
:102750009A06002008480421016070474C4801682F
:102760004C4A0A40511C01607047C046024800684C
:102770004007C00F7047C04600240140444800682D
:10278000C00F704742480168012008407047C046AA
:102790000148006880B27047402401400120400396
:1027A00032490A6882430A607047C0462F48016870
:1027B0000322914301607047012000032B490A68FE
:1027C00002430A607047C046024901400248016066
:1027D0007047C046FF1B0000282401400120000470
:1027E00022490A6882430A607047C0463720800148
:1027F0001E490A6882430A607047C046244801683F
:10280000244A0A40111D01607047C04680B500F09F
:10281000A9F800F0AFF880BD0F20000703490A684F
:1028200082430120400710180860704710240140BF
:102830000320800502490A6882430A607047C04647
:102840000827014009480168202291430160704730
:102850000120800305490A6802430A607047C046A8
:102860000248016818229143016070470C2401401E
:102870000248016807220A4302607047142401409D
:1028800003480168034A11408918163101607047F6
:1028900008240140EAFFFF7F81B0012040050C4978
:1028A0000A6802430A60096801400091009801B07B
:1028B0007047C04681B00120000705490A680243FD
:1028C0000A60096801400091009801B07047C04655
:1028D0003C1002400120400506490A6802430A6094
:1028E0007047C0460120400502490A6882430A60D9
:1028F0007047C0462C10024081B0012000051849E5
:102900000A6802430A60096801400091009801B01A
:102910007047C04681B0124801680122114301602E
:10292000006810400090009801B0704781B00C49D9
:102930000A6802430A60096801400091009801B0EA
:102940007047C04681B00120800305490A680243F0
:102950000A60096801400091009801B07047C046C4
:10296000401002400120000506490A6802430A603F
:102970007047C0460120000502490A6882430A6088
:102980007047C04630100240474908607047C04653
:102990000E490A6882430A607047C0460F490A68B8
:1029A00082430A607047C04610490A6882430A6041
:1029B0007047C04611490A6882430A607047C046A2
:1029C00002490A6802430A607047C0468418024000
:1029D00002490A6802430A607047C0460418024070
:1029E00002490A6802430A607047C04680180240E4
:1029F00002490A6802430A607047C0460018024054
:102A0000B0B504460068217900290ED0002814D002
:102A10006179022914D0012915D000291AD1FFF7B4
:102A2000B7FF2068FFF7DCFF12E0FFF7BDFF20686B
:102A3000FFF7AEFF00252846B0BD00252846B0BDF3
:102A4000FFF7CEFF01E0FFF7AFFF2068FFF7B8FF09
:102A5000002500E00125A07903280ED878440079EC
:102A60004000874401020D11E5E72068FFF796FF5B
:102A70002068FFF7BDFF2846B0BDAD1C2846B0BD9D
:102A80002068FFF797FF02E02068FFF7B1FF20689A
:102A9000FFF79EFF2846B0BD034909680140091AA7
:102AA000484248417047C0460C180240B0B50A0A77
:102AB000D2B20B0CDBB293408907090F034C0D59BE
:102AC0009D43904028430851B0BDC0466018024065
:102AD00002480168012291430160704700200240D2
:102AE000F0B581B00D460446096800292AD00027B8
:102AF00006E000F075F87F1C29680846F84021D0F0
:102B00000126BE400E40F6D06A682046314600F0ED
:102B100081F86868401E012804D8AA68204631461A
:102B200000F0B0F82A692046314600F096F868684F
:102B30000228E0D16A6920463146FF2ED9D800F03C
:102B400039F8D8E76868401E012803D8EA682046AB
:102B500000F07DF8002001B0F0BD00690840411A86
:102B60004842484170470000034909680140091A7A
:102B7000484248417047C04610040050024801686E
:102B8000012008407047C046101400500120000387
:102B9000044908607047C0460120000301490860ED
:102BA0007047C0462800005001480221016070476C
:102BB00028140050494349434A430F234B43016AB9
:102BC0009943114301627047404340430F21414301
:102BD000024A13688B430343136070472000005080
:102BE000090A494349434A430F234B43416A9943E6
:102BF0001143416270470000012000030149086051
:102C00007047C04618000050014908607047C04630
:102C10001814005049434A4303234B430168994326
:102C200011430160704740430321414305200007E1
:102C300002680A4302607047404303214143052272
:102C4000120713688B4340001843106070474A43D3
:102C500043688B4313434360704749434A4303230C
:102C60004B43C16899431143C160704740430321FE
:102C70004143034A13688B43034313607047C046C4
:102C80000C00005049434A4303234B438168994356
:102C900011438160704700004043032141430248D3
:102CA00002680A4302607047080000500122920245
:102CB000036893430B4303607047000001218902BE
:102CC000734A13688B4303431360704781B099487C
:102CD00001680091009940680090009801B0704729
:102CE0000120800293490A6882430A607047C04607
:102CF000012000028F490A6882430A607047C0467B
:102D0000F0B581B0009316460F4604462149384677
:102D1000FDF7EEF93F21C94362680A400243626051
:102D2000256A0D401C4A511C8E4208D34B218A0053
:102D300042437D20C1001046FDF7DAF9164A401CD7
:102D400028432062154D964204D9009D002D09D0DC
:102D5000192008E071003846FDF7CAF9284211D160
:102D600004200FE00320464338463146FDF7C0F902
:102D70000A49CA1C012110420A4600D002462A43D1
:102D8000C8031043E169064A0A400243E26101B008
:102D9000F0BDC04640420F00A0860100FC0F0000BD
:102DA0000030FFFF0168012291430160704700007D
:102DB0000120C00236490A6882430A607047C04653
:102DC0000120800225490A6882430A607047C04694
:102DD0000120400221490A6882430A607047C046C8
:102DE000032040021D490A6882430A607047C046BA
:102DF0000320400219490A6882430A607047C046AE
:102E00000120C00322490A6882430A607047C04615
:102E1000016801220A430260704700000120C002DD
:102E20001B490A6802430A607047C046012000023D
:102E30000A490A6802430A607047C04603204002FC
:102E400006490A6802430A607047C04603204002F0
:102E500002490A6802430A607047C04604540040B1
:102E60000120C0030A490A6802430A607047C0464D
:102E70000120000206490A6802430A607047C04602
:102E80000120400202490A6802430A607047C046B6
:102E900000540040B0B584B00D460446FFF782FFF1
:102EA00001A800F0E9F80CCD03992046083DFFF792
:102EB00027FFA968204600F043F82046FFF7A8FF47
:102EC000E9682046FFF7F2FE002004B0B0BD000024
:102ED000184800688007C00F7047C0461548006852
:102EE0004005C00F7047C04612480068C005C00FBB
:102EF0007047C0460F4800684007C00F7047C04683
:102F0000024800688007C00F7047C0461854004050
:102F1000084800684006C00F7047C0460548016871
:102F2000012008407047C046024800680006C00FF4
:102F30007047C0461454004008480068C0B270474B
:102F40008268FE239A430A438260704703490A68F5
:102F5000FF239A43101808607047C0461054004081
:102F600081B017490A6802430A600968014000916C
:102F7000009801B07047C04681B011480168012235
:102F800011430160006810400090009801B0704744
:102F900081B00B490A6802430A6009680140009148
:102FA000009801B07047C04681B005490A680243E5
:102FB0000A60096801400091009801B07047C0465E
:102FC000341002406A4803494160002181600521B4
:102FD000016070477FA903000E48016810229143E9
:102FE000016070470B4801680222914301607047FD
:102FF0000848016804220A430260704705480168D6
:103000000422914301607047024801680422914301
:103010000160704710ED00E00120800306490A6856
:1030200002430A607047C0460120400202490A6814
:1030300002430A607047C046007000400F20010242
:103040004148006808407047072001033E48006877
:10305000084070470720C1021D48006808407047BB
:1030600039480168382008407047C0463648016832
:10307000382008407047C04610B5044600F056FDA1
:10308000206000F033FD606000F040FDA06010BDE6
:10309000012000040E490A6882430A607047C04656
:1030A000012000020A490A6802430A607047C046CC
:1030B0000C480068C00A1C21014001484058704774
:1030C000A0780008024800684005C00F7047C0465D
:1030D0000010024003490A68034B134003430B608E
:1030E0007047C046041002400000FFFF024801681C
:1030F00001229143016070475C1002400248016860
:10310000012291430160704760100240024801684B
:10311000012008407047C0460C1002400F200002FA
:1031200009490A6882430A607047C04607200003C5
:1031300005490A6882430A607047C0460248016830
:10314000072291430160704708100240D34801688C
:103150000222914301607047D048016802220A436D
:1031600002607047CD48016802220A43026070473E
:1031700010E000E0014908607047C046C40000202C
:103180000121C903426C0A4342647047016801226D
:103190000A4302607047416901220A434261704755
:1031A00070B50D46044601681F4EB04202D01F485C
:1031B000844204D1702081436868084300E00846D7
:1031C0001B498C4208DDB4420CD01A498C4209D00C
:1031D00019498C4206D024E014498C4202D0174988
:1031E0008C421ED1032109028843E9680143216012
:1031F000A968204600F060F82988204600F05EF8B3
:10320000B44205D00B48844202D00B48844203D11B
:10321000297C204600F054F82046FFF7BCFF002030
:1032200070BD0146E3E7C046002C014000040040A9
:10323000FF2B0140004801400044014000200040B5
:10324000B0B503460120FF2909DC012914D010295B
:103250001DD11846114600F031FA0020B0BD0124FE
:103260002502A9420ED02403A14210D118461146CE
:1032700000F0B0FA0020B0BD1846114600F0E0F9A9
:103280000020B0BD1846114600F05CFA0020B0BD29
:10329000014908607047C0463444014041637047AB
:1032A0000148002101607047382C0140816370475C
:1032B000C163704701647047C162704781627047A3
:1032C0000163704781B03C480168009100994068F3
:1032D0000090009801B0704781B0374801680091B4
:1032E000009940680090009801B0704781B0324862
:1032F00001680091009940680090009801B0704703
:1033000081B02D48016800910099406800900098B4
:1033100001B070474020C043274908607047C0464D
:1033200051480168802291430160704701204003A9
:103330004D490A6802430A607047C0463D4801682B
:1033400001220A43026070470120000246490A68D0
:1033500002430A607047C0464348016820220A437E
:10336000026070474048016880220A43026070474B
:10337000114800688007C00F7047C0460E480068BB
:103380004007C00F7047C0460B4800680007C00FD9
:103390007047C04608480168012008407047C04691
:1033A000054800688006C00F7047C04602480068A4
:1033B0000006C00F7047C046003801402A48006828
:1033C0000006C00F7047C0462A480068C0B2704768
:1033D00070B5192250438900FCF78AFE0546642621
:1033E0003146FCF785FE04466320C0436043401924
:1033F000000132303146FCF77BFE0F210140F02204
:1034000002402001101880B240180149086070BDC8
:10341000083801400120000313490A6882430A600A
:103420007047C0460320000202490A6882430A60CE
:103430007047C04614380140032040020A490A6818
:1034400082430A607047C0460120400302490A686F
:1034500082430A607047C046103801400248016844
:103460000C220A43026070470C3801400149086091
:103470007047C0460438014081B008490A6800928C
:10348000401C01D30020C043009A002804D00A68E1
:10349000D203D2171018FAD101B0704710E000E043
:1034A000F0B587B000260696059604960396029618
:1034B000019601242046FFF76BFD02252846FFF701
:1034C00067FD0596049603950296302001905A4DAB
:1034D00001AE28463146FFF703FB28463146FFF789
:1034E000FFFAA00301900520070738463146FFF791
:1034F000F7FA6003019038463146FFF7F1FA802071
:10350000019028463146FFF7EBFA07B0F0BDC04600
:10351000F0B581B0012700970025102412A328469A
:103520002946224600F05AFA009713A3284621465E
:10353000224600F053FA0097202113A32846224682
:1035400000F04CFA1148008802B2114E11A1304629
:1035500002F00AFE0097302128462246334600F04A
:103560003DFA01B0F0BDC046B6CCB0B42EB3A4B0A5
:10357000B4BCD3C1C1B6C800D6B52CB5BDB4EFD765
:10358000EEB4F3D6B5BAF300D6C330005005002030
:1035900076060020C1C1B6C8D6B53A256400000041
:1035A00070B500210E4A0B4611E0144680252560B7
:1035B000402414601646083E36681461CD407404F9
:1035C000E4172C402343491C4000082905D044B28D
:1035D000002CEADB14461034E8E7D8B270BDC046D0
:1035E00018040050F0B587B000260696059604969C
:1035F00003960296019601242046FFF7D5FC02258A
:103600002846FFF7D1FC059602A870C04020009024
:103610000190F14801AF3946FFF762FA059602A81A
:1036200070C080200190EC4C20463946FFF758FAD4
:103630000098A06207B0F0BD000400507047000081
:10364000F0B581B0044601200090C043226A0240D8
:1036500022620A690240206A0326B04310430F68C1
:103660004D6805436268A069732398433843734BE0
:103670009C4205D0724B9C4202D0724B9C4214D1AA
:1036800033029A43009B5B024E6900968F69CE69B4
:103690009F43174372003A430C239D43009B5B08F2
:1036A000DB002B438D68AD001D436260A061C968DB
:1036B0002046FFF7F3FD256201B0F0BDF0B581B003
:1036C0000446006A102290432062206A3022904310
:1036D0000A695208520102430B6848680501154304
:1036E000606873221202A66996431F023743534B48
:1036F0009C4205D0524B9C4202D0524B9C4215D169
:1037000003239B0298434A6900928E69CB69B600F5
:103710000B4A32400243D8001043C0229543009A1E
:103720005208D2012A438B689D0115436060A7614E
:10373000C9682046FFF7BAFD256201B0F0BDC0465A
:10374000FCF7FFFFF0B583B004462048FF30226A43
:1037500002402262032002900002226A824308692A
:103760004008400210430E684A681502054362682B
:10377000E3697327BB433343304EB44205D0304E28
:10378000B44202D02F4EB44217D1029F3E03B2433F
:10379000486901908869CE69009606010C4830405E
:1037A0001043009A52010243B80285430198400831
:1037B000C00228438D68AD0205436260E361C968B9
:1037C0002046FFF775FD256203B0F0BD00FEFFFF48
:1037D000F0DFFFFFF0B581B0044601200203236A49
:1037E0009343236203221203236A93430A69520814
:1037F00052031A430E684B681D0315436368732216
:103800001202E769974332023A430C4EB44205D0A4
:103810000B4EB44202D00B4EB44205D18003834319
:1038200088698001184300E018466060E261C96859
:103830002046FFF73FFD256201B0F0BD002C01409E
:10384000004801400044014080B5002806D0012016
:1038500081029F48FF22FCF773FC80BD012081029A
:103860009B48FCF774FC80BDF0B581B00024984DF6
:1038700026463046B030214600F02CF9204621463D
:1038800000F028F91020214600F024F92746E85DD1
:10389000012100F01FF97F1C802FF8D18035761CA4
:1038A000082EE6D101B0F0BD10B58D2000242146D0
:1038B00000F010F91420214600F00CF9AF20214649
:1038C00000F008F910BD0000F0B587B000240694A0
:1038D0000594049403940294019401263046FFF762
:1038E00057FB02273846FFF753FB059404940397D0
:1038F000029630200190384801A90091FFF7F0F8B6
:103900000594049403970296B003019005200507DF
:1039100028460099FFF7E4F80594700301900D2004
:103920000690029728460099FFF7DAF810262A4FEA
:10393000BE6214252846FFF79FFDBE61E2202146A6
:1039400000F0C8F82846FFF797FDAE20214600F0AA
:10395000C1F8A220214600F0BDF82320214600F046
:10396000B9F8A020214600F0B5F8C820214600F0A3
:10397000B1F8A620214600F0ADF88120214600F0E4
:10398000A9F82020214600F0A5F8A420214600F047
:10399000A1F8F8252846214600F09CF82846214643
:1039A00000F098F82C20214600F094F82E202146B3
:1039B00000F090F82F20214600F08CF8402021469E
:1039C00000F088F82046FFF73FFFFFF74DFFFFF7B5
:1039D0006BFF07B0F0BDC04600040050F0B587B0E3
:1039E0001E461546069107461846FCF7BBFB059098
:1039F000002858D00C9804908020401B0190680843
:103A0000029000200446039605E0039E641CE0B289
:103A10000599814247D93256002A07D4102D13D078
:103A2000082D40D10626002A11D1EEE73218202DAC
:103A30001FD0182D24D0102D35D1F8B20699C9B257
:103A4000049BFDF7D1FE21E00826002ADDD0049872
:103A50000090F8B20699C9B2D2B22B46FDF75CFECF
:103A6000F719F8B2782800D90027039E7828CDD915
:103A700015E0F8B20699C9B2049BFDF72FFF05E0E7
:103A8000F8B20699C9B2049BFDF7F0FE01990298BD
:103A90003F18F8B2814200DA00278142B6DA069870
:103AA00040190690B2E707B0F0BD000010B507243A
:103AB0000C400123A340C908C901081804490C5C43
:103AC000002A02D01C430C5410BD9C430C5410BD62
:103AD000F000002080B5C0B2002902D001F048FA01
:103AE00080BD01F035FA80BD7047000010B5044676
:103AF000FFF7A4FA80093C210140034840581F21E8
:103B00000140CC40204610BD586F000810B5044657
:103B1000FFF79AFA000B8000034908581F21014063
:103B2000CC40204610BDC046986F000810B5FFF786
:103B300097FA0321C841401E03280BD80D4CC046FC
:103B40007844007940008744101201010120C40329
:103B5000204610BD08480068C00A1C2101400748E3
:103B60004458FFF777FAC00AC440204610BD00F061
:103B700007F810BD00366E0104100240A07800085E
:103B800080B5FFF7C3FA012801D1034880BDFFF7D4
:103B90008FFA400080BDC046006CDC027047000018
:103BA00070B5414D2878082800D978E0784400792C
:103BB00040008744040C1A283746505A64003020CD
:103BC00000F02CFF002863D02878401C2870B94EE4
:103BD000B11D0024204600F06BF8002861D0287841
:103BE000401C2870F088C000F080B24C214608319B
:103BF000012000F05DF800284AD02878401C287089
:103C0000208980002081AB4C21460A31022000F03F
:103C10004FF800283CD02878401C28706089072184
:103C200041436181A34C21460C31032000F040F850
:103C300000282DD02878401C2870A08905214143F8
:103C4000A1819C490E31042000F032F800281FD0D9
:103C50002878401C287097491031092000F028F876
:103C6000002815D02878401C2870924912310A206B
:103C700000F01EF800280BD02878401C28708D48D2
:103C8000018A0A4A914205D800202870012070BD9F
:103C9000002070BD002129704170012070BD0024FA
:103CA0002C70204670BDC046F0040020830C00003C
:103CB000B0B582B00C460146164D2878022819D0BE
:103CC000012809D0002821D1302000F07DF80028FB
:103CD00019D02878401C28707648401D0090782024
:103CE000312102232246FCF7F5FF00280BD028786B
:103CF000401C28706F484079002804D000202870AC
:103D0000012002B0B0BD002002B0B0BD002028707C
:103D100002B0B0BDF1040020F0B581B00446154FEB
:103D20003878012813D000281DD115460E46614869
:103D3000C11C204600F020F8002818D03878401C1C
:103D4000387035405B49C878B0432843C87059483B
:103D5000C178204600F038F8002808D000203870DC
:103D6000012001B0F0BD0020387001B0F0BD00208E
:103D700001B0F0BDF204002010B582B00A46014641
:103D8000104C207801280DD0002814D14948401D3E
:103D9000009078200123FCF79DFF00280FD02078A9
:103DA000401C207043484079002808D00020207033
:103DB000012002B010BD0020207002B010BD002014
:103DC00002B010BDF304002070B582B00C4601466D
:103DD000384E701D0090F21C782001252B46FCF710
:103DE000A7FF002801D0F47000E00025284602B0AB
:103DF00070BDC04610B582B02D4C2078062852D830
:103E00007844007940008744030B151F2D3442008D
:103E1000992000F003FE002842D02078401C20703A
:103E200024492C319920FFF7A7FF002838D02078AB
:103E3000401C20701F492D31A220FFF79DFF002854
:103E40002ED02078401C20701A4A501D0090263237
:103E5000782086210223FCF73DFF002820D020781F
:103E6000401C207013484079002819D02078401C4D
:103E700020701048826A401D00907820882103231A
:103E8000FCF728FF00280BD02078401C2070094840
:103E90004079002804D000202070012002B010BD1D
:103EA000002002B010BD0020207002B010BDC0463E
:103EB000F404002004050020B0B50F4D2878012837
:103EC00009D0002812D1202000F0A8FD002811D030
:103ED0002878401C2870202001242146FFF774FF19
:103EE000002807D0002028702046B0BD00242C7088
:103EF0002046B0BD0020B0BDF5040020B0B504469A
:103F0000134D2878012809D0002812D1A42000F0F0
:103F100085FD00280BD02878401C2870A42004219F
:103F2000002C0AD00A46FFF7F7FE00280BD100202C
:103F3000B0BD00242C702046B0BD00242246FFF7FF
:103F4000EBFE0028F7D0002028700120B0BDC0464D
:103F5000F6040020B0B50446134D2878012809D096
:103F6000002812D1A42000F059FD00280BD0287899
:103F7000401C2870A4200821002C0AD00A46FFF714
:103F8000CBFE00280BD10020B0BD00242C702046B1
:103F9000B0BD00242246FFF7BFFE0028F7D0002066
:103FA00028700120B0BDC046F7040020B0B504461B
:103FB000174D2878022818D0012809D0002824D1CC
:103FC000A52000F02BFD00281DD02878401C28706B
:103FD00005212046FCF78CF8C1B2A520FFF7F4FEBE
:103FE000002810D02878401C287005212046FCF7B6
:103FF0007FF8010AA620FFF7E7FE002803D0002083
:1040000028700120B0BD0020B0BD00202870B0BDD8
:10401000F8040020B0B5E94D2878272800D9C9E177
:104020004000C04678448088400087442700300024
:104030003A0042004C00560060006A0074008000A4
:104040008A009500A000AA00B400BF00C900D300F8
:10405000DD00E700F200FD00080114011F012A0144
:10406000350141014C0156015F01690173017D0178
:10407000870191019B01A501AC01B401202000F052
:10408000CDFC002800D193E12878401C2870202026
:104090000121FFF799FE002800D189E12878401C12
:1040A000287000F071FD002800D181E12878401CC3
:1040B000287025201D21FFF787FE002800D177E119
:1040C0002878401C287029200121FFF77DFE002858
:1040D00000D16DE12878401C287040208421FFF732
:1040E00073FE002800D163E12878401C2870452029
:1040F0005A21FFF769FE002800D159E12878401CB9
:1041000028704F205A21FFF75FFE002800D14FE1B1
:104110002878401C2870A220202100242246FFF786
:10412000FBFD002800D147E12878401C2870412081
:10413000800000F073FC002800D139E12878401C91
:104140002870002480212046FFF73EFE002800D181
:1041500032E12878401C2870042077212322FFF7C1
:10416000DBFD002800D123E12878401C28700820BE
:104170008D21FFF729FE002800D119E12878401C85
:1041800028700D203221FFF71FFE002800D10FE11B
:104190002878401C28700E20CF214F22FFF7BCFD4D
:1041A000002800D104E12878401C28700F20FA2153
:1041B000FFF70AFE002800D1FAE02878401C28709A
:1041C00010204921FFF700FE002800D1F0E02878F8
:1041D000401C287011200621FFF7F6FD002800D1B1
:1041E000E6E02878401C287012200221FFF7ECFD41
:1041F000002800D1DCE02878401C28701320F02132
:10420000C022FFF789FD002800D1D1E02878401CAA
:1042100028701520C0214022FFF77EFD002800D124
:10422000C6E02878401C287016205E210E22FFF779
:1042300073FD002800D1BBE02878401C28701720AF
:10424000C02100242246FFF767FD002800D1B3E01B
:104250002878401C287018203C210A46FFF75CFD96
:10426000002800D1A4E02878401C287019200F21D4
:104270000922FFF751FD002800D199E02878401C61
:1042800028701A2000242146FFF79EFD002800D147
:1042900092E02878401C28701F203F2100242246ED
:1042A000FFF73AFD002800D186E02878401C2870EE
:1042B0002020A72100242246FFF72EFD00287BD0D6
:1042C0002878401C28702220F021C022FFF724FD0E
:1042D00000286DD02878401C28702320E021FFF7AB
:1042E00073FD002864D02878401C28702420C02149
:1042F0000A46FFF711FD00285AD02878401C287084
:104300002B2038210A46FFF707FD002850D02878D7
:10431000401C28702C2011210A46FFF7FDFC0028C4
:1043200046D02878401C28704D200F210822FFF726
:10433000F3FC00283CD02878401C28704E209021A7
:104340000A46FFF7E9FC002832D02878401C287084
:1043500050204F210122FFF7DFFC002828D02878C9
:10436000401C287051207F216E22FFF7D5FC0028C9
:104370001ED02878401C287000F030F9002817D093
:104380002878401C2870152000F048FB00280FD02A
:104390002878401C287015203F21FFF715FD0028C4
:1043A00006D07B4801244470002028702046B0BD10
:1043B0000020B0BD00242C702046B0BDF9040020C0
:1043C0007348C17E102008407047C0467048017F86
:1043D000202008407047C0466D48017F10200840EB
:1043E0007047C0466A48C17E082008407047C046F2
:1043F0006748C17E042008407047C04622206449B7
:10440000095C2020084070476149487800280CD09A
:104410002E20085C5A2805D12F20085C5A2801D18B
:104420000120704700204870704700207047C04648
:1044300021205749085C302202402220085C0C21D0
:10444000014088187047C0465148017F022008404B
:104450007047C0464E48017F012008407047C04663
:104460004B48017F082008407047C0464848017FFC
:10447000042008407047C0464548407D0F21014058
:104480000E394842484170474148407D0F21014064
:10449000091F4842484170473D48407D0F21014077
:1044A000484248417047C0463948407D0F2101408D
:1044B000891F484248417047F048407D0F21014024
:1044C000C91F484248417047EC48407D0F210140D8
:1044D0000839484248417047E848407D0F21014073
:1044E0000939484248417047E448407DC006C00F42
:1044F0007047C046E148407D0F210140491E4842B7
:1045000048417047DD48407D0F210140891E4842E7
:1045100048417047D948407D0F210140C91E48429B
:1045200048417047D548407D0F210140491F48420E
:1045300048417047D148407D0F2101400D39484224
:1045400048417047CD48407D0F2101400C39484219
:1045500048417047C948407D0F2101400F3948420A
:1045600048417047C548407D0F2101400A39484203
:1045700048417047C148407D0F2101400B394842F6
:1045800048417047FD48407D8006C00F7047C046D7
:104590000405002070B5104E3078012809D000289D
:1045A00014D1232000F03AFA002813D03078401CB0
:1045B000307023200125002429462246FFF7ACFB5A
:1045C000002805D000203070284670BD00243470CB
:1045D000204670BD002070BDFA040020B0B55E4DCD
:1045E0002878102800D9B2E0784400794000874448
:1045F00008121E29323C475059626B747D8790998E
:10460000A200FF20343000F009FA002800D19CE01D
:104610002878401C28703320B82100242246FFF758
:104620007BFB002800D194E02878401C28703420BF
:104630003F211422FFF770FB002800D185E0287885
:10464000401C287035203921FFF7BEFB00287CD0A4
:104650002878401C287036209B210322FFF75CFB42
:10466000002872D02878401C28703720412100246F
:104670002246FFF751FB00286BD02878401C287099
:104680003820F421FFF7A0FB00285ED02878401CDA
:1046900028703920F421FFF797FB002855D028789F
:1046A000401C28703A20F421FFF78EFB00284CD0E4
:1046B0002878401C28703B20F421FFF785FB002858
:1046C00043D02878401C28703C205521FFF77CFB04
:1046D00000283AD02878401C28703D20C221FFF7DE
:1046E00073FB002831D02878401C28703E20F3212D
:1046F000F122FFF711FB002827D02878401C2870F2
:104700003F20E421FFF760FB00281ED02878401CE2
:1047100028704020E421FFF757FB002815D02878A7
:10472000401C28704120E421FFF74EFB00280CD0EC
:104730002878401C28704220DA21FFF745FB00282A
:1047400003D0002028700120B0BD0020B0BD00249F
:104750002C702046B0BDC046FB04002010B50E4CA6
:104760002078012809D0002811D1222000F056F924
:1047700000280FD02078401C207022200821FFF74D
:1047800023FB002806D000202070012010BD00204F
:10479000207010BD002010BDFC04002010B50E4C90
:1047A0002078012809D0002811D1222000F036F904
:1047B00000280FD02078401C207022200221FFF713
:1047C00003FB002806D000202070012010BD00202F
:1047D000207010BD002010BDFD04002010B5264C37
:1047E0002078052844D8C0467844007940008744A2
:1047F000020A141E2832132000F010F9002835D0C8
:104800002078401C2070DF4919311320FFF7B4FADB
:1048100000282BD02078401C2070DA491C31182049
:10482000FFF7AAFA002821D02078401C2070D54933
:104830001D311920FFF7A0FA002817D02078401C5E
:104840002070D0491F311C20FFF796FA00280DD0A8
:104850002078401C2070CB4920311D20FFF78CFAB6
:10486000002803D000202070012010BD002010BDC2
:104870000020207010BDC046FE040020040500206A
:1048800010B53B4C207809286ED8C0467844007992
:1048900040008744040C16202A343E48525C0E2007
:1048A00000F0BCF800285DD02078401C2070B5498D
:1048B00014310E20FFF760FA002853D02078401CF6
:1048C0002070B04915310F20FFF756FA002849D063
:1048D0002078401C2070AB4916311020FFF74CFAAD
:1048E00000283FD02078401C2070A64917311120A5
:1048F000FFF742FA002835D02078401C2070A149EB
:104900001F311C20FFF738FA00282BD02078401CDC
:1049100020709C492E314520FFF72EFA002821D027
:104920002078401C207097492F314F20FFF724FA40
:10493000002817D02078401C207092492431512043
:10494000FFF71AFA00280DD02078401C20708D49FE
:1049500025315220FFF710FA002803D000202070E4
:10496000012010BD002010BD0020207010BDC046E9
:10497000FF0400202C208349085C704704050020B8
:10498000804880897047C0467E4800897047C0468D
:1049900080B57C48C08CFBF781FE034A034BFBF7D4
:1049A0006FFDFBF7B6FE80BD2BF697DD9363744079
:1049B00080B57448806AFBF771FE034A034BFBF72E
:1049C0005FFDFBF7A6FE80BDA514747B4963B43F71
:1049D00080B56C48008A06494018FBF74DFEFBF78E
:1049E00084FE044A044BFBF7B3FDFBF792FE80BD47
:1049F000D1F8FFFF48E17A14AE471B406148C089F7
:104A000005214143503908B27047C0465D4840898E
:104A10007047C0465B48C0887047C046B0B5044682
:104A2000174D287801280BD0002817D15548C11CF4
:104A30000120FFF7A1F900280ED02878401C28702B
:104A40005048C078210A0DD0012814D1242081219A
:104A5000FFF7BAF900280ED10020B0BD00242C7059
:104A60002046B0BD012806D0FF2000242146FFF7D4
:104A7000ABF90028F4D0002028700120B0BDC0465A
:104A80000005002010B53E4C207808284DD8C046BF
:104A90007844007940008744040C16202A344B5592
:104AA0005F001220FFF7BAFF002860D02078401C7A
:104AB0002070344918311220FFF75EF9002856D0D3
:104AC0002078401C20702F491A311420FFF754F928
:104AD00000284CD02078401C20702A491B3115201A
:104AE000FFF74AF9002842D02078401C2070254961
:104AF0001C311820FFF740F9002838D02078401CDE
:104B00002070204C21461E311A20FFF735F901464E
:104B1000002000290BD0A27FC021114029D04029BC
:104B200029D0802903D1142026E00020207010BD58
:104B3000144921312A20FFF71FF9002817D02078C7
:104B4000401C20700F4922312B20FFF715F9002857
:104B50000DD02078401C20700A4923312C20FFF70B
:104B60000BF9002803D000202070012010BD002088
:104B700010BD502000E02820A077012010BDC046C5
:104B8000340500200405002010B5234C20780528AA
:104B90003FD8C0467844007940008744020A131C7D
:104BA000252E2020FFF73AFF002830D02078401C27
:104BB000207020200121FFF707F9002827D0207856
:104BC000401C207023200121FFF7FEF800281ED092
:104BD0002078401C207024202021FFF7F5F80028C1
:104BE00015D02078401C207024204021FFF7ECF8DD
:104BF00000280CD02078401C207024208021FFF752
:104C0000E3F8002803D000202070012010BD002010
:104C100010BD0020207010BD3505002010B582B0F9
:104C20000A480068FBF761FD02460B46084C09A1E3
:104C3000204601F099FA0120009000201022014640
:104C40002346FEF7CBFE02B010BDC046C8000020D0
:104C500076060020C9E8B6A8D6B5252E3032660003
:104C600080B582B001AA98205070B0201070E0206A
:104C700000210223FBF7F0FF02B080BD80B582B0B7
:104C800001AA1720507035201070E0200021022367
:104C9000FBF7E2FF02B080BDF0B583B01E4F38785D
:104CA00000282AD0E120002401AD062321462A460F
:104CB000FBF710FF687801990902081880B2FBF72A
:104CC000E6FC1649FBF7AEFA154E3146FBF7E7FA5C
:104CD000144908602879E9780902081880B2FBF7BE
:104CE000D6FC1149FBF79EFA3146FBF7D8FA0F497B
:104CF000FBF73FFA0E4908600AE06A46242050702C
:104D00005C201070E02000210223FBF7A5FF0124A6
:104D10003C7003B0F0BDC046420500200000C84210
:104D200000FF7F47DC00002000002F43000034C25A
:104D30004C05002080B5FCF7C7F9FCF7B9F9FCF782
:104D4000C9F8FCF763F8FCF7F3F9FCF763F9E12025
:104D50004002FCF721FAFCF715F980BD0248016812
:104D6000491C01607047C046BC0600200748016826
:104D7000074A0A40074909681143012253030B43BC
:104D80000360D006044908607047C0460410024022
:104D90000000FFFF040FFF1F08ED00E0B0B5FEF7B5
:104DA00005FB002814D05E4801785E4A1278531A39
:104DB000012B03D0002A04D1FF2902D1FEF7B0FA5B
:104DC00006E0491C0170C8B25749085CFEF74EFB6B
:104DD000FEF7E6FA00281AD05B4800785B4C25788D
:104DE0001F2D07D1002808D0FEF7EEFA2E494855AE
:104DF00000200BE0401B012803D111480121017064
:104E000005E0FEF7E1FA28494855681C2070FEF7D6
:104E1000C1FA002801D0FEF773FAFEF7A9FA0028BC
:104E200001D0FEF74FFAFEF7AFFA002801D0FEF7E7
:104E30005DFAFEF7A3FA002801D0FEF74DFAB0BDE7
:104E4000CA06002080B5FEF7ABFA002803D1FEF7B2
:104E5000B5FA002801D0012080BD002080BD0000EF
:104E600070B50246002000291BD0384B1B78364C09
:104E70000D4D06E036781670C9B2491CCEB28E428E
:104E80000FD126781F2E05D1002B0BD000262670BF
:104E90002E46EFE7761C9E4204D02670F6B2AE197D
:104EA000E8E770BD012070BD54050020F0B581B069
:104EB00000292CD01A4A127800231A4C09E0751CDC
:104EC000954226D0184CA755164C25705B1C8B427A
:104ED0000CD2C75C002F09D02678FF2EEFD1002A14
:104EE00019D0FF25104C67550025EDE7FEF766FA4F
:104EF0000024002810D10A490878401C0870C0B26C
:104F00000949085CFEF7B2FAFEF72CFA04E0002427
:104F100002E0012400E00124204601B0F0BDC046BB
:104F2000CE000020D9060020740500200648017834
:104F300006480078884202D81F22511A00E0C9436F
:104F40000818C0B27047C046CC000020CB06002035
:104F5000F0B581B00E4C2025256101218E030D4F47
:104F60003E61FEF71DFB3E60256001B0F0BDC0460E
:104F7000F0B581B0064C2025256001218E03054F38
:104F80003E61FEF70DFB3E60256001B0F0BDC046FE
:104F90001804005018000050002805D41F210840B4
:104FA00001218140074801607047C0460120C005CB
:104FB000044908607047C0460120C00601490860E6
:104FC0007047C04600E100E0002805D403210246F6
:104FD0008A430B49511806E00F210140083903228A
:104FE0009143064A89188007C00E40228240FF2361
:104FF0008340086898431043086070471CED00E048
:1050000000E400E0FF20000602490A6882430A60CB
:105010007047C04614E400E0FF20000603490A6818
:1050200082430120800710180860704718E400E0F0
:105030000F21014000090A2242435018C0B27047B4
:1050400082B0FFF777FEFDF707FBFEF7CBFAFEF71E
:105050003BFCFFF713FEFBF79BFE7D20C000404F9B
:1050600038803220FEF708FA3EA001F067F843A02E
:1050700001F064F849A001F061F84D4C0020208057
:105080004C4E30804C4D28804C4908804C49019052
:10509000088000E030BF204600F04CFD284600F0BC
:1050A0006DFD474800F096FF444800F0D3FF3046BE
:1050B00000F08EF8FFF7C6FE39880028EAD10029F3
:1050C000E8D108213F48FDF748FD002811D1012112
:1050D0003C48FDF742FD00280BD102213948FDF77D
:1050E0003CFD002805D104213648FDF736FD002897
:1050F000D0D0354626463C46FFF74CFA0028FBD078
:10510000019F3846FEF7C4F82F480770FEF7C8F82D
:10511000FDF73CFDFEF7C4F9FFF7A2FD0127384675
:10512000FEF7AAF9FEF712F8FDF762FF30BFFEF7AF
:1051300013F8FDF763FFFEF755FAFEF7C5FB642091
:10514000FEF7A6F821480770FFF798FD274634467A
:105150002E46194DFFF718FD0028FBD09BE7C046EF
:10516000740600200A0A355331502032313730306E
:1051700020506F7765722042616E6B000A506F7726
:1051800065726564206279205357363330362026A5
:105190002050593332463030324100000A544B57C8
:1051A000544C20323032342F30382F31300A000046
:1051B000C2060020C0060020C4060020C60600204B
:1051C000C806002000040050CD000020BB060020CF
:1051D000F0B587B007460088014645397D29069716
:1051E00000D9A9E04900C0467944898849008F4424
:1051F000A700AD00B400B400B400B400B400B40023
:10520000B400B400B400B400B400B400B400B400FE
:10521000B400B400B400B400B400B400B400B400EE
:10522000B400B400B400B400B400B400B400B400DE
:10523000B400B400B400B40092019901A001A70128
:10524000AE01B400B400B400B400BC01B400B400BA
:10525000B400B400B400B400B400B400B400B400AE
:10526000B400B400B400B400B400B400B400B4009E
:10527000B400B400B400B400B400B400B400B4008E
:10528000B400B400B400B400B400B400B400B4007E
:10529000B400B400B400B400B400B400B400B4006E
:1052A000B400B400B400B400B400B400B400B4005E
:1052B000B400B400B400B400A103B400B400B4005E
:1052C000B400B400B400B400B400B400B400AB0344
:1052D000B103B400B400B400B400B400B4007D0065
:1052E00083008A00B400BA03B400C703FEF7E4FDEC
:1052F00000283AD0BD2038800120FEF72BFE002880
:105300002FD0BE203880FFF73BFB0446FFF73CFB65
:105310000546FFF77FFB06466E43FFF777FB014626
:105320003046FAF7E5FE201A80B2FEF73FFE00286D
:1053300000D01EE3002462E300280ED1452038800F
:10534000FEF768FE00280ED0462038800120FEF7C8
:10535000D5FD00280BD1002451E300203880032420
:105360004DE300244BE3002449E3002447E389484C
:1053700001780A2900D2FCE20A2101708648FBF775
:105380002FFDFBF784F9854E3146FAF74BFF0446B3
:10539000FBF7ABF902460B4681488249FBF762F8FE
:1053A000FBF7B7F901462046FAF779FF7E4C214614
:1053B000FAF738FF2146FAF772FFFBF796F901F08A
:1053C00001FC0025794B2A46FBF7C2F80722570754
:1053D000774B3A46FAF7A2FF02460B467549284634
:1053E000FBF7B6F803225407734B2246FAF796FFF1
:1053F000FBF78FF9714908607148FBF7F1FCFBF787
:1054000046F93146FAF70EFF0646FBF76EF90246FB
:105410000B4663486349FBF725F8FBF77AF9014629
:105420003046FAF73CFF604E3146FAF7FBFE314654
:10543000FAF735FFFBF759F901F0C4FB2A465B4B3D
:10544000FBF786F83A465A4BFAF768FF02460B46D6
:1054500028465849FBF77CF82246574BFAF75EFF7F
:10546000FBF757F957490860FFF7B2FA5649096840
:10547000FAF7D0FE0646554C2146FBF7E1F8002826
:1054800000D134465249204601F089FB5149FAF7D0
:10549000C9FE5149FAF76DFE0646504C2146FBF70E
:1054A000CFF8002800D134464D49204601F077FB63
:1054B000FBF702F94B4908604B4801780129069F28
:1054C00019D14A4909780839062914D848490122CE
:1054D0000A700570474CE0886421FAF709FE084617
:1054E000237AE2782179FBF73BFF22786178A07874
:1054F000FBF773FF06E0404C2046FBF708FF204611
:10550000FBF7E1FEFFF7C8FB3C4801883CA000F038
:1055100015FE69203880FEF743FB002800D15DE2CC
:105520006A203880FFF75AF9002800D158E26B2032
:105530003880FFF7A7FA002800D153E26C203880AA
:10554000FFF79EF9002800D14EE26D203880FEF76B
:1055500051FC002800D149E2FEF756FF002809D18E
:105560002C4800F0EBFD72203880FEF753FD002838
:1055700000D13DE2FFF708FA31284FD8FEF764FF6B
:10558000002803D1FEF766FF002847D02248008894
:10559000441C59E0CD000020100000103333533A72
:1055A0008FC2F5285C8F0A400050C34700DCAE4034
:1055B000E1796B3F0000F03F661271C044050020A6
:1055C0002000001448050020C80000206F12833A14
:1055D0000000484200002041000048440000C8424A
:1055E00000007A44382C0140520500209206002029
:1055F0005305002038050020D0000020740600204C
:105600000AD0DDC3DFB5B9BCC6CAB13A2564306D76
:1056100073000000D881000890060020FEF7D6FE37
:10562000002807D1FEF71CFF002803D1FEF71EFF5C
:10563000002808D0FEF708FF0424002804D1FEF754
:1056400009FF002800D10024F5480480FFF798F9ED
:10565000322813D8FFF798F932280FD8FEF700FF49
:1056600000280BD1FEF702FF002807D1FEF7ECFE61
:10567000002803D1FEF7EEFE002803D07D20C000F5
:10568000E5490880FEF7AEFE002802D0E5A000F054
:1056900055FDFEF7ADFE002802D0E6A000F04EFD5D
:1056A000FEF794FE002802D0E6A000F047FDFEF7CA
:1056B00093FE002802D0E5A000F040FDFEF79EFE1C
:1056C000002802D0E4A000F039FDFEF7C9FE002852
:1056D00002D0E4A000F032FDFEF7C8FE002802D0A0
:1056E000E4A000F02BFDFEF7AFFE002802D0E5A0FD
:1056F00000F024FDFEF7AEFE002802D0E5A000F089
:105700001DFDFFF745F9FAF7F0FF0246E5480B46A5
:1057100000F014FDFFF74CF9FAF7E7FF0246E2A0AC
:105720000B4600F00BFDFEF72DFF002802D0E348EA
:1057300000F004FDFEF7D8FE002802D0E04800F09B
:10574000FDFCFEF707FF002802D0DE4800F0F6FC63
:10575000FEF792FE002802D0DB4800F0EFFCFEF7D7
:10576000E9FE002802D0D94800F0E8FCFEF7EAFE86
:10577000002802D0D64800F0E1FCFEF7FBFE00282E
:1057800002D0D44800F0DAFCFEF7ECFE002802D08C
:10579000D14800F0D3FCFEF79FFE002802D0CF488E
:1057A00000F0CCFCFEF790FE002802D0CC4800F0C0
:1057B000C5FCFEF781FE002802D0CA4800F0BEFCFE
:1057C000FEF772FE002802D0C74800F0B7FCFEF7D3
:1057D000A9FE002802D0C54800F0B0FCFEF754FE38
:1057E000002802D0C24800F0A9FCFEF793FE002872
:1057F00002D0C04800F0A2FCFEF784FE002802D0D0
:10580000BD4800F09BFCFEF775FE002802D0BB48A7
:1058100000F094FCFEF740FE002802D0B84800F0EB
:105820008DFCFFF7A7F80146764CA268B54800F05A
:1058300085FCFFF7EFF801462268B34800F07EFCD4
:10584000FFF7A2F80446052000070125E902FDF74D
:1058500084F90246AD48214600F070FCFFF7D6F807
:105860000146AB4800F06AFCFFF78AF804460020C6
:10587000FCF76CF8064605952846FCF767F8FAF73A
:1058800034FF07460D463046FAF72FFF02460B4617
:10589000009701959F48214600F050FCFFF7AEF8B5
:1058A000044659480068FAF720FF02460B469A481A
:1058B000214600F043FCFFF78BF80446534800688C
:1058C000FAF713FF05460E462046FAF70EFF02468A
:1058D0000095019691480B4600F030FC4D48C37886
:1058E0000279C188847845780678007A00AF70C75D
:1058F00003908B4800F022FCFFF76AF88949FAF719
:10590000ADFE002810D1FFF779F8B4280CDCFFF7C2
:105910005FF88549FAF794FE002805D14B20C4436F
:10592000FFF76CF8A04234DC3C4800F007FCA920EB
:10593000069F3880FEF76EFB00285BD03848008851
:1059400004280ED3B4203880FEF708FF002853D077
:10595000B5203880FEF722FF00284FD030480021C4
:105960000180C020388000242046FEF7F3FA00288A
:1059700045D0C22038806D48006864306C490860AA
:105980006A4800686A490968814200D2EFE400244D
:1059900035E0FFF71DF80446032081071C4D2868F9
:1059A000FAF7E7FB01462046FAF758FE002811D027
:1059B000FFF70EF80446059881072868FAF7D9FB27
:1059C00001462046FAF73CFE0028069FB6D1FDF7B7
:1059D00013F9B3E7FDF7DAF8069FAFE700240EE00E
:1059E00000240CE000240AE0002408E0002406E083
:1059F000002404E0002402E0002400E0002420460B
:105A000007B0F0BD382C01404405002048050020B7
:105A1000C8000020D000002074060020D8810008B3
:105A2000900600200AB3E4B5E7B7A2C9FAB4EDCEF8
:105A3000F30000000AB7C5B5E7B7A2C9FAB4EDCEC6
:105A4000F30000000AD4DAB3E4B5E7000AD5FDD4C8
:105A5000DAB7C5B5E70000000AD5FDD4DAB3E4B57E
:105A6000E70000000A433120B6CBBFDAD2D4C6F437
:105A7000D3C300000A433220B6CBBFDAD2D4C6F477
:105A8000D3C300000A413120B6CBBFDAD2D4C6F46A
:105A9000D3C300000A413220B6CBBFDAD2D4C6F459
:105AA000D3C300002B8300080ABFE2C2D8BCC6B52E
:105AB000B1C7B0C8DDC1BF2566000000588300082B
:105AC00010840008FD830008C3830008DE830008FB
:105AD000CD8300089083000871830008808300084C
