:020000040800F2
:10000000180B0020D5000008B13D0008351E00087F
:1000100000000000000000000000000000000000E0
:100020000000000000000000000000001143000874
:1000300000000000000000005D420008F9540008C4
:10004000E7000008E7000008E7000008E7000008F4
:10005000E70000084116000875160008AD160008F4
:1000600000000000E7000008E700000800000000B2
:10007000E7000008E7000008E700000800000000B3
:10008000E7000008E700000800000000E7000008A3
:1000900000000000E7000008E70000084D28000805
:1000A00000000000E7000008E700000839550008DC
:1000B000E700000800000000E70000080000000062
:1000C0000348854600F0C0FC00480047910A00083C
:1000D000180B00200448804704480047FEE7FEE76D
:1000E000FEE7FEE7FEE7FEE709550008C10000084D
:1000F00030B50B46014600202022012409E00D46C0
:10010000D5409D4205D31D469540491B2546954047
:1001100040191546521E002DF1DC30BD03460B433D
:100120009B0703D009E008C9121F08C0042AFAD2AD
:1001300003E00B780370401C491C521EF9D2704733
:10014000D2B201E00270401C491EFBD2704700226F
:10015000F6E710B513460A4604461946FFF7F0FFC6
:10016000204610BD421C0178401C0029FBD1801A9A
:100170007047F8B502464A40D40F42004B0052087F
:100180005B089A4202D20246084611464A0023D032
:10019000C30D4A00DDB2120EAD1A202D35DA490228
:1001A0000126490AF6058A19002C00D05242202166
:1001B0004F1B1146B9402A411018C20D9A4221D056
:1001C000002C17D0012D08DCDA05801AD20F801917
:1001D000D207DBB200F014FBF8BDDA05801A012368
:1001E00040001B06C01880185A428018CA0F1043DE
:1001F000490007E04908C2071143DA05801A80194F
:100200004008801800F0F4FAF8BD61000122511A8C
:10021000001BF7E70122D2075140AAE70122D207CB
:100220005040A6E7024670B54A40D30FDB074000B6
:100230002DD04A002AD0010E140E00021202091914
:10024000400A520A8418E50104465443000A120A7F
:100250002E045043A4194219200CC543AA18120CAD
:100260000125AD03521C521912047F39240400D019
:10027000521C104301D44000491EC2B20C06C009F2
:100280002018401C4008802A02D003E0002070BDE6
:1002900040084000002900DA0020184370BD70B506
:1002A00002464A40D50F40004A00ED074008520878
:1002B000002814D0002A12D0C40DD30D4102012011
:1002C000C0055202490A520AE41A091812187D346C
:1002D000914201D3641C00E04900002C01DA0020A7
:1002E00070BD0023914201D3891A0343400849009D
:1002F0000028F7D100290AD0914202D10121C90773
:1003000005E0914201D2012101E00121C943E0054C
:10031000C018401900F06CFA70BD0000F0B5074637
:100320000846584087B0C00F049048000E46590058
:1003300040084908BC1A884105D2384631461E4655
:1003400017460B4602465800400810434CD0300D6B
:10035000039040055900400D490D0590401A029048
:10036000402872DA18030121000B090508430190A7
:1003700004980092002805D001995242002088413B
:1003800000920190029840210A1A0199009800F009
:100390000CFA05460C466B4607CB00F016FAC0195E
:1003A0007141039A0E0D0023D71756401A467A4022
:1003B000164344D0049A002A2DD0029A012A039AA7
:1003C00015DC1205C01A914101263605001C714149
:1003D000D20F059ED2070093019202962A46234629
:1003E00000F054FA07B0F0BD38463146FAE716057A
:1003F000224A0F46B218C01AB74101210905001C54
:100400004F4100187F41114618187941E20F1043FF
:100410006D19644113E0E2076D0815436408C207D3
:100420001443039A01261205C01A91413605001C97
:100430007141CE07400830434908C01851412A464F
:10044000234600F016FACDE7FFE7049801224000AA
:10045000C117121A00238B4104983146C417381A69
:10046000A141EEE730B40124E407634030BC55E716
:1004700030B40124E407614030BC4FE70000E0FFE6
:10048000F0B51FB488B00B99099800244840099929
:10049000C00F490049080991C0070B990090490015
:1004A00049080B9109990898A64608431CD00B9956
:1004B0000A98084318D0099801244000420D4800CA
:1004C000410D099824050003000B204309900B9867
:1004D0000003000B20430B9050181C4940180022C9
:1004E00001901446104605E0002001460DB0F0BD15
:1004F000032801DA034600E003239C46C11A0AAE32
:100500000AE05F0008ADED5B4F00F75B7D4300271D
:10051000AA187C41491C5B1E6145F2DD410004AB19
:100520005A522104120C0A43240C401C0828DFDB19
:10053000019802900099704601910090059B049AE1
:100540000799069800F0A2F9D0E700000DFCFFFF24
:10055000F0B50C465C4085B0E40FE40703944C0012
:100560000026640859009446490802460296224330
:1005700021D062460A431ED06200570D4A000E0386
:100580002303550D012402462C492405781B1B0B1F
:10059000360B401823432643614600901C46501AF0
:1005A000B44103D30098401C009002E092180098D8
:1005B0005B41002803DA0020014605B0F0BD0020B1
:1005C000012109050746864611E064461D46141BB5
:1005D000B54106D36546521BB341744607430C43ED
:1005E000A646CD0740084908284392185B410546B6
:1005F0000D43EAD11046184313D0604619465040C7
:100600007140084306D06046101AB34106D2012259
:10061000002306E000220123DB0702E00122D2438F
:100620005310009874460105381C6141029C039DDB
:100630000019694100F01DF9BFE70000FD0300004B
:100640000122D207002800DB101A002900DB511A12
:10065000814201D201207047002070470122D20759
:10066000002800DB101A002900DB511A814201D951
:100670000120704700207047C217C10F504010B5CD
:100680004018CA079623002100F0BAF810BD10B533
:1006900000229623114600F0B3F810BD0EB50549AF
:1006A0000291002100910A460B46019100F0EEF8FC
:1006B00003B000BD33040000C20F4100400201231B
:1006C000400ADB05D207090EC0187F2901DA002095
:1006D0007047962903DC9623591AC84001E09639E1
:1006E0008840002AF4D040427047C20FD207400031
:1006F00040080BD0C10D0723DB01C91840020905D2
:10070000400A1143C20840071143704700200146C8
:100710007047CB0FDB07490010B5490802460A4372
:1007200007D00A0D07240903E401090B121B002A54
:1007300001DC002010BDC900440F0C43C100E018CB
:10074000D205801800F054F810BDF0B51FB406466D
:10075000002082B005464024019100901BE00199E1
:1007600022460F46304600F081F9049A059B801A14
:10077000994110D310461946224600F016F8361A51
:100780008F410197224601200021009F00F00DF8C3
:1007900038184D4100902046641E0028DFDC019B84
:1007A00000982946324607B0F0BD10B5202A04DB78
:1007B0000146203A9140002010BD914020239C1A10
:1007C0000346E3401943904010BD10B5202A06DBD4
:1007D000CB170846203A1041C1170B4306E00B46E1
:1007E0001341D0402024A21A91400843194610BD5D
:1007F000002904DA401C490001D14008400070473C
:1008000070B40024050C05D11024000402D1002985
:1008100021D01124050E01D100020834050F01D1A9
:100820000001241D850F01D18000A41C002801DBDC
:100830004000641C002908D020252E1B0D46F540E1
:10084000A14000D001212943084301061B1B000AD7
:10085000DB1D02D5002070BC7047DB05181880181E
:100860000029F8DA401C4900F5D170BC400840006E
:10087000704710B5002B08DA0024401C6141921823
:100880005B411A4301D14008400010BDF0B51FB4D0
:1008900082B005460C0003D0084606F07DF902E060
:1008A00006F07AF920300246009021462846FFF7EC
:1008B0007CFF049B059A04460F46184311430843E6
:1008C00014D0184610431BD0009840210A1A18462D
:1008D000059900F0CBF805460E46009A0599049854
:1008E000FFF763FF084305D0012004E020463946A6
:1008F00007B0F0BD0020C11705430E432C4337431A
:1009000000990E986305401A7905E40A00220C4309
:10091000FD0A0A3002D500200146E9E70105101959
:1009200069410C9C0D9D00196941FFF7A2FFDFE7AB
:1009300070B54B005B0803430BD04B005C0D0026E9
:1009400033466542B341D417AD1AA34102DB002000
:10095000014670BD12053018514170BD0EB5C21769
:10096000C10F5040CA0740180021054B0293019265
:1009700000910A460B46FFF789FF03B000BD000057
:10098000330400004A0009030123090B1B05194326
:100990000A4B10B5520D9A4202DA0020014610BDF2
:1009A000064B34339A4203DC9A1A00F05FF810BD0C
:1009B000034BD218FFF7F9FE10BD0000FF03000043
:1009C000CDFBFFFF10B5002904DB0124E407404202
:1009D0008C412146002B04DB1C460123DB075242DD
:1009E000A3418B4200D1824210BD000010B5002906
:1009F00004DB0124E40740428C412146002B04DB48
:100A00001C460123DB075242A341994200D1904288
:100A100010BD000002000A4800D4821A002900DB41
:100A2000411A914204D301204007914200D1054868
:100A3000EFF300810902090A014381F3008870473E
:100A40000000008000000060064C0125064E05E015
:100A5000E36807CC2B430C3C98471034B442F7D3DF
:100A6000FFF732FB5C9500087C95000810B5202A42
:100A700004DB0846203AD040002110BD0B46D3408D
:100A8000D0402024A21A91400843194610BD00000E
:100A900080B5002007490122D306C3580B50001D22
:100AA000C028F8D150070449086004F097FE0020E0
:100AB00080BDC0460000002008ED00E080B502F0D7
:100AC000F1F8002805D102F06BF902F0E7F80028F0
:100AD000FBD180BDF0B583B01C461546074602F039
:100AE0009FFC0028FBD102F0F3FB0120019086025D
:100AF000304602F073FB02F04BFC02F09FFC012831
:100B0000FBD1FE20384002F0B1FC02F071FC01285C
:100B1000FBD102F06BFB02F03BFC02F08FFC0128E2
:100B2000FBD101980743384602F0A0FC02F060FCBC
:100B30000128FBD12746022C2C460BD0012F3D4625
:100B400017D0002D23D102F051FB02F029FC002D1B
:100B500031D123E002F0F2FBEFF3108072B602F025
:100B600045FB002002F03AFB62B63D46002D22D143
:100B700014E0002002F032FBEFF3108072B602F0B6
:100B800035FB02F00DFC62B6002D14D106E03046B4
:100B900002F024FB02F02AFB002D0CD103B0F0BDC3
:100BA000029502262B4D02F057FC20700298451941
:100BB000BC192804F2D0A8B2042814D20128029546
:100BC00022D0022829D102F025FC0128FBD1EFF325
:100BD000108072B602F0E4FB02F03EFC207062B6B8
:100BE0002746641CDDE702F023FC0128FBD102F05C
:100BF00033FC20702746641C02F00CFC0128CFD087
:100C00006D1E2804D7D1C9E702F012FC0128FBD1E0
:100C10001048451C019E2746C5E702F0FBFB012852
:100C2000FBD1002002F0DAFAEFF3108072B602F086
:100C300013FC207002F0EEFB0128FBD102F0B0FBA8
:100C400002F00AFC607062B60248451E2746A41CEA
:100C50000326A8E7FEFF0000F0B581B01C4617464A
:100C6000064602F0DDFB0028FBD102F031FB02F06A
:100C70008FFB02F0E3FB0128FBD1FE20064030464B
:100C800002F0F4FB02F0B4FB0128FBD102F0AEFA53
:100C9000002C05D102F084FB01B0F0BD2004F9D096
:100CA0003E4602F0D1FB0128FBD1307802F0DEFB9A
:100CB000771C0094641E250402F0ACFB002DEDD0DF
:100CC0000128EBD1707802F0D1FB0098841EB71C8C
:100CD000E4E70000F0B581B0009316460F460546E4
:100CE000002402F09DFB00281ED12B46009DC84821
:100CF000817B002918D1069904228273FE221340B9
:100D000003704770466085818160806800210170B2
:100D100002F02CFB1C48006814301C49086002F0EB
:100D2000D7FA02F035FB0124204601B0F0BDC046E1
:100D3000F0B581B01E4617460D46044600200090CF
:100D400002F06EFB00281CD1B148817B002918D12C
:100D50000699012200928273FE22144004704570AD
:100D600047608681816080680021017002F0FEFA90
:100D70000548006814300549086002F0A9FA02F03D
:100D800007FB009801B0F0BDD8060020B006002097
:100D900080B501F0CBFF02F03FF8FFF78FFE012096
:100DA00002F06EFB102002F0CEF9202002F0CBF909
:100DB00001F0CEFF01F0C0FF01F0E2FF01F0D2FF31
:100DC00001F0D6FF01F0E4FF01F0A0FF01F07EFF8B
:100DD00001F082FF01F092FF01F070FF80BD000082
:100DE000B0B5094C0025256001F07EFF01F046FFFB
:100DF00001F094FF01F04AFF0028FBD001F03AFF18
:100E000001F056FF2560B0BD28240140F0B583B045
:100E100001AD0227AF710124AC804020019028462B
:100E200002F07EF800202A4902F0D0F8072630466A
:100E300004F098FC304604F07DFCAF71AC80019466
:100E4000284602F06DF803200104204602F0BEF8A7
:100E50000526304604F086FC304604F06BFCAF718A
:100E6000AC800197284602F05BF86120C102204661
:100E700002F0ACF8304604F075FC304604F05AFC41
:100E8000AF71AC8004200190284602F049F831206F
:100E90000103204602F09AF80626304604F062FC70
:100EA000304604F047FCAF71AC8008200190284622
:100EB00002F036F86320C102204602F087F830467F
:100EC00004F050FC304604F035FC03B0F0BDC046E1
:100ED00001100100F0B587B0002706970597049729
:100EE000039702970197232002F0CAFA069702257A
:100EF0000595049703950320029010200190414826
:100F000001AC214602F07CF806970126059604976D
:100F1000039502974020019005200007009021468C
:100F200002F06EF8069705960497039502970196CE
:100F30006148214602F064F801955F48214602F0BD
:100F40005FF8042001905C48214602F059F80697AA
:100F5000059604970395029708200190564821466C
:100F600002F04EF802F0A8F805970497039702964E
:100F7000300301900098214602F042F802F09CF8FC
:100F800007B0F0BDF0B58BB001F094FD0C270A97C7
:100F90000126099608960224079406940594194898
:100FA00005AD294602F02CF80A9709960896079491
:100FB000069405961348294602F022F801F0FCFE3B
:100FC00001F018FF01F01EFF02F0DAF902F0A8F9B3
:100FD00000240494AA200390B00302900A480190D0
:100FE0000A4801A902F0E6F904F0DAFB04F0ACFBD0
:100FF00002F0ACF902F074F902F07AF90448847353
:101000000BB0F0BD00140050801A060000540040E0
:10101000E8000020F0B58FB002270E9701242602C9
:1010200000960996244809AD294601F0E9FF0E977C
:101030000996052006073046294601F0E1FF0E9784
:10104000E00209903046294601F0DAFF0D200E90AB
:10105000600309903046294601F0D2FF0027079728
:1010600005970294602601960497494801AD2146F0
:101070002A4602F075FB0497464821462A4602F0AC
:101080006FFB0497102143482A4602F069FB009841
:101090000790059702940196049721033D4C204642
:1010A0002A4602F05DFB204602F0FAFA204602F0E2
:1010B000FDFA0FB0F0BDC0460004005080B502F04C
:1010C0001BFA02F041FA02F037FA02F01BFA02F0C2
:1010D0002BFA80BD80B501F0ADFE01F07BFE02F081
:1010E0006FFA13480068134901400120C003081833
:1010F00002F080FA02F076FA0128FBD102F09EFAA3
:1011000002F0ACFA02F042FA0028FBD102F09EFA9B
:1011100002F0E8F902F0B6FA01F06AFF064802F0C0
:10112000B9FA02F073FA02F043FA02F077FA80BDDE
:10113000100FFF1FFF1F000000366E01B0B586B014
:1011400000250595049503950295019501246004F9
:1011500001F07CFEE00201F079FE01AC25742580EF
:101160000295049509480390094D2846214602F04E
:10117000A7FA284602F094FA284602F097FA0548A2
:10118000214602F09DFA06B0B0BDC046E70300005C
:1011900000440140002C014010B5044601F062FEFD
:1011A0001D480068214602F09DFB02F0BDFB02F0E5
:1011B000D5FB02F0CBFB02F0BFFB02F0D9FB02F043
:1011C0003FFB02F031FB02F067F902F065F90424FD
:1011D000204601F0C1FF204601F0EEFF204601F05D
:1011E000D5FF204601F080FF0824204601F0B4FF1F
:1011F000204601F0E1FF204601F0C8FF204601F043
:1012000073FF02F02BFB02F023FB02F02FFB04F034
:10121000D1FA04F09FFA10BDCC00002080B5002068
:1012200001F0DCFC002801D0012080BD002001F08D
:10123000B9FC002801D0052080BD002001F0BEFCD3
:10124000002801D0092080BD012001F0C7FC002842
:1012500001D0022080BD012001F0A4FC002801D0B3
:10126000062080BD012001F0A9FC002801D00A2041
:1012700080BD022001F0B2FC002801D0032080BD17
:10128000022001F08FFC002801D0072080BD022041
:1012900001F094FC002801D00B2080BD032001F058
:1012A0009DFC002801D0042080BD032001F07AFCC1
:1012B000002801D0082080BD032001F07FFC002819
:1012C00000D00C2080BD70B582B0044601AE002570
:1012D00035700620314601F02BFC307804F076FAA8
:1012E0007D2109014018E0800520314601F020FCF5
:1012F000307804F06BFA20710420314601F018FCBC
:10130000307804F063FAE070284602B070BD70B522
:1013100082B0044601AE002535700220314601F04E
:1013200007FC307804F052FAA0700120314601F039
:10133000FFFB307804F04AFA60702846314601F02D
:10134000F7FB307804F042FA20700320314601F0B8
:10135000EFFB307804F03AFA2072284602B070BDF4
:10136000F0B581B0009316460F4604460A2529467B
:10137000FEF7BEFE29464143611A00010843C1B28F
:10138000062001F0EAFB38462946FEF7B1FE294661
:101390004143791A00010843C1B2052001F0DDFB89
:1013A00030462946FEF7A4FE29464143711A000142
:1013B0000843C1B2042001F0D0FB009C204629461E
:1013C000FEF796FE4543611B00010843C1B20320AE
:1013D00001F0C3FB002001B0F0BDF0B581B01446B0
:1013E0000E4607460A252946FEF782FE2946414356
:1013F000791A00010843C1B2022001F0AEFB304669
:101400002946FEF775FE29464143711A000108433B
:10141000C1B2012001F0A1FB20462946FEF768FE7B
:101420004543611B00010843C1B20024204601F07E
:1014300094FB204601B0F0BDF0B585B06A48047851
:1014400007466A48C2886A4E6AA1304605F07EFBAC
:10145000083C601E8441009400251024284629463B
:101460002246334602F074FE0126009620200490A6
:10147000624B2946224602F06BFE3F785B480279B8
:101480005F495B4805F062FB093F781E8741009782
:10149000282029462246564B02F05AFE0096382054
:1014A00029462246554B02F053FE4F4807784F48D5
:1014B000C2784F48524905F049FB0A3F781E8741E0
:1014C0000097402029462246494B02F041FE0096F3
:1014D00050204CA32946224602F03AFE42480778A3
:1014E000424882784248464905F030FB0B3F781E5F
:1014F000874100975820294622463D4B02F028FE9E
:1015000000966820404B2946224602F021FE3648CC
:101510000778364842783648394905F017FB0C3FC2
:10152000781E874100977020039529462246304B4C
:1015300002F00EFE0096284621462246324B02F06B
:1015400007FE2948077829480278294D28462C4962
:1015500005F0FCFA0D3F781E8741009708202146D0
:1015600022462B4602F0F4FD0096182027A32146C0
:10157000224602F0EDFD1C4807781C48027A24A19F
:10158000284605F0E3FA0E3F781E8741009737465C
:10159000049D284621462246154B02F0D9FD0096AF
:1015A000302002901BA32146224602F0D1FD009676
:1015B0001BA3039E30462946224602F0C9FD009730
:1015C0001BA330460299224602F0C2FD194800785A
:1015D000012806D1009750203021102216A302F0D6
:1015E000B7FD05B0F0BDC046AE0600205005002096
:1015F000920600202530346400000000EC8D0008C5
:10160000678F00085F000000258E00082E00000094
:1016100025640000B3A4B0B4C8B7C8CFBCFC0000B8
:1016200031C3EBD2D4C9CFCBC9BFAABAF3B1A3009F
:10163000B4E600006F050020D2D4B1A3B4E60000E8
:1016400010B50124204601F0B7FC002804D1022087
:1016500001F0B2FC00280BD0204601F025FC02204E
:1016600001F022FC104804707D20C0001949088058
:1016700010BDC04680B5082001F09EFC002804D1B2
:10168000042001F099FC00280CD0082001F00CFC8B
:10169000042001F009FC0448012101707D20C000F4
:1016A0000C49088080BDC046D606002080B5402089
:1016B00001F082FC002809D0402001F0F5FB04482D
:1016C000012101707D20C0000249088080BDC04614
:1016D000B40600209006002010B582B008480268C9
:1016E000084C09A1204605F031FA012000900020A5
:1016F00010220146234602F02BFD02B010BDC04669
:10170000342C01409206002050413850574DD5BC32
:10171000BFD5B1C82564000010B5002A05D000234C
:10172000C458CC501B1D9342FAD310BD0D48002164
:1017300041602348016804220A4302600120C00678
:10174000014901607047C046214334120549002217
:101750004A601B490A68022313430B60FF210160A2
:101760007047C046DC060020F0B581B0144A14680A
:1017700001231C431460EFF310840094EFF31085F1
:1017800072B6002502E01F2D354609D240C940C07F
:101790006E1C1F2EF7D1DF0414683C431460F2E77F
:1017A000009880F3108801B0F0BDC0460121C90245
:1017B000034A13680B431360FF2101607047C04662
:1017C00014200240B0B57D20C40000F02DFB0519A7
:1017D000064C2068C00305D500F026FBA842F8D3CC
:1017E0000320B0BD024820600020B0BD10200240A0
:1017F00011800000F0B589B017460C46054600265A
:1018000008960796069605960496039600F0F8FA51
:1018100002977F37FF0905970495022001900390F6
:1018200003A808A900F06AF9002805D016A005F061
:101830007DF9012009B0F0BD002F029905D0A8590B
:10184000401C1BD1361DBE42F9D34E19AE4206D8FC
:1018500000F02EFA032009B0F0BDB542F8D2012005
:101860002946224600F02EFA002802D00028F4D1A2
:1018700002E080340028F0D18035EEE706A005F0C4
:1018800055F9019809B0F0BDB2C1B3FDCAA7B0DCEB
:1018900031A3A1A3A1A3A100B2C1B3FDCAA7B0DC2B
:1018A00032A3A1A3A1A3A100F0B585B00491054680
:1018B00040B2002800D50025002802D50498801CDD
:1018C0000490203A0A98102B06D0082B4ED10026FF
:1018D000002806D0304605E00026002824D03046F7
:1018E00023E0F043D1B2C900214A51180191C0B29E
:1018F0000090314602960498471801980391445C81
:1019000000984440A819C0B22146B140C9B2CA09E2
:10191000F9B202F085FC761C082EF3D10399491C1C
:101920000829029EE7D121E0F043D1B209010191DB
:10193000C0B200903146029604984718019803916E
:1019400040180C490C5C00984440A819C0B22146CC
:10195000B140C9B2CA09F9B202F062FC761C082E85
:10196000F3D10399491C1029029EE5D105B0F0BDC1
:10197000B0790008A87C0008F0B587B00591049004
:1019800010781D4E4A2103E0491E2236002930D02E
:1019900034788442F8D154787578A542F4D1002780
:1019A000002B01D0384600E0F843C0B201903A461F
:1019B00003960297D0B2400805994518D007000F4A
:1019C000049944180692B018867801984640E019A8
:1019D000C0B23146B940C9B2CA09E9B202F020FC2E
:1019E0007F1C082FF3D1069A521C202A039E029FC7
:1019F000E0D107B0F0BDC046D8820008F0B585B090
:101A0000039102901078C8282CD15078AB2829D1A6
:101A10000026002B01D0304600E0F043C0B2009019
:101A200034460196E0B20321FEF762FB039A851863
:101A30000D4804940019847800984440C800029925
:101A40004718B819C0B22146B140C9B2CA09E9B2B3
:101A500002F0E6FB761C082EF3D1049C641C482C93
:101A6000019EDFD105B0F0BDAC8C0008F0B585B0AB
:101A7000039102901078C8282BD15078AB2828D138
:101A80000026002B01D0304600E0F043C0B20090A9
:101A900032460196D0B28008039945189007C00ECF
:101AA000029944180C48049280188778009847409F
:101AB000A019C0B23946B140C9B2CA09E9B202F0B0
:101AC000AFFB761C082EF3D1049A521C802A019E8B
:101AD000E0D105B0F0BDC046F68C0008012804D066
:101AE000002805D104480068704702480068704724
:101AF00000207047E400002068050020F0B585B0A4
:101B00000490B64E3078012801D10224CDE0029134
:101B100001243470B2480068C00A1C210140B14859
:101B2000421803924758B04802683968CDB2B14BA9
:101B3000AA4238D10A0CAD4B1A4043689342AD4BD0
:101B400031D10269090AC9B28A422CD1826803994B
:101B5000096801914968CBB29A42A64B23D1090C7E
:101B6000A34A1140C2688A421DD14169009101997E
:101B70008A68A1490A400099914214D18169009173
:101B80000199CA689C490A40009991420BD1C269E7
:101B9000019909698BB29A42964B04D1090C1940FC
:101BA000026A8A421AD005607988904A11404160E1
:101BB000797801613979816003990968CA888C4D07
:101BC0002A40C2608A688C4D2A404261CA682A4015
:101BD00082610A8AC261498A1940016204980068D8
:101BE000032812D0022837D001285CD1FFF7EAFD84
:101BF000002858D1FFF79AFDFFF7E4FD04467F481F
:101C000001680422914301604DE0FFF7DBFD0028ED
:101C100049D10020C043029908600498C768006950
:101C20000003C01987423ED23846FFF7BFFD0125A9
:101C3000EC02FFF7C7FD714A1168A1430446116029
:101C400000282ED128033F180499C86809690903A0
:101C500008188742E8D326E0FFF7B4FD002822D118
:101C60000020C04302990860049847688068C0015A
:101C7000C019874217D2614D3846FFF767FDFFF75D
:101C8000A1FD04462868022188432860002C08D161
:101C9000049948688968C901081880378742EBD3DE
:101CA00001E00298076000203070204605B0F0BDCA
:101CB0000120C00751490A6802430A600868C0430E
:101CC000C00F7047F0B585B0444F3878012802D175
:101CD000022005B0F0BD0D46039201203870404946
:101CE0000968C90A1C220A403E498B1804938A5885
:101CF0003D490E681368DCB2A64239D11E0C3B4F39
:101D00003E404F68B742354F32D10E691B0ADBB2F5
:101D10009E422DD18E68049B1B6802935B68DFB2E4
:101D2000BE422E4F24D11B0C314E3340CE689E4212
:101D30001ED14B690193029B9E682F4B1E40019B55
:101D4000B34215D18B690193029BDE682A4B1E407A
:101D5000019BB3420CD1CE69029B1B699FB2BE426C
:101D60001E4F05D11B0C234E33400E6A9E421BD0E2
:101D70000C6053881D4C23404B6053780B611279E3
:101D80008A60049A1268D388194C2340CB60936808
:101D9000194C23404B61D36823408B61138ACB617C
:101DA000528A144B1A400A62690601D005B0F0BD90
:101DB000FFF708FD002803D00021397005B0F0BD01
:101DC00028460399FFF7D0FCFFF7FCFC0B490A6893
:101DD00001239A430A600028E8D1EDE7DC060020E1
:101DE00004100240B882000800210240FF010000F8
:101DF000FF070000FF3F0000FFFF0100142002402A
:101E00000648C168002901D40020704704490160D8
:101E100004490160C068C00F7047C04608200240F6
:101E200023016745AB89EFCD014800687047C04684
:101E300010070020FEE70000F0B585B030480189AA
:101E4000304A1181016840681160506000200490A0
:101E500002F0B4F803F0A2F9064603F051F9FEF7D8
:101E600016FC294C2146FEF71AFAFEF73EFC054601
:101E70000F463046FEF70BFC2146FEF710FAFEF740
:101E800034FC02460B4600950197204C2049204621
:101E900004F05CFE012600961027049801463A469D
:101EA000234602F055F903F07DF9039003F02CF975
:101EB000FEF7EDFB1449FEF7F2F9FEF716FC0546B6
:101EC0000C460398FEF7E3FB0F49FEF7E8F9FEF72F
:101ED0000CFC02460B46009501940C4C20460C4924
:101EE00004F034FE03960096049839463A46234699
:101EF00002F02EF902F0EEFE002837D00AE0C046CC
:101F0000D80000205005002000007A4492060020EE
:101F1000278E000803F046F9FEF7B9FB044603F0EC
:101F2000F3F8FEF7B4FB01462046FEF77BF90849BB
:101F3000FEF7B5F9FEF7D9FB04460D4603F0DAF8D3
:101F40000090044804A122462B4604F0FFFD0DE05A
:101F50000024744992060020252E30326657202531
:101F600064252520554643530000000002F044FE3E
:101F7000002829D003F016F9FEF789FB044603F088
:101F8000C3F8FEF784FB01462046FEF74BF90849EB
:101F9000FEF785F9FEF7A9FB04460D4603F0AAF803
:101FA0000090044804A122462B4604F0CFFD0BE02C
:101FB0000024744992060020252E303266572025D1
:101FC000642525204146430002F074FE00281CD001
:101FD00003F0E8F8FEF75BFB044603F095F8FEF724
:101FE00056FB01462046FEF71DF9F749FEF757F963
:101FF000FEF77BFB04460D4603F07CF80090F148A9
:10200000F2A122462B4604F0A1FD02F05BFE00285F
:102010001CD003F0C7F8FEF73AFB044603F074F84F
:10202000FEF735FB01462046FEF7FCF8E649FEF7D1
:1020300036F9FEF75AFB04460D4603F05BF80090B4
:10204000E048E7A122462B4604F080FD02F052FE54
:1020500000281CD003F0A6F8FEF719FB044603F095
:1020600053F8FEF714FB01462046FEF7DBF8D6498D
:10207000FEF715F9FEF739FB04460D4603F03AF872
:102080000090D048DBA122462B4604F05FFD02F011
:1020900029FE00281CD003F085F8FEF7F8FA044664
:1020A00003F032F8FEF7F3FA01462046FEF7BAF8DD
:1020B000C549FEF7F4F8FEF718FB04460D4603F099
:1020C00019F80090BF48D0A122462B4604F03EFDEF
:1020D00002F0C2FD00281CD003F064F8FEF7D7FA26
:1020E000044603F011F8FEF7D2FA01462046FEF747
:1020F00099F8B549FEF7D3F8FEF7F7FA04460D460E
:1021000002F0F8FF0090AF48C4A122462B4604F02D
:102110001DFD02F099FD00281CD003F043F8FEF7E6
:10212000B6FA044602F0F0FFFEF7B1FA0146204687
:10213000FEF778F8A449FEF7B2F8FEF7D6FA04469F
:102140000D4602F0D7FF00909E48B9A122462B46CB
:1021500004F0FCFC02F070FD00281CD003F022F813
:10216000FEF795FA044602F0CFFFFEF790FA01461B
:102170002046FEF757F89449FEF791F8FEF7B5FAB6
:1021800004460D4602F0B6FF00908E48AD49224647
:102190002B4604F0DBFC02F047FD00281CD003F0C6
:1021A00001F8FEF774FA044602F0AEFFFEF76FFA8C
:1021B00001462046FEF736F88349FEF770F8FEF731
:1021C00094FA04460D4602F095FF00907D489E4922
:1021D00022462B4604F0BAFC02F064FD00281CD015
:1021E00002F0E0FFFEF753FA044602F08DFFFEF71F
:1021F0004EFA01462046FEF715F87349FEF74FF8F0
:10220000FEF773FA04460D4602F074FF00906D4825
:102210008E4922462B4604F099FC02F0F5FC00287A
:102220001CD002F0BFFFFEF732FA044602F06CFF4A
:10223000FEF72DFA01462046FDF7F4FF6249FEF74E
:102240002EF8FEF752FA04460D4602F053FF0090B6
:102250005C487F4922462B4604F078FC02F01AFDC8
:1022600000281CD002F09EFFFEF711FA044602F08F
:102270004BFFFEF70CFA01462046FDF7D3FF52490B
:10228000FEF70DF8FEF731FA04460D4602F032FF74
:1022900000904C486F4922462B4604F057FC02F050
:1022A000F1FC00281CD002F07DFFFEF7F0F9044697
:1022B00002F02AFFFEF7EBF901462046FDF7B2FFD8
:1022C0004149FDF7ECFFFEF710FA04460D4602F017
:1022D00011FF00903B48604922462B4604F036FC33
:1022E00002F0C8FC00281CD002F05CFFFEF7CFF91A
:1022F000044602F009FFFEF7CAF901462046FDF741
:1023000091FF3149FDF7CBFFFEF7EFF904460D468B
:1023100002F0F0FE00902B48504922462B4604F074
:1023200015FC02F079FC00281CD002F03BFFFEF700
:10233000AEF9044602F0E8FEFEF7A9F90146204690
:10234000FDF770FF2049FDF7AAFFFEF7CEF904461E
:102350000D4602F0CFFE00901A48414922462B4616
:1023600004F0F4FB039D009500200490202110222E
:102370000292144B01F0ECFE02F0F2FE07464B20F5
:10238000840002F003FF06463648007860437D2152
:10239000C900FDF7ADFE04463846FEF7A6F9024631
:1023A0000B46009601943049064C204604F0CEFBC3
:1023B000009530210498029A234601F0C9FE05B029
:1023C000F0BDC0469206002000247449252E30320C
:1023D0006657202564252520534643500000000001
:1023E000252E3032665720256425252053564F4F21
:1023F00043000000252E3032665720256425252015
:10240000564F4F4334000000252E303266572025AA
:1024100064252520564F4F4331000000252E3032D1
:1024200066572025642525205045322E30000000B7
:10243000252E303266572025642525205045312E23
:1024400031000000A68E0008F28E0008968E00086B
:10245000868E0008DB8D0008158E0008058E0008AA
:102460009B8D00080C070020048F0008F0B5D7B042
:102470005520810002AC2046FDF769FE524806C88F
:10248000524B06C3008818805148002505705148FA
:1024900005705148057002202070504800680A21DC
:1024A000FDF726FE0246601C4DA104F04FFB032001
:1024B0006074204612304E490922FDF72FFE22207B
:1024C00004212154052630070121090300F0D5FD20
:1024D000014627464437224666322234601C0029D2
:1024E000019201D0434900E043490B22FDF716FE5B
:1024F000667402AC2046343040490B22FDF70EFED4
:10250000062038703E480068FEF7EFF802460B469A
:10251000204645303BA104F019FB11267E7420466D
:1025200056303C490922FDF7F9FD1320019F387010
:10253000394802882046673038A104F007FB15208F
:1025400078743548027A783438A1204604F0FEFACF
:10255000E8B23146414302AA515C002903D06D1C08
:102560001328F5D314250024280620460ED033481E
:1025700001780020C2B2724302AB9A5C914205D04E
:10258000EAB2401CC3B29342F4D32846C01E41B203
:10259000002900DC2046C0B2464302A88519274E18
:1025A00028783178081A411E884100906B1C20075A
:1025B000010E0020102201F0CBFD1135641C042C0B
:1025C000EED157B0F0BDC046D80000205005002025
:1025D0006F0500206E050020F9000020402C01400E
:1025E0004C4544C1C1B6C820256425250000000023
:1025F000889000087C900008A09000087090000867
:10260000D0000020CEC2BFD8C9E8B6A8D6B5252EC6
:102610003066000094900008FC000020B1B3B9E2DD
:10262000C1C1B6C8C9E8D6C325640000B3E4B5E7A4
:10263000B9A6C2CAC9E8D6C325640000AE06002008
:10264000F0B587B0564D28895649088105CD05C19A
:10265000083DEA882B79E878A9786C782D7800AE67
:1026600033C6514C51A1204604F070FA0126009661
:1026700000271022069238463946234601F068FDAD
:1026800052480068FEF731F804460D46504800688D
:10269000FEF72BF802460B46009401954DA14248E7
:1026A000044604F053FA0096384606990A46234633
:1026B00001F04EFD3846FFF711FA05903046FFF75E
:1026C0000DFAFEF712F805460C460598FEF70DF8D0
:1026D00002460B460095019442A13348044604F09B
:1026E00035FA009620213846069A234601F030FD3F
:1026F00002F076FA00280ED03E4800680A21FDF765
:10270000F7FC024626480378007A009026483AA152
:1027100004F01CFA3BE0224F02F068FA00280DD0CA
:10272000344800680A21FDF7E3FC02463B78387A1A
:1027300000901D4835A104F009FA28E02D4D02F063
:1027400043FA00280CD028680A21FDF7D1FC024684
:102750003B78387A0090144831A104F0F7F916E07C
:1027600002F038FA044628680A21FDF7C1FC024647
:10277000387A3B78002C05D000900B482DA104F04E
:10278000E5F904E0009008482F4904F0DFF90096CD
:10279000002030211022044B01F0DAFC07B0F0BD1C
:1027A000D800002050050020920600202530346417
:1027B0002D253032642D253032645F253032643A65
:1027C000253032643A253032640000006405002070
:1027D00060050020252E303266A1E620252E3032FD
:1027E00066A1E600252E303266A1E620252E303285
:1027F00066252500382C014046414E3A25642525A2
:1028000020253032642E25642043310046414E3A63
:102810002564252520253032642E2564204332008E
:1028200046414E3A2564252520253032642E256404
:102830002041310046414E3A25642525202530327D
:10284000642E256420413200268F000810B591487F
:10285000006814309049086000F0F0FD00280ED0A8
:102860009348817B012903D0072903D0042906D18D
:10287000007802E001780120084300F0F7FD00F045
:10288000B7FD00282CD000F0B1FC894CA07B0728B4
:1028900006D0042810D0012822D10220A0731FE006
:1028A000A08900280BD0A089012814D1002000F0B5
:1028B00095FC00F075FD13E00520A07310E000F01A
:1028C0001FFD00F06DFD00F01BFDA06801210170EF
:1028D0000020A07304E0A0890120800200F07EFCAB
:1028E00000F098FD00283CD0714CA07B07280AD04E
:1028F000062836D100F00CFD00F030FD0720A07353
:1029000000F046FD2DE0A08902281BD100F048FD13
:1029100000F0A2FD61684A1C62600870A089401E38
:10292000A08100F099FD61684A1C62600870A0896E
:10293000401EA08100F0E4FCA0680121017000208D
:10294000A0730EE0A08903280BD1002000F046FC04
:1029500000F082FD61684A1C62600870A089401E18
:10296000A08100F065FD002823D0514CA0890028EB
:102970001FD0A07B07281CD1A089032817D00228CC
:1029800012D001286CD100F067FD61684A1C6260BA
:102990000870A089401EA08100F0B2FCA06801214F
:1029A00001700020A07304E0002000F017FC00F08C
:1029B00097FC00F049FD00281ED03D4CA07B052867
:1029C00008D003280CD0022816D1607800F04EFD04
:1029D000032003E0607800F049FD0620A0730BE0BF
:1029E000A08900282FD06068411C6160007800F049
:1029F0003DFDA089401EA08100F000FD00280DD003
:102A000000F0FEFB00F06CFC00F072FC00F0C8FC73
:102A100027480021817380680221017000F0F4FCD6
:102A200000280FD000F0F4FB00F038F800F058FC5C
:102A300000F05EFC00F0B4FC1D480021817380684A
:102A40000421017010BD00F0E5FC00281FD000F04B
:102A50004FFC00F0A5FCA068012101700020BDE73B
:102A600000F0FAFC61684A1C62600870A089401E90
:102A7000A08100F0CFFC01289BD100F0EDFC616843
:102A80004A1C62600870A089401EA08191E700F096
:102A900027FCB1E7D8060020B006002080B500F082
:102AA0006FFCFEF76FFA02480021817380BDC046BB
:102AB000E8000020F0B587B0002706970597049737
:102AC00003970297019700F0FFFA0C200090069000
:102AD0000124059404970225039502940195134857
:102AE00001AE314600F08CFA204600F01DFB009844
:102AF0000690059404940395029701940B4831467F
:102B000000F07EFA00F0CAFA002801D007B0F0BD4C
:102B1000022000F009FB00F0D7FA00F0BFFA00280D
:102B2000F4D0781C082F0746F2D3EFE700140050CA
:102B300070B582B00C4601AA1070D0200025012685
:102B400029463346FEF788F8D120294622463346E7
:102B5000FDF7C0FF284602B070BD10B582B001AAD3
:102B60000024148051701070D02002232146FEF7FB
:102B700073F8204602B010BD00213D480A46831874
:102B8000997159711971D970997059700832202A48
:102B9000F5D108210176042101740221017201217D
:102BA00001707047032801D900207047C0003049E8
:102BB00008184079411E88417047C04601460020F0
:102BC000032909D8C9002A4A51188A79002A03D052
:102BD000881D0021017001207047C0460146002079
:102BE000032909D8C900224A51180A79002A03D0BA
:102BF000081D0021017001207047C04680B500F01B
:102C000043FA4142484180BD70B50024184D06E0AA
:102C100000207070012030710834202C27D02E192C
:102C2000285DFFF7EBFF7178022918D0012909D040
:102C30000029F1D10028EFD00120707000207071C0
:102C40007080E9E70028E3D07088401C708080B273
:102C50006428E1D30220707001207071DCE7002845
:102C6000DAD10020707070710120B071D4E770BDAE
:102C7000B606002008480421016070474C480168EE
:102C80004C4A0A40511C01607047C0460248006827
:102C90004007C00F7047C046002401404448006808
:102CA000C00F704742480168012008407047C04685
:102CB0000148006880B27047402401400120400371
:102CC00032490A6882430A607047C0462F4801684B
:102CD0000322914301607047012000032B490A68D9
:102CE00002430A607047C046024901400248016041
:102CF0007047C046FF1B000028240140012000044B
:102D000022490A6882430A607047C0463720800122
:102D10001E490A6882430A607047C0462448016819
:102D2000244A0A40111D01607047C04680B500F07A
:102D3000A9F800F0AFF880BD0F20000703490A682A
:102D4000824301204007101808607047102401409A
:102D50000320800502490A6882430A607047C04622
:102D6000082701400948016820229143016070470B
:102D70000120800305490A6802430A607047C04683
:102D80000248016818229143016070470C240140F9
:102D90000248016807220A43026070471424014078
:102DA00003480168034A11408918163101607047D1
:102DB00008240140EAFFFF7F81B0012040050C4953
:102DC0000A6802430A60096801400091009801B056
:102DD0007047C04681B00120000705490A680243D8
:102DE0000A60096801400091009801B07047C04630
:102DF0003C1002400120400506490A6802430A606F
:102E00007047C0460120400502490A6882430A60B3
:102E10007047C0462C10024081B0012000051849BF
:102E20000A6802430A60096801400091009801B0F5
:102E30007047C04681B01248016801221143016009
:102E4000006810400090009801B0704781B00C49B4
:102E50000A6802430A60096801400091009801B0C5
:102E60007047C04681B00120800305490A680243CB
:102E70000A60096801400091009801B07047C0469F
:102E8000401002400120000506490A6802430A601A
:102E90007047C0460120000502490A6882430A6063
:102EA0007047C04630100240474908607047C0462E
:102EB0000E490A6882430A607047C0460F490A6893
:102EC00082430A607047C04610490A6882430A601C
:102ED0007047C04611490A6882430A607047C0467D
:102EE00002490A6802430A607047C04684180240DB
:102EF00002490A6802430A607047C046041802404B
:102F000002490A6802430A607047C04680180240BE
:102F100002490A6802430A607047C046001802402E
:102F2000B0B504460068217900290ED0002814D0DD
:102F30006179022914D0012915D000291AD1FFF78F
:102F4000B7FF2068FFF7DCFF12E0FFF7BDFF206846
:102F5000FFF7AEFF00252846B0BD00252846B0BDCE
:102F6000FFF7CEFF01E0FFF7AFFF2068FFF7B8FFE4
:102F7000002500E00125A07903280ED878440079C7
:102F80004000874401020D11E5E72068FFF796FF36
:102F90002068FFF7BDFF2846B0BDAD1C2846B0BD78
:102FA0002068FFF797FF02E02068FFF7B1FF206875
:102FB000FFF79EFF2846B0BD034909680140091A82
:102FC000484248417047C0460C180240B0B50A0A52
:102FD000D2B20B0CDBB293408907090F034C0D5999
:102FE0009D43904028430851B0BDC0466018024040
:102FF00002480168012291430160704700200240AD
:10300000F0B581B00D460446096800292AD0002792
:1030100006E000F075F87F1C29680846F84021D0CA
:103020000126BE400E40F6D06A682046314600F0C8
:1030300081F86868401E012804D8AA6820463146F5
:1030400000F0B0F82A692046314600F096F868682A
:103050000228E0D16A6920463146FF2ED9D800F017
:1030600039F8D8E76868401E012803D8EA68204686
:1030700000F07DF8002001B0F0BD00690840411A61
:103080004842484170470000034909680140091A55
:10309000484248417047C046100400500248016849
:1030A000012008407047C046101400500120000362
:1030B000044908607047C0460120000301490860C8
:1030C0007047C04628000050014802210160704747
:1030D00028140050494349434A430F234B43016A94
:1030E0009943114301627047404340430F214143DC
:1030F000024A13688B43034313607047200000505B
:10310000090A494349434A430F234B43416A9943C0
:10311000114341627047000001200003014908602B
:103120007047C04618000050014908607047C0460B
:103130001814005049434A4303234B430168994301
:1031400011430160704740430321414305200007BC
:1031500002680A430260704740430321414305224D
:10316000120713688B4340001843106070474A43AE
:1031700043688B4313434360704749434A430323E7
:103180004B43C16899431143C160704740430321D9
:103190004143034A13688B43034313607047C0469F
:1031A0000C00005049434A4303234B438168994331
:1031B00011438160704700004043032141430248AE
:1031C00002680A4302607047080000500122920220
:1031D000036893430B430360704700000121890299
:1031E000734A13688B4303431360704781B0994857
:1031F00001680091009940680090009801B0704704
:103200000120800293490A6882430A607047C046E1
:10321000012000028F490A6882430A607047C04655
:10322000F0B581B0009316460F4604462149384652
:10323000FCF75EFF3F21C94362680A4002436260B7
:10324000256A0D401C4A511C8E4208D34B218A002E
:1032500042437D20C1001046FCF74AFF164A401C3D
:1032600028432062154D964204D9009D002D09D0B7
:10327000192008E071003846FCF73AFF284211D1C6
:1032800004200FE00320464338463146FCF730FF68
:103290000A49CA1C012110420A4600D002462A43AC
:1032A000C8031043E169064A0A400243E26101B0E3
:1032B000F0BDC04640420F00A0860100FC0F000098
:1032C0000030FFFF01680122914301607047000058
:1032D0000120C00236490A6882430A607047C0462E
:1032E0000120800225490A6882430A607047C0466F
:1032F0000120400221490A6882430A607047C046A3
:10330000032040021D490A6882430A607047C04694
:103310000320400219490A6882430A607047C04688
:103320000120C00322490A6882430A607047C046F0
:10333000016801220A430260704700000120C002B8
:103340001B490A6802430A607047C0460120000218
:103350000A490A6802430A607047C04603204002D7
:1033600006490A6802430A607047C04603204002CB
:1033700002490A6802430A607047C046045400408C
:103380000120C0030A490A6802430A607047C04628
:103390000120000206490A6802430A607047C046DD
:1033A0000120400202490A6802430A607047C04691
:1033B00000540040B0B584B00D460446FFF782FFCC
:1033C00001A800F0E9F80CCD03992046083DFFF76D
:1033D00027FFA968204600F043F82046FFF7A8FF22
:1033E000E9682046FFF7F2FE002004B0B0BD0000FF
:1033F000184800688007C00F7047C046154800682D
:103400004005C00F7047C04612480068C005C00F95
:103410007047C0460F4800684007C00F7047C0465D
:10342000024800688007C00F7047C046185400402B
:10343000084800684006C00F7047C046054801684C
:10344000012008407047C046024800680006C00FCF
:103450007047C0461454004008480068C0B2704726
:103460008268FE239A430A438260704703490A68D0
:10347000FF239A43101808607047C046105400405C
:1034800081B017490A6802430A6009680140009147
:10349000009801B07047C04681B011480168012210
:1034A00011430160006810400090009801B070471F
:1034B00081B00B490A6802430A6009680140009123
:1034C000009801B07047C04681B005490A680243C0
:1034D0000A60096801400091009801B07047C04639
:1034E000341002406A48034941600021816005218F
:1034F000016070477FA903000E48016810229143C4
:10350000016070470B4801680222914301607047D7
:103510000848016804220A430260704705480168B0
:1035200004229143016070470248016804229143DC
:103530000160704710ED00E00120800306490A6831
:1035400002430A607047C0460120400202490A68EF
:1035500002430A607047C046007000400F2001021D
:103560004148006808407047072001033E48006852
:10357000084070470720C1021D4800680840704796
:1035800039480168382008407047C046364801680D
:10359000382008407047C04610B5044600F080FE51
:1035A000206000F05DFE606000F06AFEA06010BD6B
:1035B000012000040E490A6882430A607047C04631
:1035C000012000020A490A6802430A607047C046A7
:1035D0000C480068C00A1C2101400148405870474F
:1035E00098820008024800684005C00F7047C04636
:1035F0000010024003490A68034B134003430B6069
:103600007047C046041002400000FFFF02480168F6
:1036100001229143016070475C100240024801683A
:103620000122914301607047601002400248016826
:10363000012008407047C0460C1002400F200002D5
:1036400009490A6882430A607047C04607200003A0
:1036500005490A6882430A607047C046024801680B
:10366000072291430160704708100240D04801686A
:103670000222914301607047CD48016802220A434B
:1036800002607047CA48016802220A43026070471C
:1036900010E000E0014908607047C046CC000020FF
:1036A0000121C903426C0A43426470470168012248
:1036B0000A4302607047416901220A434261704730
:1036C00070B50D46044601681F4EB04202D01F4837
:1036D000844204D1702081436868084300E00846B2
:1036E0001B498C4208DDB4420CD01A498C4209D0E7
:1036F00019498C4206D024E014498C4202D0174963
:103700008C421ED1032109028843E96801432160EC
:10371000A968204600F05AF82988204600F058F899
:10372000B44205D00B48844202D00B48844203D1F6
:10373000297C204600F04EF82046FFF7BCFF002011
:1037400070BD0146E3E7C046002C01400004004084
:10375000FF2B014000480140004401400020004090
:10376000B0B503460120FF2909DC012914D0102936
:103770001DD11846114600F05BFB0020B0BD0124AE
:103780002502A9420ED02403A14210D118461146A9
:1037900000F0DAFB0020B0BD1846114600F00AFB2D
:1037A0000020B0BD1846114600F086FB0020B0BDD9
:1037B000416370470148002101607047382C014087
:1037C00081637047C163704701647047C16270478D
:1037D000816270470163704781B03C480168009185
:1037E000009940680090009801B0704781B0374858
:1037F00001680091009940680090009801B07047FE
:1038000081B03248016800910099406800900098AA
:1038100001B0704781B02D4801680091009940685F
:103820000090009801B070474020C04327490860CD
:103830007047C0465148016880229143016070473B
:10384000012040034D490A6802430A607047C046A0
:103850003D48016801220A430260704701200002CE
:1038600046490A6802430A607047C04643480168F7
:1038700020220A43026070474048016880220A43C0
:1038800002607047114800688007C00F7047C0464B
:103890000E4800684007C00F7047C0460B480068DC
:1038A0000007C00F7047C046084801680120084063
:1038B0007047C046054800688006C00F7047C04684
:1038C000024800680006C00F7047C046003801403B
:1038D0002A4800680006C00F7047C0462A480068A2
:1038E000C0B2704770B5192250438900FCF700FC44
:1038F000054664263146FCF7FBFB04466320C043C3
:1039000060434019000132303146FCF7F1FB0F21D2
:103910000140F02202402001101880B240180149F5
:10392000086070BD083801400120000313490A688F
:1039300082430A607047C0460320000202490A68B9
:1039400082430A607047C046143801400320400299
:103950000A490A6882430A607047C0460120400352
:1039600002490A6882430A607047C0461038014025
:10397000024801680C220A43026070470C3801407B
:10398000014908607047C0460438014081B00849C9
:103990000A680092401C01D30020C043009A00280E
:1039A00004D00A68D203D2171018FAD101B07047B8
:1039B00010E000E0F0B587B0002606960596049664
:1039C00003960296019601242046FFF771FD022519
:1039D0002846FFF76DFD0596049603950296302064
:1039E0000190F24D01AE28463146FFF709FB28460B
:1039F0003146FFF705FBA003019005200707384675
:103A00003146FFF7FDFA6003019038463146FFF773
:103A1000F7FA8020019028463146FFF7F1FA07B007
:103A2000F0BDC046F0B581B00127009700251024F5
:103A300011A328462946224600F08AFB009713A3CB
:103A400028462146224600F083FB0097202114A33C
:103A50002846224600F07CFB16480288164E17A125
:103A6000304603F073F8009730212846224633464B
:103A700000F06EFB01B0F0BDB0B4BCD3BAC5BCFC65
:103A8000BCD3C1C1B6C8D6B500000000B0B4BCF507
:103A9000BAC5BCFCBCF5C1C1B6C8D6B500000000B3
:103AA000B3A4B0B4BCD3BBF2BCF5D2BBD6B1BCD3CB
:103AB00000000000FC00002092060020BBF2BCF5D4
:103AC00020C1C1B6C8D6B53A25640000F0B581B0B2
:103AD000012700970025102412A3284629462246D4
:103AE00000F036FB009713A328462146224600F03B
:103AF0002FFB0097202113A32846224600F028FB25
:103B00001148008802B2114E11A1304603F01EF890
:103B10000097302128462246334600F019FB01B0B9
:103B2000F0BDC046B6CCB0B42EB3A4B0B4BCD3C1C3
:103B3000C1B6C800D6B52CB5BDB4EFD7EEB4F3D638
:103B4000B5BAF300D6C330006C0500209206002001
:103B5000C1C1B6C8D6B53A2564000000F0B581B041
:103B60001648027A164E17A1304602F0EFFF0127E1
:103B7000009700251024284629462246334600F0A7
:103B8000E7FA1448027814A1304602F0DFFF0097EC
:103B9000284621462246334600F0DAFA00972021D3
:103BA00011A32846224600F0D3FA0097302112A331
:103BB0002846224600F0CCFA01B0F0BDFC000020FF
:103BC00092060020C9E8D6C3B9A6C2CA3A256457EE
:103BD000000000005B050020CAB5BCCAB9A6C2CA75
:103BE0003A25645700000000B3A4B0B4C8B7C8CFEA
:103BF000BCFC31C3EBD2D400C9CFCBC9BFAABAF346
:103C0000B1A3B4E60000000070B582B001260096B2
:103C10000024102516A3204621462A4600F098FAD3
:103C2000009618A3204629462A4600F091FA0096ED
:103C3000202118A320462A4600F08AFA1748007867
:103C40000094002801D1174B00E0154B302120468D
:103C50002A4600F07DFA14480078012806D1009425
:103C600040203021102211A300F072FA02B070BD82
:103C7000B0B4CFC2BCD3BAC5BCFCB1A3B4E6C9E8EA
:103C800000000000D6C32CB0B4CFC2BCF5BAC5BC8E
:103C9000FCD6D800D6C3C9E8D6C30000F90000207E
:103CA000B08F0008A98F0008F8000020D2D1D6D824
:103CB000D6C3000010B5114C552020723020208052
:103CC0000F4860600F480C222146FDF725FD606813
:103CD000411C02D00C49086002E00B480B4901600E
:103CE00020880B49884201D132202080207AFF2889
:103CF00000D010BD3220207210BDC046FC00002054
:103D000000000C4200B00008D0000020000010426B
:103D1000FFFF000070B500210E4A0B4611E014466B
:103D200080252560402414601646083E36681461DC
:103D3000CD407404E4172C402343491C400008295B
:103D400005D044B2002CEADB14461034E8E7D8B2C0
:103D500070BDC04618040050F0B587B00026069626
:103D60000596049603960296019601242046FFF7D5
:103D7000ABFB02252846FFF7A7FB059602A870C0FB
:103D8000402000900190F14801AF3946FFF738F923
:103D9000059602A870C080200190EC4C2046394660
:103DA000FFF72EF90098A06207B0F0BD00040050A4
:103DB00070470000F0B581B0044601200090C04378
:103DC000226A024022620A690240206A0326B04346
:103DD00010430F684D6805436268A06973239843D8
:103DE0003843734B9C4205D0724B9C4202D0724BBD
:103DF0009C4214D133029A43009B5B024E690096A9
:103E00008F69CE699F43174372003A430C239D4349
:103E1000009B5B08DB002B438D68AD001D43626097
:103E2000A061C9682046FFF7C3FC256201B0F0BD60
:103E3000F0B581B00446006A102290432062206AE7
:103E4000302290430A695208520102430B684868C5
:103E500005011543606873221202A66996431F028A
:103E60003743534B9C4205D0524B9C4202D0524B9D
:103E70009C4215D103239B0298434A6900928E69A4
:103E8000CB69B6000B4A32400243D8001043C0222F
:103E90009543009A5208D2012A438B689D0115432D
:103EA0006060A761C9682046FFF78AFC256201B0FF
:103EB000F0BDC046FCF7FFFFF0B583B004462048D4
:103EC000FF30226A02402262032002900002226A2E
:103ED000824308694008400210430E684A68150290
:103EE00005436268E3697327BB433343304EB442F2
:103EF00005D0304EB44202D02F4EB44217D1029FAB
:103F00003E03B243486901908869CE690096060174
:103F10000C4830401043009A52010243B8028543D6
:103F200001984008C00228438D68AD0205436260D5
:103F3000E361C9682046FFF745FC256203B0F0BD88
:103F400000FEFFFFF0DFFFFFF0B581B00446012067
:103F50000203236A9343236203221203236A9343D7
:103F60000A69520852031A430E684B681D03154331
:103F7000636873221202E769974332023A430C4E98
:103F8000B44205D00B4EB44202D00B4EB44205D120
:103F90008003834388698001184300E0184660600D
:103FA000E261C9682046FFF70FFC256201B0F0BD51
:103FB000002C0140004801400044014080B5002829
:103FC00006D0012081029F48FF22FCF7B9F880BD8E
:103FD000012081029B48FCF7BAF880BDF0B581B0A2
:103FE0000024984D26463046B030214600F02CF98A
:103FF0002046214600F028F91020214600F024F93F
:104000002746E85D012100F01FF97F1C802FF8D1C1
:104010008035761C082EE6D101B0F0BD10B58D209C
:104020000024214600F010F91420214600F00CF97C
:10403000AF20214600F008F910BD0000F0B587B0B0
:104040000024069405940494039402940194012698
:104050003046FFF72DFA02273846FFF729FA059474
:1040600004940397029630200190384801A90091EA
:10407000FEF7C6FF0594049403970296B0030190DF
:104080000520050728460099FEF7BAFF059470033E
:1040900001900D200690029728460099FEF7B0FF88
:1040A00010262A4FBE6214252846FFF76FFCBE611A
:1040B000E220214600F0C8F82846FFF767FCAE2052
:1040C000214600F0C1F8A220214600F0BDF82320CF
:1040D000214600F0B9F8A020214600F0B5F8C8202C
:1040E000214600F0B1F8A620214600F0ADF881206D
:1040F000214600F0A9F82020214600F0A5F8A420D0
:10410000214600F0A1F8F8252846214600F09CF849
:104110002846214600F098F82C20214600F094F81B
:104120002E20214600F090F82F20214600F08CF838
:104130004020214600F088F82046FFF73FFFFFF7B8
:104140004DFFFFF76BFF07B0F0BDC0460004005005
:10415000F0B587B01E461546069107461846FCF78F
:1041600001F80590002858D00C9804908020401B3E
:1041700001906808029000200446039605E0039E23
:10418000641CE0B20599814247D93256002A07D40F
:10419000102D13D0082D40D10626002A11D1EEE7AC
:1041A0003218202D1FD0182D24D0102D35D1F8B263
:1041B0000699C9B2049BFDF7DFFB21E00826002A1F
:1041C000DDD004980090F8B20699C9B2D2B22B465D
:1041D000FDF76AFBF719F8B2782800D90027039E8B
:1041E0007828CDD915E0F8B20699C9B2049BFDF73D
:1041F0003DFC05E0F8B20699C9B2049BFDF7FEFB51
:10420000019902983F18F8B2814200DA00278142F2
:10421000B6DA069840190690B2E707B0F0BD000084
:1042200010B507240C400123A340C908C901081890
:1042300004490C5C002A02D01C430C5410BD9C4362
:104240000C5410BD0801002080B5C0B2002902D076
:1042500001F05CFA80BD01F049FA80BD70470000B2
:1042600010B50446FFF77AF980093C210140034864
:1042700040581F210140CC40204610BD5079000815
:1042800010B50446FFF770F9000B80000349085889
:104290001F210140CC40204610BDC0469079000847
:1042A00010B5FFF76DF90321C841401E03280BD854
:1042B0000D4CC0467844007940008744101201013B
:1042C0000120C403204610BD08480068C00A1C2114
:1042D000014007484458FFF74DF9C00AC440204642
:1042E00010BD00F007F810BD00366E01041002404A
:1042F0009882000880B5FFF799F9012801D1034899
:1043000080BDFFF765F9400080BDC046006CDC024F
:104310007047000070B5414D2878082800D978E032
:104320007844007940008744040C1A283746505AD4
:104330006400302000F03AFF002863D02878401C49
:104340002870B94EB11D0024204600F06BF80028FB
:1043500061D02878401C2870F088C000F080B24CF2
:1043600021460831012000F05DF800284AD0287865
:10437000401C2870208980002081AB4C21460A31E6
:10438000022000F04FF800283CD02878401C28700C
:104390006089072141436181A34C21460C310320F0
:1043A00000F040F800282DD02878401C2870A08903
:1043B00005214143A1819C490E31042000F032F8CF
:1043C00000281FD02878401C2870974910310920F8
:1043D00000F028F8002815D02878401C2870924951
:1043E00012310A2000F01EF800280BD02878401C5B
:1043F00028708D48018A0A4A914205D80020287009
:10440000012070BD002070BD002129704170012085
:1044100070BD00242C70204670BDC04608050020E9
:10442000830C0000B0B582B00C460146164D2878CA
:10443000022819D0012809D0002821D1302000F00D
:104440007DF8002819D02878401C28707648401D37
:1044500000907820312102232246FCF73BFC002803
:104460000BD02878401C28706F484079002804D071
:1044700000202870012002B0B0BD002002B0B0BD05
:104480000020287002B0B0BD09050020F0B581B051
:104490000446154F3878012813D000281DD1154641
:1044A0000E466148C11C204600F020F8002818D0B4
:1044B0003878401C387035405B49C878B043284391
:1044C000C8705948C178204600F038F8002808D054
:1044D00000203870012001B0F0BD0020387001B01C
:1044E000F0BD002001B0F0BD0A05002010B582B07B
:1044F0000A460146104C207801280DD0002814D11E
:104500004948401D009078200123FCF7E3FB002878
:104510000FD02078401C207043484079002808D0F4
:1045200000202070012002B010BD0020207002B0D9
:1045300010BD002002B010BD0B05002070B582B088
:104540000C460146384E701D0090F21C7820012563
:104550002B46FCF7EDFB002801D0F47000E00025AD
:10456000284602B070BDC04610B582B02D4C2078F0
:10457000062852D87844007940008744030B151F61
:104580002D344200992000F011FE002842D02078FE
:10459000401C207024492C319920FFF7A7FF0028E8
:1045A00038D02078401C20701F492D31A220FFF701
:1045B0009DFF00282ED02078401C20701A4A501DE4
:1045C00000902632782086210223FCF783FB002806
:1045D00020D02078401C207013484079002819D042
:1045E0002078401C20701048826A401D009078207E
:1045F00088210323FCF76EFB00280BD02078401C99
:10460000207009484079002804D000202070012043
:1046100002B010BD002002B010BD0020207002B01A
:1046200010BDC0460C0500201C050020B0B50F4D84
:104630002878012809D0002812D1202000F0B6FDEA
:10464000002811D02878401C287020200124214601
:10465000FFF774FF002807D0002028702046B0BD67
:1046600000242C702046B0BD0020B0BD0D050020F8
:10467000B0B50446134D2878012809D0002812D17E
:10468000A42000F093FD00280BD02878401C28704F
:10469000A4200421002C0AD00A46FFF7F7FE0028C8
:1046A0000BD10020B0BD00242C702046B0BD0024EA
:1046B0002246FFF7EBFE0028F7D0002028700120EB
:1046C000B0BDC0460E050020B0B50446134D287895
:1046D000012809D0002812D1A42000F067FD00288D
:1046E0000BD02878401C2870A4200821002C0AD068
:1046F0000A46FFF7CBFE00280BD10020B0BD0024F6
:104700002C702046B0BD00242246FFF7BFFE0028D3
:10471000F7D0002028700120B0BDC0460F05002052
:10472000B0B50446174D2878022818D0012809D0C2
:10473000002824D1A52000F039FD00281DD02878BC
:10474000401C287005212046FBF7D2FCC1B2A520F1
:10475000FFF7F4FE002810D02878401C28700521AF
:104760002046FBF7C5FC010AA620FFF7E7FE00285C
:1047700003D0002028700120B0BD0020B0BD002073
:104780002870B0BD10050020B0B5EA4D2878272864
:1047900000D9CAE14000C046784480884000874480
:1047A000270030003A0042004C00560060006B00C9
:1047B000750081008B009600A100AB00B500C00021
:1047C000CA00D400DE00E800F300FE000901150174
:1047D00020012B01360142014D01570160016A01A0
:1047E00074017E01880192019C01A601AD01B50111
:1047F000202000F0DBFC002800D194E12878401C48
:10480000287020200121FFF799FE002800D18AE1BD
:104810002878401C287000F07FFD002800D182E13C
:104820002878401C287025201D21FFF787FE0028CE
:1048300000D178E12878401C287029200121FFF759
:104840007DFE002800D16EE12878401C28704020B1
:104850008421FFF773FE002800D164E12878401C12
:104860002870D24801784520FFF768FE002800D163
:1048700059E12878401C28704F206421FFF75EFE24
:10488000002800D14FE12878401C2870A220202168
:1048900000242246FFF7FAFD002800D147E12878DE
:1048A000401C28704120800000F080FC002800D1CE
:1048B00039E12878401C2870002480212046FFF729
:1048C0003DFE002800D132E12878401C28700420E9
:1048D00077212322FFF7DAFD002800D123E1287891
:1048E000401C287008208D21FFF728FE002800D1E9
:1048F00019E12878401C28700D203221FFF71EFE98
:10490000002800D10FE12878401C28700E20CF210C
:104910004F22FFF7BBFD002800D104E12878401C9E
:1049200028700F20FA21FFF709FE002800D1FAE0D5
:104930002878401C287010204921FFF7FFFD00282F
:1049400000D1F0E02878401C287011200621FFF7E4
:10495000F5FD002800D1E6E02878401C28701220E0
:104960000221FFF7EBFD002800D1DCE02878401C95
:1049700028701320F021C022FFF788FD002800D105
:10498000D1E02878401C28701520C0214022FFF774
:104990007DFD002800D1C6E02878401C2870162034
:1049A0005E210E22FFF772FD002800D1BBE02878BF
:1049B000401C28701720C02100242246FFF766FD06
:1049C000002800D1B3E02878401C287018203C2132
:1049D0000A46FFF75BFD002800D1A4E02878401CC0
:1049E000287019200F210922FFF750FD002800D15F
:1049F00099E02878401C28701A2000242146FFF7EF
:104A00009DFD002800D192E02878401C28701F20CE
:104A10003F2100242246FFF739FD002800D186E01F
:104A20002878401C28702020A72100242246FFF768
:104A30002DFD00287BD02878401C28702220F021F2
:104A4000C022FFF723FD00286DD02878401C287075
:104A50002320E021FFF772FD002864D02878401C55
:104A600028702420C0210A46FFF710FD00285AD0E4
:104A70002878401C28702B2038210A46FFF706FDB5
:104A8000002850D02878401C28702C2011210A467C
:104A9000FFF7FCFC002846D02878401C28704D20E9
:104AA0000F210822FFF7F2FC00283CD02878401C98
:104AB00028704E2090210A46FFF7E8FC002832D0EB
:104AC0002878401C287050204F210122FFF7DEFC7F
:104AD000002828D02878401C287051207F216E2281
:104AE000FFF7D4FC00281ED02878401C287000F066
:104AF00035F9002817D02878401C2870152000F0C0
:104B000055FB00280FD02878401C287015203F2125
:104B1000FFF714FD002806D07D48012444700020D2
:104B200028702046B0BD0020B0BD00242C70204667
:104B3000B0BDC046110500207548C17E1020084058
:104B40007047C0467248017F202008407047C04629
:104B50006F48017F102008407047C0466C48C17EF6
:104B6000082008407047C0466948C17E04200840BC
:104B70007047C04622206649095C202008407047E3
:104B80006349487800280ED02E20085C074A127826
:104B9000904205D12F20085C642801D10120704784
:104BA00000204870704700207047C046C8000020B1
:104BB00021205749085C302202402220085C0C2149
:104BC000014088187047C0465148017F02200840C4
:104BD0007047C0464E48017F012008407047C046DC
:104BE0004B48017F082008407047C0464848017F75
:104BF000042008407047C0464548407D0F210140D1
:104C00000E394842484170474148407D0F210140DC
:104C1000091F4842484170473D48407D0F210140EF
:104C2000484248417047C0463948407D0F21014005
:104C3000891F484248417047F048407D0F2101409C
:104C4000C91F484248417047EC48407D0F21014050
:104C50000839484248417047E848407D0F210140EB
:104C60000939484248417047E448407DC006C00FBA
:104C70007047C046E148407D0F210140491E48422F
:104C800048417047DD48407D0F210140891E484260
:104C900048417047D948407D0F210140C91E484214
:104CA00048417047D548407D0F210140491F484287
:104CB00048417047D148407D0F2101400D3948429D
:104CC00048417047CD48407D0F2101400C39484292
:104CD00048417047C948407D0F2101400F39484283
:104CE00048417047C548407D0F2101400A3948427C
:104CF00048417047C148407D0F2101400B3948426F
:104D000048417047FD48407D8006C00F7047C0464F
:104D10001C05002070B5104E3078012809D00028FD
:104D200014D1232000F042FA002813D03078401C20
:104D3000307023200125002429462246FFF7A6FBD8
:104D4000002805D000203070284670BD0024347043
:104D5000204670BD002070BD12050020B0B55E4D2C
:104D60002878102800D9B2E07844007940008744C0
:104D700008121E29323C475059626B747D87909906
:104D8000A200FF20343000F011FA002800D19CE08E
:104D90002878401C28703320B82100242246FFF7D1
:104DA00075FB002800D194E02878401C287034203E
:104DB0003F211422FFF76AFB002800D185E0287804
:104DC000401C287035203921FFF7B8FB00287CD023
:104DD0002878401C287036209B210322FFF756FBC1
:104DE000002872D02878401C2870372041210024E8
:104DF0002246FFF74BFB00286BD02878401C287018
:104E00003820F421FFF79AFB00285ED02878401C58
:104E100028703920F421FFF791FB002855D028781D
:104E2000401C28703A20F421FFF788FB00284CD062
:104E30002878401C28703B20F421FFF77FFB0028D6
:104E400043D02878401C28703C205521FFF776FB82
:104E500000283AD02878401C28703D20C221FFF756
:104E60006DFB002831D02878401C28703E20F321AB
:104E7000F122FFF70BFB002827D02878401C287070
:104E80003F20E421FFF75AFB00281ED02878401C61
:104E900028704020E421FFF751FB002815D0287826
:104EA000401C28704120E421FFF748FB00280CD06B
:104EB0002878401C28704220DA21FFF73FFB0028A9
:104EC00003D0002028700120B0BD0020B0BD002418
:104ED0002C702046B0BDC0461305002010B50E4C06
:104EE0002078012809D0002811D1222000F05EF995
:104EF00000280FD02078401C207022200821FFF7C6
:104F00001DFB002806D000202070012010BD0020CD
:104F1000207010BD002010BD1405002010B50E4CEF
:104F20002078012809D0002811D1222000F03EF974
:104F300000280FD02078401C207022200221FFF78B
:104F4000FDFA002806D000202070012010BD0020AE
:104F5000207010BD002010BD1505002010B5264C96
:104F60002078052844D8C04678440079400087441A
:104F7000020A141E2832132000F018F9002835D038
:104F80002078401C2070E34919311320FFF7AEFA56
:104F900000282BD02078401C2070DE491C311820BE
:104FA000FFF7A4FA002821D02078401C2070D949AE
:104FB0001D311920FFF79AFA002817D02078401CDD
:104FC0002070D4491F311C20FFF790FA00280DD023
:104FD0002078401C2070CF4920311D20FFF786FA31
:104FE000002803D000202070012010BD002010BD3B
:104FF0000020207010BDC046160500201C050020B2
:1050000010B53B4C207809286ED8C046784400790A
:1050100040008744040C16202A343E48525C0E207F
:1050200000F0C4F800285DD02078401C2070B949F9
:1050300014310E20FFF75AFA002853D02078401C74
:105040002070B44915310F20FFF750FA002849D0DD
:105050002078401C2070AF4916311020FFF746FA27
:1050600000283FD02078401C2070AA491731112019
:10507000FFF73CFA002835D02078401C2070A54965
:105080001F311C20FFF732FA00282BD02078401C5B
:105090002070A0492E314520FFF728FA002821D0A2
:1050A0002078401C20709B492F314F20FFF71EFABB
:1050B000002817D02078401C2070964924315120B8
:1050C000FFF714FA00280DD02078401C2070914979
:1050D00025315220FFF70AFA002803D00020207063
:1050E000012010BD002010BD0020207010BDC04662
:1050F000170500202C208749085C70471C050020FC
:10510000844880897047C046824800897047C046FD
:1051100080B58048C08CFBF7C1FA034A034BFBF70C
:10512000AFF9FBF7F6FA80BD2BF697DD9363744079
:1051300025207849085C704724207649085C704730
:1051400080B57448806AFBF7A9FA034A034BFBF762
:1051500097F9FBF7DEFA80BDA514747B4963B43F71
:1051600080B56C48008A06494018FBF785FAFBF7C2
:10517000BCFA044A044BFBF7EBF9FBF7CAFA80BD13
:10518000D1F8FFFF48E17A14AE471B406148C0895F
:1051900005214143503908B27047C0465D484089F7
:1051A0007047C0465B48C0887047C046B0B50446EB
:1051B000174D287801280BD0002817D15548C11C5D
:1051C0000120FFF793F900280ED02878401C2870A2
:1051D0005048C078210A0DD0012814D12420812103
:1051E000FFF7ACF900280ED10020B0BD00242C70D0
:1051F0002046B0BD012806D0FF2000242146FFF73D
:105200009DF90028F4D0002028700120B0BDC046D0
:105210001805002010B53E4C207808284DD8C0460F
:105220007844007940008744040C16202A344B55FA
:105230005F001220FFF7BAFF002860D02078401CE2
:105240002070344918311220FFF750F9002856D049
:105250002078401C20702F491A311420FFF746F99E
:1052600000284CD02078401C20702A491B31152082
:10527000FFF73CF9002842D02078401C20702549D7
:105280001C311820FFF732F9002838D02078401C54
:105290002070204C21461E311A20FFF727F90146C5
:1052A000002000290BD0A27FC021114029D0402925
:1052B00029D0802903D1142026E00020207010BDC1
:1052C000144921312A20FFF711F9002817D020783E
:1052D000401C20700F4922312B20FFF707F90028CE
:1052E0000DD02078401C20700A4923312C20FFF774
:1052F000FDF8002803D000202070012010BD002000
:1053000010BD502000E02820A077012010BDC0462D
:105310004C0500201C05002010B5234C20780528E2
:105320003FD8C0467844007940008744020A131CE5
:10533000252E2020FFF73AFF002830D02078401C8F
:10534000207020200121FFF7F9F8002827D02078CD
:10535000401C207023200121FFF7F0F800281ED008
:105360002078401C207024202021FFF7E7F8002837
:1053700015D02078401C207024204021FFF7DEF853
:1053800000280CD02078401C207024208021FFF7BA
:10539000D5F8002803D000202070012010BD002087
:1053A00010BD0020207010BD4D050020014908707F
:1053B0007047C046C800002010B582B00A48006897
:1053C000FBF793F902460B46084C09A1204601F071
:1053D000BDFB012000900020102201462346FEF76D
:1053E000B7FE02B010BDC046D000002092060020DB
:1053F000C9E8B6A8D6B5252E3032660080B582B091
:1054000001AA98205070B0201070E02000210223E3
:10541000FBF722FC02B080BD80B582B001AA172044
:10542000507035201070E02000210223FBF714FC9F
:1054300002B080BDF0B583B01E4F387800282AD066
:10544000E120002401AD062321462A46FBF742FB5A
:10545000687801990902081880B2FBF718F9164913
:10546000FAF7E0FE154E3146FAF719FF14490860C5
:105470002879E9780902081880B2FBF708F9114980
:10548000FAF7D0FE3146FAF70AFF0F49FAF771FE34
:105490000E4908600AE06A46242050705C201070B3
:1054A000E02000210223FBF7D7FB01243C7003B06E
:1054B000F0BDC0465A0500200000C84200FF7F47EB
:1054C000E400002000002F43000034C268050020E3
:1054D00080B5FBF7FFFDFBF7F1FDFBF7FBFCFBF7EE
:1054E00095FCFBF72BFEFBF795FDE1204002FBF757
:1054F00053FEFBF747FD80BD02480168491C01606F
:105500007047C046D806002007480168074A0A408D
:10551000074909681143012253030B430360D00676
:10552000044908607047C046041002400000FFFFB5
:10553000040FFF1F08ED00E0B0B5FEF7C1F9002829
:1055400014D05E4801785E4A1278531A012B03D0BA
:10555000002A04D1FF2902D1FEF76CF906E0491CAC
:105560000170C8B25749085CFEF70AFAFEF7A2F9C3
:1055700000281AD05B4800785B4C25781F2D07D196
:10558000002808D0FEF7AAF92E49485500200BE064
:10559000401B012803D111480121017005E0FEF7ED
:1055A0009DF928494855681C2070FEF77DF90028B0
:1055B00001D0FEF72FF9FEF765F9002801D0FEF7BC
:1055C0000BF9FEF76BF9002801D0FEF719F9FEF789
:1055D0005FF9002801D0FEF709F9B0BDFE060020F2
:1055E00080B5FEF767F9002803D1FEF771F90028AE
:1055F00001D0012080BD002080BD000070B50246B2
:10560000002000291BD0384B1B78364C0D4D06E08E
:1056100036781670C9B2491CCEB28E420FD12678A8
:105620001F2E05D1002B0BD0002626702E46EFE74B
:10563000761C9E4204D02670F6B2AE19E8E770BD23
:10564000012070BD70050020F0B581B000292CD07C
:105650001A4A127800231A4C09E0751C954226D08C
:10566000184CA755164C25705B1C8B420CD2C75C9E
:10567000002F09D02678FF2EEFD1002A19D0FF2560
:10568000104C67550025EDE7FEF722F900240028AD
:1056900010D10A490878401C0870C0B20949085C5A
:1056A000FEF76EF9FEF7E8F804E0002402E00124BA
:1056B00000E00124204601B0F0BDC046D600002025
:1056C0000D07002090050020064801780648007864
:1056D000884202D81F22511A00E0C9430818C0B2FC
:1056E0007047C046D4000020FF060020F0B581B00E
:1056F0000E4C2025256101218E030D4F3E61FEF7E2
:1057000009FB3E60256001B0F0BDC046F0B581B038
:10571000064C2025256001218E03054F3E61FEF7D2
:10572000F9FA3E60256001B0F0BDC0461804005093
:1057300018000050002805D41F2108400121814095
:10574000074801607047C0460120C0050449086051
:105750007047C0460120C006014908607047C04636
:1057600000E100E0002805D4032102468A430B49EA
:10577000511806E00F210140083903229143064ADF
:1057800089188007C00E40228240FF2383400868AA
:1057900098431043086070471CED00E000E400E00F
:1057A000FF20000602490A6882430A607047C0462B
:1057B00014E400E0FF20000603490A688243012048
:1057C000800710180860704718E400E00F210140BE
:1057D00000090A2242435018C0B2704782B0FFF756
:1057E00077FEFDF7C9F9FEF7B7FAFEF727FCFFF7DA
:1057F00013FEFBF7CDFA7D20C000414D2880FEF757
:1058000059FA3220FEF7C2F83EA001F079F943A020
:1058100001F076F949A001F073F94D4F002038806E
:105820004C4C20804C4E30804C4908804C490190B3
:10583000088000E030BF384600F08AFD304600F0B6
:10584000ABFD474801F0A8F8444801F0E5F82046D0
:1058500000F092F8FFF7C4FE29880028EAD1002959
:10586000E8D108214048FDF708FC002811D10121AA
:105870003D48FDF702FC00280BD102213A48FDF714
:10588000FCFB002805D104213748FDF7F6FB002872
:10589000D0D026463C462F46FFF73CFA0028FBD0E6
:1058A0000198324908702F490860FDF783FFFDF722
:1058B000FDFBFEF77FF8FFF7A1FD01252846FEF767
:1058C00065F8FDF7D3FEFDF723FE30BFFDF7D4FEEC
:1058D000FDF724FEFEF740FAFEF7B0FB2448057002
:1058E000244800881F490860FFF796FD3D4627467B
:1058F0003446194EFFF710FD0028FBD09BE7C04649
:10590000900600200A0A35533150203231373030AA
:1059100020506F7765722042616E6B000A506F777E
:1059200065726564206279205357363330362026FD
:105930002050593332463030324100000A544B5720
:10594000544C20323032342F30382F31300A00009E
:10595000F6060020F4060020F8060020FA060020D3
:10596000FC0600203444014000040050D500002013
:10597000D7060020FC000020F0B587B0074600885D
:10598000014657398629069700D9B2E04900C0463A
:105990007944898849008F44B000B600BD00BD003D
:1059A000BD00BD00BD00BD00BD00BD00BD00BD000F
:1059B000BD00BD00BD00BD00BD00BD00BD00BD00FF
:1059C000BD00BD00BD00BD00BD00BD00BD00BD00EF
:1059D000BD00BD00BD00BD00BD00BD00BD00BD00DF
:1059E000BD00BD00BD00BD00BD00BD00A701AE01F2
:1059F000B501BC01C301BD00BD00BD00BD00D101AA
:105A0000BD00BD00BD00BD00BD00BD00BD00BD00AE
:105A1000BD00BD00BD00BD00BD00BD00BD00BD009E
:105A2000BD00BD00BD00BD00BD00BD00BD00BD008E
:105A3000BD00BD00BD00BD00BD00BD00BD00BD007E
:105A4000BD00BD00BD00BD00BD00BD00BD00BD006E
:105A5000BD00BD00BD00BD00BD00BD00BD00BD005E
:105A6000BD00BD00BD00BD00BD00BD00BD00BD004E
:105A7000BD00D003BD00BD00BD00BD00BD00BD0028
:105A8000BD00BD00BD00BD00DA03E003BD00BD00E8
:105A9000BD00BD00BD00BD0086008C009300BD00B0
:105AA000E903BD00F603FEF7C1FD00283AD0D82077
:105AB00038800120FEF708FE00282FD0D92038803A
:105AC000FFF71EFB0446FFF71FFB0546FFF76AFBC7
:105AD00006466E43FFF762FB01463046FAF708FBC5
