:020000040800F2
:10000000E00A0020D5000008113200089519000808
:1000100000000000000000000000000000000000E0
:100020000000000000000000000000007137000820
:100030000000000000000000BD36000891470008E5
:10004000E7000008E7000008E7000008E7000008F4
:10005000E700000825160008591600089116000848
:1000600000000000E7000008E700000800000000B2
:10007000E7000008E7000008E700000800000000B3
:10008000E7000008E700000800000000E7000008A3
:1000900000000000E7000008E7000008011F00085A
:1000A00000000000E7000008E7000008D147000852
:1000B000E700000800000000E70000080000000062
:1000C0000348854600F0B2FC00480047750A000866
:1000D000E00A00200448804704480047FEE7FEE7A6
:1000E000FEE7FEE7FEE7FEE7A1470008C1000008C3
:1000F00030B50B46014600202022012409E00D46C0
:10010000D5409D4205D31D469540491B2546954047
:1001100040191546521E002DF1DC30BD03460B433D
:100120009B0703D009E008C9121F08C0042AFAD2AD
:1001300003E00B780370401C491C521EF9D2704733
:10014000D2B201E00270401C491EFBD2704700226F
:10015000F6E710B513460A4604461946FFF7F0FFC6
:10016000204610BD421C0178401C0029FBD1801A9A
:100170007047F8B502464A40D40F42004B0052087F
:100180005B089A4202D20246084611464A0023D032
:10019000C30D4A00DDB2120EAD1A202D35DA490228
:1001A0000126490AF6058A19002C00D05242202166
:1001B0004F1B1146B9402A411018C20D9A4221D056
:1001C000002C17D0012D08DCDA05801AD20F801917
:1001D000D207DBB200F006FBF8BDDA05801A012376
:1001E00040001B06C01880185A428018CA0F1043DE
:1001F000490007E04908C2071143DA05801A80194F
:100200004008801800F0E6FAF8BD61000122511A9A
:10021000001BF7E70122D2075140AAE70122D207CB
:100220005040A6E7024670B54A40D30FDB074000B6
:100230002DD04A002AD0010E140E00021202091914
:10024000400A520A8418E50104465443000A120A7F
:100250002E045043A4194219200CC543AA18120CAD
:100260000125AD03521C521912047F39240400D019
:10027000521C104301D44000491EC2B20C06C009F2
:100280002018401C4008802A02D003E0002070BDE6
:1002900040084000002900DA0020184370BD70B506
:1002A00002464A40D50F40004A00ED074008520878
:1002B000002814D0002A12D0C40DD30D4102012011
:1002C000C0055202490A520AE41A091812187D346C
:1002D000914201D3641C00E04900002C01DA0020A7
:1002E00070BD0023914201D3891A0343400849009D
:1002F0000028F7D100290AD0914202D10121C90773
:1003000005E0914201D2012101E00121C943E0054C
:10031000C018401900F05EFA70BD0000F0B5074645
:100320000846584087B0C00F049048000E46590058
:1003300040084908BC1A884105D2384631461E4655
:1003400017460B4602465800400810434CD0300D6B
:10035000039040055900400D490D0590401A029048
:10036000402872DA18030121000B090508430190A7
:1003700004980092002805D001995242002088413B
:1003800000920190029840210A1A0199009800F009
:10039000FEF905460C466B4607CB00F008FAC0197B
:1003A0007141039A0E0D0023D71756401A467A4022
:1003B000164344D0049A002A2DD0029A012A039AA7
:1003C00015DC1205C01A914101263605001C714149
:1003D000D20F059ED2070093019202962A46234629
:1003E00000F046FA07B0F0BD38463146FAE7160588
:1003F000224A0F46B218C01AB74101210905001C54
:100400004F4100187F41114618187941E20F1043FF
:100410006D19644113E0E2076D0815436408C207D3
:100420001443039A01261205C01A91413605001C97
:100430007141CE07400830434908C01851412A464F
:10044000234600F008FACDE7FFE7049801224000B8
:10045000C117121A00238B4104983146C417381A69
:10046000A141EEE730B40124E407634030BC55E716
:1004700030B40124E407614030BC4FE70000E0FFE6
:10048000F0B51FB488B00B99099800244840099929
:10049000C00F490049080991C0070B990090490015
:1004A00049080B9109990898A64608431CD00B9956
:1004B0000A98084318D0099801244000420D4800CA
:1004C000410D099824050003000B204309900B9867
:1004D0000003000B20430B9050181C4940180022C9
:1004E00001901446104605E0002001460DB0F0BD15
:1004F000032801DA034600E003239C46C11A0AAE32
:100500000AE05F0008ADED5B4F00F75B7D4300271D
:10051000AA187C41491C5B1E6145F2DD410004AB19
:100520005A522104120C0A43240C401C0828DFDB19
:10053000019802900099704601910090059B049AE1
:100540000799069800F094F9D0E700000DFCFFFF32
:10055000F0B50C465C4085B0E40FE40703944C0012
:100560000026640859009446490802460296224330
:1005700021D062460A431ED06200570D4A000E0386
:100580002303550D012402462C492405781B1B0B1F
:10059000360B401823432643614600901C46501AF0
:1005A000B44103D30098401C009002E092180098D8
:1005B0005B41002803DA0020014605B0F0BD0020B1
:1005C000012109050746864611E064461D46141BB5
:1005D000B54106D36546521BB341744607430C43ED
:1005E000A646CD0740084908284392185B410546B6
:1005F0000D43EAD11046184313D0604619465040C7
:100600007140084306D06046101AB34106D2012259
:10061000002306E000220123DB0702E00122D2438F
:100620005310009874460105381C6141029C039DDB
:100630000019694100F00FF9BFE70000FD03000059
:100640000122D207002800DB101A002900DB511A12
:10065000814201D201207047002070470122D20759
:10066000002800DB101A002900DB511A814201D951
:100670000120704700207047C217C10F504010B5CD
:100680004018CA079623002100F0ACF810BD10B541
:1006900000229623114600F0A5F810BDC20F4100BC
:1006A00040020123400ADB05D207090EC0187F294A
:1006B00001DA00207047962903DC9623591AC840B6
:1006C00001E096398840002AF4D040427047C20FBA
:1006D000D207400040080BD0C10D0723DB01C91829
:1006E00040020905400A1143C20840071143704700
:1006F000002001467047CB0FDB07490010B54908C1
:1007000002460A4307D00A0D07240903E401090B36
:10071000121B002A01DC002010BDC900440F0C434D
:10072000C100E018D205801800F054F810BDF0B5F3
:100730001FB40646002082B0054640240191009077
:100740001BE0019922460F46304600F081F9049AD9
:10075000059B801A994110D310461946224600F095
:1007600016F8361A8F410197224601200021009F7A
:1007700000F00DF838184D4100902046641E002806
:10078000DFDC019B00982946324607B0F0BD10B56A
:10079000202A04DB0146203A9140002010BD914000
:1007A00020239C1A0346E3401943904010BD10B526
:1007B000202A06DBCB170846203A1041C1170B430D
:1007C00006E00B461341D0402024A21A9140084372
:1007D000194610BD002904DA401C490001D1400827
:1007E0004000704770B40024050C05D110240004AB
:1007F00002D1002921D01124050E01D100020834B4
:10080000050F01D10001241D850F01D18000A41C1A
:10081000002801DB4000641C002908D020252E1B85
:100820000D46F540A14000D00121294308430106AF
:100830001B1B000ADB1D02D5002070BC7047DB05C6
:10084000181880180029F8DA401C4900F5D170BC4E
:1008500040084000704710B5002B08DA0024401C07
:10086000614192185B411A4301D14008400010BD1C
:10087000F0B51FB482B005460C0003D0084605F061
:100880007DF802E005F07AF820300246009021461B
:100890002846FFF77CFF049B059A04460F46184341
:1008A0001143084314D0184610431BD00098402130
:1008B0000A1A1846059900F0CBF805460E46009A2C
:1008C00005990498FFF763FF084305D0012004E071
:1008D0002046394607B0F0BD0020C11705430E433E
:1008E0002C43374300990E986305401A7905E40AB2
:1008F00000220C43FD0A0A3002D500200146E9E738
:100900000105101969410C9C0D9D00196941FFF703
:10091000A2FFDFE770B54B005B0803430BD04B0031
:100920005C0D002633466542B341D417AD1AA3418E
:1009300002DB0020014670BD12053018514170BD28
:100940000EB5C217C10F5040CA0740180021054B11
:100950000293019200910A460B46FFF789FF03B00C
:1009600000BD0000330400004A0009030123090B05
:100970001B0519430A4B10B5520D9A4202DA0020AA
:10098000014610BD064B34339A4203DC9A1A00F03C
:100990005FF810BD034BD218FFF7F9FE10BD000041
:1009A000FF030000CDFBFFFF10B5002904DB01248D
:1009B000E40740428C412146002B04DB1C46012306
:1009C000DB075242A3418B4200D1824210BD00009E
:1009D00010B5002904DB0124E40740428C41214684
:1009E000002B04DB1C460123DB075242A341994242
:1009F00000D1904210BD000002000A4800D4821AC3
:100A0000002900DB411A914204D3012040079142A2
:100A100000D10548EFF300810902090A014381F37F
:100A2000008870470000008000000060064C01252F
:100A3000064E05E0E36807CC2B430C3C9847103486
:100A4000B442F7D3FFF740FB647E0008847E0008C1
:100A500010B5202A04DB0846203AD040002110BD02
:100A60000B46D340D0402024A21A91400843194697
:100A700010BD000080B5002007490122D306C358ED
:100A80000B50001DC028F8D150070449086003F03E
:100A9000F1FF002080BDC0460000002008ED00E00E
:100AA00080B501F059FC002805D101F0D3FC01F01C
:100AB0004FFC0028FBD180BDF0B583B01C46154625
:100AC000074602F007F80028FBD101F05BFF012088
:100AD00001908602304601F0DBFE01F0B3FF02F028
:100AE00007F80128FBD1FE20384002F019F801F088
:100AF000D9FF0128FBD101F0D3FE01F0A3FF01F0E3
:100B0000F7FF0128FBD101980743384602F008F8A7
:100B100001F0C8FF0128FBD12746022C2C460BD040
:100B2000012F3D4617D0002D23D101F0B9FE01F071
:100B300091FF002D31D123E001F05AFFEFF3108037
:100B400072B601F0ADFE002001F0A2FE62B63D4695
:100B5000002D22D114E0002001F09AFEEFF3108066
:100B600072B601F09DFE01F075FF62B6002D14D142
:100B700006E0304601F08CFE01F092FE002D0CD113
:100B800003B0F0BD029502262B4D01F0BFFF20708F
:100B900002984519BC192804F2D0A8B2042814D22E
:100BA0000128029522D0022829D101F08DFF0128C9
:100BB000FBD1EFF3108072B601F04CFF01F0A6FFFD
:100BC000207062B62746641CDDE701F08BFF012828
:100BD000FBD101F09BFF20702746641C01F074FFDD
:100BE0000128CFD06D1E2804D7D1C9E701F07AFFC4
:100BF0000128FBD11048451C019E2746C5E701F09E
:100C000063FF0128FBD1002001F042FEEFF31080CA
:100C100072B601F07BFF207001F056FF0128FBD176
:100C200001F018FF01F072FF607062B60248451EC5
:100C30002746A41C0326A8E7FEFF0000F0B581B0FC
:100C40001C461746064601F045FF0028FBD101F07F
:100C500099FE01F0F7FE01F04BFF0128FBD1FE20C9
:100C60000640304601F05CFF01F01CFF0128FBD17B
:100C700001F016FE002C05D101F0ECFE01B0F0BD34
:100C80002004F9D03E4601F039FF0128FBD130782D
:100C900001F046FF771C0094641E250401F014FF48
:100CA000002DEDD00128EBD1707801F039FF0098CC
:100CB000841EB71CE4E70000F0B581B0009316462F
:100CC0000F460546002401F005FF00281ED12B46E3
:100CD000009DC848817B002918D10699042282739F
:100CE000FE221340037047704660858181608068F2
:100CF0000021017001F094FE1C48006814301C496A
:100D0000086001F03FFE01F09DFE0124204601B085
:100D1000F0BDC046F0B581B01E4617460D460446EC
:100D20000020009001F0D6FE00281CD1B148817B44
:100D3000002918D10699012200928273FE221440E4
:100D40000470457047608681816080680021017071
:100D500001F066FE0548006814300549086001F09E
:100D600011FE01F06FFE009801B0F0BDBC0600203E
:100D70009406002080B501F033FB01F0A7FBFFF7DC
:100D80008FFE012001F0D6FE102001F036FD20205C
:100D900001F033FD01F036FB01F028FB01F04AFBC6
:100DA00001F03AFB01F03EFB01F04CFB01F008FBC7
:100DB00001F0E6FA01F0EAFA01F0FAFA01F0D8FAE5
:100DC00080BD0000B0B5094C0025256001F0E6FAB1
:100DD00001F0AEFA01F0FCFA01F0B2FA0028FBD003
:100DE00001F0A2FA01F0BEFA2560B0BD282401404E
:100DF000F0B583B001AD0227AF710124AC80402073
:100E00000190284601F0E6FB00202A4901F038FC59
:100E10000726304603F0F2FD304603F0D7FDAF71F0
:100E2000AC800194284601F0D5FB03200104204644
:100E300001F026FC0526304603F0E0FD304603F0C5
:100E4000C5FDAF71AC800197284601F0C3FB61205E
:100E5000C102204601F014FC304603F0CFFD3046BD
:100E600003F0B4FDAF71AC8004200190284601F07E
:100E7000B1FB31200103204601F002FC062630467A
:100E800003F0BCFD304603F0A1FDAF71AC8008203B
:100E90000190284601F09EFB6320C102204601F02C
:100EA000EFFB304603F0AAFD304603F08FFD03B0A0
:100EB000F0BDC04601100100F0B587B000270697CD
:100EC00005970497039702970197232001F032FEBC
:100ED000069702250595049703950320029010209C
:100EE0000190414801AC214601F0E4FB0697012640
:100EF000059604970395029740200190052000076E
:100F00000090214601F0D6FB0697059604970395BD
:100F1000029701965E48214601F0CCFB01955C48A2
:100F2000214601F0C7FB042001905948214601F0F9
:100F3000C1FB069705960497039502970820019038
:100F40005348214601F0B6FB01F010FC05970497C9
:100F500003970296300301900098214601F0AAFB06
:100F600001F004FC07B0F0BDF0B58BB001F0FCF867
:100F70000C270A97012609960896022407940694DE
:100F80000594194805AD294601F094FB0A97099686
:100F900008960794069405961348294601F08AFBA3
:100FA00001F064FA01F080FA01F086FA01F042FDE6
:100FB00001F010FD00240494AA200390B0030290D5
:100FC0000A4801900A4801A901F04EFD03F034FDE2
:100FD00003F006FD01F014FD01F0DCFC01F0E2FC81
:100FE000044884730BB0F0BD00140050801A060052
:100FF00000540040E0000020F0B58FB002270E97AB
:101000000124260200960996214809AD294601F0DF
:1010100051FB0E970996052006073046294601F038
:1010200049FB0E97E00209903046294601F042FB49
:101030000D200E90600309903046294601F03AFBDE
:101040000027079705970294602601966420049074
:10105000484801AD21462A4601F0DCFE0497464887
:1010600021462A4601F0D6FE0497102142482A461E
:1010700001F0D0FE0098079005970294019604971E
:1010800021033D482A4601F0C5FE0FB0F0BDC04621
:101090000004005080B501F089FD01F0AFFD01F0C2
:1010A000A5FD01F089FD01F099FD80BD80B501F03D
:1010B0001BFA01F0E9F901F0DDFD1348006813495E
:1010C00001400120C003081801F0EEFD01F0E4FD2D
:1010D0000128FBD101F00CFE01F01AFE01F0B0FD79
:1010E0000028FBD101F00CFE01F056FD01F024FEBA
:1010F00001F0D8FA064801F027FE01F0E1FD01F009
:10110000B1FD01F0E5FD80BD100FFF1FFF1F0000C6
:1011100000366E01B0B586B000250595049503959F
:10112000029501950124600401F0EAF9E00201F062
:10113000E7F901AC25742580029504950C480390CD
:101140000C4D2846214601F015FE284601F002FE0E
:10115000284601F005FE084D2846214601F00AFE0A
:10116000284601F0F7FD284601F0FAFD06B0B0BDB3
:10117000E703000000440140002C014010B5044684
:1011800001F0CAF91D480068214601F00BFF01F08B
:101190002BFF01F043FF01F039FF01F02DFF01F0BB
:1011A00047FF01F0ADFE01F09FFE01F0CFFC01F022
:1011B000CDFC0424204601F029FB204601F056FB1B
:1011C000204601F03DFB204601F0E8FA08242046C5
:1011D00001F01CFB204601F049FB204601F030FBEA
:1011E000204601F0DBFA01F099FE01F091FE01F0DA
:1011F0009DFE03F02BFC03F0F9FB10BDC4000020A2
:1012000080B5002001F044F8002801D0012080BD05
:10121000002001F021F8002801D0052080BD002029
:1012200001F026F8002801D0092080BD012001F03E
:101230002FF8002801D0022080BD012001F00CF819
:10124000002801D0062080BD012001F011F80028FF
:1012500001D00A2080BD022001F01AF8002801D038
:10126000032080BD022000F0F7FF002801D00720F6
:1012700080BD022000F0FCFF002801D00B2080BDC3
:10128000032001F005F8002801D0042080BD0320D0
:1012900000F0E2FF002801D0082080BD032000F00C
:1012A000E7FF002800D00C2080BD70B582B0044656
:1012B00001AE002535700620314600F093FF3078EE
:1012C00003F0D0FB7D2109014018E0800520314664
:1012D00000F088FF307803F0C5FB20710420314610
:1012E00000F080FF307803F0BDFBE070284602B0CC
:1012F00070BD70B582B0044601AE00253570022085
:10130000314600F06FFF307803F0ACFBA070012095
:10131000314600F067FF307803F0A4FB6070284688
:10132000314600F05FFF307803F09CFB2070032013
:10133000314600F057FF307803F094FB20722846C6
:1013400002B070BDF0B581B0009316460F4604465A
:101350000A252946FEF7CCFE29464143611A0001C1
:101360000843C1B2062000F052FF38462946FEF776
:10137000BFFE29464143791A00010843C1B2052046
:1013800000F045FF30462946FEF7B2FE29464143AC
:10139000711A00010843C1B2042000F038FF009C1C
:1013A00020462946FEF7A4FE4543611B0001084381
:1013B000C1B2032000F02BFF002001B0F0BDF0B55A
:1013C00081B014460E4607460A252946FEF790FED0
:1013D00029464143791A00010843C1B2022000F0B6
:1013E00016FF30462946FEF783FE29464143711A0F
:1013F00000010843C1B2012000F009FF2046294640
:10140000FEF776FE4543611B00010843C1B200248C
:10141000204600F0FCFE204601B0F0BDF0B585B0DE
:101420006A48047807466A48C2886A4E6AA130460C
:1014300004F07EFA083C601E8441009400251024CC
:10144000284629462246334602F0B2F80126009685
:1014500020200490624B2946224602F0A9F83F78EA
:101460005B4802795F495B4804F062FA093F781EE5
:1014700087410097282029462246564B02F098F8CB
:101480000096382029462246554B02F091F84F48E5
:1014900007784F48C2784F48524904F049FA0A3F4A
:1014A000781E87410097402029462246494B02F08A
:1014B0007FF8009650204CA32946224602F078F887
:1014C00042480778424882784248464904F030FA58
:1014D0000B3F781E874100975820294622463D4BF6
:1014E00002F066F800966820404B2946224602F03A
:1014F0005FF836480778364842783648394904F06C
:1015000017FA0C3F781E87410097702003952946F3
:101510002246304B02F04CF80096284621462246DF
:10152000324B02F045F82948077829480278294DBE
:1015300028462C4904F0FCF90D3F781E874100979E
:101540000820214622462B4602F032F80096182049
:1015500027A32146224602F02BF81C4807781C4896
:10156000027A24A1284604F0E3F90E3F781E874151
:1015700000973746049D284621462246154B02F027
:1015800017F80096302002901BA32146224602F055
:101590000FF800961BA3039E30462946224602F010
:1015A00007F800971BA330460299224602F000F884
:1015B00019480078012806D10097502030211022C8
:1015C00016A301F0F5FF05B0F0BDC046920600205D
:1015D0003805002076060020253034640000000025
:1015E000B5780008717900085F000000CE78000827
:1015F0002E00000025640000B3A4B0B4C8B7C8CF63
:10160000BCFC000031C3EBD2D4C9CFCBC9BFAABA4E
:10161000F3B1A300B4E6000053050020D2D4B1A377
:10162000B4E6000010B50124204601F01FF80028A0
:1016300004D1022001F01AF800280BD0204600F057
:101640008DFF022000F08AFF104804707D20C0004A
:101650001949088010BDC04680B5082001F006F881
:10166000002804D1042001F001F800280CD0082043
:1016700000F074FF042000F071FF044801210170A4
:101680007D20C0000C49088080BDC046BA060020FD
:1016900080B5402000F0EAFF002809D0402000F08B
:1016A0005DFF0448012101707D20C00002490880CF
:1016B00080BDC0469806002074060020F0B581B0B9
:1016C00001270097002510240EA32846294622460C
:1016D00001F06EFF009710A328462146224601F034
:1016E00067FF11480268114E11A1304604F020F93D
:1016F0000097202128462246334601F059FF01B0C9
:10170000F0BDC046B3A4B0B4C8B7C8CFBCFCBFAA34
:10171000B5E7BBA100000000CBC9BFAABAF3B9D896
:10172000B5E7BBA100000000342C01407606002084
:10173000B5E7BBA1D5BCBFD5B1C82564000000008A
:10174000F0B585B00491054640B2002800D50025CB
:10175000002802D50498801C0490203A0A98102B87
:1017600006D0082B4ED10026002806D0304605E0D2
:101770000026002824D0304623E0F043D1B2C9002F
:10178000214A51180191C0B2009031460296049846
:10179000471801980391445C00984440A819C0B2CE
:1017A0002146B140C9B2CA09F9B201F069FF761CFD
:1017B000082EF3D10399491C0829029EE7D121E0A4
:1017C000F043D1B209010191C0B2009031460296B6
:1017D000049847180198039140180C490C5C009834
:1017E0004440A819C0B22146B140C9B2CA09F9B2F1
:1017F00001F046FF761C082EF3D10399491C1029ED
:10180000029EE5D105B0F0BD80670008786A000847
:10181000F0B587B00591049010781D4E352103E096
:10182000491E2236002930D034788442F8D15478C9
:101830007578A542F4D10027002B01D0384600E08E
:10184000F843C0B201903A4603960297D0B24008DE
:1018500005994518D007000F049944180692B0184E
:10186000867801984640E019C0B23146B940C9B205
:10187000CA09E9B201F004FF7F1C082FF3D1069AD0
:10188000521C202A039E029FE0D107B0F0BDC04643
:1018900088700008F0B585B0039102901078C828D0
:1018A0002CD15078AB2829D10026002B01D030460E
:1018B00000E0F043C0B2009034460196E0B203214C
:1018C000FEF716FC039A85180D48049400198478D5
:1018D00000984440C80002994718B819C0B2214680
:1018E000B140C9B2CA09E9B201F0CAFE761C082E9D
:1018F000F3D1049C641C482C019EDFD105B0F0BDDF
:1019000092770008F0B585B0039102901078C8284E
:101910002BD15078AB2828D10026002B01D030469F
:1019200000E0F043C0B2009032460196D0B2800889
:10193000039945189007C00E029944180C48049268
:101940008018877800984740A019C0B23946B14046
:10195000C9B2CA09E9B201F093FE761C082EF3D190
:10196000049A521C802A019EE0D105B0F0BDC04609
:10197000DC770008012804D0002805D1044800685D
:10198000704702480068704700207047DC00002064
:101990004C050020FEE70000F0B585B08D480189B8
:1019A0008D4A1181016840681160506000200490E8
:1019B00001F034FD02F066FD064602F03DFDFEF743
:1019C00066FE864C2146FEF76AFCFEF780FE054661
:1019D0000F463046FEF75BFE2146FEF760FCFEF741
:1019E00076FE02460B46009501977D4C7D492046C8
:1019F00003F09EFF012600961027049801463A4600
:101A0000234601F0D5FD02F041FD039002F018FDE0
:101A1000FEF73DFE7149FEF742FCFEF758FE054613
:101A20000C460398FEF733FE6C49FEF738FCFEF7D0
:101A30004EFE02460B4600950194694C20466949CA
:101A400003F076FF03960096049839463A462346FB
:101A500001F0AEFD02F0EEFA00281DD002F016FDF6
:101A6000FEF715FE044602F0EBFCFEF710FE014601
:101A70002046FEF7D7FB5C49FEF711FCFEF727FE78
:101A800004460D4602F0D2FC0090554857A122466C
:101A90002B4603F04DFF6DE002F0D2FA00281DD076
:101AA00002F0F4FCFEF7F3FD044602F0C9FCFEF779
:101AB000EEFD01462046FEF7B5FB4B49FEF7EFFB76
:101AC000FEF705FE04460D4602F0B0FC00904448C7
:101AD0004AA122462B4603F02BFF4BE002F09EFA70
:101AE00000281DD002F0D2FCFEF7D1FD044602F022
:101AF000A7FCFEF7CCFD01462046FEF793FB3A49D2
:101B0000FEF7CDFBFEF7E3FD04460D4602F08EFC2A
:101B1000009033483DA122462B4603F009FF29E0FF
:101B200002F082FA044602F0B1FCFEF7B0FD054671
:101B300002F086FCFEF7ABFD01462846FEF772FB7D
:101B40002949FEF7ACFBFEF7C2FD07460D4602F041
:101B50006DFC002C07D00090214830A13A462B465E
:101B600003F0E6FE06E000901D4830A13A462B4601
:101B700003F0DEFE039D009500200490202110223A
:101B80000292174B01F014FD02F05EFC07464B2059
:101B9000840002F06FFC06462748007860437D21F0
:101BA000C900FEF7A5FA04463846FEF790FD024646
:101BB0000B460096019421A1094C204603F0B8FE83
:101BC000009530210498029A234601F0F1FC05B0FB
:101BD000F0BDC046D00000203805002000007A4447
:101BE00076060020D078000800247449252E303273
:101BF000665720256425252043310000252E3032EC
:101C0000665720256425252043320000252E3032DA
:101C1000665720256425252041310000252E3032CD
:101C2000665720256425252041320000252E3032BC
:101C30006657202564252500D8060020252E303241
:101C400066A1E6202564A1E620256400F0B5D7B0A2
:101C50005520810002AC2046FEF779FA444806C8B8
:101C6000444B06C300881880434800270770434848
:101C7000077002202070424800680A21FEF738FAF7
:101C80000246601C3FA103F053FE0320607420460F
:101C9000123040490922FEF741FA22200421215442
:101CA000052630070121090300F041FD01462546C4
:101CB00044352234601C002901D0374900E03749FF
:101CC0000B22FEF72BFA667402AC204634303449FE
:101CD0000922FEF723FA06202870204645303149B4
:101CE0000A263246FEF71AFA102068745634204647
:101CF0002C493246FEF712FAF9B2112002464A4345
:101D000002AB9A5C002A03D07F1C1329F4D314275A
:101D10000024390621460ED023490A780021CBB28F
:101D2000434302ADEB5C9A4205D0FBB2491CCDB2F5
:101D30009D42F4D33946C91E4AB2002A00DC21462E
:101D4000C9B2484302A90D18174E28783178081AED
:101D5000411E884100906B1C2007010E00201022BC
:101D600001F026FC1135641C042CEED157B0F0BDF7
:101D7000D000002038050020530500205205002027
:101D8000402C01404C4544C1C1B6C82025642525DE
:101D90000000000090790008847900089C79000810
:101DA000A87900087879000892060020F0B587B07D
:101DB000384D28893849088105CD05C1083DEA8894
:101DC0002B79E878A9786C782D7800AE33C6334C3F
:101DD00033A1204603F0ACFD0120059000900027C0
:101DE0001026384639463246234601F0E1FB344896
:101DF0000068FEF76CFC04460D4632480068FEF7AA
:101E000066FC02460B46009401952FA1234803F07F
:101E10008FFD059C009438460696314632461F4B8E
:101E200001F0C6FB3846FFF7A5FD04902046264684
:101E3000FFF7A0FDFEF74BFC05460C460498FEF7A5
:101E400046FC02460B460095019423A1134C204604
:101E500003F06EFD009620213846069D2A46234653
:101E600001F0A6FB204800680A21FEF741F902466E
:101E700008480378007A00901CA1204603F058FD22
:101E80000096302138462A46234601F091FB07B0E0
:101E9000F0BDC046D00000203805002076060020A6
:101EA000253034642D253032642D253032645F2591
:101EB0003032643A253032643A2530326400000012
:101EC0004805002044050020252E303266A1E6207A
:101ED000252E303266A1E600252E303266A1E6209E
:101EE000252E303266252500382C014046414E3AD9
:101EF0002564252520253032642E2564000000004D
:101F000010B59148006814309049086000F0F0FD69
:101F100000280ED09348817B012903D0072903D0E4
:101F2000042906D1007802E001780120084300F07E
:101F3000F7FD00F0B7FD00282CD000F0B1FC894C73
:101F4000A07B072806D0042810D0012822D1022027
:101F5000A0731FE0A08900280BD0A089012814D10C
:101F6000002000F095FC00F075FD13E00520A07343
:101F700010E000F01FFD00F06DFD00F01BFDA068FB
:101F8000012101700020A07304E0A08901208002DB
:101F900000F07EFC00F098FD00283CD0714CA07B46
:101FA00007280AD0062836D100F00CFD00F030FDDD
:101FB0000720A07300F046FD2DE0A08902281BD168
:101FC00000F048FD00F0A2FD61684A1C62600870E4
:101FD000A089401EA08100F099FD61684A1C6260E2
:101FE0000870A089401EA08100F0E4FCA0680121D7
:101FF00001700020A0730EE0A08903280BD10020FF
:1020000000F046FC00F082FD61684A1C62600870C6
:10201000A089401EA08100F065FD002823D0514C0E
:10202000A08900281FD0A07B07281CD1A0890328E5
:1020300017D0022812D001286CD100F067FD61682A
:102040004A1C62600870A089401EA08100F0B2FCAA
:10205000A068012101700020A07304E0002000F0BE
:1020600017FC00F097FC00F049FD00281ED03D4C05
:10207000A07B052808D003280CD0022816D1607850
:1020800000F04EFD032003E0607800F049FD0620DB
:10209000A0730BE0A08900282FD06068411C61600C
:1020A000007800F03DFDA089401EA08100F000FDF9
:1020B00000280DD000F0FEFB00F06CFC00F072FC7C
:1020C00000F0C8FC2748002181738068022101705C
:1020D00000F0F4FC00280FD000F0F4FB00F038F81A
:1020E00000F058FC00F05EFC00F0B4FC1D4800213C
:1020F000817380680421017010BD00F0E5FC0028A8
:102100001FD000F04FFC00F0A5FCA0680121017079
:102110000020BDE700F0FAFC61684A1C62600870AC
:10212000A089401EA08100F0CFFC01289BD100F0C7
:10213000EDFC61684A1C62600870A089401EA081A5
:1021400091E700F027FCB1E7BC06002094060020D0
:1021500080B500F06FFCFEF707FF02480021817395
:1021600080BDC046E0000020F0B587B0002706978C
:102170000597049703970297019700F0FFFA0C2048
:10218000009006900124059404970225039502947B
:102190000195134801AE314600F08CFA204600F05C
:1021A0001DFB0098069005940494039502970194F2
:1021B0000B48314600F07EFA00F0CAFA002801D040
:1021C00007B0F0BD022000F009FB00F0D7FA00F0E4
:1021D000BFFA0028F4D0781C082F0746F2D3EFE7A7
:1021E0000014005070B582B00C4601AA1070D020C7
:1021F0000025012629463346FEF720FDD120294639
:1022000022463346FEF758FC284602B070BD10B592
:1022100082B001AA0024148051701070D0200223D3
:102220002146FEF70BFD204602B010BD00213D48BF
:102230000A468318997159711971D970997059703A
:102240000832202AF5D108210176042101740221E7
:102250000172012101707047032801D900207047E5
:10226000C000304908184079411E88417047C04677
:1022700001460020032909D8C9002A4A51188A7941
:10228000002A03D0881D0021017001207047C0463C
:1022900001460020032909D8C900224A51180A79A9
:1022A000002A03D0081D0021017001207047C0469C
:1022B00080B500F043FA4142484180BD70B500242A
:1022C000184D06E000207070012030710834202C79
:1022D00027D02E19285DFFF7EBFF7178022918D05F
:1022E000012909D00029F1D10028EFD00120707018
:1022F000002070717080E9E70028E3D07088401CEE
:10230000708080B26428E1D3022070700120707167
:10231000DCE70028DAD10020707070710120B07104
:10232000D4E770BD9A060020084804210160704778
:102330004C4801684C4A0A40511C01607047C04635
:10234000024800684007C00F7047C04600240140A3
:1023500044480068C00F70474248016801200840A7
:102360007047C0460148006880B270474024014071
:102370000120400332490A6882430A607047C04620
:102380002F48016803229143016070470120000338
:102390002B490A6802430A607047C046024901405F
:1023A000024801607047C046FF1B0000282401401E
:1023B0000120000422490A6882430A607047C0462F
:1023C000372080011E490A6882430A607047C04670
:1023D00024480168244A0A40111D01607047C04624
:1023E00080B500F0A9F800F0AFF880BD0F2000071D
:1023F00003490A68824301204007101808607047AB
:10240000102401400320800502490A6882430A60C3
:102410007047C046082701400948016820229143BF
:10242000016070470120800305490A6802430A6081
:102430007047C04602480168182291430160704706
:102440000C2401400248016807220A4302607047D9
:102450001424014003480168034A114089181631C9
:102460000160704708240140EAFFFF7F81B001202E
:1024700040050C490A6802430A600968014000915E
:10248000009801B07047C04681B00120000705499F
:102490000A6802430A60096801400091009801B08F
:1024A0007047C0463C1002400120400506490A68BA
:1024B00002430A607047C0460120400502490A688D
:1024C00082430A607047C0462C10024081B0012050
:1024D000000518490A6802430A6009680140009132
:1024E000009801B07047C04681B0124801680122CF
:1024F00011430160006810400090009801B07047DF
:1025000081B00C490A6802430A60096801400091E1
:10251000009801B07047C04681B001208003054992
:102520000A6802430A60096801400091009801B0FE
:102530007047C046401002400120000506490A6865
:1025400002430A607047C0460120000502490A683C
:1025500082430A607047C046301002404749086015
:102560007047C0460E490A6882430A607047C046F9
:102570000F490A6882430A607047C04610490A68DA
:1025800082430A607047C04611490A6882430A6064
:102590007047C04602490A6802430A607047C04655
:1025A0008418024002490A6802430A607047C04624
:1025B0000418024002490A6802430A607047C04694
:1025C0008018024002490A6802430A607047C04608
:1025D00000180240B0B504460068217900290ED0E9
:1025E000002814D06179022914D0012915D00029BE
:1025F0001AD1FFF7B7FF2068FFF7DCFF12E0FFF703
:10260000BDFF2068FFF7AEFF00252846B0BD0025BE
:102610002846B0BDFFF7CEFF01E0FFF7AFFF20680F
:10262000FFF7B8FF002500E00125A07903280ED8A8
:10263000784400794000874401020D11E5E72068E5
:10264000FFF796FF2068FFF7BDFF2846B0BDAD1C21
:102650002846B0BD2068FFF797FF02E02068FFF72B
:10266000B1FF2068FFF79EFF2846B0BD0349096807
:102670000140091A484248417047C0460C180240C0
:10268000B0B50A0AD2B20B0CDBB293408907090F2E
:10269000034C0D599D43904028430851B0BDC0469E
:1026A00060180240024801680122914301607047AE
:1026B00000200240F0B581B00D46044609680029AB
:1026C0002AD0002706E000F075F87F1C296808462C
:1026D000F84021D00126BE400E40F6D06A68204660
:1026E000314600F081F86868401E012804D8AA68C5
:1026F0002046314600F0B0F82A692046314600F005
:1027000096F868680228E0D16A6920463146FF2EB3
:10271000D9D800F039F8D8E76868401E012803D8F6
:10272000EA68204600F07DF8002001B0F0BD0069A5
:102730000840411A4842484170470000034909686F
:102740000140091A484248417047C04610040050F1
:1027500002480168012008407047C046101400502C
:1027600001200003044908607047C04601200003AF
:10277000014908607047C046280000500148022106
:102780000160704728140050494349434A430F23CE
:102790004B43016A994311430162704740434043F0
:1027A0000F214143024A13688B4303431360704770
:1027B00020000050090A494349434A430F234B4331
:1027C000416A9943114341627047000001200003B0
:1027D000014908607047C046180000500149086070
:1027E0007047C0461814005049434A4303234B43E3
:1027F00001689943114301607047404303214143FD
:102800000520000702680A43026070474043032125
:1028100041430522120713688B43400018431060A0
:1028200070474A4343688B431343436070474943AF
:102830004A4303234B43C16899431143C160704726
:10284000404303214143034A13688B43034313600E
:102850007047C0460C00005049434A4303234B4392
:102860008168994311438160704700004043032110
:102870004143024802680A43026070470800005062
:1028800001229202036893430B43036070470000E8
:1028900001218902734A13688B4303431360704715
:1028A00081B09948016800910099406800900098B3
:1028B00001B070470120800293490A6882430A6090
:1028C0007047C046012000028F490A6882430A60AF
:1028D0007047C046F0B581B0009316460F460446D7
:1028E00021493846FDF704FC3F21C94362680A408C
:1028F00002436260256A0D401C4A511C8E4208D377
:102900004B218A0042437D20C1001046FDF7F0FBB9
:10291000164A401C28432062154D964204D9009D5A
:10292000002D09D0192008E071003846FDF7E0FBC2
:10293000284211D104200FE0032046433846314697
:10294000FDF7D6FB0A49CA1C012110420A4600D0F5
:1029500002462A43C8031043E169064A0A4002437B
:10296000E26101B0F0BDC04640420F00A086010008
:10297000FC0F00000030FFFF01680122914301605D
:10298000704700000120C00236490A6882430A608D
:102990007047C0460120800225490A6882430A60C8
:1029A0007047C0460120400221490A6882430A60FC
:1029B0007047C046032040021D490A6882430A60EE
:1029C0007047C0460320400219490A6882430A60E2
:1029D0007047C0460120C00322490A6882430A604A
:1029E0007047C046016801220A4302607047000038
:1029F0000120C0021B490A6802430A607047C046B2
:102A0000012000020A490A6802430A607047C04672
:102A10000320400206490A6802430A607047C04624
:102A20000320400202490A6802430A607047C04618
:102A3000045400400120C0030A490A6802430A60A6
:102A40007047C0460120000206490A6802430A6036
:102A50007047C0460120400202490A6802430A60EA
:102A60007047C04600540040B0B584B00D460446DF
:102A7000FFF782FF01A800F0E9F80CCD039920468A
:102A8000083DFFF727FFA968204600F043F82046DD
:102A9000FFF7A8FFE9682046FFF7F2FE002004B028
:102AA000B0BD0000184800688007C00F7047C046DE
:102AB000154800684005C00F7047C04612480068BE
:102AC000C005C00F7047C0460F4800684007C00FE0
:102AD0007047C046024800688007C00F7047C04674
:102AE00018540040084800684006C00F7047C046B0
:102AF00005480168012008407047C0460248006848
:102B00000006C00F7047C0461454004008480068D3
:102B1000C0B270478268FE239A430A4382607047BE
:102B200003490A68FF239A43101808607047C0469B
:102B30001054004081B017490A6802430A600968CE
:102B400001400091009801B07047C04681B0114823
:102B50000168012211430160006810400090009854
:102B600001B0704781B00B490A6802430A600968E6
:102B700001400091009801B07047C04681B00549FE
:102B80000A6802430A60096801400091009801B098
:102B90007047C046341002406A4803494160002132
:102BA00081600521016070477FA903000E4801681C
:102BB00010229143016070470B4801680222914343
:102BC000016070470848016804220A4302607047A8
:102BD000054801680422914301607047024801687A
:102BE000042291430160704710ED00E00120800352
:102BF00006490A6802430A607047C0460120400245
:102C000002490A6802430A607047C04600700040EB
:102C10000F20010241480068084070470720010367
:102C20003E480068084070470720C1021D48006800
:102C30000840704739480168382008407047C0464E
:102C400036480168382008407047C04610B5044631
:102C500000F056FD206000F033FD606000F040FDA4
:102C6000A06010BD012000040E490A6882430A607A
:102C70007047C046012000020A490A6802430A6000
:102C80007047C0460C480068C00A1C21014001483A
:102C90004058704768700008024800684005C00F3F
:102CA0007047C0460010024003490A68034B1340B6
:102CB00003430B607047C046041002400000FFFF52
:102CC0000248016801229143016070475C10024094
:102CD0000248016801229143016070476010024080
:102CE00002480168012008407047C0460C100240AD
:102CF0000F20000209490A6882430A607047C046F3
:102D00000720000305490A6882430A607047C046ED
:102D10000248016807229143016070470810024091
:102D2000D34801680222914301607047D04801688E
:102D300002220A4302607047CD48016802220A431A
:102D40000260704710E000E0014908607047C0462B
:102D5000C40000200121C903426C0A434264704749
:102D6000016801220A4302607047416901220A4357
:102D70004261704770B50D46044601681F4EB0426F
:102D800002D01F48844204D1702081436868084300
:102D900000E008461B498C4208DDB4420CD01A49B9
:102DA0008C4209D019498C4206D024E014498C4247
:102DB00002D017498C421ED1032109028843E968D9
:102DC00001432160A968204600F060F82988204668
:102DD00000F05EF8B44205D00B48844202D00B48A4
:102DE000844203D1297C204600F054F82046FFF7A6
:102DF000BCFF002070BD0146E3E7C046002C014047
:102E000000040040FF2B0140004801400044014005
:102E100000200040B0B503460120FF2909DC01294C
:102E200014D010291DD11846114600F031FA0020A7
:102E3000B0BD01242502A9420ED02403A14210D125
:102E40001846114600F0B0FA0020B0BD18461146F1
:102E500000F0E0F90020B0BD1846114600F05CFA21
:102E60000020B0BD014908607047C04634440140AD
:102E7000416370470148002101607047382C0140D0
:102E800081637047C163704701647047C1627047D6
:102E9000816270470163704781B03C4801680091CE
:102EA000009940680090009801B0704781B03748A1
:102EB00001680091009940680090009801B0704747
:102EC00081B03248016800910099406800900098F4
:102ED00001B0704781B02D480168009100994068A9
:102EE0000090009801B070474020C0432749086017
:102EF0007047C04651480168802291430160704785
:102F0000012040034D490A6802430A607047C046E9
:102F10003D48016801220A43026070470120000217
:102F200046490A6802430A607047C0464348016840
:102F300020220A43026070474048016880220A4309
:102F400002607047114800688007C00F7047C04694
:102F50000E4800684007C00F7047C0460B48006825
:102F60000007C00F7047C0460848016801200840AC
:102F70007047C046054800688006C00F7047C046CD
:102F8000024800680006C00F7047C0460038014084
:102F90002A4800680006C00F7047C0462A480068EB
:102FA000C0B2704770B5192250438900FDF7A0F8F0
:102FB000054664263146FDF79BF804466320C0436E
:102FC00060434019000132303146FDF791F80F217E
:102FD0000140F02202402001101880B2401801493F
:102FE000086070BD083801400120000313490A68D9
:102FF00082430A607047C0460320000202490A6803
:1030000082430A607047C0461438014003204002E2
:103010000A490A6882430A607047C046012040039B
:1030200002490A6882430A607047C046103801406E
:10303000024801680C220A43026070470C380140C4
:10304000014908607047C0460438014081B0084912
:103050000A680092401C01D30020C043009A002857
:1030600004D00A68D203D2171018FAD101B0704701
:1030700010E000E0F0B587B00026069605960496AD
:1030800003960296019601242046FFF76BFD022568
:103090002846FFF767FD05960496039502963020B3
:1030A00001905A4D01AE28463146FFF703FB2846F2
:1030B0003146FFF7FFFAA0030190052007073846C5
:1030C0003146FFF7F7FA6003019038463146FFF7C3
:1030D000F1FA8020019028463146FFF7EBFA07B05D
:1030E000F0BDC046F0B581B001270097002510243F
:1030F00012A328462946224600F05AFA009713A345
:1031000028462146224600F053FA0097202113A3B7
:103110002846224600F04CFA1148008802B2114EAF
:1031200011A1304602F004FC0097302128462246C7
:10313000334600F03DFA01B0F0BDC046B6CCB0B4A5
:103140002EB3A4B0B4BCD3C1C1B6C800D6B52CB59B
:10315000BDB4EFD7EEB4F3D6B5BAF300D6C33000A2
:103160005005002076060020C1C1B6C8D6B53A2564
:103170006400000070B500210E4A0B4611E01446B1
:1031800080252560402414601646083E3668146188
:10319000CD407404E4172C402343491C4000082907
:1031A00005D044B2002CEADB14461034E8E7D8B26C
:1031B00070BDC04618040050F0B587B000260696D2
:1031C0000596049603960296019601242046FFF781
:1031D000D5FC02252846FFF7D1FC059602A870C051
:1031E000402000900190F14801AF3946FFF762FAA4
:1031F000059602A870C080200190EC4C204639460C
:10320000FFF758FA0098A06207B0F0BD0004005024
:1032100070470000F0B581B0044601200090C04323
:10322000226A024022620A690240206A0326B043F1
:1032300010430F684D6805436268A0697323984383
:103240003843734B9C4205D0724B9C4202D0724B68
:103250009C4214D133029A43009B5B024E69009654
:103260008F69CE699F43174372003A430C239D43F5
:10327000009B5B08DB002B438D68AD001D43626043
:10328000A061C9682046FFF7F3FD256201B0F0BDDB
:10329000F0B581B00446006A102290432062206A93
:1032A000302290430A695208520102430B68486871
:1032B00005011543606873221202A66996431F0236
:1032C0003743534B9C4205D0524B9C4202D0524B49
:1032D0009C4215D103239B0298434A6900928E6950
:1032E000CB69B6000B4A32400243D8001043C022DB
:1032F0009543009A5208D2012A438B689D011543D9
:103300006060A761C9682046FFF7BAFD256201B079
:10331000F0BDC046FCF7FFFFF0B583B0044620487F
:10332000FF30226A02402262032002900002226AD9
:10333000824308694008400210430E684A6815023B
:1033400005436268E3697327BB433343304EB4429D
:1033500005D0304EB44202D02F4EB44217D1029F56
:103360003E03B243486901908869CE690096060120
:103370000C4830401043009A52010243B802854382
:1033800001984008C00228438D68AD020543626081
:10339000E361C9682046FFF775FD256203B0F0BD03
:1033A00000FEFFFFF0DFFFFFF0B581B00446012013
:1033B0000203236A9343236203221203236A934383
:1033C0000A69520852031A430E684B681D031543DD
:1033D000636873221202E769974332023A430C4E44
:1033E000B44205D00B4EB44202D00B4EB44205D1CC
:1033F0008003834388698001184300E018466060B9
:10340000E261C9682046FFF73FFD256201B0F0BDCB
:10341000002C0140004801400044014080B50028D4
:1034200006D0012081029F48FF22FCF789FE80BD63
:10343000012081029B48FCF78AFE80BDF0B581B077
:103440000024984D26463046B030214600F02CF935
:103450002046214600F028F91020214600F024F9EA
:103460002746E85D012100F01FF97F1C802FF8D16D
:103470008035761C082EE6D101B0F0BD10B58D2048
:103480000024214600F010F91420214600F00CF928
:10349000AF20214600F008F910BD0000F0B587B05C
:1034A0000024069405940494039402940194012644
:1034B0003046FFF757FB02273846FFF753FB0594CA
:1034C00004940397029630200190384801A9009196
:1034D000FFF7F0F80594049403970296B003019067
:1034E0000520050728460099FFF7E4F805947003C6
:1034F00001900D200690029728460099FFF7DAF810
:1035000010262A4FBE6214252846FFF79FFDBE6194
:10351000E220214600F0C8F82846FFF797FDAE20CC
:10352000214600F0C1F8A220214600F0BDF823207A
:10353000214600F0B9F8A020214600F0B5F8C820D7
:10354000214600F0B1F8A620214600F0ADF8812018
:10355000214600F0A9F82020214600F0A5F8A4207B
:10356000214600F0A1F8F8252846214600F09CF8F5
:103570002846214600F098F82C20214600F094F8C7
:103580002E20214600F090F82F20214600F08CF8E4
:103590004020214600F088F82046FFF73FFFFFF764
:1035A0004DFFFFF76BFF07B0F0BDC04600040050B1
:1035B000F0B587B01E461546069107461846FCF73B
:1035C000D1FD0590002858D00C9804908020401B15
:1035D00001906808029000200446039605E0039ECF
:1035E000641CE0B20599814247D93256002A07D4BB
:1035F000102D13D0082D40D10626002A11D1EEE758
:103600003218202D1FD0182D24D0102D35D1F8B20E
:103610000699C9B2049BFEF7FBF821E00826002AB0
:10362000DDD004980090F8B20699C9B2D2B22B4608
:10363000FEF786F8F719F8B2782800D90027039E1C
:103640007828CDD915E0F8B20699C9B2049BFEF7E7
:1036500059F905E0F8B20699C9B2049BFEF71AF9C8
:10366000019902983F18F8B2814200DA002781429E
:10367000B6DA069840190690B2E707B0F0BD000030
:1036800010B507240C400123A340C908C90108183C
:1036900004490C5C002A02D01C430C5410BD9C430E
:1036A0000C5410BDF000002080B5C0B2002902D03B
:1036B00001F078F980BD01F065F980BD7047000028
:1036C00010B50446FFF7A4FA80093C2101400348E5
:1036D00040581F210140CC40204610BD2067000803
:1036E00010B50446FFF79AFA000B8000034908580A
:1036F0001F210140CC40204610BDC0466067000835
:1037000010B5FFF797FA0321C841401E03280BD8D4
:103710000D4CC046784400794000874410120101E6
:103720000120C403204610BD08480068C00A1C21BF
:10373000014007484458FFF777FAC00AC4402046C2
:1037400010BD00F007F810BD00366E0104100240F5
:103750006870000880B5FFF7C3FA012801D103485B
:1037600080BDFFF78FFA400080BDC046006CDC02D0
:103770007047000070B5414D2878082800D978E0DE
:103780007844007940008744040C1A283746505A80
:103790006400302000F07EFE002863D02878401CB2
:1037A0002870B94EB11D0024204600F06BF80028A7
:1037B00061D02878401C2870F088C000F080B24C9E
:1037C00021460831012000F05DF800284AD0287811
:1037D000401C2870208980002081AB4C21460A3192
:1037E000022000F04FF800283CD02878401C2870B8
:1037F0006089072141436181A34C21460C3103209C
:1038000000F040F800282DD02878401C2870A089AE
:1038100005214143A1819C490E31042000F032F87A
:1038200000281FD02878401C2870974910310920A3
:1038300000F028F8002815D02878401C28709249FC
:1038400012310A2000F01EF800280BD02878401C06
:1038500028708D48018A0A4A914205D800202870B4
:10386000012070BD002070BD002129704170012031
:1038700070BD00242C70204670BDC046F0040020AE
:10388000830C0000B0B582B00C460146164D287876
:10389000022819D0012809D0002821D1302000F0B9
:1038A0007DF8002819D02878401C28707648401DE3
:1038B00000907820312102232246FDF7FDF90028EF
:1038C0000BD02878401C28706F484079002804D01D
:1038D00000202870012002B0B0BD002002B0B0BDB1
:1038E0000020287002B0B0BDF1040020F0B581B016
:1038F0000446154F3878012813D000281DD11546ED
:103900000E466148C11C204600F020F8002818D05F
:103910003878401C387035405B49C878B04328433C
:10392000C8705948C178204600F038F8002808D0FF
:1039300000203870012001B0F0BD0020387001B0C7
:10394000F0BD002001B0F0BDF204002010B582B03F
:103950000A460146104C207801280DD0002814D1C9
:103960004948401D009078200123FDF7A5F9002863
:103970000FD02078401C207043484079002808D0A0
:1039800000202070012002B010BD0020207002B085
:1039900010BD002002B010BDF304002070B582B04D
:1039A0000C460146384E701D0090F21C782001250F
:1039B0002B46FDF7AFF9002801D0F47000E0002598
:1039C000284602B070BDC04610B582B02D4C20789C
:1039D000062852D87844007940008744030B151F0D
:1039E0002D344200992000F055FD002842D0207867
:1039F000401C207024492C319920FFF7A7FF002894
:103A000038D02078401C20701F492D31A220FFF7AC
:103A10009DFF00282ED02078401C20701A4A501D8F
:103A200000902632782086210223FDF745F90028F0
:103A300020D02078401C207013484079002819D0ED
:103A40002078401C20701048826A401D0090782029
:103A500088210323FDF730F900280BD02078401C83
:103A6000207009484079002804D0002020700120EF
:103A700002B010BD002002B010BD0020207002B0C6
:103A800010BDC046F404002004050020B0B50F4D61
:103A90002878012809D0002812D1202000F0FAFC53
:103AA000002811D02878401C2870202001242146AD
:103AB000FFF774FF002807D0002028702046B0BD13
:103AC00000242C702046B0BD0020B0BDF5040020BD
:103AD000B0B50446134D2878012809D0002812D12A
:103AE000A42000F0D7FC00280BD02878401C2870B8
:103AF000A4200421002C0AD00A46FFF7F7FE002874
:103B00000BD10020B0BD00242C702046B0BD002495
:103B10002246FFF7EBFE0028F7D000202870012096
:103B2000B0BDC046F6040020B0B50446134D287859
:103B3000012809D0002812D1A42000F0ABFC0028F5
:103B40000BD02878401C2870A4200821002C0AD013
:103B50000A46FFF7CBFE00280BD10020B0BD0024A1
:103B60002C702046B0BD00242246FFF7BFFE00287F
:103B7000F7D0002028700120B0BDC046F704002017
:103B8000B0B50446174D2878022818D0012809D06E
:103B9000002824D1A52000F07DFC00281DD0287825
:103BA000401C287005212046FCF7A2FAC1B2A520CE
:103BB000FFF7F4FE002810D02878401C287005215B
:103BC0002046FCF795FA010AA620FFF7E7FE002839
:103BD00003D0002028700120B0BD0020B0BD00201F
:103BE0002870B0BDF8040020B0B5E94D287827282A
:103BF00000D9C9E14000C04678448088400087442D
:103C0000270030003A0042004C00560060006A0075
:103C1000740080008A009500A000AA00B400BF00D4
:103C2000C900D300DD00E700F200FD000801140127
:103C30001F012A01350141014C0156015F01690153
:103C400073017D01870191019B01A501AC01B401C4
:103C5000202000F01FFC002800D193E12878401CB0
:103C6000287020200121FFF799FE002800D189E16A
:103C70002878401C287000F0C3FC002800D181E1A6
:103C80002878401C287025201D21FFF787FE00287A
:103C900000D177E12878401C287029200121FFF706
:103CA0007DFE002800D16DE12878401C287040205E
:103CB0008421FFF773FE002800D163E12878401CBF
:103CC000287045205A21FFF769FE002800D159E1EC
:103CD0002878401C28704F205A21FFF75FFE0028EB
:103CE00000D14FE12878401C2870A2202021002418
:103CF0002246FFF7FBFD002800D147E12878401C51
:103D000028704120800000F0C5FB002800D139E177
:103D10002878401C2870002480212046FFF73EFEB2
:103D2000002800D132E12878401C28700420772137
:103D30002322FFF7DBFD002800D123E12878401C77
:103D4000287008208D21FFF729FE002800D119E1F5
:103D50002878401C28700D203221FFF71FFE002814
:103D600000D10FE12878401C28700E20CF214F226F
:103D7000FFF7BCFD002800D104E12878401C287022
:103D80000F20FA21FFF70AFE002800D1FAE0287878
:103D9000401C287010204921FFF700FE002800D1A8
:103DA000F0E02878401C287011200621FFF7F6FD6E
:103DB000002800D1E6E02878401C2870122002215B
:103DC000FFF7ECFD002800D1DCE02878401C2870CB
:103DD0001320F021C022FFF789FD002800D1D1E097
:103DE0002878401C28701520C0214022FFF77EFD56
:103DF000002800D1C6E02878401C287016205E21DB
:103E00000E22FFF773FD002800D1BBE02878401C8C
:103E100028701720C02100242246FFF767FD0028E4
:103E200000D1B3E02878401C287018203C210A46B5
:103E3000FFF75CFD002800D1A4E02878401C287022
:103E400019200F210922FFF751FD002800D199E028
:103E50002878401C28701A2000242146FFF79EFD78
:103E6000002800D192E02878401C28701F203F21B4
:103E700000242246FFF73AFD002800D186E028788A
:103E8000401C28702020A72100242246FFF72EFD89
:103E900000287BD02878401C28702220F021C022E6
:103EA000FFF724FD00286DD02878401C28702320BF
:103EB000E021FFF773FD002864D02878401C2870AB
:103EC0002420C0210A46FFF711FD00285AD0287887
:103ED000401C28702B2038210A46FFF707FD0028D8
:103EE00050D02878401C28702C2011210A46FFF75A
:103EF000FDFC002846D02878401C28704D200F215A
:103F00000822FFF7F3FC00283CD02878401C2870DA
:103F10004E2090210A46FFF7E9FC002832D028788D
:103F2000401C287050204F210122FFF7DFFC0028A1
:103F300028D02878401C287051207F216E22FFF75E
:103F4000D5FC00281ED02878401C287000F0A2F86C
:103F5000002817D02878401C2870152000F09AFA05
:103F600000280FD02878401C287015203F21FFF72B
:103F700015FD002806D0EF48012444700020287069
:103F80002046B0BD0020B0BD00242C702046B0BD3E
:103F9000F9040020E748C17E102008407047C04661
:103FA000E448017F202008407047C046E148017F77
:103FB000102008407047C046DE48C17E08200840F7
:103FC0007047C046DB48C17E042008407047C046A9
:103FD0002220D849095C202008407047D5494878FC
:103FE00000280CD02E20085C5A2805D12F20085C10
:103FF0005A2801D1012070470020487070470020E6
:104000007047C0462120CB49085C30220240222064
:10401000085C0C21014088187047C046C548017FE4
:10402000022008407047C046C248017F0120084076
:104030007047C046BF48017F082008407047C0460F
:10404000FC48017F042008407047C04670B5104E00
:104050003078012809D0002814D1232000F01AFA62
:10406000002813D03078401C307023200125002414
:1040700029462246FFF73AFC002805D00020307080
:10408000284670BD00243470204670BD002070BDED
:10409000FA040020B0B55E4D2878102800D9B2E0AF
:1040A000784400794000874408121E29323C47506A
:1040B00059626B747D879099A200FF20343000F024
:1040C000E9F9002800D19CE02878401C28703320B2
:1040D000B82100242246FFF709FC002800D194E013
:1040E0002878401C287034203F211422FFF7FEFB63
:1040F000002800D185E02878401C2870352039211F
:10410000FFF74CFC00287CD02878401C2870362013
:104110009B210322FFF7EAFB002872D02878401C7D
:1041200028703720412100242246FFF7DFFB0028BA
:104130006BD02878401C28703820F421FFF72EFC23
:1041400000285ED02878401C28703920F421FFF721
:1041500025FC002855D02878401C28703A20F421EE
:10416000FFF71CFC00284CD02878401C28703B200E
:10417000F421FFF713FC002843D02878401C287056
:104180003C205521FFF70AFC00283AD02878401C33
:1041900028703D20C221FFF701FC002831D028788B
:1041A000401C28703E20F321F122FFF79FFB0028DE
:1041B00027D02878401C28703F20E421FFF7EEFB31
:1041C00000281ED02878401C28704020E421FFF7EA
:1041D000E5FB002815D02878401C28704120E421F8
:1041E000FFF7DCFB00280CD02878401C2870422008
:1041F000DA21FFF7D3FB002803D00020287001202C
:10420000B0BD0020B0BD00242C702046B0BDC0461B
:10421000FB04002010B50E4C2078012809D000289E
:1042200011D1222000F036F900280FD02078401C50
:10423000207022200821FFF7B1FB002806D00020C3
:104240002070012010BD0020207010BD002010BD86
:10425000FC04002010B50E4C2078012809D000285D
:1042600011D1222000F016F900280FD02078401C30
:10427000207022200221FFF791FB002806D00020A9
:104280002070012010BD0020207010BD002010BD46
:10429000FD04002010B5264C2078052844D8C046DF
:1042A0007844007940008744020A141E2832132003
:1042B00000F0F0F8002835D02078401C2070CF495D
:1042C00019311320FFF742FB00282BD02078401C27
:1042D0002070CA491C311820FFF738FB002821D074
:1042E0002078401C2070C5491D311920FFF72EFB96
:1042F000002817D02078401C2070C0491F311C2096
:10430000FFF724FB00280DD02078401C2070BB490B
:1043100020311D20FFF71AFB002803D00020207059
:10432000012010BD002010BD0020207010BDC0462F
:10433000FE0400200405002010B53B4C207809281D
:104340006ED8C0467844007940008744040C16209B
:104350002A343E48525C0E2000F09CF800285DD0C4
:104360002078401C2070A54914310E20FFF7EEFA8A
:10437000002853D02078401C2070A04915310F2010
:10438000FFF7E4FA002849D02078401C20709B49B0
:1043900016311020FFF7DAFA00283FD02078401CB1
:1043A0002070964917311120FFF7D0FA002835D038
:1043B0002078401C207091491F311C20FFF7C6FA5D
:1043C00000282BD02078401C20708C492E314520AD
:1043D000FFF7BCFA002821D02078401C20708749C4
:1043E0002F314F20FFF7B2FA002817D02078401C59
:1043F0002070824924315120FFF7A8FA00280DD0FF
:104400002078401C20707D4925315220FFF79EFA0C
:10441000002803D000202070012010BD002010BD16
:104420000020207010BDC046FF0400202C207349DE
:10443000085C704704050020704880897047C046BA
:104440006E4800897047C04680B56C48008A0649AE
:104450004018FCF711F9FCF73AF9044A044BFCF751
:1044600077F8FCF748F980BDD1F8FFFF48E17A14EE
:10447000AE471B406148C08905214143503908B20D
:104480007047C0465D4840897047C0465B48C08859
:104490007047C046B0B50446174D287801280BD0A8
:1044A000002817D15548C11C0120FFF74FFA0028FA
:1044B0000ED02878401C28705048C078210A0DD0B2
:1044C000012814D124208121FFF768FA00280ED199
:1044D0000020B0BD00242C702046B0BD012806D0BD
:1044E000FF2000242146FFF759FA0028F4D00020CD
:1044F00028700120B0BDC0460005002010B53E4C1C
:10450000207808284DD8C046784400794000874478
:10451000040C16202A344B555F001220FFF7BAFF17
:10452000002860D02078401C2070344918311220B7
:10453000FFF70CFA002856D02078401C20702F4935
:104540001A311420FFF702FA00284CD02078401CC2
:1045500020702A491B311520FFF7F8F9002842D0B6
:104560002078401C207025491C311820FFF7EEF9F7
:10457000002838D02078401C2070204C21461E3165
:104580001A20FFF7E3F90146002000290BD0A27F93
:10459000C021114029D0402929D0802903D11420DD
:1045A00026E00020207010BD144921312A20FFF799
:1045B000CDF9002817D02078401C20700F492231F7
:1045C0002B20FFF7C3F900280DD02078401C207065
:1045D0000A4923312C20FFF7B9F9002803D0002025
:1045E0002070012010BD002010BD502000E02820C8
:1045F000A077012010BDC04634050020040500202E
:1046000010B5234C207805283FD8C046784400795F
:1046100040008744020A131C252E2020FFF73AFF92
:10462000002830D02078401C207020200121FFF786
:10463000B5F9002827D02078401C207023200121C4
:10464000FFF7ACF900281ED02078401C20702420F1
:104650002021FFF7A3F9002815D02078401C2070F6
:1046600024204021FFF79AF900280CD02078401C24
:10467000207024208021FFF791F9002803D000202A
:104680002070012010BD002010BD0020207010BD42
:104690003505002080B582B001AA98205070B02066
:1046A0001070E02000210223FCF7C8FA02B080BDA0
:1046B00080B582B001AA1720507035201070E0201C
:1046C00000210223FCF7BAFA02B080BDF0B583B036
:1046D0001E4F387800282AD0E120002401AD06239F
:1046E00021462A46FCF7E8F968780199090208187A
:1046F00080B2FBF7CCFF1649FBF794FD154E31460F
:10470000FBF7CDFD144908602879E97809020818FB
:1047100080B2FBF7BCFF1149FBF784FD3146FBF784
:10472000BEFD0F49FBF725FD0E4908600AE06A4609
:10473000242050705C201070E02000210223FCF740
:104740007DFA01243C7003B0F0BDC0464205002054
:104750000000C84200FF7F47DC00002000002F431C
:10476000000034C24C05002080B5FCF79FFCFCF72C
:1047700091FCFCF7A1FBFCF73BFBFCF7CBFCFCF747
:104780003BFCE1204002FCF7F9FCFCF7EDFB80BDAF
:1047900002480168491C01607047C046BC06002001
:1047A00007480168074A0A4007490968114301227E
:1047B00053030B430360D006044908607047C046AA
:1047C000041002400000FFFF040FFF1F08ED00E08F
:1047D000B0B5FEF7D5FB002814D05E4801785E4ADC
:1047E0001278531A012B03D0002A04D1FF2902D1D9
:1047F000FEF780FB06E0491C0170C8B25749085C0F
:10480000FEF71EFCFEF7B6FB00281AD05B480078C6
:104810005B4C25781F2D07D1002808D0FEF7BEFB82
:104820002E49485500200BE0401B012803D11148B8
:104830000121017005E0FEF7B1FB28494855681CCD
:104840002070FEF791FB002801D0FEF743FBFEF736
:1048500079FB002801D0FEF71FFBFEF77FFB002845
:1048600001D0FEF72DFBFEF773FB002801D0FEF709
:104870001DFBB0BDCA06002080B5FEF77BFB0028FB
:1048800003D1FEF785FB002801D0012080BD002068
:1048900080BD000070B50246002000291BD0384BB7
:1048A0001B78364C0D4D06E036781670C9B2491C9F
:1048B000CEB28E420FD126781F2E05D1002B0BD001
:1048C000002626702E46EFE7761C9E4204D0267006
:1048D000F6B2AE19E8E770BD012070BD54050020A6
:1048E000F0B581B000292CD01A4A127800231A4C56
:1048F00009E0751C954226D0184CA755164C25701A
:104900005B1C8B420CD2C75C002F09D02678FF2E8F
:10491000EFD1002A19D0FF25104C67550025EDE78F
:10492000FEF736FB0024002810D10A490878401C05
:104930000870C0B20949085CFEF782FBFEF7FCFA7A
:1049400004E0002402E0012400E00124204601B03C
:10495000F0BDC046CA000020D90600207405002022
:104960000648017806480078884202D81F22511A6A
:1049700000E0C9430818C0B27047C046C800002014
:10498000CB060020F0B581B00E4C20252561012119
:104990008E030D4F3E61FEF7EDFB3E60256001B0DA
:1049A000F0BDC046F0B581B0064C20252560012140
:1049B0008E03054F3E61FEF7DDFB3E60256001B0D2
:1049C000F0BDC0461804005018000050002805D45F
:1049D0001F21084001218140074801607047C046FF
:1049E0000120C005044908607047C0460120C00688
:1049F000014908607047C04600E100E0002805D486
:104A0000032102468A430B49511806E00F21014059
:104A1000083903229143064A89188007C00E4022B4
:104A20008240FF2383400868984310430860704722
:104A30001CED00E000E400E0FF20000602490A68E7
:104A400082430A607047C04614E400E0FF2000067D
:104A500003490A68824301208007101808607047E4
:104A600018E400E00F21014000090A2242435018D7
:104A7000C0B2704782B0FFF777FEFDF7D7FBFEF7B5
:104A80009BFBFEF70BFDFFF713FEFCF773F97D2090
:104A9000C000404F38803220FEF7D8FA3EA000F028
:104AA00031FF43A000F02EFF49A000F02BFF4D4C3A
:104AB000002020804C4E30804C4D28804C4908808E
:104AC0004C490190088000E030BF204600F068FCAF
:104AD000284600F089FC474800F05EFE444800F09C
:104AE0009BFE304600F08EF8FFF7C6FE398800289E
:104AF000EAD10029E8D108213F48FDF718FE002837
:104B000011D101213C48FDF712FE00280BD10221F2
:104B10003948FDF70CFE002805D104213648FDF781
:104B200006FE0028D0D0354626463C46FFF78EFAD2
:104B30000028FBD0019F3846FEF794F92F480770F4
:104B4000FEF798F9FDF70CFEFEF794FAFFF7A2FDC9
:104B500001273846FEF77AFAFEF7E2F8FEF732F858
:104B600030BFFEF7E3F8FEF733F8FEF725FBFEF75C
:104B700095FC6420FEF776F921480770FFF798FD51
:104B8000274634462E46194DFFF73AFD0028FBD044
:104B90009BE7C046740600200A0A35533150203284
:104BA0003137303020506F7765722042616E6B0074
:104BB0000A506F77657265642062792053573633E7
:104BC00030362026205059333246303032410000F2
:104BD0000A544B57544C20323032342F30382F3156
:104BE000300A0000C2060020C0060020C4060020D3
:104BF000C6060020C806002000040050C90000209E
:104C0000BB060020F0B587B0044600880146443951
:104C10006929069400D996E04900C04679448988FC
:104C200049008F4494009A00A100A100A100A100B6
:104C3000A100A100A100A100A100A100A100A1006C
:104C4000A100A100A100A100A100A100A100A1005C
:104C5000A100A100A100A100A100A100A100A1004C
:104C6000A100A100A100A100A100A1007F01860177
:104C70008D0194019B01A100A100A100A100A90147
:104C8000A100A100A100A100A100A100A100A1001C
:104C9000A100A100A100A100A100A100A100A1000C
:104CA000A100A100A100A100A100A100A100A100FC
:104CB000A100A100A100A100A100A100A100A100EC
:104CC000A100A100D802A100A100A100A100A100A3
:104CD000A100A100A100A100A100E202E802A10040
:104CE000A100A100A100A100A10069006F00760051
:104CF000A100F102A100FE02FEF7C8FE00283BD091
:104D0000A82020800120FEF70FFF002830D0A92026
:104D10002080FFF791FB0546FFF792FB0446FFF763
:104D2000B5FB06466643069CFFF7ACFB01463046E2
:104D3000FBF7DEF9281A80B2FEF722FF002800D028
:104D400068E200259DE200280ED144202080FEF775
:104D50004BFF00280ED0452020800120FEF7B8FE32
:104D600000280BD100258CE200202080032588E25A
:104D7000002586E2002584E2002582E28948017848
:104D80000A2900D246E20A2101708748FCF71AF886
:104D9000FBF77DFC8549FBF745FA0546FBF797FCD9
:104DA00002460B4682488349FBF75CFBFBF7A3FCFA
:104DB00001462846FBF773FA7F4D2946FBF732FA86
:104DC0002946FBF76CFAFBF782FC01F0DFFA0026BC
:104DD0007A4B3246FBF7BCFB072252070592784B11
:104DE000FBF79CFA02460B4676493046FBF7B0FBD0
:104DF00003225707744B3A46FBF790FAFBF77BFC0C
:104E0000724908607248FBF7DDFFFBF740FC674919
:104E1000FBF708FA0546FBF75AFC02460B466448C6
:104E20006449FBF71FFBFBF766FC01462846FBF7CE
:104E300036FA614D2946FBF7F5F92946FBF72FFABB
:104E4000FBF745FC01F0A2FA32465C4BFBF780FB16
:104E5000059A5B4BFBF762FA02460B460596304615
:104E60005849FBF775FB3A46574BFBF757FAFBF7E8
:104E700042FC58490860FFF7E7FA5749FBF779F910
:104E80000646564D2946FBF7DBFB002800D1354688
:104E9000FD49284601F067FAFC49FBF7C3F9FC49D4
:104EA000FBF767F90646FE4D2946FBF7C9FB0028CC
:104EB00000D13546FB49284601F055FAFBF7EEFBD9
:104EC000F4490860F848017801291BD1F7490978AD
:104ED0000839062916D8F74901220A700599017088
:104EE000F54CE0886421FBF703F90846237AE27861
:104EF0002179FCF727FA22786178A078069CFCF7E4
:104F00005EFA06E0EA4D2846FCF7F3F92846FCF77E
:104F1000CCF9FFF7DBFBE9480188E9A000F0F2FCDF
:104F200068202080FEF726FC002800D198E1692047
:104F30002080FFF7AFF9002800D193E16A2020809C
:104F4000FFF7DCFA002800D18EE16B202080FFF70C
:104F5000F3F9002800D189E16C202080FEF734FDB0
:104F6000002800D184E1FFF739F8002809D1D94899
:104F700000F0C8FC71202080FEF736FE002800D12A
:104F800078E1FFF75DFA31282AD8FFF747F80028C3
:104F900003D1FFF749F8002822D0CF480088441CED
:104FA00034E0C046C9000020100000103333533AEB
:104FB0008FC2F5285C8F0A400050C34700DCAE402A
:104FC000E1796B3F0000F03F661271C0440500209C
:104FD000200000144805002000000CC26F12833A24
:104FE000FEF7DEFF002807D1FFF724F8002803D1E1
:104FF000FFF726F8002808D0FFF710F8042400284F
:1050000004D1FFF711F8002800D10024B248048031
:10501000FFF712FA322813D8FFF712FA32280FD806
:10502000FFF708F800280BD1FFF70AF8002807D18E
:10503000FEF7F4FF002803D1FEF7F6FF002803D0A7
:105040007D20C0009D490880FEF7B6FF002802D0F1
:10505000A2A000F057FCFEF7B5FF002802D0A3A0E5
:1050600000F050FCFEF79CFF002802D0A3A000F047
:1050700049FCFEF79BFF002802D0A2A000F042FCF2
:10508000FEF7A6FF002802D0A1A000F03BFCFEF72F
:10509000D1FF002802D0A1A000F034FCFEF7D0FF21
:1050A000002802D0A1A000F02DFCFEF7B7FF0028D9
:1050B00002D0A2A000F026FCFEF7B6FF002802D026
:1050C000A2A000F01FFCFFF7B1F90146714CA268E5
:1050D000A24800F017FCFFF7D9F901462268A04862
:1050E00000F010FCFFF7ACF906460520000701258B
:1050F000E902FDF71CFB02469A48314600F002FC2B
:10510000FFF7C0F9014698A000F0FCFBFFF794F907
:1051100006460020FCF72EFC07462846FCF72AFC32
:10512000FBF7D5FA05460C463846FBF7D0FA02469F
:105130000B46009501949048314600F0E3FBFFF7E1
:1051400099F9044654480068FBF7C1FA02460B4639
:105150008A48214600F0D6FBFFF776F904464F480F
:105160000068FBF7B4FA05460E462046FBF7AFFA97
:1051700002460095019682480B4600F0C3FB4C485E
:10518000C3780279C188847845780678007A00AFC0
:1051900070C703907B4800F0B5FBFFF755F97A49DB
:1051A000FBF75CFA002810D1FFF764F9B4280CDC97
:1051B000FFF74AF97549FBF743FA002805D14B2060
:1051C000C443FFF757F9A04234DC424800F09AFB91
:1051D0009420069C2080FEF707FD00284CD03E4816
:1051E000008804280ED39F202080FFF713F80028A2
:1051F00044D0A0202080FFF72DF8002840D036486A
:1052000000210180AB20208000252846FEF78CFC81
:10521000002836D0AD2020805F48006864305F49A8
:1052200008605D4800685D490968814200D2A5E5D3
:10523000002526E0FFF708F95549FBF70FFA00288B
:105240000AD0FFF701F95349FBF7FAF90028069C49
:10525000C5D1FDF7BBFAC2E7FDF782FA069CBEE7AF
:1052600000250EE000250CE000250AE0002508E0FE
:10527000002506E0002504E0002502E0002500E00E
:105280000025284607B0F0BD00004842000020413C
:1052900000004844382C0140440500204805002007
:1052A0000000C84200007A44520500209206002007
:1052B000D00000205305002038050020740600208F
:1052C0000AD0DDC3DFB5B9BCC6CAB13A2564306DBA
:1052D00073000000B7780008900600200AB3E4B518
:1052E000E7B7A2C9FAB4EDCEF30000000AB7C5B51E
:1052F000E7B7A2C9FAB4EDCEF30000000AD4DAB3DE
:10530000E4B5E7000AD5FDD4DAB7C5B5E70000007B
:105310000AD5FDD4DAB3E4B5E70000000A43312032
:10532000B6CBBFDAD2D4C6F4D3C300000A433220CE
:10533000B6CBBFDAD2D4C6F4D3C300000A413120C1
:10534000B6CBBFDAD2D4C6F4D3C300000A413220B0
:10535000B6CBBFDAD2D4C6F4D3C30000417900087B
:10536000577900082F7900080AB5E7B3D8B5E7D117
:10537000B93A25646D56000081780008DE7800088F
:10538000077900085E78000800003443000096C2E8
:105390000000044200001442BC060020CC0600209D
:1053A00070B588B004460088B92808D0002804D019
:1053B00000202080032008B070BDB9202080FFF7B6
:1053C000CFFA00280CD0FFF7CBFA05466E463046E0
:1053D0002946FFF75FFA30462946FFF781FAECE7E6
:1053E000002008B070BD0000F0B581B00446008810
:1053F000FF25C235A84200D1DAE0002804D0002001
:105400002080032001B0F0BDD04ED1480178491C66
:105410000170FCF753FFFBF7F3FE0146401E0B281B
:1054200000D99FE07844007940008744050E2E4E55
:10543000575973988E989898C64802780C2353430E
:10544000C94AD218D278027089E0C24802780C2387
:105450005343C54AD21852780270D01F072800D98A
:105460007DE0400078448088400087440700E300E6
:10547000EE00F600FE0006010E011601B948028892
:10548000521C13B2962B5EDD5CE0B24A13780C20FE
:105490004343B54FFB189B781370DA1F072A5ED879
:1054A0005200C0467A4492885200974407008B000D
:1054B000FE00BD009800A200AC00B600A94802881A
:1054C000521E13B2002B3ED522E0A24802780C23D4
:1054D0005343A54AD2181279027040E032203DE0D1
:1054E0009C480078C01F072839D84000784480883D
:1054F000400087440700E200EC00F500FE000701D1
:105500001001190197480288521C13B2962B1ADB1E
:10551000962218E08F480078C01F07281FD8400047
:10552000784480884000874407004D0008017F00D0
:105530005A0064006E0078008A480288521E13B236
:10554000002B00DC0022028009E082480078083845
:10555000062802D88048012202700020306083A013
:1055600000F0D0F9FEF716FD002803D1FEF74AFD42
:10557000002802D080A000F0C5F9FEF743FD002806
:1055800002D080A000F0BEF976480088F060714833
:1055900001787F48022902D37D21C90001E00188FA
:1055A000891E01809A480068401C7A49086025805D
:1055B0009748006877490968814200D224E70020B3
:1055C00001B0F0BD664807464A3F644AD3885B1E77
:1055D0009AB2BA4200D31846604AD080BFE75F480B
:1055E0008278002A01D1182282708278521E82703D
:1055F000B5E75A484278002A01D13C2242704278ED
:10560000521E4270ABE755480278002A01D13C2275
:1056100002700278521E0270A1E75048027A521EB0
:10562000130600D087E085E04C48C278521E13066E
:105630005DD15BE04A4A4948C3885B1C9FB29742F0
:1056400000D980E01A46C38089E744480279521C99
:10565000D3B20C2B42D9012240E04048C278521C00
:10566000D3B21F2B43D9012241E03C488278521C1F
:10567000D3B2172B44D9002242E038484278521C5A
:10568000D3B23B2B45D9002243E034480278521C68
:10569000D3B23B2B46D9002244E03048027A521C58
:1056A000D3B2072B47D9012245E02C4A13795B1E60
:1056B0001F0600D01846107151E72848C288521CB6
:1056C00097B2274B9F4200D31A46C28047E7234830
:1056D0000279521CD3B20C2B00D30C2202713EE78C
:1056E0001E48C278521CD3B21F2B00D31F22C27097
:1056F00035E71A488278521CD3B2172B00D31722F1
:1057000082702CE715484278521CD3B23B2B00D351
:105710003B22427023E711480278521CD3B23B2B44
:1057200000D33B2202701AE70C48027A521CD3B213
:10573000072B00D30722027211E708480279521E94
:105740001306CBD1C9E74A3AC28008E7342C01409E
:10575000C9000020920600205205002038050020D4
:105760003308000050050020B4790008BCFCD6B511
:105770003A25640A00000000B5CDB5E7D1B9212172
:10578000210A0000B9FDCEC22121210A000000003B
:1057900074060020D0060020B0B504460088FF251E
:1057A000F235A84223D0002803D000202080032017
:1057B000B0BD13490878421CD3B20020632B0346C6
:1057C00000D813460B70FDF729FE0E4800780C2117
:1057D00041430D48401880680C4908608047FDF738
:1057E0002DFE25800A4800681E300A4908600848D6
:1057F0000068084909688142DBD30020B0BDC0467B
:10580000D806002092060020B47900088C060020FB
:10581000BC060020D406002010B5044600882A49A2
:10582000411813290ED8C0467944097949008F449C
:105830001546464646464646462D37464646464661
:105840004646460B00283AD12048007800280CD064
:105850001FA000F057F8E72040002080FEF74EFE22
:1058600000282AD01948002101701F48007800281C
:105870001DD01EA000F046F821480178012913D15F
:1058800000210170E72040000930208022205421AF
:10589000FEF784F8002810D0E72040000A3020806E
:1058A000FEF7F4F8002808D00F4800210170E72027
:1058B000400013302080012010BD002010BD0020CA
:1058C0002080032010BDC04632FEFFFF9806002056
:1058D0000A53573633303656D6D0B6CFCAC2BCFE7E
:1058E000B7A2C9FA210A0000BA0600200AB0B4BC67
:1058F000FCD6D0B6CFCAC2BCFEB7A2C9FA210A00F4
:10590000BB06002083B0B0B591B0044615A80EC008
:1059100015AA009201AD2846214600F01DF840214D
:105920002846FEF7DDFF11B0B0BC01BC03B0004754
:105930000FB410B504A9074B02AA039800F072F93E
:10594000044602A9002000F009FD204610BC08BC56
:1059500004B018475D63000837B514460846064B87
:105960006A46214600F05EF904466946002000F0D0
:10597000F5FC20463EBD00005D6300082021020CBE
:1059800001D010211046020A01D010460839020940
:1059900001D01046091F820801D01046891E420816
:1059A00001D0881E7047081A7047F8B504464F1E8C
:1059B000C8000838211815461E46086849683A4646
:1059C00006239A4310D02A463346FAF759FD3A4641
:1059D000D200083AA3181A687F1E5B68FAF79EFC8B
:1059E00006223B469343EED1022F23D0042F11D041
:1059F000062F2FD12A463346FAF742FDE36AA26A00
:105A0000FAF78CFC2A463346FAF73AFD636A226AB3
:105A1000FAF784FC2A463346FAF732FDE369A269B5
:105A2000FAF77CFC2A463346FAF72AFD63692269B5
:105A3000FAF774FC2A463346FAF722FDE368A268B7
:105A4000FAF76CFC2A463346FAF71AFD63682268B7
:105A5000FAF764FCF8BD0000002210B513461046AA
:105A60000149FAF775FD10BD0000F03F10B50122A5
:105A7000FAF750FF10BD002210B51346104611462C
:105A8000FAF766FD10BD02E008C8121F08C1002A1F
:105A9000FAD170477047002001E001C1121F002AAF
:105AA000FBD170470149086070470000C00000202A
:105AB000F0B51FB486B00998089A030D002102437F
:105AC00014D05148514A1818504305141198012810
:105AD00010981AD0281A401C00264D4F4D490096A8
