:020000040800F2
:10000000E00A0020D500000865360008B119000894
:1000100000000000000000000000000000000000E0
:10002000000000000000000000000000C53B0008C8
:100030000000000000000000113B0008414D0008D6
:10004000E7000008E7000008E7000008E7000008F4
:10005000E70000084116000875160008AD160008F4
:1000600000000000E7000008E700000800000000B2
:10007000E7000008E7000008E700000800000000B3
:10008000E7000008E700000800000000E7000008A3
:1000900000000000E7000008E70000085523000802
:1000A00000000000E7000008E7000008814D00089C
:1000B000E700000800000000E70000080000000062
:1000C0000348854600F0C0FC00480047910A00083C
:1000D000E00A00200448804704480047FEE7FEE7A6
:1000E000FEE7FEE7FEE7FEE7514D0008C10000080D
:1000F00030B50B46014600202022012409E00D46C0
:10010000D5409D4205D31D469540491B2546954047
:1001100040191546521E002DF1DC30BD03460B433D
:100120009B0703D009E008C9121F08C0042AFAD2AD
:1001300003E00B780370401C491C521EF9D2704733
:10014000D2B201E00270401C491EFBD2704700226F
:10015000F6E710B513460A4604461946FFF7F0FFC6
:10016000204610BD421C0178401C0029FBD1801A9A
:100170007047F8B502464A40D40F42004B0052087F
:100180005B089A4202D20246084611464A0023D032
:10019000C30D4A00DDB2120EAD1A202D35DA490228
:1001A0000126490AF6058A19002C00D05242202166
:1001B0004F1B1146B9402A411018C20D9A4221D056
:1001C000002C17D0012D08DCDA05801AD20F801917
:1001D000D207DBB200F014FBF8BDDA05801A012368
:1001E00040001B06C01880185A428018CA0F1043DE
:1001F000490007E04908C2071143DA05801A80194F
:100200004008801800F0F4FAF8BD61000122511A8C
:10021000001BF7E70122D2075140AAE70122D207CB
:100220005040A6E7024670B54A40D30FDB074000B6
:100230002DD04A002AD0010E140E00021202091914
:10024000400A520A8418E50104465443000A120A7F
:100250002E045043A4194219200CC543AA18120CAD
:100260000125AD03521C521912047F39240400D019
:10027000521C104301D44000491EC2B20C06C009F2
:100280002018401C4008802A02D003E0002070BDE6
:1002900040084000002900DA0020184370BD70B506
:1002A00002464A40D50F40004A00ED074008520878
:1002B000002814D0002A12D0C40DD30D4102012011
:1002C000C0055202490A520AE41A091812187D346C
:1002D000914201D3641C00E04900002C01DA0020A7
:1002E00070BD0023914201D3891A0343400849009D
:1002F0000028F7D100290AD0914202D10121C90773
:1003000005E0914201D2012101E00121C943E0054C
:10031000C018401900F06CFA70BD0000F0B5074637
:100320000846584087B0C00F049048000E46590058
:1003300040084908BC1A884105D2384631461E4655
:1003400017460B4602465800400810434CD0300D6B
:10035000039040055900400D490D0590401A029048
:10036000402872DA18030121000B090508430190A7
:1003700004980092002805D001995242002088413B
:1003800000920190029840210A1A0199009800F009
:100390000CFA05460C466B4607CB00F016FAC0195E
:1003A0007141039A0E0D0023D71756401A467A4022
:1003B000164344D0049A002A2DD0029A012A039AA7
:1003C00015DC1205C01A914101263605001C714149
:1003D000D20F059ED2070093019202962A46234629
:1003E00000F054FA07B0F0BD38463146FAE716057A
:1003F000224A0F46B218C01AB74101210905001C54
:100400004F4100187F41114618187941E20F1043FF
:100410006D19644113E0E2076D0815436408C207D3
:100420001443039A01261205C01A91413605001C97
:100430007141CE07400830434908C01851412A464F
:10044000234600F016FACDE7FFE7049801224000AA
:10045000C117121A00238B4104983146C417381A69
:10046000A141EEE730B40124E407634030BC55E716
:1004700030B40124E407614030BC4FE70000E0FFE6
:10048000F0B51FB488B00B99099800244840099929
:10049000C00F490049080991C0070B990090490015
:1004A00049080B9109990898A64608431CD00B9956
:1004B0000A98084318D0099801244000420D4800CA
:1004C000410D099824050003000B204309900B9867
:1004D0000003000B20430B9050181C4940180022C9
:1004E00001901446104605E0002001460DB0F0BD15
:1004F000032801DA034600E003239C46C11A0AAE32
:100500000AE05F0008ADED5B4F00F75B7D4300271D
:10051000AA187C41491C5B1E6145F2DD410004AB19
:100520005A522104120C0A43240C401C0828DFDB19
:10053000019802900099704601910090059B049AE1
:100540000799069800F0A2F9D0E700000DFCFFFF24
:10055000F0B50C465C4085B0E40FE40703944C0012
:100560000026640859009446490802460296224330
:1005700021D062460A431ED06200570D4A000E0386
:100580002303550D012402462C492405781B1B0B1F
:10059000360B401823432643614600901C46501AF0
:1005A000B44103D30098401C009002E092180098D8
:1005B0005B41002803DA0020014605B0F0BD0020B1
:1005C000012109050746864611E064461D46141BB5
:1005D000B54106D36546521BB341744607430C43ED
:1005E000A646CD0740084908284392185B410546B6
:1005F0000D43EAD11046184313D0604619465040C7
:100600007140084306D06046101AB34106D2012259
:10061000002306E000220123DB0702E00122D2438F
:100620005310009874460105381C6141029C039DDB
:100630000019694100F01DF9BFE70000FD0300004B
:100640000122D207002800DB101A002900DB511A12
:10065000814201D201207047002070470122D20759
:10066000002800DB101A002900DB511A814201D951
:100670000120704700207047C217C10F504010B5CD
:100680004018CA079623002100F0BAF810BD10B533
:1006900000229623114600F0B3F810BD0EB50549AF
:1006A0000291002100910A460B46019100F0EEF8FC
:1006B00003B000BD33040000C20F4100400201231B
:1006C000400ADB05D207090EC0187F2901DA002095
:1006D0007047962903DC9623591AC84001E09639E1
:1006E0008840002AF4D040427047C20FD207400031
:1006F00040080BD0C10D0723DB01C91840020905D2
:10070000400A1143C20840071143704700200146C8
:100710007047CB0FDB07490010B5490802460A4372
:1007200007D00A0D07240903E401090B121B002A54
:1007300001DC002010BDC900440F0C43C100E018CB
:10074000D205801800F054F810BDF0B51FB406466D
:10075000002082B005464024019100901BE00199E1
:1007600022460F46304600F081F9049A059B801A14
:10077000994110D310461946224600F016F8361A51
:100780008F410197224601200021009F00F00DF8C3
:1007900038184D4100902046641E0028DFDC019B84
:1007A00000982946324607B0F0BD10B5202A04DB78
:1007B0000146203A9140002010BD914020239C1A10
:1007C0000346E3401943904010BD10B5202A06DBD4
:1007D000CB170846203A1041C1170B4306E00B46E1
:1007E0001341D0402024A21A91400843194610BD5D
:1007F000002904DA401C490001D14008400070473C
:1008000070B40024050C05D11024000402D1002985
:1008100021D01124050E01D100020834050F01D1A9
:100820000001241D850F01D18000A41C002801DBDC
:100830004000641C002908D020252E1B0D46F540E1
:10084000A14000D001212943084301061B1B000AD7
:10085000DB1D02D5002070BC7047DB05181880181E
:100860000029F8DA401C4900F5D170BC400840006E
:10087000704710B5002B08DA0024401C6141921823
:100880005B411A4301D14008400010BDF0B51FB4D0
:1008900082B005460C0003D0084605F01BFC02E0C0
:1008A00005F018FC20300246009021462846FFF74C
:1008B0007CFF049B059A04460F46184311430843E6
:1008C00014D0184610431BD0009840210A1A18462D
:1008D000059900F0CBF805460E46009A0599049854
:1008E000FFF763FF084305D0012004E020463946A6
:1008F00007B0F0BD0020C11705430E432C4337431A
:1009000000990E986305401A7905E40A00220C4309
:10091000FD0A0A3002D500200146E9E70105101959
:1009200069410C9C0D9D00196941FFF7A2FFDFE7AB
:1009300070B54B005B0803430BD04B005C0D0026E9
:1009400033466542B341D417AD1AA34102DB002000
:10095000014670BD12053018514170BD0EB5C21769
:10096000C10F5040CA0740180021054B0293019265
:1009700000910A460B46FFF789FF03B000BD000057
:10098000330400004A0009030123090B1B05194326
:100990000A4B10B5520D9A4202DA0020014610BDF2
:1009A000064B34339A4203DC9A1A00F05FF810BD0C
:1009B000034BD218FFF7F9FE10BD0000FF03000043
:1009C000CDFBFFFF10B5002904DB0124E407404202
:1009D0008C412146002B04DB1C460123DB075242DD
:1009E000A3418B4200D1824210BD000010B5002906
:1009F00004DB0124E40740428C412146002B04DB48
:100A00001C460123DB075242A341994200D1904288
:100A100010BD000002000A4800D4821A002900DB41
:100A2000411A914204D301204007914200D1054868
:100A3000EFF300810902090A014381F3008870473E
:100A40000000008000000060064C0125064E05E015
:100A5000E36807CC2B430C3C98471034B442F7D3DF
:100A6000FFF732FB608700088087000810B5202A56
:100A700004DB0846203AD040002110BD0B46D3408D
:100A8000D0402024A21A91400843194610BD00000E
:100A900080B5002007490122D306C3580B50001D22
:100AA000C028F8D150070449086004F0BBFA0020C0
:100AB00080BDC0460000002008ED00E080B501F0D8
:100AC00075FE002805D101F0EFFE01F06BFE002855
:100AD000FBD180BDF0B583B01C461546074602F039
:100AE00023FA0028FBD102F077F901200190860259
:100AF000304602F0F7F802F0CFF902F023FA0128AD
:100B0000FBD1FE20384002F035FA02F0F5F9012859
:100B1000FBD102F0EFF802F0BFF902F013FA01285E
:100B2000FBD101980743384602F024FA02F0E4F9B9
:100B30000128FBD12746022C2C460BD0012F3D4625
:100B400017D0002D23D102F0D5F802F0ADF9002D19
:100B500031D123E002F076F9EFF3108072B602F0A3
:100B6000C9F8002002F0BEF862B63D46002D22D141
:100B700014E0002002F0B6F8EFF3108072B602F035
:100B8000B9F802F091F962B6002D14D106E03046B2
:100B900002F0A8F802F0AEF8002D0CD103B0F0BDC1
:100BA000029502262B4D02F0DBF9207002984519C0
:100BB000BC192804F2D0A8B2042814D20128029546
:100BC00022D0022829D102F0A9F90128FBD1EFF3A4
:100BD000108072B602F068F902F0C2F9207062B6B5
:100BE0002746641CDDE702F0A7F90128FBD102F0DB
:100BF000B7F920702746641C02F090F90128CFD085
:100C00006D1E2804D7D1C9E702F096F90128FBD15F
:100C10001048451C019E2746C5E702F07FF90128D0
:100C2000FBD1002002F05EF8EFF3108072B602F004
:100C300097F9207002F072F90128FBD102F034F923
:100C400002F08EF9607062B60248451E2746A41C69
:100C50000326A8E7FEFF0000F0B581B01C4617464A
:100C6000064602F061F90028FBD102F0B5F802F067
:100C700013F902F067F90128FBD1FE200640304647
:100C800002F078F902F038F90128FBD102F032F8CD
:100C9000002C05D102F008F901B0F0BD2004F9D014
:100CA0003E4602F055F90128FBD1307802F062F996
:100CB000771C0094641E250402F030F9002DEDD05D
:100CC0000128EBD1707802F055F90098841EB71C0A
:100CD000E4E70000F0B581B0009316460F460546E4
:100CE000002402F021F900281ED12B46009DC8489F
:100CF000817B002918D1069904228273FE221340B9
:100D000003704770466085818160806800210170B2
:100D100002F0B0F81C48006814301C49086002F06A
:100D20005BF802F0B9F80124204601B0F0BDC046DE
:100D3000F0B581B01E4617460D46044600200090CF
:100D400002F0F2F800281CD1B148817B002918D1AB
:100D50000699012200928273FE22144004704570AD
:100D600047608681816080680021017002F082F80E
:100D70000548006814300549086002F02DF802F0BB
:100D80008BF8009801B0F0BDBC060020940600204E
:100D900080B501F04FFD01F0C3FDFFF78FFE01208C
:100DA00002F0F2F8102001F052FF202001F04FFF76
:100DB00001F052FD01F044FD01F066FD01F056FD29
:100DC00001F05AFD01F068FD01F024FD01F002FD83
:100DD00001F006FD01F016FD01F0F4FC80BD0000FD
:100DE000B0B5094C0025256001F002FD01F0CAFCF8
:100DF00001F018FD01F0CEFC0028FBD001F0BEFC94
:100E000001F0DAFC2560B0BD28240140F0B583B0C4
:100E100001AD0227AF710124AC804020019028462B
:100E200001F002FE00202A4901F054FE0726304658
:100E300004F0BCF8304604F0A1F8AF71AC80019426
:100E4000284601F0F1FD03200104204601F042FE96
:100E50000526304604F0AAF8304604F08FF8AF714A
:100E6000AC800197284601F0DFFD6120C1022046D9
:100E700001F030FE304604F099F8304604F07EF878
:100E8000AF71AC8004200190284601F0CDFD3120E7
:100E90000103204601F01EFE0626304604F086F8C7
:100EA000304604F06BF8AF71AC8008200190284602
:100EB00001F0BAFD6320C102204601F00BFE30466E
:100EC00004F074F8304604F059F803B0F0BDC046A1
:100ED00001100100F0B587B0002706970597049729
:100EE000039702970197232002F04EF806970225F8
:100EF0000595049703950320029010200190414826
:100F000001AC214601F000FE0697012605960497E4
:100F1000039502974020019005200007009021468C
:100F200001F0F2FD06970596049703950297019646
:100F30005E48214601F0E8FD01955C48214601F03C
:100F4000E3FD042001905948214601F0DDFD06979C
:100F5000059604970395029708200190534821466F
:100F600001F0D2FD01F02CFE05970497039702963D
:100F7000300301900098214601F0C6FD01F020FEEB
:100F800007B0F0BDF0B58BB001F018FB0C270A9745
:100F90000126099608960224079406940594194898
:100FA00005AD294601F0B0FD0A9709960896079409
:100FB000069405961348294601F0A6FD01F080FC31
:100FC00001F09CFC01F0A2FC01F05EFF01F02CFF9F
:100FD00000240494AA200390B00302900A480190D0
:100FE0000A4801A901F06AFF03F0FEFF03F0D0FFF9
:100FF00001F030FF01F0F8FE01F0FEFE04488473BA
:101000000BB0F0BD00140050801A060000540040E0
:10101000E0000020F0B58FB002270E9701242602D1
:1010200000960996214809AD294601F06DFD0E97FD
:101030000996052006073046294601F065FD0E9702
:10104000E00209903046294601F05EFD0D200E9029
:10105000600309903046294601F056FD00270797A6
:10106000059702946026019664200490484801ADDB
:1010700021462A4602F0F8F80497464821462A46B7
:1010800002F0F2F80497102142482A4602F0ECF8E8
:1010900000980790059702940196049721033D4814
:1010A0002A4602F0E1F80FB0F0BDC046000400503F
:1010B00080B501F0A5FF01F0CBFF01F0C1FF01F009
:1010C000A5FF01F0B5FF80BD80B501F037FC01F050
:1010D00005FC01F0F9FF13480068134901400120A5
:1010E000C003081802F00AF802F000F80128FBD14A
:1010F00002F028F802F036F801F0CCFF0028FBD10E
:1011000002F028F801F072FF02F040F801F0F4FC60
:10111000064802F043F801F0FDFF01F0CDFF02F0B8
:1011200001F880BD100FFF1FFF1F000000366E0189
:10113000B0B586B0002505950495039502950195F7
:101140000124600401F006FCE00201F003FC01ACA4
:1011500025742580029504950C4803900C4D284673
:10116000214602F031F8284602F01EF8284602F027
:1011700021F8084D2846214602F026F8284602F0BC
:1011800013F8284602F016F806B0B0BDE7030000D9
:1011900000440140002C014010B5044601F0E6FB7C
:1011A0001D480068214602F027F902F047F902F0D5
:1011B0005FF902F055F902F049F902F063F902F023
:1011C000C9F802F0BBF801F0EBFE01F0E9FE0424DF
:1011D000204601F045FD204601F072FD204601F059
:1011E00059FD204601F004FD0824204601F038FD99
:1011F000204601F065FD204601F04CFD204601F03F
:10120000F7FC02F0B5F802F0ADF802F0B9F803F01F
:10121000F5FE03F0C3FE10BDC400002080B5002021
:1012200001F060FA002801D0012080BD002001F00B
:101230003DFA002801D0052080BD002001F042FACF
:10124000002801D0092080BD012001F04BFA0028C0
:1012500001D0022080BD012001F028FA002801D031
:10126000062080BD012001F02DFA002801D00A20BF
:1012700080BD022001F036FA002801D0032080BD95
:10128000022001F013FA002801D0072080BD0220BF
:1012900001F018FA002801D00B2080BD032001F0D6
:1012A00021FA002801D0042080BD032001F0FEF9BE
:1012B000002801D0082080BD032001F003FA002897
:1012C00000D00C2080BD70B582B0044601AE002570
:1012D00035700620314601F0AFF9307803F09AFE00
:1012E0007D2109014018E0800520314601F0A4F974
:1012F000307803F08FFE20710420314601F09CF914
:10130000307803F087FEE070284602B070BD70B5FB
:1013100082B0044601AE002535700220314601F04E
:101320008BF9307803F076FEA0700120314601F091
:1013300083F9307803F06EFE60702846314601F084
:101340007BF9307803F066FE20700320314601F00F
:1013500073F9307803F05EFE2072284602B070BD4B
:10136000F0B581B0009316460F4604460A2529467B
:10137000FEF7BEFE29464143611A00010843C1B28F
:10138000062001F06EF938462946FEF7B1FE2946DF
:101390004143791A00010843C1B2052001F061F907
:1013A00030462946FEF7A4FE29464143711A000142
:1013B0000843C1B2042001F054F9009C204629469C
:1013C000FEF796FE4543611B00010843C1B20320AE
:1013D00001F047F9002001B0F0BDF0B581B014462E
:1013E0000E4607460A252946FEF782FE2946414356
:1013F000791A00010843C1B2022001F032F93046E7
:101400002946FEF775FE29464143711A000108433B
:10141000C1B2012001F025F920462946FEF768FEF9
:101420004543611B00010843C1B20024204601F07E
:1014300018F9204601B0F0BDF0B585B06A480478CF
:1014400007466A48C2886A4E6AA1304604F01CFE0C
:10145000083C601E8441009400251024284629463B
:101460002246334602F0CEFA012600962020049050
:10147000624B2946224602F0C5FA3F785B48027962
:101480005F495B4804F000FE093F781E87410097E2
:10149000282029462246564B02F0B4FA00963820FE
:1014A00029462246554B02F0ADFA4F4807784F487F
:1014B000C2784F48524904F0E7FD0A3F781E874141
:1014C0000097402029462246494B02F09BFA00969D
:1014D00050204CA32946224602F094FA424807784D
:1014E000424882784248464904F0CEFD0B3F781EC0
:1014F000874100975820294622463D4B02F082FA48
:1015000000966820404B2946224602F07BFA364876
:101510000778364842783648394904F0B5FD0C3F23
:10152000781E874100977020039529462246304B4C
:1015300002F068FA0096284621462246324B02F015
:1015400061FA2948077829480278294D28462C490C
:1015500004F09AFD0D3F781E874100970820214630
:1015600022462B4602F04EFA0096182027A3214669
:10157000224602F047FA1C4807781C48027A24A148
:10158000284604F081FD0E3F781E874100973746BC
:10159000049D284621462246154B02F033FA009658
:1015A000302002901BA32146224602F02BFA00961F
:1015B0001BA3039E30462946224602F023FA0097D9
:1015C0001BA330460299224602F01CFA1948007803
:1015D000012806D1009750203021102216A302F0D6
:1015E00011FA05B0F0BDC046920600203805002073
:1015F0007606002025303464000000002A800008B0
:101600007A8100085F000000638000082E0000005F
:1016100025640000B3A4B0B4C8B7C8CFBCFC0000B8
:1016200031C3EBD2D4C9CFCBC9BFAABAF3B1A3009F
:10163000B4E6000053050020D2D4B1A3B4E6000004
:1016400010B50124204601F03BFA002804D1022005
:1016500001F036FA00280BD0204601F0A9F902204B
:1016600001F0A6F9104804707D20C00019490880D7
:1016700010BDC04680B5082001F022FA002804D130
:10168000042001F01DFA00280CD0082001F090F988
:10169000042001F08DF90448012101707D20C00073
:1016A0000C49088080BDC046BA06002080B54020A5
:1016B00001F006FA002809D0402001F079F9044829
:1016C000012101707D20C0000249088080BDC04614
:1016D0009806002074060020F0B581B0012700971D
:1016E000002510240EA328462946224602F08AF936
:1016F000009710A328462146224602F083F911489C
:101700000268114E11A1304604F0BEFC0097202162
:1017100028462246334602F075F901B0F0BDC046B6
:10172000B3A4B0B4C8B7C8CFBCFCBFAAB5E7BBA1CF
:1017300000000000CBC9BFAABAF3B9D8B5E7BBA176
:1017400000000000342C014076060020B5E7BBA164
:10175000D5BCBFD5B1C8256400000000F0B585B088
:101760000491054640B2002800D50025002802D586
:101770000498801C0490203A0A98102B06D0082B5D
:101780004ED10026002806D0304605E0002600286D
:1017900024D0304623E0F043D1B2C900214A511889
:1017A0000191C0B200903146029604984718019802
:1017B0000391445C00984440A819C0B22146B1404E
:1017C000C9B2CA09F9B202F085F9761C082EF3D124
:1017D0000399491C0829029EE7D121E0F043D1B2C8
:1017E00009010191C0B20090314602960498471851
:1017F0000198039140180C490C5C00984440A819CA
:10180000C0B22146B140C9B2CA09F9B202F062F9C8
:10181000761C082EF3D10399491C1029029EE5D1AC
:1018200005B0F0BDD86E0008D0710008F0B587B0E3
:101830000591049010781D4E352103E0491E223693
:10184000002930D034788442F8D154787578A54294
:10185000F4D10027002B01D0384600E0F843C0B295
:1018600001903A4603960297D0B240080599451870
:10187000D007000F049944180692B0188678019892
:101880004640E019C0B23146B940C9B2CA09E9B20E
:1018900002F020F97F1C082FF3D1069A521C202A4F
:1018A000039E029FE0D107B0F0BDC046E07700087C
:1018B000F0B585B0039102901078C8282CD15078EB
:1018C000AB2829D10026002B01D0304600E0F043A0
:1018D000C0B2009034460196E0B20321FEF708FC46
:1018E000039A85180D4804940019847800984440A0
:1018F000C80002994718B819C0B22146B140C9B210
:10190000CA09E9B202F0E6F8761C082EF3D1049C6D
:10191000641C482C019EDFD105B0F0BDEA7E0008B2
:10192000F0B585B0039102901078C8282BD150787B
:10193000AB2828D10026002B01D0304600E0F04330
:10194000C0B2009032460196D0B280080399451883
:101950009007C00E029944180C48049280188778AA
:1019600000984740A019C0B23946B140C9B2CA096F
:10197000E9B202F0AFF8761C082EF3D1049A521C9B
:10198000802A019EE0D105B0F0BDC046347F00083A
:10199000012804D0002805D1044800687047024897
:1019A0000068704700207047DC0000204C050020D4
:1019B000FEE70000F0B585B030480189304A11815A
:1019C00001684068116050600020049001F050FFF1
:1019D00003F030F8064602F0E7FFFEF758FE294C08
:1019E0002146FEF75CFCFEF780FE05460F463046BA
:1019F000FEF74DFE2146FEF752FCFEF776FE02464C
:101A00000B4600950197204C2049204604F03CFBF2
:101A1000012600961027049801463A46234601F015
:101A2000F1FF03F00BF8039002F0C2FFFEF72FFE68
:101A30001449FEF734FCFEF758FE05460C460398A1
:101A4000FEF725FE0F49FEF72AFCFEF74EFE024682
:101A50000B46009501940C4C20460C4904F014FBF5
:101A600003960096049839463A46234601F0CAFF89
:101A700002F084FD002837D00AE0C046D0000020E4
:101A80003805002000007A447606002065800008B2
:101A900002F0D4FFFEF7FBFD044602F089FFFEF7DB
:101AA000F6FD01462046FEF7BDFB0849FEF7F7FBB1
:101AB000FEF71BFE04460D4602F070FF009004483E
:101AC00004A122462B4604F0DFFA0DE000247449FD
:101AD00076060020252E30326657202564252520E5
:101AE000554643530000000002F0DAFC002829D0DC
:101AF00002F0A4FFFEF7CBFD044602F059FFFEF70B
:101B0000C6FD01462046FEF78DFB0849FEF7C7FBE0
:101B1000FEF7EBFD04460D4602F040FF009004483E
:101B200004A122462B4604F0AFFA0BE000247449CE
:101B300076060020252E3032665720256425252084
:101B40004146430002F00AFD00281CD002F076FF57
:101B5000FEF79DFD044602F02BFFFEF798FD0146BF
:101B60002046FEF75FFBF749FEF799FBFEF7BDFD48
:101B700004460D4602F012FF0090F148F2A1224601
:101B80002B4604F081FA02F0F1FC00281CD002F090
:101B900055FFFEF77CFD044602F00AFFFEF777FDD5
:101BA00001462046FEF73EFBE649FEF778FBFEF7CE
:101BB0009CFD04460D4602F0F1FE0090E048E7A1CE
:101BC00022462B4604F060FA02F0E8FC00281CD004
:101BD00002F034FFFEF75BFD044602F0E9FEFEF77B
:101BE00056FD01462046FEF71DFBD649FEF757FB82
:101BF000FEF77BFD04460D4602F0D0FE0090D04873
:101C0000DBA122462B4604F03FFA02F0BFFC00287D
:101C10001CD002F013FFFEF73AFD044602F0C8FEA6
:101C2000FEF735FD01462046FEF7FCFAC549FEF7F2
:101C300036FBFEF75AFD04460D4602F0AFFE00905B
:101C4000BF48D0A122462B4604F01EFA02F058FCF1
:101C500000281CD002F0F2FEFEF719FD044602F047
:101C6000A7FEFEF714FD01462046FEF7DBFAB54954
:101C7000FEF715FBFEF739FD04460D4602F08EFE19
:101C80000090AF48C4A122462B4604F0FDF902F0B3
:101C90002FFC00281CD002F0D1FEFEF7F8FC044611
:101CA00002F086FEFEF7F3FC01462046FEF7BAFA84
:101CB000A449FEF7F4FAFEF718FD04460D4602F0BB
:101CC0006DFE00909E48B9A122462B4604F0DCF937
:101CD00002F006FC00281CD002F0B0FEFEF7D7FC94
:101CE000044602F065FEFEF7D2FC01462046FEF7F0
:101CF00099FA9449FEF7D3FAFEF7F7FC04460D462D
:101D000002F04CFE00908E48AD4922462B4604F06E
:101D1000BBF902F0DDFB00281CD002F08FFEFEF7BD
:101D2000B6FC044602F044FEFEF7B1FC0146204634
:101D3000FEF778FA8349FEF7B2FAFEF7D6FC0446BE
:101D40000D4602F02BFE00907D489E4922462B4610
:101D500004F09AF902F0FAFB00281CD002F06EFEA3
:101D6000FEF795FC044602F023FEFEF790FC0146C8
:101D70002046FEF757FA7349FEF791FAFEF7B5FCD5
:101D800004460D4602F00AFE00906D488E49224638
:101D90002B4604F079F902F08BFB00281CD002F0EE
:101DA0004DFEFEF774FC044602F002FEFEF76FFCE7
:101DB00001462046FEF736FA6249FEF770FAFEF752
:101DC00094FC04460D4602F0E9FD00905C487F4912
:101DD00022462B4604F058F902F0B0FB00281CD034
:101DE00002F02CFEFEF753FC044602F0E1FDFEF784
:101DF0004EFC01462046FEF715FA5249FEF74FFA0F
:101E0000FEF773FC04460D4602F0C8FD00904C48F6
:101E10006F4922462B4604F037F902F087FB002871
:101E20001CD002F00BFEFEF732FC044602F0C0FDAF
:101E3000FEF72DFC01462046FEF7F4F94149FEF776
:101E40002EFAFEF752FC04460D4602F0A7FD009064
:101E50003B48604922462B4604F016F902F05EFB2F
:101E600000281CD002F0EAFDFEF711FC044602F047
:101E70009FFDFEF70CFC01462046FEF7D3F93149E1
:101E8000FEF70DFAFEF731FC04460D4602F086FD22
:101E900000902B48504922462B4604F0F5F802F0FA
:101EA0000FFB00281CD002F0C9FDFEF7F0FB044632
:101EB00002F07EFDFEF7EBFB01462046FEF7B2F98D
:101EC0002049FEF7ECF9FEF710FC04460D4602F03F
:101ED00065FD00901A48414922462B4604F0D4F88B
:101EE000039D009500200490202110220292144BA3
:101EF00001F088FD02F080FD07464B20840002F0CF
:101F000091FD06463648007860437D21C900FEF702
:101F1000EFF804463846FEF7E8FB02460B4600960B
:101F200001943049064C204604F0AEF8009530216B
:101F30000498029A234601F065FD05B0F0BDC04645
:101F40007606002000247449252E3032665720255D
:101F5000642525205346435000000000252E3032D2
:101F6000665720256425252053564F4F4300000017
:101F7000252E30326657202564252520564F4F43A5
:101F800034000000252E3032665720256425252098
:101F9000564F4F4331000000252E30326657202522
:101FA000642525205045322E30000000252E303289
:101FB00066572025642525205045312E310000002C
:101FC000E480000805810008D4800008C48000086F
:101FD000198000085380000843800008D97F00085A
:101FE000D806002017810008F0B5D7B05520810031
:101FF00002AC2046FEF7ABF8444806C8444B06C383
:102000000088188043480027077043480770022063
:102010002070424800680A21FEF76AF80246601CF8
:102020003FA104F031F8032060742046123040498B
:102030000922FEF773F822200421215405263007D7
:102040000121090300F09DFD014625464435223457
:10205000601C002901D0374900E037490B22FEF708
:102060005DF8667402AC2046343034490922FEF72C
:1020700055F8062028702046453031490A26324658
:10208000FEF74CF810206874563420462C4932462E
:10209000FEF744F8F9B2112002464A4302AB9A5CBB
:1020A000002A03D07F1C1329F4D3142700243906F7
:1020B00021460ED023490A780021CBB2434302AD1A
:1020C000EB5C9A4205D0FBB2491CCDB29D42F4D3E1
:1020D0003946C91E4AB2002A00DC2146C9B248432B
:1020E00002A90D18174E28783178081A411E884128
:1020F00000906B1C2007010E0020102201F082FCD2
:102100001135641C042CEED157B0F0BDD000002076
:10211000380500205305002052050020402C0140C6
:102120004C4544C1C1B6C8202564252500000000E7
:102130008C8200088082000898820008A48200082F
:102140007482000892060020F0B587B0564D2889A9
:102150005649088105CD05C1083DEA882B79E87804
:10216000A9786C782D7800AE33C6514C51A1204629
:1021700003F08AFF012600960027102206923846B7
:102180003946234601F03EFC52480068FEF7ADFA9E
:1021900004460D4650480068FEF7A7FA02460B4673
:1021A000009401954DA14248044603F06DFF00964E
:1021B000384606990A46234601F024FC3846FFF7C4
:1021C000E7FB05903046FFF7E3FBFEF78EFA054686
:1021D0000C460598FEF789FA02460B4600950194D5
:1021E00042A13348044603F04FFF009620213846B1
:1021F000069A234601F006FC02F046F900280ED0AC
:102200003E4800680A21FDF773FF0246264803781E
:10221000007A009026483AA103F036FF3BE0224FB7
:1022200002F038F900280DD0344800680A21FDF783
:102230005FFF02463B78387A00901D4835A103F0D5
:1022400023FF28E02D4D02F013F900280CD0286858
:102250000A21FDF74DFF02463B78387A009014487A
:1022600031A103F011FF16E002F008F904462868D6
:102270000A21FDF73DFF0246387A3B78002C05D055
:1022800000900B482DA103F0FFFE04E000900848E9
:102290002F4903F0F9FE0096002030211022044B54
:1022A00001F0B0FB07B0F0BDD000002038050020E1
:1022B00076060020253034642D253032642D2530FB
:1022C00032645F253032643A253032643A25303248
:1022D000640000004805002044050020252E30320F
:1022E00066A1E620252E303266A1E600252E30328A
:1022F00066A1E620252E303266252500382C0140C7
:1023000046414E3A2564252520253032642E256429
:102310002043310046414E3A2564252520253032A0
:10232000642E25642043320046414E3A256425251B
:1023300020253032642E25642041310046414E3A3A
:102340002564252520253032642E25642041320065
:102350003981000810B59148006814309049086030
:1023600000F0F0FD00280ED09348817B012903D0B6
:10237000072903D0042906D1007802E00178012062
:10238000084300F0F7FD00F0B7FD00282CD000F066
:10239000B1FC894CA07B072806D0042810D0012866
:1023A00022D10220A0731FE0A08900280BD0A089B1
:1023B000012814D1002000F095FC00F075FD13E019
:1023C0000520A07310E000F01FFD00F06DFD00F08F
:1023D0001BFDA068012101700020A07304E0A0890A
:1023E0000120800200F07EFC00F098FD00283CD027
:1023F000714CA07B07280AD0062836D100F00CFDCE
:1024000000F030FD0720A07300F046FD2DE0A0890C
:1024100002281BD100F048FD00F0A2FD61684A1CB3
:1024200062600870A089401EA08100F099FD61687B
:102430004A1C62600870A089401EA08100F0E4FC84
:10244000A068012101700020A0730EE0A08903287C
:102450000BD1002000F046FC00F082FD61684A1CB0
:1024600062600870A089401EA08100F065FD002810
:1024700023D0514CA08900281FD0A07B07281CD155
:10248000A089032817D0022812D001286CD100F0AF
:1024900067FD61684A1C62600870A089401EA081C7
:1024A00000F0B2FCA068012101700020A07304E0DC
:1024B000002000F017FC00F097FC00F049FD002818
:1024C0001ED03D4CA07B052808D003280CD0022844
:1024D00016D1607800F04EFD032003E0607800F034
:1024E00049FD0620A0730BE0A08900282FD060686A
:1024F000411C6160007800F03DFDA089401EA08174
:1025000000F000FD00280DD000F0FEFB00F06CFC98
:1025100000F072FC00F0C8FC27480021817380683D
:102520000221017000F0F4FC00280FD000F0F4FB51
:1025300000F038F800F058FC00F05EFC00F0B4FC4D
:102540001D480021817380680421017010BD00F0D6
:10255000E5FC00281FD000F04FFC00F0A5FCA068AF
:10256000012101700020BDE700F0FAFC61684A1CFF
:1025700062600870A089401EA08100F0CFFC012895
:102580009BD100F0EDFC61684A1C62600870A08974
:10259000401EA08191E700F027FCB1E7BC060020B7
:1025A0009406002080B500F06FFCFEF7EBFC0248BB
:1025B0000021817380BDC046E0000020F0B587B0E7
:1025C000002706970597049703970297019700F055
:1025D000FFFA0C2000900690012405940497022530
:1025E000039502940195134801AE314600F08CFA30
:1025F000204600F01DFB0098069005940494039576
:10260000029701940B48314600F07EFA00F0CAFAB6
:10261000002801D007B0F0BD022000F009FB00F057
:10262000D7FA00F0BFFA0028F4D0781C082F07462C
:10263000F2D3EFE70014005070B582B00C4601AA47
:102640001070D0200025012629463346FEF704FBF2
:10265000D120294622463346FEF73CFA284602B0EE
:1026600070BD10B582B001AA0024148051701070A2
:10267000D02002232146FEF7EFFA204602B010BD1B
:1026800000213D480A468318997159711971D97012
:10269000997059700832202AF5D108210176042159
:1026A000017402210172012101707047032801D9D0
:1026B00000207047C000304908184079411E884109
:1026C0007047C04601460020032909D8C9002A4A9C
:1026D00051188A79002A03D0881D00210170012039
:1026E0007047C04601460020032909D8C900224A84
:1026F00051180A79002A03D0081D00210170012019
:102700007047C04680B500F043FA4142484180BD61
:1027100070B50024184D06E0002070700120307163
:102720000834202C27D02E19285DFFF7EBFF717895
:10273000022918D0012909D00029F1D10028EFD0B1
:1027400001207070002070717080E9E70028E3D0EC
:102750007088401C708080B26428E1D302207070C1
:1027600001207071DCE70028DAD1002070707071F0
:102770000120B071D4E770BD9A06002008480421FA
:10278000016070474C4801684C4A0A40511C016086
:102790007047C046024800684007C00F7047C046F7
:1027A0000024014044480068C00F70474248016857
:1027B000012008407047C0460148006880B2704759
:1027C000402401400120400332490A6882430A60E4
:1027D0007047C0462F48016803229143016070474B
:1027E000012000032B490A6802430A607047C04673
:1027F00002490140024801607047C046FF1B0000CB
:10280000282401400120000422490A6882430A600A
:102810007047C046372080011E490A6882430A601B
:102820007047C04624480168244A0A40111D0160CF
:102830007047C04680B500F0A9F800F0AFF880BD41
:102840000F20000703490A6882430120400710183F
:1028500008607047102401400320800502490A687F
:1028600082430A607047C046082701400948016852
:1028700020229143016070470120800305490A68C6
:1028800002430A607047C04602480168182291431B
:10289000016070470C2401400248016807220A4386
:1028A000026070471424014003480168034A114044
:1028B000891816310160704708240140EAFFFF7F44
:1028C00081B0012040050C490A6802430A6009688A
:1028D00001400091009801B07047C04681B00120CE
:1028E000000705490A6802430A600968014000912F
:1028F000009801B07047C0463C10024001204005DE
:1029000006490A6802430A607047C0460120400534
:1029100002490A6882430A607047C0462C10024090
:1029200081B00120000518490A6802430A6009685D
:1029300001400091009801B07047C04681B0124834
:102940000168012211430160006810400090009866
:1029500001B0704781B00C490A6802430A600968F7
:1029600001400091009801B07047C04681B001203D
:10297000800305490A6802430A6009680140009122
:10298000009801B07047C046401002400120000589
:1029900006490A6802430A607047C04601200005E4
:1029A00002490A6882430A607047C04630100240FC
:1029B000474908607047C0460E490A6882430A606A
:1029C0007047C0460F490A6882430A607047C04694
:1029D00010490A6882430A607047C04611490A6874
:1029E00082430A607047C04602490A6802430A608F
:1029F0007047C0468418024002490A6802430A60D0
:102A00007047C0460418024002490A6802430A603F
:102A10007047C0468018024002490A6802430A60B3
:102A20007047C04600180240B0B5044600682179DE
:102A300000290ED0002814D06179022914D0012970
:102A400015D000291AD1FFF7B7FF2068FFF7DCFF88
:102A500012E0FFF7BDFF2068FFF7AEFF0025284614
:102A6000B0BD00252846B0BDFFF7CEFF01E0FFF75F
:102A7000AFFF2068FFF7B8FF002500E00125A0792F
:102A800003280ED8784400794000874401020D11D4
:102A9000E5E72068FFF796FF2068FFF7BDFF2846AF
:102AA000B0BDAD1C2846B0BD2068FFF797FF02E01F
:102AB0002068FFF7B1FF2068FFF79EFF2846B0BDF2
:102AC000034909680140091A484248417047C04615
:102AD0000C180240B0B50A0AD2B20B0CDBB293401C
:102AE0008907090F034C0D599D4390402843085115
:102AF000B0BDC046601802400248016801229143FF
:102B00000160704700200240F0B581B00D460446D8
:102B1000096800292AD0002706E000F075F87F1C1C
:102B200029680846F84021D00126BE400E40F6D064
:102B30006A682046314600F081F86868401E012826
:102B400004D8AA682046314600F0B0F82A69204629
:102B5000314600F096F868680228E0D16A6920469C
:102B60003146FF2ED9D800F039F8D8E76868401E02
:102B7000012803D8EA68204600F07DF8002001B063
:102B8000F0BD00690840411A4842484170470000C2
:102B9000034909680140091A484248417047C04644
:102BA0001004005002480168012008407047C046E8
:102BB0001014005001200003044908607047C0460B
:102BC00001200003014908607047C04628000050FA
:102BD00001480221016070472814005049434943CD
:102BE0004A430F234B43016A9943114301627047E3
:102BF000404340430F214143024A13688B43034340
:102C00001360704720000050090A494349434A4372
:102C10000F234B43416A99431143416270470000BF
:102C200001200003014908607047C04618000050A9
:102C3000014908607047C0461814005049434A4390
:102C400003234B430168994311430160704740439C
:102C5000032141430520000702680A4302607047D0
:102C60004043032141430522120713688B43400070
:102C70001843106070474A4343688B4313434360D3
:102C8000704749434A4303234B43C1689943114367
:102C9000C1607047404303214143034A13688B439B
:102CA000034313607047C0460C00005049434A4339
:102CB00003234B43816899431143816070470000AF
:102CC000404303214143024802680A4302607047BF
:102CD0000800005001229202036893430B430360F3
:102CE0007047000001218902734A13688B43034334
:102CF0001360704781B0994801680091009940685D
:102D00000090009801B070470120800293490A6842
:102D100082430A607047C046012000028F490A685A
:102D200082430A607047C046F0B581B000931646F2
:102D30000F46044621493846FDF7DAF93F21C943D9
:102D400062680A4002436260256A0D401C4A511CB9
:102D50008E4208D34B218A0042437D20C100104699
:102D6000FDF7C6F9164A401C28432062154D9642CD
:102D700004D9009D002D09D0192008E071003846C3
:102D8000FDF7B6F9284211D104200FE00320464395
:102D900038463146FDF7ACF90A49CA1C01211042F8
:102DA0000A4600D002462A43C8031043E169064A96
:102DB0000A400243E26101B0F0BDC04640420F004C
:102DC000A0860100FC0F00000030FFFF0168012217
:102DD00091430160704700000120C00236490A6833
:102DE00082430A607047C0460120800225490A6874
:102DF00082430A607047C0460120400221490A68A8
:102E000082430A607047C046032040021D490A6899
:102E100082430A607047C0460320400219490A688D
:102E200082430A607047C0460120C00322490A68F5
:102E300082430A607047C046016801220A4302606B
:102E4000704700000120C0021B490A6802430A6063
:102E50007047C046012000020A490A6802430A601E
:102E60007047C0460320400206490A6802430A60D0
:102E70007047C0460320400202490A6802430A60C4
:102E80007047C046045400400120C0030A490A6844
:102E900002430A607047C0460120000206490A68E2
:102EA00002430A607047C0460120400202490A6896
:102EB00002430A607047C04600540040B0B584B079
:102EC0000D460446FFF782FF01A800F0E9F80CCD9B
:102ED00003992046083DFFF727FFA968204600F028
:102EE00043F82046FFF7A8FFE9682046FFF7F2FE07
:102EF000002004B0B0BD0000184800688007C00F73
:102F00007047C046154800684005C00F7047C0466E
:102F100012480068C005C00F7047C0460F480068DF
:102F20004007C00F7047C046024800688007C00FC6
:102F30007047C04618540040084800684006C00F5B
:102F40007047C04605480168012008407047C046E8
:102F5000024800680006C00F7047C0461454004085
:102F600008480068C0B270478268FE239A430A434B
:102F70008260704703490A68FF239A43101808606B
:102F80007047C0461054004081B017490A68024398
:102F90000A60096801400091009801B07047C0467E
:102FA00081B011480168012211430160006810409E
:102FB0000090009801B0704781B00B490A68024345
:102FC0000A60096801400091009801B07047C0464E
:102FD00081B005490A6802430A600968014000910E
:102FE000009801B07047C046341002406A48034957
:102FF0004160002181600521016070477FA90300C5
:103000000E48016810229143016070470B48016827
:1030100002229143016070470848016804220A4374
:1030200002607047054801680422914301607047BF
:1030300002480168042291430160704710ED00E0EE
:103040000120800306490A6802430A607047C046AF
:103050000120400202490A6802430A607047C046E4
:10306000007000400F20010241480068084070478E
:10307000072001033E480068084070470720C1024E
:103080001D480068084070473948016838200840EA
:103090007047C04636480168382008407047C0462F
:1030A00010B5044600F056FD206000F033FD60606E
:1030B00000F040FDA06010BD012000040E490A6828
:1030C00082430A607047C046012000020A490A682C
:1030D00002430A607047C0460C480068C00A1C21C1
:1030E0000140014840587047C07700080248006816
:1030F0004005C00F7047C0460010024003490A68EF
:10310000034B134003430B607047C046041002405A
:103110000000FFFF024801680122914301607047EF
:103120005C1002400248016801229143016070472F
:103130006010024002480168012008407047C04604
:103140000C1002400F20000209490A6882430A60FD
:103150007047C0460720000305490A6882430A6099
:103160007047C046024801680722914301607047DA
:1031700008100240D3480168022291430160704761
:10318000D048016802220A4302607047CD480168B6
:1031900002220A430260704710E000E00149086023
:1031A0007047C046C40000200121C903426C0A4395
:1031B00042647047016801220A4302607047416916
:1031C00001220A434261704770B50D46044601680A
:1031D0001F4EB04202D01F48844204D17020814368
:1031E0006868084300E008461B498C4208DDB44289
:1031F0000CD01A498C4209D019498C4206D024E0DF
:1032000014498C4202D017498C421ED10321090275
:103210008843E96801432160A968204600F060F80E
:103220002988204600F05EF8B44205D00B4884425D
:1032300002D00B48844203D1297C204600F054F888
:103240002046FFF7BCFF002070BD0146E3E7C04603
:10325000002C014000040040FF2B014000480140C9
:103260000044014000200040B0B503460120FF2982
:1032700009DC012914D010291DD11846114600F08F
:1032800031FA0020B0BD01242502A9420ED024034A
:10329000A14210D11846114600F0B0FA0020B0BD8E
:1032A0001846114600F0E0F90020B0BD184611465E
:1032B00000F05CFA0020B0BD014908607047C046CC
:1032C0003444014041637047014800210160704768
:1032D000382C014081637047C163704701647047B7
:1032E000C1627047816270470163704781B03C489A
:1032F00001680091009940680090009801B0704703
:1033000081B03748016800910099406800900098AA
:1033100001B0704781B0324801680091009940685F
:103320000090009801B0704781B02D48016800916D
:10333000009940680090009801B070474020C04359
:10334000274908607047C046514801688022914370
:1033500001607047012040034D490A6802430A603A
:103360007047C0463D48016801220A430260704729
:103370000120000246490A6802430A607047C046BD
:103380004348016820220A430260704740480168B0
:1033900080220A4302607047114800688007C00F0E
:1033A0007047C0460E4800684007C00F7047C046CF
:1033B0000B4800680007C00F7047C0460848016806
:1033C000012008407047C046054800688006C00FCD
:1033D0007047C046024800680006C00F7047C046EC
:1033E000003801402A4800680006C00F7047C046F8
:1033F0002A480068C0B2704770B51922504389004E
:10340000FCF776FE054664263146FCF771FE04465D
:103410006320C04360434019000132303146FCF75D
:1034200067FE0F210140F02202402001101880B2F7
:1034300040180149086070BD0838014001200003B0
:1034400013490A6882430A607047C046032000029D
:1034500002490A6882430A607047C0461438014036
:10346000032040020A490A6882430A607047C04646
:103470000120400302490A6882430A607047C0463F
:1034800010380140024801680C220A43026070476C
:103490000C380140014908607047C04604380140BB
:1034A00081B008490A680092401C01D30020C04343
:1034B000009A002804D00A68D203D2171018FAD153
:1034C00001B0704710E000E0F0B587B00026069626
:1034D0000596049603960296019601242046FFF76E
:1034E0006BFD02252846FFF767FD059604960395B8
:1034F0000296302001905A4D01AE28463146FFF722
:1035000003FB28463146FFF7FFFAA0030190052090
:10351000070738463146FFF7F7FA6003019038464F
:103520003146FFF7F1FA8020019028463146FFF737
:10353000EBFA07B0F0BDC046F0B581B001270097A7
:103540000025102412A328462946224600F05AFAE4
:10355000009713A328462146224600F053FA00970D
:10356000202113A32846224600F04CFA1148008877
:1035700002B2114E11A1304602F086FD00973021B3
:1035800028462246334600F03DFA01B0F0BDC04661
:10359000B6CCB0B42EB3A4B0B4BCD3C1C1B6C800CD
:1035A000D6B52CB5BDB4EFD7EEB4F3D6B5BAF300AB
:1035B000D6C330005005002076060020C1C1B6C831
:1035C000D6B53A256400000070B500210E4A0B46BE
:1035D00011E0144680252560402414601646083EFC
:1035E00036681461CD407404E4172C402343491C11
:1035F0004000082905D044B2002CEADB1446103400
:10360000E8E7D8B270BDC04618040050F0B587B0E6
:1036100000260696059604960396029601960124C6
:103620002046FFF7D5FC02252846FFF7D1FC05967A
:1036300002A870C0402000900190F14801AF3946C7
:10364000FFF762FA059602A870C080200190EC4C4A
:1036500020463946FFF758FA0098A06207B0F0BD3F
:103660000004005070470000F0B581B0044601200E
:103670000090C043226A024022620A690240206A26
:103680000326B04310430F684D6805436268A06984
:10369000732398433843734B9C4205D0724B9C4232
:1036A00002D0724B9C4214D133029A43009B5B02BE
:1036B0004E6900968F69CE699F43174372003A4363
:1036C0000C239D43009B5B08DB002B438D68AD0002
:1036D0001D436260A061C9682046FFF7F3FD2562C3
:1036E00001B0F0BDF0B581B00446006A10229043ED
:1036F0002062206A302290430A6952085201024334
:103700000B68486805011543606873221202A669B8
:1037100096431F023743534B9C4205D0524B9C4269
:1037200002D0524B9C4215D103239B0298434A6915
:1037300000928E69CB69B6000B4A32400243D80032
:103740001043C0229543009A5208D2012A438B6845
:103750009D0115436060A761C9682046FFF7BAFD67
:10376000256201B0F0BDC046FCF7FFFFF0B583B0A5
:1037700004462048FF30226A024022620320029061
:103780000002226A824308694008400210430E6822
:103790004A68150205436268E3697327BB433343F4
:1037A000304EB44205D0304EB44202D02F4EB44217
:1037B00017D1029F3E03B243486901908869CE69E0
:1037C000009606010C4830401043009A5201024313
:1037D000B802854301984008C00228438D68AD02B5
:1037E00005436260E361C9682046FFF775FD256205
:1037F00003B0F0BD00FEFFFFF0DFFFFFF0B581B0CA
:10380000044601200203236A934323620322120326
:10381000236A93430A69520852031A430E684B689D
:103820001D031543636873221202E769974332024E
:103830003A430C4EB44205D00B4EB44202D00B4E6C
:10384000B44205D18003834388698001184300E0B6
:1038500018466060E261C9682046FFF73FFD2562B7
:1038600001B0F0BD002C014000480140004401407F
:1038700080B5002806D0012081029F48FF22FCF776
:103880005FFC80BD012081029B48FCF760FC80BD8D
:10389000F0B581B00024984D26463046B030214620
:1038A00000F02CF92046214600F028F9102021468E
:1038B00000F024F92746E85D012100F01FF97F1C84
:1038C000802FF8D18035761C082EE6D101B0F0BDEE
:1038D00010B58D200024214600F010F91420214657
:1038E00000F00CF9AF20214600F008F910BD0000EF
:1038F000F0B587B0002406940594049403940294D0
:10390000019401263046FFF757FB02273846FFF7A0
:1039100053FB059404940397029630200190384895
:1039200001A90091FFF7F0F805940494039702961B
:10393000B00301900520050728460099FFF7E4F839
:103940000594700301900D20069002972846009977
:10395000FFF7DAF810262A4FBE6214252846FFF733
:103960009FFDBE61E220214600F0C8F82846FFF71F
:1039700097FDAE20214600F0C1F8A220214600F0BC
:10398000BDF82320214600F0B9F8A020214600F020
:10399000B5F8C820214600F0B1F8A620214600F075
:1039A000ADF88120214600F0A9F82020214600F042
:1039B000A5F8A420214600F0A1F8F82528462146C4
:1039C00000F09CF82846214600F098F82C2021466B
:1039D00000F094F82E20214600F090F82F20214688
:1039E00000F08CF84020214600F088F82046FFF7D0
:1039F0003FFFFFF74DFFFFF76BFF07B0F0BDC0467D
:103A000000040050F0B587B01E46154606910746E3
:103A10001846FCF7A7FB0590002858D00C98049096
:103A20008020401B01906808029000200446039605
:103A300005E0039E641CE0B20599814247D93256E5
:103A4000002A07D4102D13D0082D40D10626002AB5
:103A500011D1EEE73218202D1FD0182D24D0102DB3
:103A600035D1F8B20699C9B2049BFDF7DFFE21E01B
:103A70000826002ADDD004980090F8B20699C9B251
:103A8000D2B22B46FDF76AFEF719F8B2782800D9B2
:103A90000027039E7828CDD915E0F8B20699C9B25F
:103AA000049BFDF73DFF05E0F8B20699C9B2049BFF
:103AB000FDF7FEFE019902983F18F8B2814200DA44
:103AC00000278142B6DA069840190690B2E707B09F
:103AD000F0BD000010B507240C400123A340C90825
:103AE000C901081804490C5C002A02D01C430C547C
:103AF00010BD9C430C5410BDF000002080B5C0B236
:103B0000002902D001F026FA80BD01F013FA80BD31
:103B10007047000010B50446FFF7A4FA80093C2165
:103B20000140034840581F210140CC40204610BDB1
:103B3000786E000810B50446FFF79AFA000B800073
:103B4000034908581F210140CC40204610BDC04603
:103B5000B86E000810B5FFF797FA0321C841401E60
:103B600003280BD80D4CC0467844007940008744A8
:103B7000101201010120C403204610BD084800684E
:103B8000C00A1C21014007484458FFF777FAC00AD1
:103B9000C440204610BD00F007F810BD00366E018D
:103BA00004100240C077000880B5FFF7C3FA01286F
:103BB00001D1034880BDFFF78FFA400080BDC046A9
:103BC000006CDC027047000070B5414D2878082871
:103BD00000D978E07844007940008744040C1A2822
:103BE0003746505A6400302000F02CFF002863D084
:103BF0002878401C2870B94EB11D0024204600F0E2
:103C00006BF8002861D02878401C2870F088C0002C
:103C1000F080B24C21460831012000F05DF8002808
:103C20004AD02878401C2870208980002081AB4C25
:103C300021460A31022000F04FF800283CD02878B5
:103C4000401C28706089072141436181A34C2146B3
:103C50000C31032000F040F800282DD02878401CBB
:103C60002870A08905214143A1819C490E3104207F
:103C700000F032F800281FD02878401C287097499F
:103C80001031092000F028F8002815D02878401CB1
:103C90002870924912310A2000F01EF800280BD03B
:103CA0002878401C28708D48018A0A4A914205D81C
:103CB00000202870012070BD002070BD00212970F7
:103CC0004170012070BD00242C70204670BDC0469C
:103CD000F0040020830C0000B0B582B00C46014611
:103CE000164D2878022819D0012809D0002821D1A2
:103CF000302000F07DF8002819D02878401C28706A
:103D00007648401D00907820312102232246FCF79E
:103D1000E1FF00280BD02878401C28706F484079BC
:103D2000002804D000202870012002B0B0BD00207F
:103D300002B0B0BD0020287002B0B0BDF104002078
:103D4000F0B581B00446154F3878012813D000280B
:103D50001DD115460E466148C11C204600F020F8D2
:103D6000002818D03878401C387035405B49C87836
:103D7000B0432843C8705948C178204600F038F84D
:103D8000002808D000203870012001B0F0BD0020CC
:103D9000387001B0F0BD002001B0F0BDF204002089
:103DA00010B582B00A460146104C207801280DD08B
:103DB000002814D14948401D009078200123FCF7C9
:103DC00089FF00280FD02078401C2070434840799C
:103DD000002808D000202070012002B010BD002073
:103DE000207002B010BD002002B010BDF30400200E
:103DF00070B582B00C460146384E701D0090F21C22
:103E0000782001252B46FCF793FF002801D0F470A1
:103E100000E00025284602B070BDC04610B582B053
:103E20002D4C2078062852D87844007940008744E9
:103E3000030B151F2D344200992000F003FE0028CB
:103E400042D02078401C207024492C319920FFF763
:103E5000A7FF002838D02078401C20701F492D3142
:103E6000A220FFF79DFF00282ED02078401C207054
:103E70001A4A501D00902632782086210223FCF732
:103E800029FF002820D02078401C2070134840795A
:103E9000002819D02078401C20701048826A401DEC
:103EA0000090782088210323FCF714FF00280BD012
:103EB0002078401C207009484079002804D0002058
:103EC0002070012002B010BD002002B010BD002003
:103ED000207002B010BDC046F4040020040500208C
:103EE000B0B50F4D2878012809D0002812D1202024
:103EF00000F0A8FD002811D02878401C2870202050
:103F000001242146FFF774FF002807D00020287005
:103F10002046B0BD00242C702046B0BD0020B0BDAE
:103F2000F5040020B0B50446134D2878012809D0C7
:103F3000002812D1A42000F085FD00280BD028789D
:103F4000401C2870A4200421002C0AD00A46FFF748
:103F5000F7FE00280BD10020B0BD00242C702046B5
:103F6000B0BD00242246FFF7EBFE0028F7D000206A
:103F700028700120B0BDC046F6040020B0B504464C
:103F8000134D2878012809D0002812D1A42000F070
:103F900059FD00280BD02878401C2870A420082147
:103FA000002C0AD00A46FFF7CBFE00280BD10020D8
:103FB000B0BD00242C702046B0BD00242246FFF77F
:103FC000BFFE0028F7D0002028700120B0BDC046F9
:103FD000F7040020B0B50446174D2878022818D001
:103FE000012809D0002824D1A52000F02BFD0028AD
:103FF0001DD02878401C287005212046FCF778F851
:10400000C1B2A520FFF7F4FE002810D02878401C8C
:10401000287005212046FCF76BF8010AA620FFF75F
:10402000E7FE002803D0002028700120B0BD00204A
:10403000B0BD00202870B0BDF8040020B0B5E94D37
:104040002878272800D9C9E14000C04678448088F4
:1040500040008744270030003A0042004C005600E0
:1040600060006A00740080008A009500A000AA0029
:10407000B400BF00C900D300DD00E700F200FD007E
:10408000080114011F012A01350141014C015601AB
:104090005F01690173017D01870191019B01A50108
:1040A000AC01B401202000F0CDFC002800D193E148
:1040B0002878401C287020200121FFF799FE002855
:1040C00000D189E12878401C287000F071FD00289B
:1040D00000D181E12878401C287025201D21FFF7A0
:1040E00087FE002800D177E12878401C287029201D
:1040F0000121FFF77DFE002800D16DE12878401CEA
:10410000287040208421FFF773FE002800D163E16E
:104110002878401C287045205A21FFF769FE0028A6
:1041200000D159E12878401C28704F205A21FFF710
:104130005FFE002800D14FE12878401C2870A220A3
:10414000202100242246FFF7FBFD002800D147E193
:104150002878401C28704120800000F073FC002863
:1041600000D139E12878401C2870002480212046A5
:10417000FFF73EFE002800D132E12878401C28706D
:10418000042077212322FFF7DBFD002800D123E163
:104190002878401C287008208D21FFF729FE002870
:1041A00000D119E12878401C28700D203221FFF73A
:1041B0001FFE002800D10FE12878401C28700E2037
:1041C000CF214F22FFF7BCFD002800D104E1287861
:1041D000401C28700F20FA21FFF70AFE002800D1AA
:1041E000FAE02878401C287010204921FFF700FED3
:1041F000002800D1F0E02878401C2870112006210A
:10420000FFF7F6FD002800D1E6E02878401C287072
:1042100012200221FFF7ECFD002800D1DCE0287815
:10422000401C28701320F021C022FFF789FD0028D0
:1042300000D1D1E02878401C28701520C0214022F0
:10424000FFF77EFD002800D1C6E02878401C2870CA
:1042500016205E210E22FFF773FD002800D1BBE07F
:104260002878401C28701720C02100242246FFF720
:1042700067FD002800D1B3E02878401C2870182082
:104280003C210A46FFF75CFD002800D1A4E0287815
:10429000401C287019200F210922FFF751FD00282A
:1042A00000D199E02878401C28701A20002421466B
:1042B000FFF79EFD002800D192E02878401C28706E
:1042C0001F203F2100242246FFF73AFD002800D19D
:1042D00086E02878401C28702020A7210024224650
:1042E000FFF72EFD00287BD02878401C2870222064
:1042F000F021C022FFF724FD00286DD02878401C53
:1043000028702320E021FFF773FD002864D028786F
:10431000401C28702420C0210A46FFF711FD002808
:104320005AD02878401C28702B2038210A46FFF7E5
:1043300007FD002850D02878401C28702C2011211F
:104340000A46FFF7FDFC002846D02878401C28705C
:104350004D200F210822FFF7F3FC00283CD02878DD
:10436000401C28704E2090210A46FFF7E9FC0028E7
:1043700032D02878401C287050204F210122FFF7AE
:10438000DFFC002828D02878401C287051207F218D
:104390006E22FFF7D5FC00281ED02878401C28701C
:1043A00000F030F9002817D02878401C287015201C
:1043B00000F048FB00280FD02878401C28701520FA
:1043C0003F21FFF715FD002806D07B4801244470EB
:1043D000002028702046B0BD0020B0BD00242C7005
:1043E0002046B0BDF90400207348C17E102008406B
:1043F0007047C0467048017F202008407047C04683
:104400006D48017F102008407047C0466A48C17E51
:10441000082008407047C0466748C17E0420084015
:104420007047C04622206449095C2020084070473C
:104430006149487800280CD02E20085C5A2805D104
:104440002F20085C5A2801D10120704700204870B5
:10445000704700207047C04621205749085C302231
:1044600002402220085C0C21014088187047C04699
:104470005148017F022008407047C0464E48017FE6
:10448000012008407047C0464B48017F0820084083
:104490007047C0464848017F042008407047C04626
:1044A0004548407D0F2101400E3948424841704740
:1044B0004148407D0F210140091F48424841704753
:1044C0003D48407D0F210140484248417047C04669
:1044D0003948407D0F210140891F484248417047BB
:1044E000F048407D0F210140C91F484248417047B4
:1044F000EC48407D0F21014008394842484170474F
:10450000E848407D0F210140093948424841704741
:10451000E448407DC006C00F7047C046E148407D7A
:104520000F210140491E484248417047DD48407D07
:104530000F210140891E484248417047D948407DBB
:104540000F210140C91E484248417047D548407D6F
:104550000F210140491F484248417047D148407DE2
:104560000F2101400D39484248417047CD48407DF8
:104570000F2101400C39484248417047C948407DED
:104580000F2101400F39484248417047C548407DDE
:104590000F2101400A39484248417047C148407DD7
:1045A0000F2101400B39484248417047FD48407D8A
:1045B0008006C00F7047C0460405002070B5104E3D
:1045C0003078012809D0002814D1232000F03AFACD
:1045D000002813D03078401C30702320012500249F
:1045E00029462246FFF7ACFB002805D0002030709A
:1045F000284670BD00243470204670BD002070BD78
:10460000FA040020B0B55E4D2878102800D9B2E039
:10461000784400794000874408121E29323C4750F4
:1046200059626B747D879099A200FF20343000F0AE
:1046300009FA002800D19CE02878401C287033201B
:10464000B82100242246FFF77BFB002800D194E02C
:104650002878401C287034203F211422FFF770FB7B
:10466000002800D185E02878401C287035203921A9
:10467000FFF7BEFB00287CD02878401C287036202D
:104680009B210322FFF75CFB002872D02878401C96
:1046900028703720412100242246FFF751FB0028D3
:1046A0006BD02878401C28703820F421FFF7A0FB3D
:1046B00000285ED02878401C28703920F421FFF7AC
:1046C00097FB002855D02878401C28703A20F42108
:1046D000FFF78EFB00284CD02878401C28703B2028
:1046E000F421FFF785FB002843D02878401C287070
:1046F0003C205521FFF77CFB00283AD02878401C4D
:1047000028703D20C221FFF773FB002831D02878A4
:10471000401C28703E20F321F122FFF711FB0028F6
:1047200027D02878401C28703F20E421FFF760FB49
:1047300000281ED02878401C28704020E421FFF774
:1047400057FB002815D02878401C28704120E42110
:10475000FFF74EFB00280CD02878401C2870422020
:10476000DA21FFF745FB002803D000202870012044
:10477000B0BD0020B0BD00242C702046B0BDC046A6
:10478000FB04002010B50E4C2078012809D0002829
:1047900011D1222000F056F900280FD02078401CBB
:1047A000207022200821FFF723FB002806D00020DC
:1047B0002070012010BD0020207010BD002010BD11
:1047C000FC04002010B50E4C2078012809D00028E8
:1047D00011D1222000F036F900280FD02078401C9B
:1047E000207022200221FFF703FB002806D00020C2
:1047F0002070012010BD0020207010BD002010BDD1
:10480000FD04002010B5264C2078052844D8C04669
:104810007844007940008744020A141E283213208D
:1048200000F010F9002835D02078401C2070DF49B6
:1048300019311320FFF7B4FA00282BD02078401C40
:104840002070DA491C311820FFF7AAFA002821D07D
:104850002078401C2070D5491D311920FFF7A0FA9F
:10486000002817D02078401C2070D0491F311C2010
:10487000FFF796FA00280DD02078401C2070CB4915
:1048800020311D20FFF78CFA002803D00020207073
:10489000012010BD002010BD0020207010BDC046BA
:1048A000FE0400200405002010B53B4C20780928A8
:1048B0006ED8C0467844007940008744040C162026
:1048C0002A343E48525C0E2000F0BCF800285DD02F
:1048D0002078401C2070B54914310E20FFF760FA93
:1048E000002853D02078401C2070B04915310F208B
:1048F000FFF756FA002849D02078401C2070AB49B9
:1049000016311020FFF74CFA00283FD02078401CC9
:104910002070A64917311120FFF742FA002835D040
:104920002078401C2070A1491F311C20FFF738FA65
:1049300000282BD02078401C20709C492E31452027
:10494000FFF72EFA002821D02078401C20709749CC
:104950002F314F20FFF724FA002817D02078401C71
:104960002070924924315120FFF71AFA00280DD007
:104970002078401C20708D4925315220FFF710FA15
:10498000002803D000202070012010BD002010BDA1
:104990000020207010BDC046FF0400202C20834959
:1049A000085C704704050020804880897047C04635
:1049B0007E4800897047C04680B57C48C08CFBF7B4
:1049C0006DFE034A034BFBF75BFDFBF7A2FE80BDC8
:1049D0002BF697DD9363744080B57448806AFBF7CB
:1049E0005DFE034A034BFBF74BFDFBF792FE80BDD8
:1049F000A514747B4963B43F80B56C48008A0649AE
:104A00004018FBF739FEFBF770FE044A044BFBF736
:104A10009FFDFBF77EFE80BDD1F8FFFF48E17A14D1
:104A2000AE471B406148C08905214143503908B257
:104A30007047C0465D4840897047C0465B48C088A3
:104A40007047C046B0B50446174D287801280BD0F2
:104A5000002817D15548C11C0120FFF7A1F90028F3
:104A60000ED02878401C28705048C078210A0DD0FC
:104A7000012814D124208121FFF7BAF900280ED192
:104A80000020B0BD00242C702046B0BD012806D007
:104A9000FF2000242146FFF7ABF90028F4D00020C6
:104AA00028700120B0BDC0460005002010B53E4C66
:104AB000207808284DD8C0467844007940008744C3
:104AC000040C16202A344B555F001220FFF7BAFF62
:104AD000002860D02078401C207034491831122002
:104AE000FFF75EF9002856D02078401C20702F492F
:104AF0001A311420FFF754F900284CD02078401CBC
:104B000020702A491B311520FFF74AF9002842D0AE
:104B10002078401C207025491C311820FFF740F9EF
:104B2000002838D02078401C2070204C21461E31AF
:104B30001A20FFF735F90146002000290BD0A27F8B
:104B4000C021114029D0402929D0802903D1142027
:104B500026E00020207010BD144921312A20FFF7E3
:104B60001FF9002817D02078401C20700F492231EF
:104B70002B20FFF715F900280DD02078401C20705D
:104B80000A4923312C20FFF70BF9002803D000201D
:104B90002070012010BD002010BD502000E0282012
:104BA000A077012010BDC046340500200405002078
:104BB00010B5234C207805283FD8C04678440079AA
:104BC00040008744020A131C252E2020FFF73AFFDD
:104BD000002830D02078401C207020200121FFF7D1
:104BE00007F9002827D02078401C207023200121BD
:104BF000FFF7FEF800281ED02078401C20702420EB
:104C00002021FFF7F5F8002815D02078401C2070EF
:104C100024204021FFF7ECF800280CD02078401C1D
:104C2000207024208021FFF7E3F8002803D0002023
:104C30002070012010BD002010BD0020207010BD8C
:104C40003505002080B582B001AA98205070B020B0
:104C50001070E02000210223FBF7FEFF02B080BDB0
:104C600080B582B001AA1720507035201070E02066
:104C700000210223FBF7F0FF02B080BDF0B583B046
:104C80001E4F387800282AD0E120002401AD0623E9
:104C900021462A46FBF71EFF687801990902081889
:104CA00080B2FBF7F4FC1649FBF7BCFA154E31460F
:104CB000FBF7F5FA144908602879E9780902081821
:104CC00080B2FBF7E4FC1149FBF7ACFA3146FBF785
:104CD000E6FA0F49FBF74DFA0E4908600AE06A460A
:104CE000242050705C201070E02000210223FBF78C
:104CF000B3FF01243C7003B0F0BDC0464205002064
:104D00000000C84200FF7F47DC00002000002F4366
:104D1000000034C24C05002080B5FCF7D5F9FCF743
:104D2000C7F9FCF7D7F8FCF771F8FCF701FAFCF7C4
:104D300071F9E1204002FCF72FFAFCF723F980BD5E
:104D400002480168491C01607047C046BC0600204B
:104D500007480168074A0A400749096811430122C8
:104D600053030B430360D006044908607047C046F4
:104D7000041002400000FFFF040FFF1F08ED00E0D9
:104D8000B0B5FEF727FB002814D05E4801785E4AD4
:104D90001278531A012B03D0002A04D1FF2902D123
:104DA000FEF7D2FA06E0491C0170C8B25749085C08
:104DB000FEF770FBFEF708FB00281AD05B4800786E
:104DC0005B4C25781F2D07D1002808D0FEF710FB7B
:104DD0002E49485500200BE0401B012803D1114803
:104DE0000121017005E0FEF703FB28494855681CC6
:104DF0002070FEF7E3FA002801D0FEF795FAFEF7DF
:104E0000CBFA002801D0FEF771FAFEF7D1FA00289C
:104E100001D0FEF77FFAFEF7C5FA002801D0FEF7B1
:104E20006FFAB0BDCA06002080B5FEF7CDFA0028A3
:104E300003D1FEF7D7FA002801D0012080BD002061
:104E400080BD000070B50246002000291BD0384B01
:104E50001B78364C0D4D06E036781670C9B2491CE9
:104E6000CEB28E420FD126781F2E05D1002B0BD04B
:104E7000002626702E46EFE7761C9E4204D0267050
:104E8000F6B2AE19E8E770BD012070BD54050020F0
:104E9000F0B581B000292CD01A4A127800231A4CA0
:104EA00009E0751C954226D0184CA755164C257064
:104EB0005B1C8B420CD2C75C002F09D02678FF2EDA
:104EC000EFD1002A19D0FF25104C67550025EDE7DA
:104ED000FEF788FA0024002810D10A490878401CFF
:104EE0000870C0B20949085CFEF7D4FAFEF74EFA22
:104EF00004E0002402E0012400E00124204601B087
:104F0000F0BDC046CA000020D9060020740500206C
:104F10000648017806480078884202D81F22511AB4
:104F200000E0C9430818C0B27047C046C80000205E
:104F3000CB060020F0B581B00E4C20252561012163
:104F40008E030D4F3E61FEF73FFB3E60256001B0D2
:104F5000F0BDC046F0B581B0064C2025256001218A
:104F60008E03054F3E61FEF72FFB3E60256001B0CA
:104F7000F0BDC0461804005018000050002805D4A9
:104F80001F21084001218140074801607047C04649
:104F90000120C005044908607047C0460120C006D2
:104FA000014908607047C04600E100E0002805D4D0
:104FB000032102468A430B49511806E00F210140A4
:104FC000083903229143064A89188007C00E4022FF
:104FD0008240FF238340086898431043086070476D
:104FE0001CED00E000E400E0FF20000602490A6832
:104FF00082430A607047C04614E400E0FF200006C8
:1050000003490A688243012080071018086070472E
:1050100018E400E00F21014000090A224243501821
:10502000C0B2704782B0FFF777FEFDF729FBFEF7AD
:10503000EDFAFEF75DFCFFF713FEFBF7A9FE7D20FE
:10504000C000404F38803220FEF72AFA3EA001F01F
:1050500005F843A001F002F849A000F0FFFF4D4C15
:10506000002020804C4E30804C4D28804C490880D8
:105070004C490190088000E030BF204600F03CFD24
:10508000284600F05DFD474800F032FF444800F03C
:105090006FFF304600F08EF8FFF7C6FE3988002813
:1050A000EAD10029E8D108213F48FDF76AFD002830
:1050B00011D101213C48FDF764FD00280BD10221EC
:1050C0003948FDF75EFD002805D104213648FDF77B
:1050D00058FD0028D0D0354626463C46FFF76EFAEC
:1050E0000028FBD0019F3846FEF7E6F82F480770EE
:1050F000FEF7EAF8FDF75EFDFEF7E6F9FFF7A2FD21
:1051000001273846FEF7CCF9FEF734F8FDF784FFA7
:1051100030BFFEF735F8FDF785FFFEF777FAFEF7AB
:10512000E7FB6420FEF7C8F821480770FFF798FDF9
:10513000274634462E46194DFFF73AFD0028FBD08E
:105140009BE7C046740600200A0A355331502032CE
:105150003137303020506F7765722042616E6B00BE
:105160000A506F7765726564206279205357363331
:10517000303620262050593332463030324100003C
:105180000A544B57544C20323032342F30382F31A0
:10519000300A0000C2060020C0060020C40600201D
:1051A000C6060020C806002000040050C9000020E8
:1051B000BB060020F0B585B007460088014644399B
:1051C0007D29049700D9A9E04900C046794489881F
:1051D00049008F44A700AD00B400B400B400B4008F
:1051E000B400B400B400B400B400B400B400B4001F
:1051F000B400B400B400B400B400B400B400B4000F
:10520000B400B400B400B400B400B400B400B400FE
:10521000B400B400B400B400B400B400900197012D
:105220009E01A501AC01B400B400B400B400BA0101
:10523000B400B400B400B400B400B400B400B400CE
:10524000B400B400B400B400B400B400B400B400BE
:10525000B400B400B400B400B400B400B400B400AE
:10526000B400B400B400B400B400B400B400B4009E
:10527000B400B400B400B400B400B400B400B4008E
:10528000B400B400B400B400B400B400B400B4007E
:10529000B400B400B400B400B400B4009E03B40081
:1052A000B400B400B400B400B400B400B400B4005E
:1052B000B400A803AE03B400B400B400B400B4005A
:1052C000B4007D0083008A00B400B703B400C403B7
:1052D000FEF706FE00283AD0BC2038800120FEF7F9
:1052E0004DFE00282FD0BD203880FFF75DFB04461F
:1052F000FFF75EFB0546FFF7A1FB06466E43FFF78F
:1053000099FB01463046FAF7F3FE201A80B2FEF709
:1053100061FE002800D01BE3002550E300280ED1D9
:1053200044203880FEF78AFE00280ED045203880C1
:105330000120FEF7F7FD00280BD100253FE30020F8
:10534000388003253BE3002539E3002537E30025BA
:1053500035E3884801780A2900D2F9E20A21017070
:105360008548FBF73DFDFBF792F98449FAF75AFFB0
:105370000546FBF7BAF902460B4681488149FBF71F
:1053800071F8FBF7C6F901462846FAF788FF7E4C0C
:105390002146FAF747FF2146FAF781FFFBF7A5F907
:1053A00001F0A0FB0025794B2A46FBF7D1F8072234
:1053B0005707774B3A46FAF7B1FF02460B46754955
:1053C0002846FBF7C5F803225607734B3246FAF717
:1053D000A5FFFBF79EF9714908607148FBF700FDD6
:1053E000FBF755F96549FAF71DFF0446FBF77DF910
:1053F00002460B4662486349FBF734F8FBF789F92C
:1054000001462046FAF74BFF5F4C2146FAF70AFFA8
:105410002146FAF744FFFBF768F901F063FB2A46DF
:105420005A4BFBF795F83A46594BFAF777FF024685
:105430000B4628465749FBF78BF83246564BFAF78E
:105440006DFFFBF766F957490860FFF7D5FA564933
:10545000FAF78FFE0646554C2146FBF7F1F8002877
:1054600000D134465249204601F029FB5149FAF750
:10547000D9FE5149FAF77DFE0646504C2146FBF70E
:10548000DFF8002800D134464D49204601F017FBD3
:10549000FBF712F94B4908604B4801780129049F3A
:1054A00019D14A4909780839062914D848490122EE
:1054B0000A700570474CE0886421FAF719FE084627
:1054C000237AE2782179FBF74BFF22786178A07884
:1054D000FBF783FF06E0404C2046FBF718FF204611
:1054E000FBF7F1FEFFF7CAFB3C4801883CA000F047
:1054F000B5FD68203880FEF767FB002800D14DE23B
:1055000069203880FFF77EF9002800D148E26A2040
:105510003880FFF7CBFA002800D143E26B203880B7
:10552000FFF7C2F9002800D13EE26C203880FEF778
:1055300075FC002800D139E2FEF77AFF002809D176
:105540002C4800F08BFD71203880FEF777FD002895
:1055500000D12DE2FFF72CFA31284FD8FEF788FF53
:10556000002803D1FEF78AFF002847D02248008890
:10557000441C59E0C9000020100000103333533A96
:105580008FC2F5285C8F0A400050C34700DCAE4054
:10559000E1796B3F0000F03F661271C044050020C6
:1055A000200000144805002000000CC26F12833A4E
:1055B0000000484200002041000048440000C8426A
:1055C00000007A44382C0140520500209206002049
:1055D0005305002038050020D0000020740600206C
:1055E0000AD0DDC3DFB5B9BCC6CAB13A2564306D97
:1055F000730000002C80000890060020FEF7FAFEE1
:10560000002807D1FEF740FF002803D1FEF742FF34
:10561000002808D0FEF72CFF0424002804D1FEF750
:105620002DFF002800D10024EC480480FFF7BCF9CE
:10563000322813D8FFF7BCF932280FD8FEF724FF21
:1056400000280BD1FEF726FF002807D1FEF710FF38
:10565000002803D1FEF712FF002803D07D20C000F0
:10566000DC490880FEF7D2FE002802D0DCA000F062
:10567000F5FCFEF7D1FE002802D0DDA000F0EEFC24
:10568000FEF7B8FE002802D0DDA000F0E7FCFEF730
:10569000B7FE002802D0DCA000F0E0FCFEF7C2FE5E
:1056A000002802D0DBA000F0D9FCFEF7EDFE0028B8
:1056B00002D0DBA000F0D2FCFEF7ECFE002802D006
:1056C000DBA000F0CBFCFEF7D3FE002802D0DCA06C
:1056D00000F0C4FCFEF7D2FE002802D0DCA000F0EF
:1056E000BDFCFFF769F9FBF700F80246DC480B4602
:1056F00000F0B4FCFFF770F9FAF7F7FF0246D9A003
:105700000B4600F0ABFCFEF751FF002802D0DA4850
:1057100000F0A4FCFEF7FCFE002802D0D74800F001
:105720009DFCFEF72BFF002802D0D54800F096FC28
:10573000FEF7B6FE002802D0D24800F08FFCFEF73C
:105740000DFF002802D0D04800F088FCFEF70EFFC5
:10575000002802D0CD4800F081FCFEF71FFF002892
:1057600002D0CB4800F07AFCFEF710FF002802D0F0
:10577000C84800F073FCFEF7C3FE002802D0C648FC
:1057800000F06CFCFEF7B4FE002802D0C34800F025
:1057900065FCFEF7A5FE002802D0C14800F05EFCC3
:1057A000FEF796FE002802D0BE4800F057FCFEF738
:1057B000CDFE002802D0BC4800F050FCFEF778FE79
:1057C000002802D0B94800F049FCFEF7B7FE0028D7
:1057D00002D0B74800F042FCFEF7A8FE002802D035
:1057E000B44800F03BFCFEF799FE002802D0B24816
:1057F00000F034FCFEF764FE002802D0AF4800F051
:105800002DFCFFF7CBF801466E4CA268AC4800F0C7
:1058100025FCFFF713F901462268AA4800F01EFC98
:10582000FFF7C6F80446052000070125E902FDF749
:10583000A8F90246A448214600F010FCFFF7FAF848
:105840000146A24800F00AFCFFF7AEF80646002029
:10585000FCF79EF804462846FCF79AF8FAF745FF4D
:1058600005460F462046FAF740FF02460B460095D4
:1058700001979748314600F0F1FBFFF7D3F8044653
:1058800051480068FAF731FF02460B46914821461D
:1058900000F0E4FBFFF7B0F804464C480068FAF764
:1058A00024FF05460E462046FAF71FFF02460095E4
:1058B000019689480B4600F0D1FB4548C378027930
:1058C000C188847845780678007A00AF70C7039065
:1058D000824800F0C3FBFFF78FF88149FAF7BEFE5C
:1058E000002810D1FFF79EF8B4280CDCFFF784F8ED
:1058F0007C49FAF7A5FE002805D14B20C443FFF7E9
:1059000091F8A04234DC344800F0A8FBA820049FA2
:105910003880FEF793FB00284CD0304800880428DC
:105920000ED3B3203880FEF72DFF002844D0B420DA
:105930003880FEF747FF002840D02848002101802A
:10594000BF20388000252846FEF718FB002836D0F7
:10595000C120388066480068643066490860644841
:10596000006864490968814200D2F2E4002526E01B
:10597000FFF742F85C49FAF771FE00280AD0FFF7FA
:105980003BF85A49FAF75CFE0028049FC5D1FDF7A1
:1059900047F9C2E7FDF70EF9049FBEE700250EE0C8
:1059A00000250CE000250AE0002508E0002506E0BF
:1059B000002504E0002502E0002500E0002528463F
:1059C00005B0F0BD382C01404405002048050020FA
:1059D000D0000020740600202C80000890060020D3
:1059E0000AB3E4B5E7B7A2C9FAB4EDCEF3000000FC
:1059F0000AB7C5B5E7B7A2C9FAB4EDCEF300000007
:105A00000AD4DAB3E4B5E7000AD5FDD4DAB7C5B5F0
:105A1000E70000000AD5FDD4DAB3E4B5E7000000E2
:105A20000A433120B6CBBFDAD2D4C6F4D3C30000C8
:105A30000A433220B6CBBFDAD2D4C6F4D3C30000B7
:105A40000A413120B6CBBFDAD2D4C6F4D3C30000AA
:105A50000A413220B6CBBFDAD2D4C6F4D3C3000099
:105A60007F8100080ABFE2C2D8BCC6B5B1C7B0C8C2
:105A7000DDC1BF2566000000AC810008648200081B
:105A80005182000817820008328200082182000833
:105A9000E4810008C5810008D4810008F381000872
:105AA000928100089F810008478200083D8200081B
:105AB000BA8100080D820008038200085C82000899
:105AC0004A8100086081000827810008F6800008EC
:105AD000E57F0008738000089C800008B67F0008FE
