:020000040800F2
:10000000200B0020D5000008393F0008511E0008D1
:1000100000000000000000000000000000000000E0
:10002000000000000000000000000000B5440008CF
:10003000000000000000000001440008D156000844
:10004000E7000008E7000008E7000008E7000008F4
:10005000E70000085D16000891160008C9160008A0
:1000600000000000E7000008E700000800000000B2
:10007000E7000008E7000008E700000800000000B3
:10008000E7000008E700000800000000E7000008A3
:1000900000000000E7000008E70000089D280008B5
:1000A00000000000E7000008E70000081157000802
:1000B000E700000800000000E70000080000000062
:1000C0000348854600F0CEFC00480047AD0A000812
:1000D000200B00200448804704480047FEE7FEE765
:1000E000FEE7FEE7FEE7FEE7E1560008C100000874
:1000F00030B50B46014600202022012409E00D46C0
:10010000D5409D4205D31D469540491B2546954047
:1001100040191546521E002DF1DC30BD03460B433D
:100120009B0703D009E008C9121F08C0042AFAD2AD
:1001300003E00B780370401C491C521EF9D2704733
:10014000D2B201E00270401C491EFBD2704700226F
:10015000F6E710B513460A4604461946FFF7F0FFC6
:10016000204610BD421C0178401C0029FBD1801A9A
:100170007047F8B502464A40D40F42004B0052087F
:100180005B089A4202D20246084611464A0023D032
:10019000C30D4A00DDB2120EAD1A202D35DA490228
:1001A0000126490AF6058A19002C00D05242202166
:1001B0004F1B1146B9402A411018C20D9A4221D056
:1001C000002C17D0012D08DCDA05801AD20F801917
:1001D000D207DBB200F022FBF8BDDA05801A01235A
:1001E00040001B06C01880185A428018CA0F1043DE
:1001F000490007E04908C2071143DA05801A80194F
:100200004008801800F002FBF8BD61000122511A7D
:10021000001BF7E70122D2075140AAE70122D207CB
:100220005040A6E7024670B54A40D30FDB074000B6
:100230002DD04A002AD0010E140E00021202091914
:10024000400A520A8418E50104465443000A120A7F
:100250002E045043A4194219200CC543AA18120CAD
:100260000125AD03521C521912047F39240400D019
:10027000521C104301D44000491EC2B20C06C009F2
:100280002018401C4008802A02D003E0002070BDE6
:1002900040084000002900DA0020184370BD70B506
:1002A00002464A40D50F40004A00ED074008520878
:1002B000002814D0002A12D0C40DD30D4102012011
:1002C000C0055202490A520AE41A091812187D346C
:1002D000914201D3641C00E04900002C01DA0020A7
:1002E00070BD0023914201D3891A0343400849009D
:1002F0000028F7D100290AD0914202D10121C90773
:1003000005E0914201D2012101E00121C943E0054C
:10031000C018401900F07AFA70BD0000F0B5074629
:100320000846584087B0C00F049048000E46590058
:1003300040084908BC1A884105D2384631461E4655
:1003400017460B4602465800400810434CD0300D6B
:10035000039040055900400D490D0590401A029048
:10036000402872DA18030121000B090508430190A7
:1003700004980092002805D001995242002088413B
:1003800000920190029840210A1A0199009800F009
:100390001AFA05460C466B4607CB00F024FAC01942
:1003A0007141039A0E0D0023D71756401A467A4022
:1003B000164344D0049A002A2DD0029A012A039AA7
:1003C00015DC1205C01A914101263605001C714149
:1003D000D20F059ED2070093019202962A46234629
:1003E00000F062FA07B0F0BD38463146FAE716056C
:1003F000224A0F46B218C01AB74101210905001C54
:100400004F4100187F41114618187941E20F1043FF
:100410006D19644113E0E2076D0815436408C207D3
:100420001443039A01261205C01A91413605001C97
:100430007141CE07400830434908C01851412A464F
:10044000234600F024FACDE7FFE70498012240009C
:10045000C117121A00238B4104983146C417381A69
:10046000A141EEE730B40124E407634030BC55E716
:1004700030B40124E407614030BC4FE70000E0FFE6
:10048000F0B51FB488B00B99099800244840099929
:10049000C00F490049080991C0070B990090490015
:1004A00049080B9109990898A64608431CD00B9956
:1004B0000A98084318D0099801244000420D4800CA
:1004C000410D099824050003000B204309900B9867
:1004D0000003000B20430B9050181C4940180022C9
:1004E00001901446104605E0002001460DB0F0BD15
:1004F000032801DA034600E003239C46C11A0AAE32
:100500000AE05F0008ADED5B4F00F75B7D4300271D
:10051000AA187C41491C5B1E6145F2DD410004AB19
:100520005A522104120C0A43240C401C0828DFDB19
:10053000019802900099704601910090059B049AE1
:100540000799069800F0B0F9D0E700000DFCFFFF16
:10055000F0B50C465C4085B0E40FE40703944C0012
:100560000026640859009446490802460296224330
:1005700021D062460A431ED06200570D4A000E0386
:100580002303550D012402462C492405781B1B0B1F
:10059000360B401823432643614600901C46501AF0
:1005A000B44103D30098401C009002E092180098D8
:1005B0005B41002803DA0020014605B0F0BD0020B1
:1005C000012109050746864611E064461D46141BB5
:1005D000B54106D36546521BB341744607430C43ED
:1005E000A646CD0740084908284392185B410546B6
:1005F0000D43EAD11046184313D0604619465040C7
:100600007140084306D06046101AB34106D2012259
:10061000002306E000220123DB0702E00122D2438F
:100620005310009874460105381C6141029C039DDB
:100630000019694100F02BF9BFE70000FD0300003D
:100640000122D207002800DB101A002900DB511A12
:10065000814201D801207047002070470122D20753
:10066000002800DB101A002900DB511A814201D258
:1006700001207047002070470122D207002800DBCC
:10068000101A002900DB511A814201D9012070475C
:1006900000207047C217C10F504010B54018CA075C
:1006A0009623002100F0BAF810BD10B50022962361
:1006B000114600F0B3F810BD0EB5054902910021B6
:1006C00000910A460B46019100F0EEF803B000BD20
:1006D00033040000C20F410040020123400ADB0541
:1006E000D207090EC0187F2901DA00207047962929
:1006F00003DC9623591AC84001E096398840002A45
:10070000F4D040427047C20FD207400040080BD0DF
:10071000C10D0723DB01C91840020905400A114336
:10072000C208400711437047002001467047CB0FB5
:10073000DB07490010B5490802460A4307D00A0DF5
:1007400007240903E401090B121B002A01DC002025
:1007500010BDC900440F0C43C100E018D205801839
:1007600000F054F810BDF0B51FB40646002082B06A
:1007700005464024019100901BE0019922460F4656
:10078000304600F081F9049A059B801A994110D3F4
:1007900010461946224600F016F8361A8F41019786
:1007A000224601200021009F00F00DF838184D412D
:1007B00000902046641E0028DFDC019B009829463B
:1007C000324607B0F0BD10B5202A04DB0146203ABE
:1007D0009140002010BD914020239C1A0346E34025
:1007E0001943904010BD10B5202A06DBCB170846F0
:1007F000203A1041C1170B4306E00B461341D0408D
:100800002024A21A91400843194610BD002904DA99
:10081000401C490001D140084000704770B40024DA
:10082000050C05D11024000402D1002921D0112487
:10083000050E01D100020834050F01D10001241D6D
:10084000850F01D18000A41C002801DB4000641C3E
:10085000002908D020252E1B0D46F540A14000D0D0
:1008600001212943084301061B1B000ADB1D02D599
:10087000002070BC7047DB05181880180029F8DAD2
:10088000401C4900F5D170BC40084000704710B5CD
:10089000002B08DA0024401C614192185B411A4386
:1008A00001D14008400010BDF0B51FB482B005462C
:1008B0000C0003D0084606F093FA02E006F090FA26
:1008C00020300246009021462846FFF77CFF049B1B
:1008D000059A04460F4618431143084314D018469E
:1008E00010431BD0009840210A1A1846059900F0C1
:1008F000CBF805460E46009A05990498FFF763FF6A
:10090000084305D0012004E02046394607B0F0BD79
:100910000020C11705430E432C43374300990E981E
:100920006305401A7905E40A00220C43FD0A0A30E7
:1009300002D500200146E9E70105101969410C9C28
:100940000D9D00196941FFF7A2FFDFE770B54B006D
:100950005B0803430BD04B005C0D00263346654219
:10096000B341D417AD1AA34102DB0020014670BD8C
:1009700012053018514170BD0EB5C217C10F50405D
:10098000CA0740180021054B0293019200910A46C4
:100990000B46FFF789FF03B000BD000033040000E1
:1009A0004A0009030123090B1B0519430A4B10B523
:1009B000520D9A4202DA0020014610BD064B343334
:1009C0009A4203DC9A1A00F05FF810BD034BD2186C
:1009D000FFF7F9FE10BD0000FF030000CDFBFFFF95
:1009E00010B5002904DB0124E40740428C41214674
:1009F000002B04DB1C460123DB075242A3418B4240
:100A000000D1824210BD000010B5002904DB012492
:100A1000E40740428C412146002B04DB1C460123A5
:100A2000DB075242A341994200D1904210BD000021
:100A300002000A4800D4821A002900DB411A9142C0
:100A400004D301204007914200D10548EFF3008113
:100A50000902090A014381F3008870470000008001
:100A600000000060064C0125064E05E0E36807CC57
:100A70002B430C3C98471034B442F7D3FFF724FBC8
:100A8000689800088898000810B5202A04DB0846FA
:100A9000203AD040002110BD0B46D340D040202446
:100AA000A21A91400843194610BD000080B50020ED
:100AB00007490122D306C3580B50001DC028F8D1A6
:100AC00050070449086004F075FF002080BDC0464F
:100AD0000000002008ED00E080B502F00BF90028CE
:100AE00005D102F085F902F001F90028FBD180BDA3
:100AF000F0B583B01C461546074602F0B9FC002845
:100B0000FBD102F00DFC012001908602304602F07C
:100B10008DFB02F065FC02F0B9FC0128FBD1FE2040
:100B2000384002F0CBFC02F08BFC0128FBD102F034
:100B300085FB02F055FC02F0A9FC0128FBD10198CD
:100B40000743384602F0BAFC02F07AFC0128FBD1D8
:100B50002746022C2C460BD0012F3D4617D0002DE6
:100B600023D102F06BFB02F043FC002D31D123E0D6
:100B700002F00CFCEFF3108072B602F05FFB002075
:100B800002F054FB62B63D46002D22D114E0002055
:100B900002F04CFBEFF3108072B602F04FFB02F054
:100BA00027FC62B6002D14D106E0304602F03EFB71
:100BB00002F044FB002D0CD103B0F0BD02950226DB
:100BC0002B4D02F071FC207002984519BC192804C5
:100BD000F2D0A8B2042814D20128029522D002280B
:100BE00029D102F03FFC0128FBD1EFF3108072B64F
:100BF00002F0FEFB02F058FC207062B62746641C2F
:100C0000DDE702F03DFC0128FBD102F04DFC207035
:100C10002746641C02F026FC0128CFD06D1E280454
:100C2000D7D1C9E702F02CFC0128FBD11048451CA4
:100C3000019E2746C5E702F015FC0128FBD10020E4
:100C400002F0F4FAEFF3108072B602F02DFC20707F
:100C500002F008FC0128FBD102F0CAFB02F024FCE0
:100C6000607062B60248451E2746A41C0326A8E70A
:100C7000FEFF0000F0B581B01C461746064602F0A4
:100C8000F7FB0028FBD102F04BFB02F0A9FB02F0BE
:100C9000FDFB0128FBD1FE200640304602F00EFC91
:100CA00002F0CEFB0128FBD102F0C8FA002C05D1DE
:100CB00002F09EFB01B0F0BD2004F9D03E4602F0E8
:100CC000EBFB0128FBD1307802F0F8FB771C009495
:100CD000641E250402F0C6FB002DEDD00128EBD1E7
:100CE000707802F0EBFB0098841EB71CE4E700006C
:100CF000F0B581B0009316460F460546002402F079
:100D0000B7FB00281ED12B46009DC848817B0029D7
:100D100018D1069904228273FE2213400370477093
:100D200046608581816080680021017002F046FB89
:100D30001C48006814301C49086002F0F1FA02F007
:100D40004FFB0124204601B0F0BDC046F0B581B094
:100D50001E4617460D4604460020009002F088FB10
:100D600000281CD1B148817B002918D106990122A5
:100D700000928273FE2214400470457047608681A1
:100D8000816080680021017002F018FB054800684E
:100D900014300549086002F0C3FA02F021FB009804
:100DA00001B0F0BDE4060020BC06002080B501F0D3
:100DB000E5FF02F059F8FFF78FFE012002F088FBF3
:100DC000102002F0E8F9202002F0E5F901F0E8FF38
:100DD00001F0DAFF01F0FCFF01F0ECFF01F0F0FFA1
:100DE00001F0FEFF01F0BAFF01F098FF01F09CFF57
:100DF00001F0ACFF01F08AFF80BD0000B0B5094CE6
:100E00000025256001F098FF01F060FF01F0AEFFC2
:100E100001F064FF0028FBD001F054FF01F070FFE7
:100E20002560B0BD28240140F0B583B001AD022794
:100E3000AF710124AC8040200190284602F098F860
:100E400000202A4902F0EAF80726304604F076FD31
:100E5000304604F05BFDAF71AC800194284602F08F
:100E600087F803200104204602F0D8F80526304612
:100E700004F064FD304604F049FDAF71AC80019789
:100E8000284602F075F86120C102204602F0C6F83B
:100E9000304604F053FD304604F038FDAF71AC80AD
:100EA00004200190284602F063F831200103204617
:100EB00002F0B4F80626304604F040FD304604F057
:100EC00025FDAF71AC8008200190284602F050F853
:100ED0006320C102204602F0A1F8304604F02EFD46
:100EE000304604F013FD03B0F0BDC0460110010010
:100EF000F0B587B0002706970597049703970297E8
:100F00000197232002F0E4FA06970225059504973D
:100F100003950320029010200190414801AC214626
:100F200002F096F806970126059604970395029716
:100F300040200190052000070090214602F088F82B
:100F400006970596049703950297019661482146F6
:100F500002F07EF801955F48214602F079F80420FE
:100F600001905C48214602F073F8069705960497B5
:100F700003950297082001905648214602F068F830
:100F800002F0C2F805970497039702963003019088
:100F90000098214602F05CF802F0B6F807B0F0BD08
:100FA000F0B58BB001F0AEFD0C270A97012609962B
:100FB00008960224079406940594194805AD29461D
:100FC00002F046F80A970996089607940694059643
:100FD0001348294602F03CF801F016FF01F032FFF9
:100FE00001F038FF02F0F4F902F0C2F90024049491
:100FF000AA200390B00302900A4801900A4801A970
:1010000002F000FA04F0B8FC04F08AFC02F0C6F921
:1010100002F08EF902F094F9044884730BB0F0BD2D
:1010200000140050801A060000540040F000002018
:10103000F0B58FB002270E9701242602009609967C
:10104000244809AD294602F003F80E9709960520B9
:1010500006073046294601F0FBFF0E97E002099093
:101060003046294601F0F4FF0D200E9060030990F0
:101070003046294601F0ECFF0027079705970294B8
:10108000602601960497494801AD21462A4602F0A0
:101090008FFB0497464821462A4602F089FB0497B5
:1010A000102143482A4602F083FB009807900597D9
:1010B00002940196049721033D4C20462A4602F0F3
:1010C00077FB204602F014FB204602F017FB0FB01E
:1010D000F0BDC0460004005080B502F035FA02F0C1
:1010E0005BFA02F051FA02F035FA02F045FA80BDDF
:1010F00080B501F0C7FE01F095FE02F089FA1348B1
:101100000068134901400120C003081802F09AFA50
:1011100002F090FA0128FBD102F0B8FA02F0C6FA08
:1011200002F05CFA0028FBD102F0B8FA02F002FAF1
:1011300002F0D0FA01F084FF064802F0D3FA02F080
:101140008DFA02F05DFA02F091FA80BD100FFF1FD8
:10115000FF1F000000366E01B0B586B00025059572
:1011600004950395029501950124600401F096FE13
:10117000E00201F093FE01AC2574258002950495F0
:1011800009480390094D2846214602F0C1FA284635
:1011900002F0AEFA284602F0B1FA0548214602F004
:1011A000B7FA06B0B0BDC046E703000000440140F6
:1011B000002C014010B5044601F07CFE1D4800687B
:1011C000214602F0B7FB02F0D7FB02F0EFFB02F082
:1011D000E5FB02F0D9FB02F0F3FB02F059FB02F051
:1011E0004BFB02F081F902F07FF90424204601F064
:1011F000DBFF204602F008F8204601F0EFFF204612
:1012000001F09AFF0824204601F0CEFF204601F0AD
:10121000FBFF204601F0E2FF204601F08DFF02F0C7
:1012200045FB02F03DFB02F049FB04F0AFFB04F08C
:101230007DFB10BDD000002080B5002001F0F6FC41
:10124000002801D0012080BD002001F0D3FC00283F
:1012500001D0052080BD002001F0D8FC002801D07D
:10126000092080BD012001F0E1FC002801D002200E
:1012700080BD012001F0BEFC002801D0062080BD09
:10128000012001F0C3FC002801D00A2080BD02200B
:1012900001F0CCFC002801D0032080BD022001F029
:1012A000A9FC002801D0072080BD022001F0AEFC7F
:1012B000002801D00B2080BD032001F0B7FC0028DE
:1012C00001D0042080BD032001F094FC002801D04F
:1012D000082080BD032001F099FC002800D00C20DC
:1012E00080BD70B582B0044601AE00253570062081
:1012F000314601F045FC307804F054FB7D210901B2
:101300004018E0800520314601F03AFC307804F0C6
:1013100049FB20710420314601F032FC307804F0A2
:1013200041FBE070284602B070BD70B582B0044643
:1013300001AE002535700220314601F021FC3078E5
:1013400004F030FBA0700120314601F019FC307828
:1013500004F028FB60702846314601F011FC30781B
:1013600004F020FB20700320314601F009FC3078A6
:1013700004F018FB2072284602B070BDF0B581B0B1
:10138000009316460F4604460A252946FEF7B0FE8E
:1013900029464143611A00010843C1B2062001F009
:1013A00004FC38462946FEF7A3FE29464143791A34
:1013B00000010843C1B2052001F0F7FB3046294681
:1013C000FEF796FE29464143711A00010843C1B257
:1013D000042001F0EAFB009C20462946FEF788FE27
:1013E0004543611B00010843C1B2032001F0DDFB4E
:1013F000002001B0F0BDF0B581B014460E4607469E
:101400000A252946FEF774FE29464143791A000150
:101410000843C1B2022001F0C8FB30462946FEF75E
:1014200067FE29464143711A00010843C1B20120F9
:1014300001F0BBFB20462946FEF75AFE4543611BDF
:1014400000010843C1B20024204601F0AEFB204653
:1014500001B0F0BDF0B585B06A48047807466A4827
:10146000C2886A4E6AA1304605F094FC083C601EB2
:1014700084410094002510242846294622463346FC
:1014800002F02AFF0126009620200490624B294694
:10149000224602F021FF3F785B4802795F495B48B2
:1014A00005F078FC093F781E8741009728202946DF
:1014B0002246564B02F010FF00963820294622465D
:1014C000554B02F009FF4F4807784F48C2784F4804
:1014D000524905F05FFC0A3F781E87410097402083
:1014E00029462246494B02F0F7FE009650204CA3B5
:1014F0002946224602F0F0FE4248077842488278A8
:101500004248464905F046FC0B3F781E874100974C
:101510005820294622463D4B02F0DEFE0096682008
:10152000404B2946224602F0D7FE36480778364817
:1015300042783648394905F02DFC0C3F781E87412A
:1015400000977020039529462246304B02F0C4FED6
:101550000096284621462246324B02F0BDFE29481D
:10156000077829480278294D28462C4905F012FCB5
:101570000D3F781E874100970820214622462B46C2
:1015800002F0AAFE0096182027A32146224602F068
:10159000A3FE1C4807781C48027A24A1284605F0BF
:1015A000F9FB0E3F781E874100973746049D284679
:1015B00021462246154B02F08FFE00963020029005
:1015C0001BA32146224602F087FE00961BA3039E22
:1015D00030462946224602F07FFE00971BA3304684
:1015E0000299224602F078FE19480078012806D1B7
:1015F000009750203021102216A302F06DFE05B096
:10160000F0BDC046BA0600205C0500209E06002002
:101610002530346400000000009100087B9200082F
:101620005F000000399100082E00000025640000D2
:10163000B3A4B0B4C8B7C8CFBCFC000031C3EBD270
:10164000D4C9CFCBC9BFAABAF3B1A300B4E6000096
:101650007B050020D2D4B1A3B4E6000010B501246C
:10166000204601F0D1FC002804D1022001F0CCFC7E
:1016700000280BD0204601F03FFC022001F03CFC8A
:10168000104804707D20C0001949088010BDC04674
:1016900080B5082001F0B8FC002804D1042001F036
:1016A000B3FC00280CD0082001F026FC042001F037
:1016B00023FC0448012101707D20C0000C490880F2
:1016C00080BDC046E206002080B5402001F09CFCB1
:1016D000002809D0402001F00FFC044801210170CE
:1016E0007D20C0000249088080BDC046C0060020A1
:1016F0009C06002010B582B008480268084C09A179
:10170000204605F047FB01200090002010220146F2
:10171000234602F0E1FD02B010BDC046342C01406A
:101720009E06002050413850574DD5BCBFD5B1C89A
:101730002564000010B5002A05D00023C458CC5001
:101740001B1D9342FAD310BD0D4800214160234870
:10175000016804220A4302600120C00601490160B9
:101760007047C04621433412054900224A601B4994
:101770000A68022313430B60FF2101607047C046D3
:10178000E8060020F0B581B0144A146801231C4318
:101790001460EFF310840094EFF3108572B6002507
:1017A00002E01F2D354609D240C940C06E1C1F2ED5
:1017B000F7D1DF0414683C431460F2E7009880F32B
:1017C000108801B0F0BDC0460121C902034A136868
:1017D0000B431360FF2101607047C0461420024094
:1017E000B0B57D20C40000F02DFB0519064C206823
:1017F000C00305D500F026FBA842F8D30320B0BDF6
:10180000024820600020B0BD10200240118000007E
:10181000F0B589B017460C4605460026089607968F
:10182000069605960496039600F0F8FA02977F371D
:10183000FF090597049502200190039003A808A9C9
:1018400000F06AF9002805D016A005F093FA0120EF
:1018500009B0F0BD002F029905D0A859401C1BD13A
:10186000361DBE42F9D34E19AE4206D800F02EFA0C
:10187000032009B0F0BDB542F8D201202946224626
:1018800000F02EFA002802D00028F4D102E08034C3
:101890000028F0D18035EEE706A005F06BFA01983C
:1018A00009B0F0BDB2C1B3FDCAA7B0DC31A3A1A39A
:1018B000A1A3A100B2C1B3FDCAA7B0DC32A3A1A30A
:1018C000A1A3A100F0B585B00491054640B200285F
:1018D00000D50025002802D50498801C0490203AE9
:1018E0000A98102B06D0082B4ED10026002806D0CF
:1018F000304605E00026002824D0304623E0F0439F
:10190000D1B2C900214A51180191C0B200903146AC
:1019100002960498471801980391445C009844404B
:10192000A819C0B22146B140C9B2CA09F9B202F041
:1019300049FD761C082EF3D10399491C0829029E03
:10194000E7D121E0F043D1B209010191C0B200908A
:1019500031460296049847180198039140180C49A3
:101960000C5C00984440A819C0B22146B140C9B2ED
:10197000CA09F9B202F026FD761C082EF3D10399AC
:10198000491C1029029EE5D105B0F0BDF87B000886
:10199000F07E0008F0B587B00591049010781D4ED8
:1019A000502103E0491E2236002930D03478844289
:1019B000F8D154787578A542F4D10027002B01D0D6
:1019C000384600E0F843C0B201903A4603960297C9
:1019D000D0B2400805994518D007000F0499441863
:1019E0000692B018867801984640E019C0B2314698
:1019F000B940C9B2CA09E9B202F0E4FC7F1C082F61
:101A0000F3D1069A521C202A039E029FE0D107B010
:101A1000F0BDC04620850008F0B585B00391029066
:101A20001078C8282CD15078AB2829D10026002B5B
:101A300001D0304600E0F043C0B200903446019639
:101A4000E0B20321FEF754FB039A85180D48049475
:101A50000019847800984440C80002994718B819C2
:101A6000C0B22146B140C9B2CA09E9B202F0AAFC2B
:101A7000761C082EF3D1049C641C482C019EDFD1F7
:101A800005B0F0BDC08F0008F0B585B0039102909D
:101A90001078C8282BD15078AB2828D10026002BED
:101AA00001D0304600E0F043C0B2009032460196CB
:101AB000D0B28008039945189007C00E02994418C7
:101AC0000C4804928018877800984740A019C0B24B
:101AD0003946B140C9B2CA09E9B202F073FC761CBA
:101AE000082EF3D1049A521C802A019EE0D105B041
:101AF000F0BDC0460A900008012804D0002805D196
:101B0000044800687047024800687047002070472A
:101B1000EC00002074050020F0B585B00490B64EAE
:101B20003078012801D10224CDE0029101243470E3
:101B3000B2480068C00A1C210140B1484218039213
:101B40004758B04802683968CDB2B14BAA4238D183
:101B50000A0CAD4B1A4043689342AD4B31D1026938
:101B6000090AC9B28A422CD1826803990968019195
:101B70004968CBB29A42A64B23D1090CA34A114023
:101B8000C2688A421DD14169009101998A68A149C0
:101B90000A400099914214D1816900910199CA6863
:101BA0009C490A40009991420BD1C2690199096987
:101BB0008BB29A42964B04D1090C1940026A8A42B0
:101BC0001AD005607988904A1140416079780161A6
:101BD0003979816003990968CA888C4D2A40C260AE
:101BE0008A688C4D2A404261CA682A4082610A8A0A
:101BF000C261498A1940016204980068032812D022
:101C0000022837D001285CD1FFF7EAFD002858D11F
:101C1000FFF79AFDFFF7E4FD04467F4801680422C0
:101C2000914301604DE0FFF7DBFD002849D1002022
:101C3000C043029908600498C76800690003C0198E
:101C400087423ED23846FFF7BFFD0125EC02FFF781
:101C5000C7FD714A1168A1430446116000282ED1C6
:101C600028033F180499C8680969090308188742BE
:101C7000E8D326E0FFF7B4FD002822D10020C043BE
:101C800002990860049847688068C001C0198742BB
:101C900017D2614D3846FFF767FDFFF7A1FD0446F7
:101CA0002868022188432860002C08D104994868DC
:101CB0008968C901081880378742EBD301E0029890
:101CC000076000203070204605B0F0BD0120C0073D
:101CD00051490A6802430A600868C043C00F704750
:101CE000F0B585B0444F3878012802D1022005B004
:101CF000F0BD0D4603920120387040490968C90AB9
:101D00001C220A403E498B1804938A583D490E68AC
:101D10001368DCB2A64239D11E0C3B4F3E404F68DF
:101D2000B742354F32D10E691B0ADBB29E422DD12C
:101D30008E68049B1B6802935B68DFB2BE422E4F25
:101D400024D11B0C314E3340CE689E421ED14B69CC
:101D50000193029B9E682F4B1E40019BB34215D1FD
:101D60008B690193029BDE682A4B1E40019BB342A4
:101D70000CD1CE69029B1B699FB2BE421E4F05D19A
:101D80001B0C234E33400E6A9E421BD00C605388BE
:101D90001D4C23404B6053780B6112798A60049A82
:101DA0001268D388194C2340CB609368194C2340A8
:101DB0004B61D36823408B61138ACB61528A144BE9
:101DC0001A400A62690601D005B0F0BDFFF708FDB0
:101DD000002803D00021397005B0F0BD28460399D2
:101DE000FFF7D0FCFFF7FCFC0B490A6801239A437C
:101DF0000A600028E8D1EDE7E80600200410024060
:101E00000085000800210240FF010000FF070000DC
:101E1000FF3F0000FFFF0100142002400648C16898
:101E2000002901D400207047044901600449016081
:101E3000C068C00F7047C0460820024023016745B4
:101E4000AB89EFCD014800687047C0461C070020F1
:101E5000FEE70000F0B585B030480189304A1181B5
:101E600001684068116050600020049002F06AF937
:101E700003F07AFA064603F029FAFEF716FC294C1D
:101E80002146FEF70CFAFEF73EFC05460F463046AB
:101E9000FEF70BFC2146FEF702FAFEF734FC024681
:101EA0000B4600950197204C2049204604F072FF14
:101EB000012600961027049801463A46234602F070
:101EC0000BFA03F055FA039003F004FAFEF7EDFB6A
:101ED0001449FEF7E4F9FEF716FC05460C46039894
:101EE000FEF7E3FB0F49FEF7DAF9FEF70CFC0246BA
:101EF0000B46009501940C4C20460C4904F04AFF17
:101F000003960096049839463A46234602F0E4F9CF
:101F100002F0C6FF002837D00AE0C046E0000020EB
:101F20005C05002000007A449E0600203B910008DA
:101F300003F01EFAFEF7B9FB044603F0CBF9FEF7F7
:101F4000B4FB01462046FEF76DF90849FEF7A7F9F4
:101F5000FEF7D9FB04460D4603F0B2F900900448A1
:101F600004A122462B4604F015FF0DE0002474491D
:101F70009E060020252E3032665720256425252018
:101F8000554643530000000002F01CFF002829D0F2
:101F900003F0EEF9FEF789FB044603F09BF9FEF728
:101FA00084FB01462046FEF73DF90849FEF777F924
:101FB000FEF7A9FB04460D4603F082F900900448A1
:101FC00004A122462B4604F0E5FE0BE000247449F0
:101FD0009E060020252E30326657202564252520B8
:101FE0004146430002F04CFF00281CD003F0C0F92A
:101FF000FEF75BFB044603F06DF9FEF756FB014666
:102000002046FEF70FF9F749FEF749F9FEF77BFB8B
:1020100004460D4603F054F90090F148F2A122461F
:102020002B4604F0B7FE02F033FF00281CD003F06B
:102030009FF9FEF73AFB044603F04CF9FEF735FB37
:1020400001462046FEF7EEF8E649FEF728F9FEF7CE
:102050005AFB04460D4603F033F90090E048E7A12F
:1020600022462B4604F096FE02F02AFF00281CD0E0
:1020700003F07EF9FEF719FB044603F02BF9FEF797
:1020800014FB01462046FEF7CDF8D649FEF707F9C6
:10209000FEF739FB04460D4603F012F90090D048D4
:1020A000DBA122462B4604F075FE02F001FF00285A
:1020B0001CD003F05DF9FEF7F8FA044603F00AF9C4
:1020C000FEF7F3FA01462046FEF7ACF8C549FEF7E5
:1020D000E6F8FEF718FB04460D4603F0F1F8009011
:1020E000BF48D0A122462B4604F054FE02F09AFECF
:1020F00000281CD003F03CF9FEF7D7FA044603F0A1
:10210000E9F8FEF7D2FA01462046FEF78BF8B5490A
:10211000FEF7C5F8FEF7F7FA04460D4603F0D0F8CF
:102120000090AF48C4A122462B4604F033FE02F0D3
:1021300071FE00281CD003F01BF9FEF7B6FA044626
:1021400003F0C8F8FEF7B1FA01462046FEF76AF838
:10215000A449FEF7A4F8FEF7D6FA04460D4603F0AC
:10216000AFF800909E48B9A122462B4604F012FE1B
:1021700002F048FE00281CD003F0FAF8FEF795FAAA
:10218000044603F0A7F8FEF790FA01462046FEF752
:1021900049F89449FEF783F8FEF7B5FA04460D4670
:1021A00003F08EF800908E48AD4922462B4604F08D
:1021B000F1FD02F01FFE00281CD003F0D9F8FEF755
:1021C00074FA044603F086F8FEF76FFA01462046DB
:1021D000FEF728F88349FEF762F8FEF794FA044602
:1021E0000D4603F06DF800907D489E4922462B462F
:1021F00004F0D0FD02F03CFE00281CD003F0B8F83B
:10220000FEF753FA044603F065F8FEF74EFA01466E
:102210002046FEF707F87349FEF741F8FEF773FA18
:1022200004460D4603F04CF800906D488E49224656
:102230002B4604F0AFFD02F0CDFD00281CD003F0CA
:1022400097F8FEF732FA044603F044F8FEF72DFA49
:1022500001462046FDF7E6FF6249FEF720F8FEF74B
:1022600052FA04460D4603F02BF800905C487F4973
:1022700022462B4604F08EFD02F0F2FD00281CD011
:1022800003F076F8FEF711FA044603F023F8FEF7A0
:102290000CFA01462046FDF7C5FF5249FDF7FFFF46
:1022A000FEF731FA04460D4603F00AF800904C4858
:1022B0006F4922462B4604F06DFD02F0C9FD00284F
:1022C0001CD003F055F8FEF7F0F9044603F002F8CD
:1022D000FEF7EBF901462046FDF7A4FF4149FDF763
:1022E000DEFFFEF710FA04460D4602F0E9FF00900B
:1022F0003B48604922462B4604F04CFD02F0A0FD0D
:1023000000281CD003F034F8FEF7CFF9044602F0A1
:10231000E1FFFEF7CAF901462046FDF783FF314988
:10232000FDF7BDFFFEF7EFF904460D4602F0C8FFCA
:1023300000902B48504922462B4604F02BFD02F01A
:1023400051FD00281CD003F013F8FEF7AEF9044647
:1023500002F0C0FFFEF7A9F901462046FDF762FF33
:102360002049FDF79CFFFEF7CEF904460D4602F02A
:10237000A7FF00901A48414922462B4604F00AFD67
:10238000039D009500200490202110220292144BFE
:1023900001F0A2FF02F0CAFF07464B20840002F0C2
:1023A000DBFF06463648007860437D21C900FDF713
:1023B0009FFE04463846FEF7A6F902460B460096F5
:1023C00001943049064C204604F0E4FC009530218D
:1023D0000498029A234601F07FFF05B0F0BDC04685
:1023E0009E06002000247449252E30326657202591
:1023F000642525205346435000000000252E30322E
:10240000665720256425252053564F4F4300000072
:10241000252E30326657202564252520564F4F4300
:1024200034000000252E30326657202564252520F3
:10243000564F4F4331000000252E3032665720257D
:10244000642525205045322E30000000252E3032E4
:1024500066572025642525205045312E3100000087
:10246000BA91000806920008AA9100089A91000803
:10247000EF9000082991000819910008AF9000081A
:102480001807002018920008F0B5D9B05520810037
:1024900004AC2046FDF75BFE5A4806C85A4B06C3FB
:1024A000008818805948002505705948057059481A
:1024B000057002202070584800680A21FDF718FEB8
:1024C0000246601C55A104F065FC032060742046A0
:1024D000123056490922FDF721FE22200421215401
:1024E000052630070121090300F0EFFD01462746CC
:1024F000443723466633224688322234601C002942
:102500000392029301D04A4900E04A490B22FDF7A9
:1025100005FE667404AC2046343047490B22FDF7B3
:10252000FDFD0620387045480068FEF7ECF80246CD
:102530000B462046453042A104F02CFC11267E7447
:102540002046563042490922FDF7E8FD1320029F3C
:10255000387040480288204667303FA104F01AFCDA
:10256000152078743B4F3A7A204678303EA104F02B
:1025700011FC172003990870F868FEF7C4F80246AA
:102580000B4689343CA1204604F004FCE8B23146F5
:10259000414304AA515C002903D06D1C1328F5D3D4
:1025A00014250024280620460ED038480178002043
:1025B000C2B2724304AB9A5C914205D0EAB2401CAD
:1025C000C3B29342F4D32846C01E41B2002900DCB6
:1025D0002046C0B2464304A885192C4E287831788D
:1025E000081A411E884100906B1C2007010E002034
:1025F000102201F071FE1135641C042CEED159B08B
:10260000F0BDC046E00000205C0500207B050020F6
:102610007A05002001010020402C01404C4544C1B6
:10262000C1B6C82025642525000000009493000849
:1026300088930008AC9300087C930008D400002025
:10264000CEC2BFD8C9E8B6A8D6B5252E30660000E0
:10265000A093000804010020B1B3B9E2C1C1B6C81B
:10266000C9E8D6C325640000B3E4B5E7B9A6C2CA79
:10267000C9E8D6C325640000CAE4C8EBB5E7C1F7D2
:10268000CFB5CAFD252E303266000000BA06002004
:10269000F0B587B0564D28895649088105CD05C14A
:1026A000083DEA882B79E878A9786C782D7800AE17
:1026B00033C6514C51A1204604F06CFB0126009614
:1026C00000271022069238463946234601F004FEC0
:1026D00052480068FEF717F804460D465048006857
:1026E000FEF711F802460B46009401954DA14248B1
:1026F000044604F04FFB0096384606990A462346E6
:1027000001F0EAFD3846FFF7F7F905903046FFF78C
:10271000F3F9FDF7F8FF05460C460598FDF7F3FFC2
:1027200002460B460095019442A13348044604F04A
:1027300031FB009620213846069A234601F0CCFD55
:1027400002F034FB00280ED03E4800680A21FDF755
:10275000CFFC024626480378007A009026483AA12A
:1027600004F018FB3BE0224F02F026FB00280DD0BE
:10277000344800680A21FDF7BBFC02463B78387AF2
:1027800000901D4835A104F005FB28E02D4D02F016
:1027900001FB00280CD028680A21FDF7A9FC02469D
:1027A0003B78387A0090144831A104F0F3FA16E02F
:1027B00002F0F6FA044628680A21FDF799FC024661
:1027C000387A3B78002C05D000900B482DA104F0FE
:1027D000E1FA04E0009008482F4904F0DBFA009683
:1027E000002030211022044B01F076FD07B0F0BD2F
:1027F000E00000205C0500209E06002025303464A7
:102800002D253032642D253032645F253032643A14
:10281000253032643A253032640000007005002013
:102820006C050020252E303266A1E620252E3032A0
:1028300066A1E600252E303266A1E620252E303234
:1028400066252500382C014046414E3A2564252551
:1028500020253032642E25642043310046414E3A13
:102860002564252520253032642E2564204332003E
:1028700046414E3A2564252520253032642E2564B4
:102880002041310046414E3A25642525202530322D
:10289000642E2564204132003A92000810B5914818
:1028A000006814309049086000F0F0FD00280ED058
:1028B0009348817B012903D0072903D0042906D13D
:1028C000007802E001780120084300F0F7FD00F0F5
:1028D000B7FD00282CD000F0B1FC894CA07B072864
:1028E00006D0042810D0012822D10220A0731FE0B6
:1028F000A08900280BD0A089012814D1002000F065
:1029000095FC00F075FD13E00520A07310E000F0C9
:102910001FFD00F06DFD00F01BFDA068012101709E
:102920000020A07304E0A0890120800200F07EFC5A
:1029300000F098FD00283CD0714CA07B07280AD0FD
:10294000062836D100F00CFD00F030FD0720A07302
:1029500000F046FD2DE0A08902281BD100F048FDC3
:1029600000F0A2FD61684A1C62600870A089401EE8
:10297000A08100F099FD61684A1C62600870A0891E
:10298000401EA08100F0E4FCA0680121017000203D
:10299000A0730EE0A08903280BD1002000F046FCB4
:1029A00000F082FD61684A1C62600870A089401EC8
:1029B000A08100F065FD002823D0514CA08900289B
:1029C0001FD0A07B07281CD1A089032817D002287C
:1029D00012D001286CD100F067FD61684A1C62606A
:1029E0000870A089401EA08100F0B2FCA0680121FF
:1029F00001700020A07304E0002000F017FC00F03C
:102A000097FC00F049FD00281ED03D4CA07B052816
:102A100008D003280CD0022816D1607800F04EFDB3
:102A2000032003E0607800F049FD0620A0730BE06E
:102A3000A08900282FD06068411C6160007800F0F8
:102A40003DFDA089401EA08100F000FD00280DD0B2
:102A500000F0FEFB00F06CFC00F072FC00F0C8FC23
:102A600027480021817380680221017000F0F4FC86
:102A700000280FD000F0F4FB00F038F800F058FC0C
:102A800000F05EFC00F0B4FC1D48002181738068FA
:102A90000421017010BD00F0E5FC00281FD000F0FB
:102AA0004FFC00F0A5FCA068012101700020BDE7EB
:102AB00000F0FAFC61684A1C62600870A089401E40
:102AC000A08100F0CFFC01289BD100F0EDFC6168F3
:102AD0004A1C62600870A089401EA08191E700F046
:102AE00027FCB1E7E4060020BC06002080B500F01A
:102AF0006FFCFEF755FA02480021817380BDC04685
:102B0000F0000020F0B587B00027069705970497DE
:102B100003970297019700F0FFFA0C2000900690AF
:102B20000124059404970225039502940195134806
:102B300001AE314600F08CFA204600F01DFB0098F3
:102B40000690059404940395029701940B4831462E
:102B500000F07EFA00F0CAFA002801D007B0F0BDFC
:102B6000022000F009FB00F0D7FA00F0BFFA0028BD
:102B7000F4D0781C082F0746F2D3EFE7001400507A
:102B800070B582B00C4601AA1070D0200025012635
:102B900029463346FEF76EF8D120294622463346B1
:102BA000FDF7A6FF284602B070BD10B582B001AA9D
:102BB0000024148051701070D02002232146FEF7AB
:102BC00059F8204602B010BD00213D480A4683183E
:102BD000997159711971D970997059700832202AF8
:102BE000F5D108210176042101740221017201212D
:102BF00001707047032801D900207047C000304998
:102C000008184079411E88417047C046014600209F
:102C1000032909D8C9002A4A51188A79002A03D001
:102C2000881D0021017001207047C0460146002028
:102C3000032909D8C900224A51180A79002A03D069
:102C4000081D0021017001207047C04680B500F0CA
:102C500043FA4142484180BD70B50024184D06E05A
:102C600000207070012030710834202C27D02E19DC
:102C7000285DFFF7EBFF7178022918D0012909D0F0
:102C80000029F1D10028EFD0012070700020707170
:102C90007080E9E70028E3D07088401C708080B223
:102CA0006428E1D30220707001207071DCE70028F5
:102CB000DAD10020707070710120B071D4E770BD5E
:102CC000C206002008480421016070474C48016892
:102CD0004C4A0A40511C01607047C04602480068D7
:102CE0004007C00F7047C0460024014044480068B8
:102CF000C00F704742480168012008407047C04635
:102D00000148006880B27047402401400120400320
:102D100032490A6882430A607047C0462F480168FA
:102D20000322914301607047012000032B490A6888
:102D300002430A607047C0460249014002480160F0
:102D40007047C046FF1B00002824014001200004FA
:102D500022490A6882430A607047C04637208001D2
:102D60001E490A6882430A607047C04624480168C9
:102D7000244A0A40111D01607047C04680B500F02A
:102D8000A9F800F0AFF880BD0F20000703490A68DA
:102D9000824301204007101808607047102401404A
:102DA0000320800502490A6882430A607047C046D2
:102DB00008270140094801682022914301607047BB
:102DC0000120800305490A6802430A607047C04633
:102DD0000248016818229143016070470C240140A9
:102DE0000248016807220A43026070471424014028
:102DF00003480168034A1140891816310160704781
:102E000008240140EAFFFF7F81B0012040050C4902
:102E10000A6802430A60096801400091009801B005
:102E20007047C04681B00120000705490A68024387
:102E30000A60096801400091009801B07047C046DF
:102E40003C1002400120400506490A6802430A601E
:102E50007047C0460120400502490A6882430A6063
:102E60007047C0462C10024081B00120000518496F
:102E70000A6802430A60096801400091009801B0A5
:102E80007047C04681B012480168012211430160B9
:102E9000006810400090009801B0704781B00C4964
:102EA0000A6802430A60096801400091009801B075
:102EB0007047C04681B00120800305490A6802437B
:102EC0000A60096801400091009801B07047C0464F
:102ED000401002400120000506490A6802430A60CA
:102EE0007047C0460120000502490A6882430A6013
:102EF0007047C04630100240474908607047C046DE
:102F00000E490A6882430A607047C0460F490A6842
:102F100082430A607047C04610490A6882430A60CB
:102F20007047C04611490A6882430A607047C0462C
:102F300002490A6802430A607047C046841802408A
:102F400002490A6802430A607047C04604180240FA
:102F500002490A6802430A607047C046801802406E
:102F600002490A6802430A607047C04600180240DE
:102F7000B0B504460068217900290ED0002814D08D
:102F80006179022914D0012915D000291AD1FFF73F
:102F9000B7FF2068FFF7DCFF12E0FFF7BDFF2068F6
:102FA000FFF7AEFF00252846B0BD00252846B0BD7E
:102FB000FFF7CEFF01E0FFF7AFFF2068FFF7B8FF94
:102FC000002500E00125A07903280ED87844007977
:102FD0004000874401020D11E5E72068FFF796FFE6
:102FE0002068FFF7BDFF2846B0BDAD1C2846B0BD28
:102FF0002068FFF797FF02E02068FFF7B1FF206825
:10300000FFF79EFF2846B0BD034909680140091A31
:10301000484248417047C0460C180240B0B50A0A01
:10302000D2B20B0CDBB293408907090F034C0D5948
:103030009D43904028430851B0BDC04660180240EF
:10304000024801680122914301607047002002405C
:10305000F0B581B00D460446096800292AD0002742
:1030600006E000F075F87F1C29680846F84021D07A
:103070000126BE400E40F6D06A682046314600F078
:1030800081F86868401E012804D8AA6820463146A5
:1030900000F0B0F82A692046314600F096F86868DA
:1030A0000228E0D16A6920463146FF2ED9D800F0C7
:1030B00039F8D8E76868401E012803D8EA68204636
:1030C00000F07DF8002001B0F0BD00690840411A11
:1030D0004842484170470000034909680140091A05
:1030E000484248417047C0461004005002480168F9
:1030F000012008407047C046101400500120000312
:10310000044908607047C046012000030149086077
:103110007047C046280000500148022101607047F6
:1031200028140050494349434A430F234B43016A43
:103130009943114301627047404340430F2141438B
:10314000024A13688B43034313607047200000500A
:10315000090A494349434A430F234B43416A994370
:1031600011434162704700000120000301490860DB
:103170007047C04618000050014908607047C046BB
:103180001814005049434A4303234B4301689943B1
:10319000114301607047404303214143052000076C
:1031A00002680A43026070474043032141430522FD
:1031B000120713688B4340001843106070474A435E
:1031C00043688B4313434360704749434A43032397
:1031D0004B43C16899431143C16070474043032189
:1031E0004143034A13688B43034313607047C0464F
:1031F0000C00005049434A4303234B4381689943E1
:10320000114381607047000040430321414302485D
:1032100002680A43026070470800005001229202CF
:10322000036893430B430360704700000121890248
:10323000734A13688B4303431360704781B0994806
:1032400001680091009940680090009801B07047B3
:103250000120800293490A6882430A607047C04691
:10326000012000028F490A6882430A607047C04605
:10327000F0B581B0009316460F4604462149384602
:10328000FCF736FF3F21C94362680A40024362608F
:10329000256A0D401C4A511C8E4208D34B218A00DE
:1032A00042437D20C1001046FCF722FF164A401C15
:1032B00028432062154D964204D9009D002D09D067
:1032C000192008E071003846FCF712FF284211D19E
:1032D00004200FE00320464338463146FCF708FF40
:1032E0000A49CA1C012110420A4600D002462A435C
:1032F000C8031043E169064A0A400243E26101B093
:10330000F0BDC04640420F00A0860100FC0F000047
:103310000030FFFF01680122914301607047000007
:103320000120C00236490A6882430A607047C046DD
:103330000120800225490A6882430A607047C0461E
:103340000120400221490A6882430A607047C04652
:10335000032040021D490A6882430A607047C04644
:103360000320400219490A6882430A607047C04638
:103370000120C00322490A6882430A607047C046A0
:10338000016801220A430260704700000120C00268
:103390001B490A6802430A607047C04601200002C8
:1033A0000A490A6802430A607047C0460320400287
:1033B00006490A6802430A607047C046032040027B
:1033C00002490A6802430A607047C046045400403C
:1033D0000120C0030A490A6802430A607047C046D8
:1033E0000120000206490A6802430A607047C0468D
:1033F0000120400202490A6802430A607047C04641
:1034000000540040B0B584B00D460446FFF782FF7B
:1034100001A800F0E9F80CCD03992046083DFFF71C
:1034200027FFA968204600F043F82046FFF7A8FFD1
:10343000E9682046FFF7F2FE002004B0B0BD0000AE
:10344000184800688007C00F7047C04615480068DC
:103450004005C00F7047C04612480068C005C00F45
:103460007047C0460F4800684007C00F7047C0460D
:10347000024800688007C00F7047C04618540040DB
:10348000084800684006C00F7047C04605480168FC
:10349000012008407047C046024800680006C00F7F
:1034A0007047C0461454004008480068C0B27047D6
:1034B0008268FE239A430A438260704703490A6880
:1034C000FF239A43101808607047C046105400400C
:1034D00081B017490A6802430A60096801400091F7
:1034E000009801B07047C04681B0114801680122C0
:1034F00011430160006810400090009801B07047CF
:1035000081B00B490A6802430A60096801400091D2
:10351000009801B07047C04681B005490A6802436F
:103520000A60096801400091009801B07047C046E8
:10353000341002406A48034941600021816005213E
:10354000016070477FA903000E4801681022914373
:10355000016070470B480168022291430160704787
:103560000848016804220A43026070470548016860
:10357000042291430160704702480168042291438C
:103580000160704710ED00E00120800306490A68E1
:1035900002430A607047C0460120400202490A689F
:1035A00002430A607047C046007000400F200102CD
:1035B0004148006808407047072001033E48006802
:1035C000084070470720C1021D4800680840704746
:1035D00039480168382008407047C04636480168BD
:1035E000382008407047C04610B5044600F02AFF56
:1035F000206000F007FF606000F014FFA06010BDC5
:10360000012000040E490A6882430A607047C046E0
:10361000012000020A490A6802430A607047C04656
:103620000C480068C00A1C210140014840587047FE
:10363000E0840008024800684005C00F7047C0469B
:103640000010024003490A68034B134003430B6018
:103650007047C046041002400000FFFF02480168A6
:1036600001229143016070475C10024002480168EA
:1036700001229143016070476010024002480168D6
:10368000012008407047C0460C1002400F20000285
:1036900009490A6882430A607047C0460720000350
:1036A00005490A6882430A607047C04602480168BB
:1036B000072291430160704708100240D04801681A
:1036C0000222914301607047CD48016802220A43FB
:1036D00002607047CA48016802220A4302607047CC
:1036E00010E000E0014908607047C046D0000020AB
:1036F0000121C903426C0A434264704701680122F8
:103700000A4302607047416901220A4342617047DF
:1037100070B50D46044601681F4EB04202D01F48E6
:10372000844204D1702081436868084300E0084661
:103730001B498C4208DDB4420CD01A498C4209D096
:1037400019498C4206D024E014498C4202D0174912
:103750008C421ED1032109028843E968014321609C
:10376000A968204600F05AF82988204600F058F849
:10377000B44205D00B48844202D00B48844203D1A6
:10378000297C204600F04EF82046FFF7BCFF0020C1
:1037900070BD0146E3E7C046002C01400004004034
:1037A000FF2B014000480140004401400020004040
:1037B000B0B503460120FF2909DC012914D01029E6
:1037C0001DD11846114600F0F7FB0020B0BD0124C2
:1037D0002502A9420ED02403A14210D11846114659
:1037E00000F076FC0020B0BD1846114600F0A6FBA4
:1037F0000020B0BD1846114600F022FC0020B0BDEC
:10380000416370470148002101607047382C014036
:1038100081637047C163704701647047C16270473C
:10382000816270470163704781B03C480168009134
:10383000009940680090009801B0704781B0374807
:1038400001680091009940680090009801B07047AD
:1038500081B032480168009100994068009000985A
:1038600001B0704781B02D4801680091009940680F
:103870000090009801B070474020C043274908607D
:103880007047C046514801688022914301607047EB
:10389000012040034D490A6802430A607047C04650
:1038A0003D48016801220A4302607047012000027E
:1038B00046490A6802430A607047C04643480168A7
:1038C00020220A43026070474048016880220A4370
:1038D00002607047114800688007C00F7047C046FB
:1038E0000E4800684007C00F7047C0460B4800688C
:1038F0000007C00F7047C046084801680120084013
:103900007047C046054800688006C00F7047C04633
:10391000024800680006C00F7047C04600380140EA
:103920002A4800680006C00F7047C0462A48006851
:10393000C0B2704770B5192250438900FCF7D8FB1C
:10394000054664263146FCF7D3FB04466320C0439A
:1039500060434019000132303146FCF7C9FB0F21AA
:103960000140F02202402001101880B240180149A5
:10397000086070BD083801400120000313490A683F
:1039800082430A607047C0460320000202490A6869
:1039900082430A607047C046143801400320400249
:1039A0000A490A6882430A607047C0460120400302
:1039B00002490A6882430A607047C04610380140D5
:1039C000024801680C220A43026070470C3801402B
:1039D000014908607047C0460438014081B0084979
:1039E0000A680092401C01D30020C043009A0028BE
:1039F00004D00A68D203D2171018FAD101B0704768
:103A000010E000E0F0B587B0002606960596049613
:103A100003960296019601242046FFF771FD0225C8
:103A20002846FFF76DFD0596049603950296302013
:103A30000190104D01AE28463146FFF709FB28469C
:103A40003146FFF705FBA003019005200707384624
:103A50003146FFF7FDFA6003019038463146FFF723
:103A6000F7FA8020019028463146FFF7F1FA07B0B7
:103A7000F0BDC04600040050F0B581B02348C068D6
:103A8000FCF741FE02460B46214C22A1204603F0E2
:103A900081F90127009700261025304631462A4635
:103AA000234600F019FC01F05FFCFCF7FEFD1C4909
:103AB000FCF7F5FBFCF727FE02460B4619A1204652
:103AC00003F068F90097304629462A46234600F05D
:103AD00003FC01F01DF9002816D001F0FBFBFCF7F8
:103AE000E4FD0F49FCF7DBFBFCF70DFE02460B463D
:103AF000074C10A1204603F04DF90097002020212B
:103B00001022234600F0E8FB01B0F0BD04010020C4
:103B10009E060020CFB5CAFD3A252E303266000041
:103B200000007A44CAE4C8EBB5E7D1B93A252E3093
:103B300032665600CAE4C8EBB5E7C1F73A252E3025
:103B400033664100F0B581B00127009700251024AD
:103B500011A328462946224600F0BEFB009713A376
:103B600028462146224600F0B7FB0097202114A3E7
:103B70002846224600F0B0FB16480288164E17A1D0
:103B8000304603F007F90097302128462246334695
:103B900000F0A2FB01B0F0BDB0B4BCD3BAC5BCFC10
:103BA000BCD3C1C1B6C8D6B500000000B0B4BCF5E6
:103BB000BAC5BCFCBCF5C1C1B6C8D6B50000000092
:103BC000B3A4B0B4BCD3BBF2BCF5D2BBD6B1BCD3AA
:103BD00000000000040100209E060020BBF2BCF59E
:103BE00020C1C1B6C8D6B53A25640000F0B581B091
:103BF000012700970025102412A3284629462246B3
:103C000000F06AFB009713A328462146224600F0E5
:103C100063FB0097202113A32846224600F05CFB9B
:103C20001148008802B2114E11A1304603F0B2F8DB
:103C30000097302128462246334600F04DFB01B064
:103C4000F0BDC046B6CCB0B42EB3A4B0B4BCD3C1A2
:103C5000C1B6C800D6B52CB5BDB4EFD7EEB4F3D617
:103C6000B5BAF300D6C33000780500209E060020C8
:103C7000C1C1B6C8D6B53A2564000000F0B581B020
:103C80001648027A164E17A1304603F083F8012732
:103C9000009700251024284629462246334600F086
:103CA0001BFB1448027814A1304603F073F8009708
:103CB000284621462246334600F00EFB009720217D
:103CC00011A32846224600F007FB0097302112A3DB
:103CD0002846224600F000FB01B0F0BD04010020A0
:103CE0009E060020C9E8D6C3B9A6C2CA3A256457C1
:103CF0000000000067050020CAB5BCCAB9A6C2CA48
:103D00003A25645700000000B3A4B0B4C8B7C8CFC8
:103D1000BCFC31C3EBD2D400C9CFCBC9BFAABAF324
:103D2000B1A3B4E60000000070B582B00126009691
:103D30000024102516A3204621462A4600F0CCFA7E
:103D4000009618A3204629462A4600F0C5FA009698
:103D5000202118A320462A4600F0BEFA1748007812
:103D60000094002801D1174B00E0154B302120466C
:103D70002A4600F0B1FA14480078012806D10094D0
:103D800040203021102211A300F0A6FA02B070BD2D
:103D9000B0B4CFC2BCD3BAC5BCFCB1A3B4E6C9E8C9
:103DA00000000000D6C32CB0B4CFC2BCF5BAC5BC6D
:103DB000FCD6D800D6C3C9E8D6C300000101002054
:103DC000C4920008BD92000800010020D2D1D6D8CC
:103DD000D6C3000070B5284C2848E06055202072FA
:103DE00030202080264E6660264810222146FDF7AE
:103DF000A1FC6068401C11D0656823492846FCF787
:103E00002DFC002805D121492846FCF719FC002883
:103E100000D1666060681E49086002E01C481D49C8
:103E2000016020881C49884201D132202080207AFC
:103E3000FF2801D132202072207A01F0A3FBE06834
:103E4000401C14D0E5687F20C1052846FCF706FC1D
:103E5000002806D18120C1052846FCF7F1FB002887
:103E600001D10E48E060E06801F086FB70BD0348B8
:103E700001F082FBE06070BD0401002000002040E2
:103E800000000C4200B0000800008CC200008C4210
:103E9000D400002000001042FFFF0000C5201040A9
:103EA00070B500210E4A0B4611E0144680252560AE
:103EB000402414601646083E36681461CD407404F0
:103EC000E4172C402343491C4000082905D044B284
:103ED000002CEADB14461034E8E7D8B270BDC046C7
:103EE00018040050F0B587B0002606960596049693
:103EF00003960296019601242046FFF70DFB02254A
:103F00002846FFF709FB059602A870C040200090E4
:103F10000190F04801AF3946FFF79AF8059602A8DC
:103F200070C080200190EB4C20463946FFF790F896
:103F30000098A06207B0F0BD70470000F0B581B0F6
:103F4000044601200090C043226A024022620A69AE
:103F50000240206A0326B04310430F684D680543B2
:103F60006268A069732398433843734B9C4205D021
:103F7000724B9C4202D0724B9C4214D133029A4342
:103F8000009B5B024E6900968F69CE699F43174381
:103F900072003A430C239D43009B5B08DB002B43DC
:103FA0008D68AD001D436260A061C9682046FFF7BF
:103FB00027FC256201B0F0BDF0B581B00446006A6F
:103FC000102290432062206A302290430A695208EE
:103FD000520102430B68486805011543606873226B
:103FE0001202A66996431F023743534B9C4205D0E9
:103FF000524B9C4202D0524B9C4215D103239B0250
:1040000098434A6900928E69CB69B6000B4A3240E8
:104010000243D8001043C0229543009A5208D201AF
:104020002A438B689D0115436060A761C9682046DB
:10403000FFF7EEFB256201B0F0BDC046FCF7FFFFC5
:10404000F0B583B004462048FF30226A0240226265
:10405000032002900002226A82430869400840025D
:1040600010430E684A68150205436268E3697327C6
:10407000BB433343304EB44205D0304EB44202D03D
:104080002F4EB44217D1029F3E03B24348690190BC
:104090008869CE69009606010C4830401043009AAA
:1040A00052010243B802854301984008C0022843E8
:1040B0008D68AD0205436260E361C9682046FFF781
:1040C000A9FB256203B0F0BD00FEFFFFF0DFFFFF9C
:1040D000F0B581B0044601200203236A93432362B2
:1040E00003221203236A93430A69520852031A43B4
:1040F0000E684B681D031543636873221202E7695B
:10410000974332023A430C4EB44205D00B4EB442B0
:1041100002D00B4EB44205D18003834388698001ED
:10412000184300E018466060E261C9682046FFF766
:1041300073FB256201B0F0BD002C01400048014036
:104140000044014080B5002806D001208102A64825
:10415000FF22FBF7F5FF80BD01208102A248FBF79B
:10416000F6FF80BDF0B581B000249F4D2646304655
:10417000B030214600F03AF92046214600F036F9E9
:104180001020214600F032F92746E85D012100F0B9
:104190002DF97F1C802FF8D18035761C082EE6D1B2
:1041A00001B0F0BD10B58D200024214600F01EF9AD
:1041B0001420214600F01AF9AF20214600F016F92C
:1041C00010BD0000F0B587B0002406940594049457
:1041D00003940294019401263046FFF791F90227D7
:1041E0003846FFF78DF90594049403970296302022
:1041F0000190384801A90091FEF72AFF0594049424
:1042000003970296B0030190052005072846009900
:10421000FEF71EFF0594700301900D200690029793
:1042200028460099FEF714FF10262A4FBE62142577
:104230002846FFF7D3FBBE61E220214600F0D6F806
:104240002846FFF7CBFBAE20214600F0CFF8A22096
:10425000214600F0CBF82320214600F0C7F8A0202B
:10426000214600F0C3F8C820214600F0BFF8A62080
:10427000214600F0BBF88120214600F0B7F820204D
:10428000214600F0B3F8A420214600F0AFF8F8254D
:104290002846214600F0AAF82846214600F0A6F854
:1042A0002C20214600F0A2F82E20214600F09EF896
:1042B0002F20214600F09AF84020214600F096F881
:1042C0002046FFF73FFFFFF74DFFFFF76BFF07B0FB
:1042D000F0BDC04600040050F0B589B01E4615463A
:1042E0000C4607461846FBF73DFF0790002866D0AE
:1042F00023460E9806908020401B03906808029089
:10430000002004460496059506E0049E059D641C65
:10431000E0B20799814252D93256002A07D4102DB3
:1043200013D0082D4BD10626002A11D1EDE7321803
:10433000202D089327D0182D2BD0102D3FD1F8B267
:10434000D9B2069BFDF726FB28E00826002ADCD020
:1043500006980090F8B2D9B2D2B20893059D2B46C8
:10436000FDF7B0FAF719F8B2792809D3089840197F
:10437000C1B2002730293B4600D80346049EC6E759
:10438000049E089BC3E7F8B2D9B2069BFDF77CFBFD
:1043900004E0F8B2D9B2069BFDF73EFB02983F1845
:1043A000F8B20399814208DA08984019C1B200278F
:1043B00030293B46ABD80346A9E7089BA7E709B0DD
:1043C000F0BD000010B507240C400123A340C9082C
:1043D000C901081804490C5C002A02D01C430C5483
:1043E00010BD9C430C5410BD1401002080B5C0B218
:1043F000002902D001F076FA80BD01F063FA80BD99
:104400007047000010B50446FFF7D0F880093C2142
:104410000140034840581F210140CC40204610BDB8
:10442000987B000810B50446FFF7C6F8000B800023
:10443000034908581F210140CC40204610BDC0460A
:10444000D87B000810B5FFF7C3F80321C841401E10
:1044500003280BD80D4CC0467844007940008744AF
:10446000101201010120C403204610BD0848006855
:10447000C00A1C21014007484458FFF7A3F8C00AAE
:10448000C440204610BD00F007F810BD00366E0194
:1044900004100240E084000880B5FFF7EFF801281F
:1044A00001D1034880BDFFF7BBF8400080BDC04686
:1044B000006CDC027047000070B54A4D287808286F
:1044C0003DD8C0467844007940008744040C1A3E29
:1044D0004D5C66707A00302000F04EFF002879D0E5
:1044E0002878401C2870C34EB11D0024204600F0DF
:1044F0007FF8002825D02878401C2870F088C0005C
:10450000F080BC4E31460831012000F071F80028DF
:1045100060D02878401C287000F026FF044600F088
:1045200027FF014630898C420DD2FCF7BEF80146C8
:104530002D480068FBF776FEFCF7CCF804E0002479
:104540002C70204670BD80003081AA4C21460A3173
:10455000022000F04DF800283CD02878401C28703C
:104560006089072141436181A24C21460C3103201F
:1045700000F03EF800282DD02878401C2870A08933
:1045800005214143A1819B490E31042000F030F800
:1045900000281FD02878401C287096491031092027
:1045A00000F026F8002815D02878401C2870914982
:1045B00012310A2000F01CF800280BD02878401C8B
:1045C00028708C48018A094A914205D80020287039
:1045D000012070BD002070BD0021297041700120B4
:1045E00070BDC04614050020C8000020830C0000E8
:1045F000B0B582B00C460146164D2878022819D075
:10460000012809D0002821D1302000F07DF80028B1
:1046100019D02878401C28707648401D00907820DA
:10462000312102232246FCF763FB00280BD02878B7
:10463000401C28706F484079002804D00020287062
:10464000012002B0B0BD002002B0B0BD0020287033
:1046500002B0B0BD15050020F0B581B00446154F7D
:104660003878012813D000281DD115460E46614820
:10467000C11C204600F020F8002818D03878401CD3
:10468000387035405B49C878B0432843C8705948F2
:10469000C178204600F038F8002808D00020387093
:1046A000012001B0F0BD0020387001B0F0BD002045
:1046B00001B0F0BD1605002010B582B00A460146D3
:1046C000104C207801280DD0002814D14948401DF5
:1046D000009078200123FCF70BFB00280FD02078F6
:1046E000401C207043484079002808D000202070EA
:1046F000012002B010BD0020207002B010BD0020CB
:1047000002B010BD1705002070B582B00C460146FE
:10471000384E701D0090F21C782001252B46FCF7C6
:1047200015FB002801D0F47000E00025284602B0F7
:1047300070BDC04610B582B02D4C2078062852D8E6
:104740007844007940008744030B151F2D34420044
:10475000992000F011FE002842D02078401C2070E3
:1047600024492C319920FFF7A7FF002838D0207862
:10477000401C20701F492D31A220FFF79DFF00280B
:104780002ED02078401C20701A4A501D00902632EE
:10479000782086210223FCF7ABFA002820D020786D
:1047A000401C207013484079002819D02078401C04
:1047B00020701048826A401D0090782088210323D1
:1047C000FCF796FA00280BD02078401C207009488E
:1047D0004079002804D000202070012002B010BDD4
:1047E000002002B010BD0020207002B010BDC046F5
:1047F0001805002028050020B0B50F4D28780128A5
:1048000009D0002812D1202000F0B6FD002811D0D8
:104810002878401C2870202001242146FFF774FFCF
:10482000002807D0002028702046B0BD00242C703E
:104830002046B0BD0020B0BD19050020B0B504462B
:10484000134D2878012809D0002812D1A42000F0A7
:1048500093FD00280BD02878401C2870A420042148
:10486000002C0AD00A46FFF7F7FE00280BD10020E3
:10487000B0BD00242C702046B0BD00242246FFF7B6
:10488000EBFE0028F7D0002028700120B0BDC04604
:104890001A050020B0B50446134D2878012809D028
:1048A000002812D1A42000F067FD00280BD0287842
:1048B000401C2870A4200821002C0AD00A46FFF7CB
:1048C000CBFE00280BD10020B0BD00242C70204668
:1048D000B0BD00242246FFF7BFFE0028F7D000201D
:1048E00028700120B0BDC0461B050020B0B50446AD
:1048F000174D2878022818D0012809D0002824D183
:10490000A52000F039FD00281DD02878401C287013
:1049100005212046FBF7ECFBC1B2A520FFF7F4FE12
:10492000002810D02878401C287005212046FBF76D
:10493000DFFB010AA620FFF7E7FE002803D00020D6
:1049400028700120B0BD0020B0BD00202870B0BD8F
:104950001C050020B0B5EA4D2878272800D9CAE107
:104960004000C046784480884000874427003000DB
:104970003A0042004C00560060006B007500810058
:104980008B009600A100AB00B500C000CA00D400A7
:10499000DE00E800F300FE000901150120012B01F3
:1049A000360142014D01570160016A0174017E0127
:1049B000880192019C01A601AD01B501202000F003
:1049C000DBFC002800D194E12878401C28702020CE
:1049D0000121FFF799FE002800D18AE12878401CC8
:1049E000287000F07FFD002800D182E12878401C6B
:1049F000287025201D21FFF787FE002800D178E1CF
:104A00002878401C287029200121FFF77DFE00280E
:104A100000D16EE12878401C287040208421FFF7E7
:104A200073FE002800D164E12878401C2870D24829
:104A300001784520FFF768FE002800D159E1287869
:104A4000401C28704F206421FFF75EFE002800D133
:104A50004FE12878401C2870A22020210024224603
:104A6000FFF7FAFD002800D147E12878401C2870A4
:104A70004120800000F080FC002800D139E1287836
:104A8000401C2870002480212046FFF73DFE0028AE
:104A900000D132E12878401C28700420772123229D
:104AA000FFF7DAFD002800D123E12878401C2870A8
:104AB00008208D21FFF728FE002800D119E1287871
:104AC000401C28700D203221FFF71EFE002800D167
:104AD0000FE12878401C28700E20CF214F22FFF7CD
:104AE000BBFD002800D104E12878401C28700F206D
:104AF000FA21FFF709FE002800D1FAE02878401CCF
:104B0000287010204921FFF7FFFD002800D1F0E0B8
:104B10002878401C287011200621FFF7F5FD002899
:104B200000D1E6E02878401C287012200221FFF70F
:104B3000EBFD002800D1DCE02878401C2870132011
:104B4000F021C022FFF788FD002800D1D1E02878AD
:104B5000401C28701520C0214022FFF77DFD002851
:104B600000D1C6E02878401C287016205E210E2255
:104B7000FFF772FD002800D1BBE02878401C2870A8
:104B80001720C02100242246FFF766FD002800D12F
:104B9000B3E02878401C287018203C210A46FFF713
:104BA0005BFD002800D1A4E02878401C2870192063
:104BB0000F210922FFF750FD002800D199E0287845
:104BC000401C28701A2000242146FFF79DFD002874
:104BD00000D192E02878401C28701F203F2100243B
:104BE0002246FFF739FD002800D186E02878401CD6
:104BF00028702020A72100242246FFF72DFD002841
:104C00007BD02878401C28702220F021C022FFF79A
:104C100023FD00286DD02878401C28702320E02137
:104C2000FFF772FD002864D02878401C28702420EB
:104C3000C0210A46FFF710FD00285AD02878401CF2
:104C400028702B2038210A46FFF706FD002850D097
:104C50002878401C28702C2011210A46FFF7FCFC04
:104C6000002846D02878401C28704D200F210822AB
:104C7000FFF7F2FC00283CD02878401C28704E201A
:104C800090210A46FFF7E8FC002832D02878401C23
:104C9000287050204F210122FFF7DEFC002828D089
:104CA0002878401C287051207F216E22FFF7D4FC09
:104CB00000281ED02878401C287000F035F9002804
:104CC00017D02878401C2870152000F055FB0028CC
:104CD0000FD02878401C287015203F21FFF714FDC5
:104CE000002806D07D48012444700020287020460A
:104CF000B0BD0020B0BD00242C702046B0BDC04621
:104D00001D0500207548C17E102008407047C04630
:104D10007248017F202008407047C0466F48017FDD
:104D2000102008407047C0466C48C17E08200840EB
:104D30007047C0466948C17E042008407047C0469D
:104D400022206649095C2020084070476349487862
:104D500000280ED02E20085C074A1278904205D118
:104D60002F20085C642801D1012070470020487082
:104D7000704700207047C046CC00002021205749D2
:104D8000085C302202402220085C0C210140881877
:104D90007047C0465148017F022008407047C04616
:104DA0004E48017F012008407047C0464B48017FB4
:104DB000082008407047C0464848017F042008404A
:104DC0007047C0464548407D0F2101400E3948429A
:104DD000484170474148407D0F210140091F48422A
:104DE000484170473D48407D0F21014048424841BD
:104DF0007047C0463948407D0F210140891F484215
:104E000048417047F048407D0F210140C91F48428A
:104E100048417047EC48407D0F2101400839484225
:104E200048417047E848407D0F2101400939484218
:104E300048417047E448407DC006C00F7047C046F7
:104E4000E148407D0F210140491E484248417047DA
:104E5000DD48407D0F210140891E4842484170478E
:104E6000D948407D0F210140C91E48424841704742
:104E7000D548407D0F210140491F484248417047B5
:104E8000D148407D0F2101400D39484248417047CB
:104E9000CD48407D0F2101400C39484248417047C0
:104EA000C948407D0F2101400F39484248417047B1
:104EB000C548407D0F2101400A39484248417047AA
:104EC000C148407D0F2101400B394842484170479D
:104ED000FD48407D8006C00F7047C0462805002071
:104EE00070B5104E3078012809D0002814D1232045
:104EF00000F042FA002813D03078401C3070232094
:104F00000125002429462246FFF7A6FB002805D0EC
:104F100000203070284670BD00243470204670BDDB
:104F2000002070BD1E050020B0B55E4D2878102809
:104F300000D9B2E0784400794000874408121E2965
:104F4000323C475059626B747D879099A200FF20D4
:104F5000343000F011FA002800D19CE02878401C81
:104F600028703320B82100242246FFF775FB002863
:104F700000D194E02878401C287034203F2114226E
:104F8000FFF76AFB002800D185E02878401C2870D4
:104F900035203921FFF7B8FB00287CD02878401C49
:104FA000287036209B210322FFF756FB002872D081
:104FB0002878401C28703720412100242246FFF722
:104FC0004BFB00286BD02878401C28703820F42137
:104FD000FFF79AFB00285ED02878401C2870392003
:104FE000F421FFF791FB002855D02878401C287049
:104FF0003A20F421FFF788FB00284CD02878401C89
:1050000028703B20F421FFF77FFB002843D028784D
:10501000401C28703C205521FFF776FB00283AD031
:105020002878401C28703D20C221FFF76DFB002826
:1050300031D02878401C28703E20F321F122FFF760
:105040000BFB002827D02878401C28703F20E42143
:10505000FFF75AFB00281ED02878401C28704020FB
:10506000E421FFF751FB002815D02878401C287058
:105070004120E421FFF748FB00280CD02878401C91
:1050800028704220DA21FFF73FFB002803D00020E0
:1050900028700120B0BD0020B0BD00242C70204637
:1050A000B0BDC0461F05002010B50E4C2078012869
:1050B00009D0002811D1222000F05EF900280FD07D
:1050C0002078401C207022200821FFF71DFB0028BB
:1050D00006D000202070012010BD0020207010BDDF
:1050E000002010BD2005002010B50E4C20780128AE
:1050F00009D0002811D1222000F03EF900280FD05D
:105100002078401C207022200221FFF7FDFA0028A1
:1051100006D000202070012010BD0020207010BD9E
:10512000002010BD2105002010B5264C2078052850
:1051300044D8C0467844007940008744020A141ECF
:105140002832132000F018F9002835D02078401CB0
:105150002070E34919311320FFF7AEFA00282BD055
:105160002078401C2070DE491C311820FFF7A4FA7B
:10517000002821D02078401C2070D9491D311920E9
:10518000FFF79AFA002817D02078401C2070D449E5
:105190001F311C20FFF790FA00280DD02078401C0A
:1051A0002070CF4920311D20FFF786FA002803D058
:1051B00000202070012010BD002010BD00202070B4
:1051C00010BDC046220500202805002010B53B4C2C
:1051D000207809286ED8C04678440079400087447A
:1051E000040C16202A343E48525C0E2000F0C4F80D
:1051F00000285DD02078401C2070B94914310E2061
:10520000FFF75AFA002853D02078401C2070B44988
:1052100015310F20FFF750FA002849D02078401CA4
:105220002070AF4916311020FFF746FA00283FD012
:105230002078401C2070AA4917311120FFF73CFA52
:10524000002835D02078401C2070A5491F311C2033
:10525000FFF732FA00282BD02078401C2070A0499C
:105260002E314520FFF728FA002821D02078401C55
:1052700020709B492F314F20FFF71EFA002817D0CE
:105280002078401C2070964924315120FFF714FAF1
:1052900000280DD02078401C2070914925315220E3
:1052A000FFF70AFA002803D000202070012010BD6B
:1052B000002010BD0020207010BDC0462305002036
:1052C0002C208749085C7047280500208448808985
:1052D0007047C046824800897047C04680B5804804
:1052E000C08CFBF7E9F9034A034BFBF7C9F8FBF75E
:1052F0001EFA80BD2BF697DD936374402520784914
:10530000085C704724207649085C704780B5744873
:10531000806AFBF7D1F9034A034BFBF7B1F8FBF7BF
:1053200006FA80BDA514747B4963B43F80B56C4810
:10533000008A06494018FBF7ADF9FBF7E4F9044A87
:10534000044BFBF705F9FBF7F2F980BDD1F8FFFF3D
:1053500048E17A14AE471B406148C08905214143AA
:10536000503908B27047C0465D4840897047C04612
:105370005B48C0887047C046B0B50446174D2878D2
:1053800001280BD0002817D15548C11C0120FFF778
:1053900093F900280ED02878401C28705048C07817
:1053A000210A0DD0012814D124208121FFF7ACF966
:1053B00000280ED10020B0BD00242C702046B0BDC6
:1053C000012806D0FF2000242146FFF79DF9002880
:1053D000F4D0002028700120B0BDC0462405002074
:1053E00010B53E4C207808284DD8C0467844007946
:1053F00040008744040C16202A344B555F001220CD
:10540000FFF7BAFF002860D02078401C2070344994
:1054100018311220FFF750F9002856D02078401C90
:1054200020702F491A311420FFF746F900284CD07C
:105430002078401C20702A491B311520FFF73CF9C9
:10544000002842D02078401C207025491C311820AB
:10545000FFF732F9002838D02078401C2070204C0B
:1054600021461E311A20FFF727F9014600200029A6
:105470000BD0A27FC021114029D0402929D08029FA
:1054800003D1142026E00020207010BD14492131E2
:105490002A20FFF711F9002817D02078401C20702F
:1054A0000F4922312B20FFF707F900280DD0207873
:1054B000401C20700A4923312C20FFF7FDF80028FA
:1054C00003D000202070012010BD002010BD50200E
:1054D00000E02820A077012010BDC046580500201C
:1054E0002805002010B5234C207805283FD8C04659
:1054F0007844007940008744020A131C252E20209E
:10550000FFF73AFF002830D02078401C2070202080
:105510000121FFF7F9F8002827D02078401C2070DF
:1055200023200121FFF7F0F800281ED02078401C2E
:10553000207024202021FFF7E7F8002815D02078DC
:10554000401C207024204021FFF7DEF800280CD0FA
:105550002078401C207024208021FFF7D5F80028F7
:1055600003D000202070012010BD002010BD0020BD
:10557000207010BD59050020014908607047C046E1
:10558000C8000020014908707047C046CC000020C8
:1055900010B582B00A480068FBF7B5F802460B4622
:1055A000084C09A1204601F0F5FB012000900020E5
:1055B000102201462346FEF78FFE02B010BDC04602
:1055C000D40000209E060020C9E8B6A8D6B5252E36
:1055D0003032660080B582B001AA98205070B020A9
:1055E0001070E02000210223FBF744FB02B080BDD5
:1055F00080B582B001AA1720507035201070E020CD
:1056000000210223FBF736FB02B080BDF0B583B06A
:105610001E4F387800282AD0E120002401AD06234F
:1056200021462A46FBF764FA6878019909020818AE
:1056300080B2FBF73AF81649FAF7F4FD154E3146F9
:10564000FAF72DFE144908602879E978090208184C
:1056500080B2FBF72AF81149FAF7E4FD3146FAF770
:105660001EFE0F49FAF785FD0E4908600AE06A46FA
:10567000242050705C201070E02000210223FBF7F2
:10568000F9FA01243C7003B0F0BDC0466605002065
:105690000000C84200FF7F47EC00002000002F43BD
:1056A000000034C27405002080B5FBF721FDFBF734
:1056B00013FDFBF71DFCFBF7B7FBFBF74DFDFBF7FD
:1056C000B7FCE1204002FBF775FDFBF769FC80BDEC
:1056D00002480168491C01607047C046E40600208A
:1056E00007480168074A0A4007490968114301222F
:1056F00053030B430360D006044908607047C0465B
:10570000041002400000FFFF040FFF1F08ED00E03F
:10571000B0B5FEF7FDF8002814D05E4801785E4A67
:105720001278531A012B03D0002A04D1FF2902D189
:10573000FEF7A8F806E0491C0170C8B25749085C9A
:10574000FEF746F9FEF7DEF800281AD05B4800782D
:105750005B4C25781F2D07D1002808D0FEF7E6F80E
:105760002E49485500200BE0401B012803D1114869
:105770000121017005E0FEF7D9F828494855681C59
:105780002070FEF7B9F8002801D0FEF76BF8FEF79D
:10579000A1F8002801D0FEF747F8FEF7A7F8002887
:1057A00001D0FEF755F8FEF79BF8002801D0FEF770
:1057B00045F8B0BD0A07002080B5FEF7A3F8002821
:1057C00003D1FEF7ADF8002801D0012080BD0020F4
:1057D00080BD000070B50246002000291BD0384B68
:1057E0001B78364C0D4D06E036781670C9B2491C50
:1057F000CEB28E420FD126781F2E05D1002B0BD0B2
:10580000002626702E46EFE7761C9E4204D02670B6
:10581000F6B2AE19E8E770BD012070BD7C0500202E
:10582000F0B581B000292CD01A4A127800231A4C06
:1058300009E0751C954226D0184CA755164C2570CA
:105840005B1C8B420CD2C75C002F09D02678FF2E40
:10585000EFD1002A19D0FF25104C67550025EDE740
:10586000FEF75EF80024002810D10A490878401C91
:105870000870C0B20949085CFEF7AAF8FEF724F8E0
:1058800004E0002402E0012400E00124204601B0ED
:10589000F0BDC046DA000020190700209C0500205A
:1058A0000648017806480078884202D81F22511A1B
:1058B00000E0C9430818C0B27047C046D8000020B5
:1058C0000B070020F0B581B00E4C20252561012189
:1058D0008E030D4F3E61FEF7E3FA3E60256001B096
:1058E000F0BDC046F0B581B0064C202525600121F1
:1058F0008E03054F3E61FEF7D3FA3E60256001B08E
:10590000F0BDC0461804005018000050002805D40F
:105910001F21084001218140074801607047C046AF
:105920000120C005044908607047C0460120C00638
:10593000014908607047C04600E100E0002805D436
:10594000032102468A430B49511806E00F2101400A
:10595000083903229143064A89188007C00E402265
:105960008240FF23834008689843104308607047D3
:105970001CED00E000E400E0FF20000602490A6898
:1059800082430A607047C04614E400E0FF2000062E
:1059900003490A6882430120800710180860704795
:1059A00018E400E00F21014000090A224243501888
:1059B000C0B2704782B0FFF777FEFDF705F9FEF73A
:1059C00091FAFEF7FFFBFFF713FEFBF7EFF97D20DF
:1059D000C000414D2880FEF7FDF93220FDF7FEFFA3
:1059E0003EA001F0B1F943A001F0AEF949A001F0E9
:1059F000ABF94D4F002038804C4C20804C4E30800D
:105A00004C4908804C490190088000E030BF38467E
:105A100000F08AFD304600F0ABFD474801F0E0F8A9
:105A2000444801F01DF9204600F092F8FFF7C4FE4B
:105A300029880028EAD10029E8D108214048FDF74B
:105A400044FB002811D101213D48FDF73EFB002811
:105A50000BD102213A48FDF738FB002805D104217B
:105A60003748FDF732FB0028D0D026463C462F466B
:105A7000FFF736FA0028FBD00198324908702F4909
:105A80000860FDF7BFFEFDF739FBFDF7BBFFFFF731
:105A9000A1FD01252846FDF7A1FFFDF70FFEFDF74B
:105AA0005FFD30BFFDF710FEFDF760FDFEF71AFA4F
:105AB000FEF788FB24480570244800881F490860C9
:105AC000FFF796FD3D4627463446194EFFF70AFD7F
:105AD0000028FBD09BE7C0469C0600200A0A3553ED
